:020000022000DC
:10300000000001203D32020095320200973202009A
:10301000993202009B3202009D3202000000000043
:103020000000000000000000000000009F320200CD
:10303000A132020000000000A3320200A53202000B
:1030400055590200AB320200E1620200896B0200B6
:10305000C16F0200B3320200195C0200E564020095
:10306000B932020095660200A9660200BF32020072
:10307000C1320200C3320200C5320200C732020070
:10308000C9320200B5360200CD320200CF32020052
:1030900051370200D3320200D5870200D732020036
:1030A000D9320200DB320200BD660200D1660200A6
:1030B000E1320200E3320200A7320200A73202002E
:1030C000E5320200E7320200E9320200EB32020090
:0C30D000ED320200EF320200F13202008B
:1030DC00364937480A1A02D0072291438D463549A2
:1030EC0035480A1A06D00722914381F30988022237
:1030FC0082F3148831483249324A00F045F832489C
:10310C003249334A00F040F832483349334A00F030
:10311C003BF833483349344A00F036F833483449E5
:10312C00344A00F031F834483449354A00F02CF870
:10313C0034483549354A00F027F8354835490022DE
:10314C0000F02DF834483549002200F028F83448B6
:10315C003449091A082903DB00220260043001609B
:10316C00314A90471F482049884205D002680430F4
:10317C0003B4904703BCF7E700208646EC460020DA
:10318C0000212A4A9047FEE7884207D0521A05D000
:10319C00037801300B700131013AF9D17047884244
:1031AC0002D002700130FAE77047000000000120E5
:1031BC0000F80020000001200000012068B302008C
:1031CC00682A0020882A0020F4320200F43202001F
:1031DC0034B0020068B30200682A0020682A00207C
:1031EC00A4B00200A4B00200A4B00200A4B002007B
:1031FC00A4B00200A4B00200A4B00200A4B002006B
:10320C0068B3020088B30200882A0020882A0020B4
:10321C00882A0020603800206038002064380020A4
:10322C0064380020643A00206132020039760200D2
:10323C000F484FF00701884385460E4880470E48DB
:10324C00016841F470010160BFF34F8FBFF36F8FC2
:10325C00FFF73EBF09480A490A4A884207D0521A6A
:10326C0005D0037801300B700131013AF9D1704768
:10327C0000000120B982020088ED00E0A4B0020039
:10328C00682A0020682A0020FEE7FEE7FEE7FEE73A
:10329C00FEE7FEE7FEE7FEE7FEE7FEE7FEE7FEE7FA
:1032AC00FEE7FEE7FEE7FEE7FEE7FEE7FEE7FEE7EA
:1032BC00FEE7FEE7FEE7FEE7FEE7FEE7FEE7FEE7DA
:1032CC00FEE7FEE7FEE7FEE7FEE7FEE7FEE7FEE7CA
:1032DC00FEE7FEE7FEE7FEE7FEE7FEE7FEE7FEE7BA
:0832EC00FEE7FEE7FEE700BF6C
:1032F40000487047583800202DE9F84F1D4FDFF87B
:1033040080801D4E4FF000093B785FFA89F5AB428F
:1033140001D8BDE8F88FD8F800B033681BF8350041
:10332400012404FA00F21A420BEBC50A1ED023EA68
:103334000203336002F064FC104A1BF83530126853
:103344009C40144000FA03F294420FD1DAF804408E
:1033540064B19AF80120551E6A426A41A2EB000E3C
:10336400DEF1000141EB0E011846A04709F1010905
:10337400CAE700BF882A0020B42A0020B02A00200F
:10338400B82A002070B50646124800F0BBFBF8B915
:10339400114A01241368B4401C42154615D1304625
:1033A40002F02EFC0D4B1A6860B122431A602B68A0
:1033B40008481C430A4B2C6000221968BDE8704081
:1033C40000F05ABB22EA0402F0E723EA0404146082
:1033D40070BD00BF902A0020B42A0020B02A00202B
:1033E4008C2A0020042A2DE9F34106460C46154692
:1033F40038D902F057FBB8B11B4B1C4A1E601C4B5A
:103404001C4F1C701C4B1D60002515601B4A013CA1
:103414001560E4B24FF00308FF2C0CD1184A194888
:10342400002100F017FB03E002F010FB0028E3D0BA
:1034340002B0BDE8F08123B206EBC30201A9927881
:103444008DF8052016F833008DF804803A468DF87F
:1034540006508DF8075002F02FFB013CE4B200281F
:10346400DAD0E5E70720E3E7B82A0020B02A0020F5
:10347400882A0020893302008C2A0020B42A0020E4
:10348400FD320200A4B0020070B5084D084E0024BD
:103494002B789C4201D3002070BD3368012113F8BE
:1034A400340002F069FB0134F2E700BF882A0020EF
:1034B400B82A00201FB50021039001AA44F201009C
:1034C400ADF80410029100F003F805B05DF804FBB8
:1034D400084B1B68DB0700D5FFDEBFF34F8F06499F
:1034E400064BCA6802F4E0621343CB60BFF34F8F0C
:1034F40000BFFDE7F0ED00E000ED00E00400FA0598
:1035040049B152B1531E1A4007D1826001608380D1
:10351400C260104670470E2070470920704710B5EE
:103524008468C2688388121B934208D3C26813401C
:103534000268D154C3680133C360002010BD042065
:1035440010BD8268C3689A420AD082688388134097
:103554000268D35C0B70836801338360002070477A
:1035640005207047094A537891780133DBB29942B8
:1035740008BF0023117899421FBF037050781823A5
:1035840003FB002014BF043000207047BC2A002035
:1035940073B5054602A8002400F8014D0E4600F05C
:1035A400A3FB0DF10600FFF7DDFF90B106700A4B97
:1035B4009DF8062045605A709DF8070000F0B8FB9E
:1035C40024B9064B4FF48012C3F80021204602B000
:1035D40070BD0424F0E700BFBC2A002000E100E035
:1035E400204B21491A682F2300BF00BF00BF00BF32
:1035F40000BF00BF00BF00BF8A422FD000BF00BF82
:1036040000BF00BF00BF00BF00BF00BF00BF00BFBE
:1036140000BF00BF00BF00BF00BF00BF00BF00BFAE
:1036240000BF00BF00BF00BF00BF00BF00BF00BF9E
:1036340000BF00BF00BF00BF00BF00BF00BF00BF8E
:1036440000BF00BF00BF00BF00BF00BF00BF00BF7E
:1036540000BF00BF00BF00BF00BF00BF013BC3D11C
:10366400704700BF742A00200024F4000C4B0D485E
:103674004FF4003210B5C3F8802001244FF4803396
:10368400C0F84833C0F808334460FFF7A9FF064B7D
:10369400846000201860FFF7A3FF044B187010BD6E
:1036A40000E100E000100140D82B0020C92B0020CD
:1036B400F8B51F4B1F491B680025C1F84051C1F8DC
:1036C4004451C1F84851C1F84C51C1F80051C1F8F6
:1036D40004514BB3D1F8044517490968641A24F01E
:1036E4007F442F461A68A24209D8A41A15441A7CAA
:1036F400DE691AB11F745A6998699047AEB90F4BC5
:103704000F4A197813788B4205D10133DBB2022BAF
:1037140008BF0023137012780A4B43F822500A4B57
:103724004FF48012C3F80021F8BD3346DAE700BF36
:10373400DC2B002000100140D82B0020D42B0020CB
:10374400D52B0020CC2B002000E100E02DE9F74F21
:103754009C4A9D49137809789C4D994258D001336D
:10376400DBB2022B08BF0023137099491278994BDE
:103774000F6853F822003B1823F07F4300220B60AC
:103784002B6814461646964613B942B12B6006E0E0
:10379400196881422AD902B12B60091A19600127DC
:1037A4002B688D4EDFF83CA201934FF00008002CEB
:1037B40064D02046E469864BD0F804E01A68AEEB86
:1037C400020323F07F41854B9942836800F2B58060
:1037D4000B440360002343608360C3612B680122B0
:1037E4000274002B40F0B2802860E0E7401A0E44D7
:1037F400D968C3F800E0D3F81CC031B1BA1922F07B
:103804007F42DC615A6099601C4663460122BBE733
:1038140000242746C4E7531CB178DBB299423370C5
:103824004FF0180303FB026208BF347013799068E9
:10383400022B1BD0032B11D0012B1FD1017CE9B922
:10384400D3684360136983605369C3609369836178
:10385400634B1B78002BAED04160ACE700232C688F
:103864001A46002C65D14BB12C6007E0D5F800B0A6
:103874005B46D946002B57D1002303743278737802
:103884009342C8D1B8F1000F05D12B68019A9A422E
:1038940001D1002F42D02B68002B72D0D3F80090B6
:1038A400504C4B4BD4F8046518684F4F351A3B788D
:1038B40025F07F4503359BB94FF48033C4F8443376
:1038C400C4F80433494B4FF400324FF00108C3F8F5
:1038D40080211A60C4F80080FFF782FE87F8008018
:1038E400A9452CBF4844401920F07F40C4F8400546
:1038F400D4F804359B1B23F07F43801B033320F053
:103904007F4083420AD9D4F80435C4F84035FFF720
:1039140067FE364B4FF40032C3F80021304B0022CF
:103924001A7003B0BDE8F08F98422DD09946DB6938
:10393400A0E722740123E46993E7A2EB0E0222F0CC
:103944007F429A4234BF9B1A002342E702681968F7
:103954008A420BD88A1A1A60C36145E7521AD96998
:103964009E4661B90260C161D86120E79E4619682C
:103974009142F3D3891A196019467346F2E70B464C
:10398400F5E7FFF773FEC9E748450CD1DBF81C30B7
:103994002B6043B90E490122CAF808200B60104B72
:1039A4001A70FFF71DFEC2690368C9F81C2012B122
:1039B40011680B4413602B689B4518BF4FF0010836
:1039C4005AE700BFD42B0020D52B0020DC2B00208D
:1039D400D82B0020CC2B0020BC2A0020FEFF7F0027
:1039E400C82B002000100140C92B002000E100E09A
:1039F40008B5FFF73BFE114B00200B2218709A709C
:103A040058700F4B18600F4B18700F4B18700F4BFA
:103A14004FF48012E021C3F8802183F814131A6054
:103A240002F18042A2F56F22C2F8080583F811134F
:103A3400074BD2F804251A6008BD00BFBC2A002039
:103A4400DC2B0020D42B0020D52B002000E100E04B
:103A5400D82B0020074B9B784BB132B128B10368B7
:103A6400187C20B959745A617047072070470820A0
:103A7400704700BFBC2A00202DE9F7431E4FBB78D6
:103A840005460E469046ABB3A0B3042930D943692A
:103A940083B3437C02A80024012B00F8014D0CBF22
:103AA4008946A14600F020F90DF10600FFF75AFD02
:103AB400E0B101230370114B4560D3F804358360F2
:103AC4009DF80630C660C0F81090C0F814807B7072
:103AD4009DF8070000F02CF924B9094B4FF480122B
:103AE400C3F80021204603B0BDE8F0830424EFE7C7
:103AF4000724F7E70824F5E7BC2A0020001001405A
:103B040000E100E0064A92783AB130B1426922B14C
:103B1400002202740221FFF73BBD0820704700BF5A
:103B2400BC2A002037B50578012D04D03BD3022DE3
:103B34002BD003B030BD4368244C19782046FFF7DE
:103B4400EEFC98B1224B01908DF800501B6868463A
:103B54009847A168E368A2885B1A9A424FF0010271
:103B640010D31C491C4802F0DFFAE2E7A268E368BC
:103B74009A42EED002AB164A03F8080D12681846B2
:103B84009047E6E7154B1A70D3E7C368114912480A
:103B9400019301228DF8005002F0C6FA0C4B1B6809
:103BA40068469847C5E70E490E48FFF7CAFC28B98E
:103BB40001220B49084802F033FABAE702A80323AA
:103BC40000F8083D024B1B68EBE700BFE42B002024
:103BD400E02B0020082C0020682A0020F42B002071
:103BE400092C0020F82B0020F0B51F46274B89B084
:103BF40006461A600C46002946D08A88244809687B
:103C0400FFF77EFC00283DD1A289A1682148FFF777
:103C140077FC002836D1204D0FCD6C460FC495E8B3
:103C24000F0084E80F0073690693337C1B4A1C4819
:103C34008DF81C70003318BF01238DF81430737C89
:103C4400002B14BF0E2300238DF81530F368029364
:103C5400B36803933368019369467368009302F071
:103C640005F978B90F4B1870336801330AD09DF801
:103C74001D3013B90A4802F01DFB01220A49084805
:103C840002F052FA09B0F0BD0720FBE7E02B002058
:103C9400E42B0020F82B0020A8B00200293B0200EE
:103CA400682A0020F42B0020082C002070B50A4C50
:103CB40001460A482678FFF744FC05464EB1002326
:103CC400012207490748237002F02EFA08B1FFF7D2
:103CD400F1FB284670BD00BFF42B0020E42B00202C
:103CE400082C0020682A002070B5EFF3108672B605
:103CF4000C4A946801239CB993600B4B0B4DD3F889
:103D0400801029401160C3F88050D3F884105160AA
:103D14004FF0FF32C3F88420047006B962B670BD58
:103D24000370FAE70C2C002000E100E0FC06FFBD64
:103D3400084B9A6810B55AB150B9EFF3108272B6B5
:103D440005491C680C605C684C60986002B962B6F6
:103D540010BD00BF0C2C002000E100E037B550E896
:103D6400023F1FFAA3F5C488A54202BFBFF32F8FF9
:103D740000220DE0C48925448489A54228BF2D1B57
:103D8400C3EA054540E80254002CE8D14FF0010293
:103D94008DF803200193019B9DF803200B6002F032
:103DA400FF0322B14B880068184403B030BD1846A5
:103DB400FBE70A884B889A4209D150E8022FC2EAED
:103DC400224240E80223002BF7D101207047002053
:103DD4007047000070B508B10368B3B90D4D0E4BC0
:103DE40014225B1B0024B3FBF2F302FB03F6A6428E
:103DF40001D1002070BD2B5928190BB91434F6E7F2
:103E0400DB6998470028F9D070BDDB69BDE87040D4
:103E1400184700BF682A0020682A002029DF70475D
:103E240028DF704770B503689D6886B004460E4667
:103E34006DB11422002101A806F064F9A36805936A
:103E4400237902962BB1012B0BD001A8A84706B009
:103E540070BD01238DF804302369039363690493CF
:103E6400F3E702238DF80430E3681B03F5E7000051
:103E7400034B187A0122B0FA80F05A744009704753
:103E8400282C002038B5254C237A012B05D0022B91
:103E940042D1022808D0032831D0637C002B37D1CB
:103EA400BDE8384000F042B81D4B1B680022E260B8
:103EB4001A793AB1012AF0D11A6901321A615B699F
:103EC4009A420AE09A6959698D1AB5F5805F94BFE0
:103ED400521902F580529A619142DED102284FF0C4
:103EE400000308BF194623720D4B18BF0D21186833
:103EF400FFF798FF0B490C48FFF75BFFCDE7E3683A
:103F04000133082B01D8E360C7E70023E360E5E74A
:103F1400BDE8384004F032BC38BD00BF282C002076
:103F2400402C00203C2C0020182C002070B5214D82
:103F3400214E2B7A2C463BB920492148FFF70EFF2E
:103F4400306008B9686070BD0223237233681A793F
:103F54004AB1012A1FD018460321FFF763FF00234B
:103F64002372636070BD98695A69D9681D69121A11
:103F7400B2F5805F28BF4FF480529208012A0144B1
:103F840038BF01222844FFF749FF50B11128E2D17C
:103F94000123237270BDD8681A691044FFF740FFEB
:103FA400F3E7237C002BDDD10146BDE870400220FD
:103FB400FFF768BF282C0020402C00203C2C002058
:103FC400182C002000F0FD03012B08D1044B002223
:103FD4005A74421E504250411874FFF7A7BF7047ED
:103FE400282C00200B684A684360934208BF0023D2
:103FF400016008BF43607047436843B10268916839
:1040040052680B449342436004BF002343607047EB
:1040140010B50023012101FA03F404429AB204D139
:104024000133202BF7D14FF6FF72104610BD70B547
:104034009DF81050D0B1C9B1C2B1002430F8146059
:104044009E4210D1012303FA04F4E64300230868D6
:104054003DB1204301339A42086001F10401F6D1D5
:1040640070BD3040F6E70134202CE7D170BD07B5B0
:10407400009313460122FFF7DAFF03B05DF804FB57
:10408400F0B599B100231C46012505FA04F6164241
:104094001EBF00EB430631F81470B78004F101042D
:1040A40018BF0133202CF0D10360F0BD0B46FBE7B1
:1040B40000283ED01F4B204A1B6800BF00BF00BF32
:1040C40000BF00BF00BF00BF00BF93422FD000BF9E
:1040D40000BF00BF00BF00BF00BF00BF00BF00BFE4
:1040E40000BF00BF00BF00BF00BF00BF00BF00BFD4
:1040F40000BF00BF00BF00BF00BF00BF00BF00BFC4
:1041040000BF00BF00BF00BF00BF00BF00BF00BFB3
:1041140000BF00BF00BF00BF00BF00BF00BF00BFA3
:1041240000BF00BF00BF00BF00BF00BF00BF013819
:10413400C3D17047742A00200024F400037813B913
:10414400014B01221A707047B82C00200A4B1B78CF
:10415400032B07D8DFE803F002070A0D4FF0625281
:10416400064B1A6070474FF06452F9E74FF06652FD
:10417400F6E74FF06852F3E7442C0020482C002067
:104184001FB510220021684605F0BCFF0C210B224C
:104194004FF0CC738DE80E0002238DF80C30074AE3
:1041A40007480023694602F0E9FA08B1FFF782F9EB
:1041B400034802F075FB05B05DF804FB41410200C1
:1041C400DCB0020010B50749074C084A09780023FF
:1041D4002370C3B2064802F0C1FC10B92378002B47
:1041E400FCD010BD702A0020B82C0020922C002096
:1041F400DCB0020013B5084A084C1178084A0023C1
:1042040023700093C3B2074802F094FC10B92378DA
:10421400002BFCD002B010BD702A0020B82C002066
:104224009E2C0020DCB00200034B6B221A7002208B
:1042340080225A70FFF7DEBF9E2C00202DE9F04F3C
:104244002DED028BD44D89B080234FF06B080220F2
:104254006B7085F80080FFF7CDFFD048FFF728FF8B
:1042640001240220002685F800806C70FFF7C2FF4D
:104274006C2302202B706E70FFF7BCFFC848FFF759
:1042840017FF382302202B7023276E70FFF7B2FF2D
:1042940002202F706E70FFF7ADFF022085F80080BA
:1042A4006E70FFF7A7FF242302202B704FF06A08DB
:1042B4006E70FFF79FFF02204FF00C0985F8008015
:1042C4006E70FFF797FF022085F80190FFF792FFC9
:1042D40043F69820FFF7ECFE1A2302202B706C7033
:1042E400FFF788FF192302202B706E70FFF782FFFF
:1042F4001B2302202B706E70FFF77CFF1C2302200F
:104304002B706E70FFF776FF4023022085F8008043
:104314006B70FFF76FFF782302206B702F70FFF72D
:1043240069FF49F64040FFF7C3FE02202F706E700C
:10433400FFF760FF722320469A4C2B70FFF75AFF59
:104344000220FFF73FFF237894F80180374648EABC
:1043540003283246B8FBF9F8B246B146B3463346B1
:104364007421B0B2804500F2278197FBF8F604204F
:1043740093FBF8F792FBF8F29BFBF8FB08EE102A8C
:1043840099FBF8F97A4292FBF0F2C2F307216270CA
:10439400CBF1000292FBF0F21312002E9AFBF8F814
:1043A400A370E270C8F1000393FBF0F34FF0020036
:1043B4004FEA232263714FF0130321706970CCBF5D
:1043C400A6F5804606F5804622712B70FFF712FF92
:1043D40014232B70022063786B70FFF70BFF1523F7
:1043E4002B700220A3786B70FFF704FF16232B7049
:1043F4000220E3786B70FFF7FDFE17232B70022079
:1044040023796B70FFF7F6FE18232B700220637973
:104414006B70FFF7EFFE07EE907A9FED637A634BC4
:10442400F8EEE77A0120C7EE876A07EE90BAF8EE55
:10443400E77AC3ED006AC7EE876A07EE908AF8EE62
:10444400E77AC3ED016AC7EE876AC3ED026A772390
:104454002B70FFF7CFFE0220FFF7B4FE237894F809
:104464000180012048EA03287A232B70CDF81480B8
:10447400FFF7C0FE0220FFF7A5FE627827787D23B0
:1044840042EA072701202B700697FFF7B3FE0220AC
:10449400FFF798FE6378217843EA0121002307910E
:1044A4008DF810308DF811308DF8123005A84FF0CA
:1044B400010E50F82320D20744BF04AA02F803E0F7
:1044C4000133032BF5D118EE102A082392FBF3F2E3
:1044D400A8EB020899FBF3F296FBF3F3CB1A9DF8D1
:1044E4001010BA1AC8F3072041EA08081112A17083
:1044F4009DF8111020700A43E2701A1222719DF87F
:104504001220687013436371022077232B7084F8A0
:104514000180FFF76FFE78232B70022063786B70A5
:10452400FFF768FE7A232B700220A3786B70FFF7E5
:1045340061FE7B232B700220E3786B70FFF75AFE39
:104544007D232B70022023796B70FFF753FE7E23AB
:104554002B70022063796B70FFF74CFE07EE909A84
:104564009FED137A134BF8EEE77AB8EEC88A67EE3C
:10457400877A28EE078AC3ED017A07EE906AF8EE8F
:10458400E77A83ED008A67EE877AC3ED027A09B091
:10459400BDEC028BBDE8F08F9E2C0020A0860100AC
:1045A400400D0300922C002000000343802C0020C7
:1045B40000008038502C00200120039302922970BF
:1045C4000191FFF717FE0C20FFF7FCFD94F800E0C3
:1045D4006078029A039B019940EA0E2002FA80F265
:1045E40094F802E0E07840EA0E2009FA80F994F8A1
:1045F40004E0607940EA0E2007FA80F794F806E0B8
:10460400E07940EA0E2003FA80F394F808E0607A37
:1046140040EA0E200BFA80FB94F80AE0E07A40EAC4
:104624000E200AFA80FA01369BE600BFF8B5344C36
:10463400344E6B232370022000236370FFF7DAFDEE
:1046440031480125FFF734FDC8206570FFF7D2FD1E
:104654001A232370022003236370FFF7CBFD192371
:1046640023700220042363701B27FFF7C3FD284631
:104674002770FFF7BFFD2846FFF7A4FD234A3378D0
:104684001278277023F01A0343EAC20302206370EE
:104694001C27FFF7AFFD28462770FFF7ABFD284620
:1046A400FFF790FD1A4A33781278277023F0180325
:1046B40043EAC203022063701D27FFF79BFD2846CF
:1046C4002770FFF797FD2846FFF77CFD33782770A6
:1046D40003F0F00343F0030302206370FFF78AFD45
:1046E40037232370022022236370FFF783FD3823CE
:1046F400237065700220BDE8F840FFF77BBD00BF62
:104704009E2C0020922C0020A0860100452C002025
:10471400442C00201FB5FFF733FD194B194C1A48E0
:10472400029375221A7002228DF80420174A03940A
:1047340012788DF8052001228DF806208DF80720C7
:1047440001A9002202F0BCF818B9114A1378002B11
:10475400FCD02378712B0ED1FFF766FDFFF76EFDB9
:104764004FF0A0434FF40002C3F80C250948FFF7AB
:104774009FFCFFF75BFFFFF7E9FC04B010BD00BF2F
:104784009E2C0020922C0020DCB00200702A002015
:10479400B82C0020400D03002DE9F047504D514C3A
:1047A4003A2386B001202B70FFF724FD0120FFF788
:1047B40009FD2378DB0740F190803B2301204A4F19
:1047C4002B70FFF717FD0320FFF7FCFC23783B80D9
:1047D40001203C232B70FFF70DFD0320FFF7F2FCB3
:1047E400DFF814A1B7F9002023788AF8003043EAEF
:1047F40002231BB2DFF80481DFF8049198ED007AFC
:104804003A4EA9F8003007EE903AF8EEE77A3D23E5
:1048140067EE877A0120C6ED007A2B70FFF7EAFC79
:104824000320FFF7CFFC23783B8001203E232B702D
:10483400FFF7E0FC0320FFF7C5FCB7F9002023785D
:104844008AF8003043EA02231BB207EE903A98ED4F
:10485400007AA9F80230F8EEE77A3F2367EE877A08
:104864000120C6ED017A2B70FFF7C4FC0320FFF78B
:10487400A9FC23783B80012040232B70FFF7BAFC6E
:104884000320FFF79FFCB7F9002023788AF8003053
:1048940043EA02231BB207EE903A98ED007AA9F896
:1048A4000430F8EEE77A67EE877AC6ED027A17EEFF
:1048B400900A05F075F9CDE90401706805F070F906
:1048C400CDE90201306805F06BF9094ACDE9000130
:1048D4002321084805F0C8FB064806B0BDE8F08768
:1048E4009E2C0020922C00204C2C0020AC2C00206C
:1048F400C8B002005C2C00204E2C0020482C002064
:104904008C2C002019B1012905D00620704702B172
:1049140011700020704712B104301060F9E70720CD
:1049240070478069704708B500F0DAFE0028FBD1B3
:1049340008BD0000F0B51C4B1B68984285B00746C3
:104944000C4603D01124204605B0F0BD856900F063
:10495400C7FE0028F6D194E8070005F10C0686E8A6
:104964000700A2882168A06800F06EFA044640B9E6
:10497400AB6833B9FFF7D7FF0C4B1B78002B18BF7C
:104984000D24AB68002BDED0002CDCD002228DF885
:10499400042001228DF80520AA690296039201A938
:1049A40038469847CFE700BFBC2C0020C02C00201D
:1049B400F0B51C4B1B68984285B007460C4603D0E3
:1049C4001124204605B0F0BD856900F089FE002859
:1049D400F6D194E8070005F10C0686E80700A288E2
:1049E4002168A06800F002FA044640B9AB6833B904
:1049F400FFF799FF0C4B1B78002B18BF0D24AB68F5
:104A0400002BDED0002CDCD002228DF80420012201
:104A14008DF80520AA690296039201A938469847A1
:104A2400CFE700BFBC2C0020C02C0020F0B5134FF2
:104A34003B68984285B0054603D01124204605B052
:104A4400F0BD866900F04CFE0028F6D100F0A4FA0F
:104A5400044600B93860B368002BEFD001228DF80A
:104A64000420221C18BF01228DF805200022029286
:104A7400B269039201A928469847DFE7BC2C0020BD
:104A84002DE9FF410369B3F5007F074688462AD123
:104A9400174D2B684BBB86692860B160B26115491C
:104AA400143000F009FA044640B9B8F1000F16D1E9
:104AB400FFF739FF104B1B788BB10D2400232B60BB
:104AC400B8F1000F0BD08DF8043001220293B369C2
:104AD40003938DF80520B36801A93846984720460A
:104AE40004B0BDE8F0810624F9E71124F7E700BF1C
:104AF400BC2C0020014B0200C02C0020F0B5244A3D
:104B04004378244F137002783D68012A85B0064625
:104B1400AC6923D005D3022A34D00320FEF7CAFCA3
:104B24001AE000F0EDFD036823604FF40073636046
:104B34003B689B699B687BB1737800229B1A18BF02
:104B440001238DF80530A36903938DF804200292A4
:104B5400A36801A92846984705B0F0BDA268002AB9
:104B6400FAD00221003318BF01238DF8053004F177
:104B74000C030293A3698DF80410039301A928463A
:104B84009047E9E7A268002AE6D00321EAE700BFDC
:104B9400C02C0020BC2C002037B50C4C94F8585085
:104BA4000124AC404FF0A045C5F80C4500931346D2
:104BB4000A460146064802F0F1F920B103B0BDE807
:104BC4003040FEF777BC03B030BD00BFC42C0020DA
:104BD400FCB002002DE9F843544FFE8B40F2D5148B
:104BE400A6423C463AD0B6F5EB7F09D2AEB140F2CC
:104BF400C315AE422AD00023E3830320BDE8F88323
:104C0400B6F5EE7F4FF0000109D0B6F5F47FF2D18E
:104C140087F823101970F98343E0BD8AFD82E68A80
:104C2400FF255EB9424A84F8285002230121A2F1EB
:104C34001000FFF7B1FF4FF4F47369E0002684F825
:104C4400285003252684268384F8235044F6206EB6
:104C54004FF0040C94F82350032D0FD0258B95426C
:104C640043D3E38A324A013BE38201210223A2F1C6
:104C74001000FFF791FF4FF4EE7349E0268C0136E4
:104C8400B6B2764526840FD80646002944D010F8DB
:104C9400015BFF2D0ED0FE2D0FD005221A700023CC
:104CA400E3830220BDE8F883022018700023E38325
:104CB400BDE8F8830139C9B2E6E70139C9B29142C6
:104CC400884684F823C028BF90460025454505D36F
:104CD400E568A4F818804544E560BBE7E76816F882
:104CE400019F07F805900135F0E7551BADB2F02D93
:104CF40028BFF025EBB2E2680E480121FFF74CFF14
:104D0400E3682B44E360238B1D44258340F2D513D1
:104D1400E3830120BDE8F883054A10230121A2F1B1
:104D24001000FFF739FF40F2C313F1E7C42C002051
:104D3400FC2C0020EC2C0020F8B52A4B93F82340DF
:104D4400002C4DD146B2002E22DB012583F82350DE
:104D54001D1900F07F0785F828700F0E85F829705B
:104D64000F0C85F82A7040284FEA112785F82B701C
:104D740085F82C101FD048280CBF8721FF211C4424
:104D8400022A84F82D1018D0032A16D0012215E027
:104D9400022583F8235083F82940772583F82A4095
:104DA40083F82B4083F82C40FF2483F82D4083F8AC
:104DB40028500624CCE79521E1E7052283F8242036
:104DC400002EA8BF93F82430074AB8BF01230E333E
:104DD400A2F11000DBB20621FFF7DEFE0020F8BDD1
:104DE4001120F8BDC42C0020FC2C0020154B10B55C
:104DF40093F82240FCB193F82240032C1DD1F2B168
:104E0400042483F822409C7AD860240758BF4902BE
:104E14001961012A9A82DA824FF000048CBF522071
:104E24005120012219699C83FFF786FF48B1FEF7E0
:104E340041FB204610BD082010BD112010BD0720E5
:104E440010BD10BDC42C002038B51A4B154693F87C
:104E5400222042B393F82220032A26D13DB305220F
:104E640083F822209A7AD860140758BF4902002494
:104E7400012D19619D82DD829C8309D119692A461D
:104E84005820FFF759FF08B1FEF714FB002038BD86
:104E940002F00702012A07BF196959200122294695
:104EA40018BFD720EDE7082038BD112038BD0720F2
:104EB40038BD00BFC42C0020F0B5334C94F8222038
:104EC40087B00E4602F0FF03002A57D1002957D0BD
:104ED400C278FF2A54D04178FF2951D00778FF2F98
:104EE4004ED08078FF284BD002F5E0754FF0A04EED
:104EF4004FF0030C84F858204EF825C0012505FA1C
:104F040002F2CEF80825FF228DF80A108DF80B2046
:104F140007218DF80D204FF080628DF808008DF880
:104F24000C10049202A9194A19488DF809708DF8D9
:104F340014308DF8153001F0CBFE08B1FEF7BAFA43
:104F4400A37A84F8225003F0F8036FF3C303A37227
:104F5400FF2384F828300A2300930E4B0C48266064
:104F640000250122A3F1100184F8235002F016F861
:104F740040B1FEF79FFA284607B0F0BD0820FBE7D2
:104F84000720F9E7F8E700BFC42C0020E14F020036
:104F9400FCB00200FC2C002010B50E4C94F822301A
:104FA400A3B194F82230032B12D10B4801F02AFF4D
:104FB40094F858304FF0A04203F5E073002042F813
:104FC400230084F8230084F8220010BD082010BDBB
:104FD400112010BDC42C0020FCB00200F7B5BD4C5C
:104FE4000646E58AC068317C3DB994F8582001230F
:104FF40093404FF0A042C2F8083594F823707B1E0A
:10500400012B56D8766836788A1F4C2ED2B200F11E
:10501400060305D1002A00F0A7820739CAB2C31DCE
:10502400184611460346002900F09C821A78FF2A8C
:1050340000F1010014D0022F37D1012284F823207B
:105044001A7812F0FE0F30D194F82430A24A0E33AD
:10505400DBB20621A2F10A00FFF79EFD03B0F0BD0A
:105064000139C9B2DEE700238DF80430032384F844
:105074002230FFF791FF28B1FEF71CFA02E0022369
:105084008DF8043094F85820012393404FF0A04247
:10509400C2F80835032384F82230236801A898470E
:1050A400DCE70320E8E70023C5E7002284F8232097
:1050B400184694F82230013B042B00F24F82DFE8BB
:1050C40013F005000A004D020D015A01022384F871
:1050D40022300023A383A58B0378B5F50D7F00F060
:1050E4009D822DD840F20F22954200F06882B5F5DA
:1050F400047F09D2002D53D0B5F5037F00F054820C
:105104000023A38306215AE040F21522954200F0C1
:10511400668240F222229542F2D15A076CD413F0EF
:10512400FC0F49D113F0010140F0818002227A2062
:10513400FFF702FE08B1FEF7BDF940F24F2339E054
:1051440040F25D22954200F0818212D840F2492259
:105154009542E4D040F24F229542D1D113F0FC0F96
:105164002AD143785D0642BFA37A43F00803A372B1
:105174005BE240F26722954200F07A8240F26D23AE
:105184009D42BDD101AB1022FFF724FD01287FF61B
:1051940065AF9DF80410002962D00023A3830EE0BC
:1051A400012229464020FFF7C7FD08B1FEF782F926
:1051B4004FF40373A38351E70023A3830421002343
:1051C40094F858208DF80430032384F82230012306
:1051D40093404FF0A0428DF80510C2F8083521B174
:1051E400FFF7DAFE08B1FEF765F94FF040234FF000
:1051F4008042C3F8242550E7A37A012262F3020314
:10520400A372238C01339BB2B3F5FA6F238403D9C1
:105214000023A3830221D2E7022200214120FFF7C9
:105224008BFD08B1FEF746F94FF40D73C2E7238CEA
:1052340001339BB2B3F5FA6F2384E9D8A37A03F060
:105244000703032B0CBF4FF0804100210222E92009
:10525400FFF772FD08B1FEF72DF940F24923A9E7E3
:1052640094F848309B09012B25D001D3022B2FD170
:1052740094F84F3094F8502094F852009B0003EBBC
:10528400921394F84E20920202F4406201331344C4
:1052940094F85120520002F0060202EBD01294F866
:1052A4004D0000F00F0007380244934063604FF450
:1052B4000073238171E794F8513094F8502001333E
:1052C40003EB022394F84F2003EB02439B02EDE728
:1052D4000B46EBE7C42C0020FC2C0020A28B40F2F0
:1052E4009625AA4225D040F29E239A423CD0002A19
:1052F4003DD1037833F0030316D0A28304210322A3
:1053040084F8222000220123A282E28284F823204E
:1053140094F858208DF804308DF8051093404FF020
:10532400A042C2F80835B8E601390130C9B2E383B6
:10533400A58301AB4FF40072FFF74CFC01287FF604
:105344008DAE9DF8041011B10023A383D7E7A38A7F
:10535400012B09D901224C20FFF7EEFC08B1FEF71E
:10536400A9F840F29E2325E70021A183C7E7002383
:10537400A3830621C3E7A38BB3F5387F00F0A28093
:1053840022D840F2BF22934200F07E8140F2CF2225
:10539400934200F0978003BB037813F0FC0F50D0C6
:1053A4000023A38304238DF805300323022284F809
:1053B400223000238DF8042084F82330A382E38272
:1053C40094F858200123A9E740F2063293422BD0E7
:1053D40007D8B3F53A7F00F069810023A38306233D
:1053E400E1E7B3F5477F00F07281B3F54B7FF4D169
:1053F40003461A1A8A42C0F0A88094F82330032B7B
:1054040040F05181238C01339BB244F620629342D5
:1054140023847CD8B04A10230121A2F11000FFF7A5
:10542400BBFB4FF44B73C5E603461A1A914240F294
:10543400468113F8012B002AF7D0002384F8233087
:105444003DE1A37A03F00703012B00F02281A38A34
:10545400012B40F21E81012221695920FFF76CFCC7
:1054640008B1FEF727F840F2BF23A3E60022228307
:105474000422012B84F823204FF0FF028CBFFC236D
:10548400FE2384F82820944A84F8293002231946FC
:10549400A2F11000FFF780FB40F2CF238AE6C0F5AB
:1054A4000075ADB2F02DE6688B4A28BFF0250123C4
:1054B400E9B23044FFF770FB238B1D4425834FF47E
:1054C400387377E6208BB0F5007FE8D3E368824A2F
:1054D40003F50073E36001210323A2F1100084F8B3
:1054E4002330FFF759FB4FF43A7363E60B2B02D0DA
:1054F4000D2B7FF455AF0023A383052353E7238C9F
:1055040001339BB244F620629342238403D90023DF
:10551400A383022347E7704A10230121A2F110005C
:10552400FFF73AFB40F2063344E6FF236A4A84F865
:105534002830FD2384F8293002210323A2F110002E
:10554400FFF72AFB4FF4477334E613F8012B002AC4
:105554003FF44FAF002384F823304EE70320FDF7D8
:10556400A9FF7BE54C2E04D1013B4FF001017FF4F0
:1055740062AD94F82230012B3FF495AD94F82220CB
:105584000123013A8DF80530042A3FF68AAD01A1C2
:1055940051F822F06B5002006B500200A750020039
:1055A4008550020083500200012200214020FFF7B1
:1055B400C3FB08B1FDF77EFF40F20F23FAE513F0B9
:1055C400FC0F7FF4F9AD03224FF4D5714820FFF7A7
:1055D400B3FB08B1FDF76EFF40F21523EAE5580767
:1055E40008D4A27A032161F3020213F0FC0FA27221
:1055F4007FF4E2AD00232384A37A03F00703032B93
:105604000CBF4FF0804100210222E920FFF794FBF8
:1056140008B1FDF74FFF40F22223CBE513F0FC0F56
:105624007FF4CAADDE073FF5ECADA37A03F00703C0
:10563400032B0FD001224FF400715020FFF77CFBA5
:1056440008B1FDF737FF40F25D23B3E513F0FC0F1B
:105654007FF4B2AD214BE360012200214920A282F4
:10566400FFF76AFB08B1FDF725FF40F26723A1E5C8
:1056740033F003037FF4A0AD0139E38340F26D23DB
:105684000130C9B2A3837DE5037813F0FC0F7FF4E6
:1056940087AEA38AE382E28AA38A002A7FF4E6AE75
:1056A400012B3FF642AF0023A3837CE694F83A3003
:1056B40003F01F03052B7FF419AF0023238494F810
:1056C4002330032B3FF41BAF013DE582E3E70023C6
:1056D400238403233FE700BFFC2C00200C2D002073
:1056E400064B93F82220032A05D093F822000030B9
:1056F40018BF012070470020704700BFC42C002051
:10570400044890F82230022B00F1040098BF0020D6
:10571400704700BFC42C0020054A4FF0A043105C22
:10572400D3F8043523FA00F0C04300F001007047B9
:1057340008B10200044B1A5C012393404FF0A042CD
:10574400C2F80C35704700BF08B10200044B1A5C64
:10575400012393404FF0A042C2F80835704700BFC0
:1057640008B1020008B50020FFF7F0FF0120FFF7A1
:10577400EDFF0220FFF7EAFF0320BDE80840FFF732
:10578400E5BF08B50020FFF7D5FF0120FFF7D2FFE2
:105794000220FFF7CFFF0320BDE80840FFF7CABF90
:1057A400074A4FF0A041105CD1F804350122824031
:1057B40022EA03001340C1F80805C1F80C3570470C
:1057C40008B102004FF0A0430322C3F84427C3F8F2
:1057D4004827C3F84C27C3F85027FFF7C3BF00007E
:1057E400054A4FF0A043105CD3F8103523FA00F0BB
:1057F400C04300F00100704704B102000D2809D035
:105804000E2809D00F2809D010280CBF03204FF010
:10581400FF30704700207047012070470220704716
:10582400014B185C704700BF04B1020038B5084C46
:1058340004F108030546002818BF1C4623682BB151
:105844001A6822605B6828469847F7E738BD00BFAE
:10585400282D002008B9FFF7E9BF7047064B012245
:105864001A604FF08042D2F8183413F48033FAD11E
:10587400024A9370704700BF0C000040202D0020A6
:1058840010B50E4C2378B3B96360A360E360236161
:105894000B4B186810F0010002D1072100F086F8C4
:1058A40002F07CFF18B94FF08043C3F818050123B8
:1058B4002370002010BD852010BD00BF202D0020C6
:1058C40000E100E007B502A8002300F8013DFEF75F
:1058D4000BFA074BDA68013ADA60DB680BB9FFF7B9
:1058E400BDFF9DF80700FEF723FA03B05DF804FB43
:1058F400202D0020012813B509D003D303281BD081
:1059040002B010BD104B0122C3F88020F8E702A8B2
:1059140000230E4C00F8013DFEF7E6F923780BB99D
:10592400FFF7AEFFE3689DF807000133E36001234E
:10593400A370FEF7FDF9E3E70721002000F036F835
:10594400FFF7C0FFDCE700BF00E100E0202D0020EE
:10595400134B07B51A686AB1002018601B680093DE
:105964004FF08042009B0123C2F808330D4A537064
:10597400FFF75CFF0C4B1A6872B100221A601B68B7
:105984000193019B4FF080430222C3F80823054B87
:1059940001209870FFF74AFF03B05DF804FB00BFD5
:1059A40000010040202D00200401004000284FEA9F
:1059B4004111BFBF00F00F020E4BC9B29954A8BFEA
:1059C40000F1604300F01F024FEA5010A8BF03F536
:1059D40061434FEA8000A8BFC9B200F16040A8BF8C
:1059E40083F8001300F5614001239340C0F880312F
:1059F4000360704714ED00E000F1804000F5C04002
:105A0400002382B0036003680193019B02B07047D6
:105A1400800000F1A040D0F8003723F44033C0F8F0
:105A24000037D0F8003743EA0141C0F80017704747
:105A3400054B4FF0FF32072843F8202084BF1B1882
:105A440083F84820704700BF342D002010B5134C54
:105A540094F85430FBB9FF21E2180133202B82F86B
:105A64003010F9D10021C8B2FFF7E2FF01310C294F
:105A7400F9D107210620FFF799FF4FF4BE70FFF715
:105A8400BBFF074B4FF00042C3F80423012384F803
:105A94005430002010BD082010BD00BF342D00205C
:105AA40000600040034B93F85400003018BF0120FD
:105AB400704700BF342D0020F0B52E4E331893F9F3
:105AC4003030002B54DACD78002D0BBF082300238F
:105AD4000C240824A34201D10420F0BD56F82370FD
:105AE400013731D137185CB287F8304046F82320AB
:105AF40015B9334483F848008B783BB3830003F132
:105B0400A043D3F8002722F00202C3F80027097843
:105B14002DB3A30003F1804303F5C0430904D3F874
:105B2400102522F4473222F44072C3F810250202F1
:105B3400D3F8104502F4F85201F440310A432243E9
:105B4400C3F810250020F0BD0133C3E74A7800F5FF
:105B5400E0734FF0A047920047F82320D7E7083CB2
:105B6400344494F8502042EA811184F85010E9E753
:105B74000820F0BD342D002010B51F4C231893F9D4
:105B84003020072A18DD224492F848309B09032B61
:105B94000DD14FF0A043D3F81035C34013F0010FDB
:105BA4000CBF02210321BDE81040FFF731BF012BD8
:105BB40014BF03210221F6E7D3B2072B1AD89300AE
:105BC40003F1804303F5C043D3F8100540F001000E
:105BD400C3F8100502F14000800080B2FFF70CFF0B
:105BE40041B154F822302BB1012303FA02F2034BE2
:105BF400C3F8042310BD00BF342D00200060004012
:105C04004FF0A043D3F8103523FA00F000F0010060
:105C1400704700002DE9FF4700245A4A5A4E5B4D55
:105C240001940121A2F5C04052F8043B012B80B23B
:105C340006D1D6F804330B4202D0FFF7DDFE0C4345
:105C4400AA424FEA4101EDD1514B1B68012B0AD105
:105C54004FF4BE70FFF7D0FE4FF0A04344F0004471
:105C6400D3F81035019314F0FF0F38D1002C80F2D3
:105C7400858000230293DFF81C914FF0FF330393D8
:105C840001260024A0464FF0A04709EB080393F92E
:105C94005020531C61D0D2B222F0C005E90804A8F8
:105CA400084402F0070310F804EC06FA03F31EEAB2
:105CB400030F52D009EB050E92099EF930E059F812
:105CC4002EA0BAF1000F26D1032A46D10DF1080CFB
:105CD4001CF801E04EEA030E0CF801E01DE02D4F24
:105CE40001260025344210D0AB0003F1804303F5B4
:105CF400C043D3F81005D3F8101557F8253023B155
:105D0400C1F30141C0F3042098470135082D4FEA3F
:105D14004606E7D1AAE7032AD8D005F5E07110F8C2
:105D24000C0C57F821101842C1F3014105D0022987
:105D340013D1032A0BD1114604E003290DD1032A00
:105D440005D102212846FFF763FE0134E4B2BAF11B
:105D5400000F02D011462846D04708F10108B8F1D7
:105D6400040F92D154B14FF0A043019AD3F81035E7
:105D7400934203D00193029B039382E704B0BDE8EE
:105D8400F08700BF006100400060004020610040D7
:105D94007C610040342D00200023435082B04358DE
:105DA4000193019B02B070470023435082B04358D3
:105DB4000193019B02B070470A4610B54FF48E71EF
:105DC400FFF7EAFF938A91689BB2C95C938A013317
:105DD4009BB29382C0F81C1510BD1FB582688DF864
:105DE400081000238DF800308375019290E80A00B2
:105DF4006846984705B05DF804FB024608B54FF4C1
:105E040092710068FFF7C8FF4FF484711068FFF7C0
:105E1400C3FF136801221A6008BD10B5CB7D0A4682
:105E24004FF4847123B9FFF7B7FFD0F8183510BDCC
:105E3400FFF7B2FF537ED168D0F81805C854537EDB
:105E44000133DBB2537610BD1FB501238DF800304A
:105E5400054B8DF808000191684693E806009047C9
:105E640005B05DF804FB00BF8C2D00202DE9F04146
:105E74000679684D76019446AA190446D07E002816
:105E840040F0C580086891F81DE082F81CE0431CCE
:105E94000AD04FF0A04201238340C2F8083500F530
:105EA400E073032742F823704A68571C1FBF02F5AA
:105EB400E0734FF0A0474FF0000847F823802368B1
:105EC400D1F818800F7DC3F82485BEF1000F66D089
:105ED40091F815E0012F47EA0E0EC3F86CE5C3F8FC
:105EE4000C05C3F814251DD18A68501C1FBF02F588
:105EF400E0704FF0A0474FF0000E47F820E0C8686C
:105F0400471C0BD04FF0A04E01278740CEF80875F0
:105F140000F5E0774FF003084EF82780C3F8080532
:105F2400C3F81025AB190A69C3F804C0AA51BCF11F
:105F3400000F20D01B7F0A7F002B58D04FF48871AC
:105F44002068FFF731FF4FF490712068FFF72CFFB2
:105F54004FF492712068FFF727FF20684FF4A27175
:105F6400FFF722FF20682C4BC0F80433114640F39E
:105F74000730FFF71BFD237905EB43131B7F002B31
:105F840042D023680822C3F80025AB19002001225F
:105F9400D87518769875DA769876BDE8F08191F818
:105FA4001580012F47EA0808C3F86C85C3F8142547
:105FB400C3F80C05B6D18F68781C1EBF4FF0A04003
:105FC40007F5E07240F822E0C868421C0AD04FF09E
:105FD400A0480122824000F5E07EC8F8082503228B
:105FE40048F82E20C3F80805C3F810759AE74FF453
:105FF4008E712068FFF7D0FE20684FF4A271FFF77E
:10600400CBFE2068054BAFE723680422BBE70820DA
:10601400BDE8F0818C2D00201003020080000200F6
:106024002DE9F04107793F4D4FEA471805EB080386
:1060340006461B7F23B101F06040B0F1005F6BD1D5
:1060440005EB0804A07D002869D1A275A160A08297
:106054004BB34FF490713068FFF7A6FE4FF4AC7168
:106064003068FFF7A1FE3368A27DA168C3F8441528
:10607400C3F8482501229A60626812B10020BDE885
:10608400F081D3F82011D3F8582119B9002AF8D097
:106094000F2003E0002A14BF0F20002045440023F2
:1060A400AB75BDE8F0814FF48E713068FFF774FE74
:1060B4003068012305EB471783603946FFF77CFE00
:1060C4006368002BDAD1A17DA38A9BB28B4204F1D1
:1060D400140213D2306804E0A38A9BB2B3F5807F24
:1060E40003D0D0F81C31002BF6D0A38A9BB2B3F5B1
:1060F400807FE9D03946FFF75FFEE4E713889BB25F
:10610400B3F5807FC4D03368D3F81C21002AFBD0B8
:106114000122DA600020C1E71020BDE8F0811120DF
:10612400BDE8F0818C2D00202DE9F84390F804900F
:106134005F4E4FEA4917F3198846197F054621B186
:1061440008F06043B3F1005F6CD1F3195C682CB1C3
:106154002B68A9B14FF40470C3F80803F319D87D70
:10616400002865D0187E002800F09A802CB12B6896
:1061740049B14FF40472C3F804231120BDE8F88335
:106184004FF40170E8E74FF40172F4E7D3F800220A
:1061940042F02002C3F8002267E04FF40472C3F80F
:1061A400042327E09B7E1BB914B92846FFF725FE7C
:1061B40006EB0708D8F8043083BB4FF4A2712868B3
:1061C400FFF7EAFD06EB49192868D0F82431D0F826
:1061D4000821D0F8444182B97CB9002BF4D03E4464
:1061E4000022F2750BBB002C57D1B17E2B68012223
:1061F40091B11A600020BDE8F883002BEFD1002C88
:10620400EDD14946FFF709FE98F8193098F81720A0
:106214009A42D9D82346E2E75A60EBE72B684FF459
:106224000172BCE71020BDE8F8830320BDE8F883C1
:10623400DA75C3F80C80587618760446F319197F7A
:106244000029AFD04FF488712868FFF7ADFD4FF4F3
:10625400A2712868FFF7A8FD2B68C3F83485C3F83A
:106264003825002C92D101221A602A795201B118E2
:106274004968002991D1D3F81041D3F84411D3F8D7
:10628400240114B909B90028F5D000231644984212
:10629400F37514BF0320184639B10F20BDE8F88305
:1062A400C3F810801A760124C8E7BDE8F88300BF5C
:1062B4008C2D002038B50379074C04EB43130546B5
:1062C4001A7F42B99B7E33B9FFF797FD2B7904EB14
:1062D40043140123A37638BD8C2D00207FB5784C60
:1062E400784A237F002B65D0D2F82461002E3FD05A
:1062F4004FF492711046FFF757FD02238DF80030DA
:10630400D2F88034C2F880340393D2F83C358DF847
:106314000830E36801930023E3752376684694E824
:106324000A009847674AD2F8443173B14FF4A27116
:106334001046FFF739FDE37D3BB10023E375D2F846
:106344003C05E168C0B2FFF77FFD5E4AD2F8203118
:1063540063B14FF490711046FFF726FDA37D2BB176
:10636400D2F84C155648C9B2FFF737FD04B070BDDA
:10637400D2F81031002BD5D010464FF48871FFF7B6
:1063840013FDD2F83C35E07DDBB29842CAD1237EBE
:106394006BB1D2F80052E16825F02005C2F8005232
:1063A400E3752369E3602676FFF74EFDBAE7E375EC
:1063B400E168F9E7D2F80433990549D5D2F82431D4
:1063C400002B45D04FF492711046FFF7E5FC4FF4D3
:1063D4000173C2F80833A37E0BB901235360394A11
:1063E40002238DF80030D2F88034C2F8803403934D
:1063F400E37D8DF80830E36801930023E375237689
:10640400684694E80A0098472E48D0F81C313BB1FE
:10641400A38AA27D9BB29A4246D92949FFF7CCFCB4
:10642400284AD2F84431002BA0D04FF4A271104670
:10643400FFF7B2FCA37E0BB101231360E37D002BB5
:1064440094D00023607EE168E375FFF7FDFC8DE7DF
:106454001C4DD5F804335B07D6D5D5F80831002B8D
:10646400D2D017492846FFF7D8FC637EE27D9A42D2
:10647400CAD1237E53B1E3752369E168E360002345
:10648400607E23766376FFF7DFFCBDE7A37E0BB95E
:1064940001236B600B4BE1684FF40172C3F80823CE
:1064A4000023E375607EEEE74FF48E71FFF774FC12
:1064B400A17D0029B4D00248FFF78FFCB0E700BFEC
:1064C4008C2D00200020004000F1804000F5E040C9
:1064D4000023036082B003680193019B02B07047FC
:1064E400F0B5504B504C1B6885B0DBB14FF4827053
:1064F400FFF7EAFF94F82E2012B194F82F30A3B1DD
:10650400636802932389ADF80C30E36800218DF8A9
:106514000410002B45D12374236801A89847002355
:1065240084F82F3094F82E300BB3404B1B68F3B132
:106534004FF48070FFF7C8FF94F82D10638B8AB274
:10654400934239D99B1A22899BB292B26383D31A9C
:10655400626802EB4303364AC2F82C36C2F830169E
:106564004FF48270FFF7B0FF324B01221A60324BB6
:106574001B685BB14FF48870FFF7A6FF002304A8E3
:106584002374022300F80C3D236898472B4B1B68A7
:10659400EBB14FF48A70FFF797FF0023237405B023
:1065A400F0BD208B608363602081E160002AB3D159
:1065B4001F4B01221A60AFE7D2D1E368012284F8AD
:1065C4002F2013B100226283C5E76383C8E766699D
:1065D4004FF000470125002EE1D0B6FA86F227FAE3
:1065E40002F3920002F58C7226EA030602F180435C
:1065F40003F5E0431B68002BEDD01046FFF764FF62
:10660400A2F58C72D30882F00402C2F380028DF8E2
:1066140008308DF804508DF80920236801A89847A4
:10662400D9E700BF04710040AC2D00200071004088
:10663400007000400470004010710040147100406C
:106644002DE9F347002406460F46904600F5A07551
:106654004FF48039A246444502D102B0BDE8F08728
:1066640004F150002B68800080B26BB1D6F804337B
:1066740009FA04F21A4207D0C5F800A02B68019366
:10668400019B79683B68984701340435E3E70000CF
:10669400042202490248FFF7D3BF00BFDC2D0020CB
:1066A40000900040042202490248FFF7C9BF00BF1E
:1066B400E82D002000A00040062202490248FFF70E
:1066C400BFBF00BFF42D002000A0014006220249F4
:1066D4000248FFF7B5BF00BF002E002000B0014004
:1066E4000023435082B043580193019B02B070478A
:1066F400204B21491A68042300BF00BF00BF00BF1C
:1067040000BF00BF00BF00BF8A422FD000BF00BF40
:1067140000BF00BF00BF00BF00BF00BF00BF00BF7D
:1067240000BF00BF00BF00BF00BF00BF00BF00BF6D
:1067340000BF00BF00BF00BF00BF00BF00BF00BF5D
:1067440000BF00BF00BF00BF00BF00BF00BF00BF4D
:1067540000BF00BF00BF00BF00BF00BF00BF00BF3D
:1067640000BF00BF00BF00BF00BF00BF013BC3D1DB
:10677400704700BF742A00200024F4002DE9F84378
:1067840090F80490454F282606FB09F60C46B919E3
:1067940091F82250002D7ED14B60A37B81F82730E5
:1067A400637B8D60BA5181F8255081F82450BBB3C6
:1067B40026686168B2008B0002F1A04203F1A04395
:1067C40040F20C6E4FF00108C2F800E7C3F800E78E
:1067D40008FA06FE4FF0A04608FA01F1C6F808E5EB
:1067E400C6F8081540F20D61C2F80017C3F8001787
:1067F400FFF77EFFD6F81025636822FA03F3DB0760
:1068040037D56DB1636801254FF0A04605FA03F34F
:10681400C6F80C35FFF76CFF63689D40C6F8085551
:1068240022684FF0A04102F5E07340F20C6541F894
:106834002350636803F5E07641F826500068C0F8F9
:106844000825C0F80C35A368C0F82435282303FBB9
:1068540009F3FB5823B1217B40F30730FFF7A6F877
:10686400282303FB0977012387F822300020BDE8A1
:10687400F883236808FA03F3C6F80C35FFF738FFEA
:10688400236808FA03F3C6F808350135FFF730FF2B
:10689400092DAFD1B6E70820BDE8F8830C2E0020FF
:1068A400026803790621C2F80015044A282101FB75
:1068B4000323022283F82220704700BF0C2E0020FD
:1068C4004B6803F06043B3F1005F2DE9F0410D46DE
:1068D400904603D010221046BDE8F0810468077981
:1068E400924E4FF0FF33C4F80833282303FB0763A9
:1068F40093F8242022B19B68C4F804331122EAE7F8
:1069040018F0140F0CBF0122002283F8242007C9B9
:1069140003F10C0E8EE80700C8F3001283F825205B
:106924006B78C4F888354FF482712046FFF7D8FE9F
:106934004FF492712046FFF7D3FE18F0010318BFFD
:106944000123C4F8503518F0020318BF0123C4F81A
:1069540040352B78032B00F2C780DFE803F086AFC5
:106964006A02AB6803F06043B3F1005FB2D14FF445
:106974008073C4F80032AB786A68C4F844254FF4D5
:10698400A871C4F848352046FFF7AAFE4FF4B07149
:106994002046FFF7A5FE4FF4A4712046FFF7A0FEA2
:1069A40001232362A360D4F85031002BFBD04FF4B1
:1069B400A8712046FFF794FEEB78AA68C4F8442532
:1069C400C4F848355A4A282303FB07639A604FF4F6
:1069D40082730821002218F0080F04D128780328B4
:1069E4001CBF012060502821794370187158002978
:1069F4007FD1012523441968002900F087802821CC
:106A0400D4F8C434C4F8C43401FB0766002186F802
:106A14002410002B3FF45FAF13F0020F48F2012261
:106A240008BF032213F0040F48F2022318BF1A46CA
:106A340051E7AB786A68C4F84425C4F84835AB68B4
:106A440003F06042B2F1005F7FF444AFEA78C4F827
:106A540034354FF48453C4F83825C4F8003228235D
:106A640003FB076340F20222B0E7AB786A68C4F81C
:106A7400442518F0200FC4F848354FF0280311D0EE
:106A840003FB07634FF48072C4F80022284A9A601B
:106A94004FF4A4712046FFF723FE4FF4A4730122A0
:106AA400226296E74FF4007203FB0763C4F80022E6
:106AB40040F202229A604FF48273F0E7AB786A687E
:106AC400C4F83425C4F838354FF48053C4F8003280
:106AD400282303FB076340F202229A600123236206
:106AE40000214FF4827375E74FF482730821072263
:106AF40071E718F0040F1CBF4FF400738360282360
:106B040003FB0766B368C4F80433E4E6D4F824113D
:106B140000293FF470AF4FF492712046FFF7E0FD77
:106B240025624FF48273656164E700BF0C2E002078
:106B3400000204001FB5002401948DF806309DF86E
:106B440018300292A3428DF8051014BF2022224669
:106B540001A90394FFF7B4FE04B010BD30B585B0AD
:106B64000024019402928DF805100125224601A902
:106B740003948DF804508DF80630FFF7A1FE05B09C
:106B840030BD000030B54F4A4F4CD2F8243185B0A7
:106B94001546A3B14FF492711046FFF7A1FDD2F848
:106BA400043163B9A368C2F808330223A360A3685D
:106BB400C2F8043301231362536105B030BDD5F824
:106BC4000431002B4ED04FF482713E48FFF788FD0C
:106BD4003E4B93E8070004AB03E9070094F8233025
:106BE4009BB1227B012A0CBFD5F83C35D5F84C3536
:106BF400DBB28DF80630334B022A0CBFD3F83C3598
:106C0400D3F84C35DBB28DF807304FF4B0712D4812
:106C1400FFF766FD4FF4AE712A48FFF761FD94F863
:106C2400253013B194F8233043B1264B0022C3F826
:106C34000022A2604FF0FF32C3F80823214AD2F8A1
:106C4400C434C2F8C4349A0737D501238DF8003010
:106C540094F825300BB984F82430236861686846B9
:106C64009847AAE74FF4A4711648FFF739FD237B30
:106C74008BB9164B93E8070004AB03E9070094F8BB
:106C84002530002BDAD1C5F80032A3604FF0FF3372
:106C9400C5F80833D2E74FF40073C5F8003240F268
:106CA4000223A3604FF0FF33C5F80833A368C5F887
:106CB40004330123AB602B627FE713F0040318BF96
:106CC4000223C3E7003000400C2E0020182E0020C1
:106CD4002DE9F04745794A4E24246C43371997F837
:106CE4001CE0BEF1000F40F0888032517B600F78C9
:106CF40091F80CE04FF0A0440123BB40BEF1010F1A
:106D040094BFC4F80C35C4F8083591F800804FF0EE
:106D1400A04708F5E073012447F823404B78FF2B84
:106D24001FBF9C40C7F80C4503F5E0744FF0030CFB
:106D340018BF47F824C08F7808BF4FF0FF33FF2FE8
:106D44001FBF4FF0A04407F5E07C4FF00C0944F856
:106D54002C90CC7808BF4FF0FF37FF2C0DD04FF0AC
:106D6400A0494FF0010C0CFA04FCC9F808C504F55D
:106D7400E07C4FF0030A49F82CA04FF0240C0CFBE4
:106D8400056C8CF81E400468C4F80885C4F80C35FA
:106D94008B68C4F81075C4F824354B7B003318BFD6
:106DA4000123BEF1020F22D0BEF1030F22D0BEF1A7
:106DB400010F01D143F00203C4F854354B79C4F8F0
:106DC400C03512B14023C4F804330723C4F8003596
:106DD40022B1097990F90400FEF7E8FD242303FBAE
:106DE40005650020012368772B77BDE8F08743F021
:106DF4000403E1E743F00603DEE70820BDE8F0877B
:106E0400342E002073B543791A4A24215943565825
:106E14005EB190F9041001254C0901F01F0105FA37
:106E240001F12034144D45F8241001689EB14FF04F
:106E3400FF30C1F80803242000FB0320407F50B139
:106E440001204861D1F804010028FBD0242000FB74
:106E54000320002444770020C1F81801D1F8184118
:106E64000194019CC1F80005242101FB0323187738
:106E740002B070BD342E002000E100E02DE9F7439C
:106E84004779454E24237B431446F2180D46517F1F
:106E9400804600297DD156F803C0BCF1000F04D010
:106EA40014F0140F04BF0123537795E80F004FF03B
:106EB400240E0EFB076E0EF10C0989E80F009EF8F4
:106EC40021309EF81E2003F0FC036FF382038EF83A
:106ED4002130FF2A1CBF01234FF0A04128681CBFAA
:106EE4009340C1F80C3520B100F06043B3F1005F6A
:106EF40006D1A96869B101F06043B3F1005F08D01D
:106F0400242303FB076600237377102003B0BDE836
:106F1400F083D8F800302E79C3F84405C3F84865E7
:106F2400287BC3F834150021C3F83805C3F81811B9
:106F3400D3F818110191019914F0010118BF01212E
:106F4400C3F8501514F0020118BF0121C3F840150D
:106F540021075CBF01211961BCF1000F0ED1D3F8E8
:106F640018110029FBD0FF2A06D0012303FA02F2EC
:106F74004FF0A043C3F808250020C7E714F004002D
:106F84004FF0400202D0C3F80823F5E7C3F8042306
:106F9400BCE71120BAE700BF342E00201FB50091D2
:106FA40002938DF804209DF818308DF80C300022DF
:106FB4006946FFF763FF05B05DF804FB4FF040231B
:106FC40007B5D3F81831B3B10C4B0D4800221A6041
:106FD4001B680193019B0B4B997FFF291FBF012263
:106FE4008A404FF0A041C1F8082500225A771A724E
:106FF40059681A68904703B05DF804FB18410040D3
:107004003C2E0020342E00200220FEF7C9BB0000D5
:1070140008B5094B1B7853B10020FEF797FB0120FC
:10702400FEF794FB0320BDE80840FEF78FBBBDE8E4
:107034000840FEF797BB00BF592E0020F8B5764CE8
:10704400237805461BB100232370FFF7E1FF172DBA
:1070540000F28380DFE805F00C13133F5060717B6E
:1070640083888388909494949494BEC2C9D0DADAC5
:10707400FFF7CEFF694B00241C702046F8BD0020AA
:10708400FEF74AFBF8B10020FEF760FB022D0CBFAF
:107094004FF4E1614FF47A61604B1D704FF400408E
:1070A4004FF4FA740025E0FB01454FF47A72002393
:1070B4002046294602F004FF002201465848BDE854
:1070C400F840FCF7D9BCFEF735FB022D0CBFC821F4
:1070D4004FF4C871E0E70020FEF71EFB40B100202A
:1070E400FEF734FB4FF4487103224C4B1A70D5E77A
:1070F400FEF720FBC821F7E70020FEF70DFB30B1B7
:107104000020FEF723FB4FF47A610422EDE7FEF73B
:1071140011FB4FF4C871F8E70020FEF7FDFA48B1FF
:107124000020FEF713FB3D4B05221A7041F69A111D
:107134000022C3E7FEF7FEFAF5E70020FEF730FB76
:10714400364B06221A70002240F6CD41B6E70020E5
:10715400FEF7F0FA0722314B1A7000248DE7012064
:107164002070FEF71DFBEEE701202070FEF718FBF0
:1071740000224FF48041A1E7FEF703FB0C22EAE76B
:107184002848294EFCF7BEFCD5F1110504461CD055
:10719400D8B9012D13D0C8235D434FF4FA700021F0
:1071A4004FF400474FF47A720023C7FB050102F045
:1071B40087FE224601461B48FCF75EFC044602207B
:1071C400FEF7B8FA0123337057E70220FEF7BEFA40
:1071D4000023F8E7FFF71CFF1222BCE7FFF718FFB4
:1071E4000020FEF7A7FA1322B5E7FFF711FF0120ED
:1071F400FEF7A0FA1422AEE7FFF70AFF0020FEF71D
:1072040099FA0120FEF796FA1522A4E7FEF7B9FAD7
:10721400024B1D70A1E700BFAC2E0020D42E00202D
:10722400B02E00205C2E0020592E00202DE9F047BE
:1072340081460D46FEF7E2FA0328044631D8012DB3
:1072440004D022D3022D2ED0BDE8F087194D47007B
:107254003A18A918AE5C4A7852B1DFF8688016482B
:1072640042464FF40041FCF707FC08B988F8009047
:107274003B192B449A78114B1A5596B1104B1B6845
:107284007BB13046BDE8F04718470B48FCF73AFCA1
:10729400084B04EB440213449E78084B1B5DB34235
:1072A400EBD0BDE8F087034B00EB40041C44667848
:1072B400E3E700BF9C2E00207C2E0020D52E00206A
:1072C400D02E0020582E002002210078FFF7AEBFF8
:1072D400044B1B68DB0703D5034B1878FFF7AEBEDE
:1072E400704700BFA82E0020D42E0020FEF778BAE5
:1072F400044B1B6813F0010301D0FFF79FBE18462F
:10730400704700BFA82E00201B4B13B518601B4B01
:10731400044610F00200196017D0194B19480E22C8
:107324001A700F22DA7010229A7111225A720421F3
:1073340040F26662FCF756F838B9FCF7A5F820B9B4
:107344000146114A1148FCF785FBE30703D5019078
:10735400FEF738FA019868B901460D4A0D48FCF762
:1073640079FB38B90C4A0D48012102B0BDE8104040
:10737400FCF770BB02B010BDA82E0020D02E002058
:107384009C2E00200CB10200CD72020030B102002C
:10739400D572020034B102000D7002002CB102005B
:1073A400032812D8012A0BD1012908D100F10E02B9
:1073B400D2B200EB40000C4B1A540020704700225C
:1073C4000129F6D009D3022901D007207047064BC2
:1073D40000EB400018444270EFE7034B00EB400021
:1073E40018448270E9E700BF9C2E002008B5FEF720
:1073F40017FA800000F1A040D0F8003723F440339E
:10740400C0F80037D0F8003743F44033C0F80037F1
:10741400002008BD08B5012202210020FFF7C0FFAB
:1074240008B1072810D1072202210120FFF7B8FF75
:1074340008B1072808D100210A220846FFF7B0FF47
:1074440010B1072808BF002008BD00000388102BD6
:1074540010B502D0112B1ED010BD194C2168B1B942
:1074640001220846FFF79CFF08B1072821D1072213
:1074740002210120FFF794FF08B1072819D1042243
:1074840002210020FFF78CFF08B1072811D12368DF
:107494000133236010BD0A4A1368013B136073B9BA
:1074A400FFF7B8FF58B1074B1B6843B1BDE8104064
:1074B4001847044B1B68002BE9D09847E7E710BD39
:1074C400E02E0020DC2E002008B50020FFF78EFF00
:1074D40008B1062806D10120FFF788FF10B106285D
:1074E40008BF002008BD00000D4B10B518600C4605
:1074F40029B10120FFF7FAFE40B102232370094BA2
:107504001B6853B9BDE81040FFF784BFFFF7EEFED8
:1075140008B10B23F2E72070F1E7002010BD00BF93
:10752400DC2E0020E02E002076DF704732DF70472B
:10753400072808B51FD00A280AD0042807D1132128
:107544004FF6FF70FFF7F0FF30F008030FD108BDCE
:107554000020FFF7CDFE08B1FBF7ACFFFFF7B4FF47
:1075640008B1FBF7A7FFFFF7E1FF0028EFD0BDE864
:107574000840FBF79FBF024800F031FCE4E700BF7E
:10758400DC2F00200378012B73B52CD003D3022BFE
:1075940029D002B070BD164C164D20782844FCF753
:1075A40085FB23780133DBB21D44237015F8012CCD
:1075B4000A2A03D0104A12889A42EAD80D4D0F4E77
:1075C4002378ADF806300DF106022946304600F066
:1075D400F0FF082804D01128F2D008B1FBF76AFFA5
:1075E40000232370D5E74068FBF764FFD1E700BFB1
:1075F400D82F0020E42E0020722A0020C83000205A
:1076040008B5FEF723FA4FF0A0430322C3F860271E
:10761400C3F85C27C3F858274FF08072C3F80825D5
:107624004FF40002C3F808254FF48002C3F808257C
:1076340008BD000030B58BB0FCF7DAF908B1FBF7F0
:1076440039FF194D0FCD04AC0FC495E80300174B57
:10765400174A00934FF4807384E803000193029265
:107664000393144A0723694604A8FCF7BDFA08B13A
:10767400FBF720FF10490320FFF746FE08B1FBF794
:1076840019FF04A90020FFF72FFF08B1FBF712FF31
:10769400FFF7B6FFFDF73EF802F01CFAFDF77CF8A1
:1076A40002F058FAFAE700BF38B10200E4300020D3
:1076B400E431002089750200357502006DDF7047E2
:1076C40072DF704779DF70477DDF704764DF704792
:1076D4002DE9F74F0C9CBDF834B02788002580466F
:1076E4008A4691462E46B8F8002096420BDB35B107
:1076F4002288013AD21B92B2FF2A39D8DA550020E7
:1077040003B0BDE8F08FD8F8042052F826000190A9
:1077140000220DF1030101A8FFF7D8FF0028EFD1E3
:107724009DF803204A4521D12288002D14BF002052
:10773400022002EB09010144594519DC3DB901322B
:1077440092B2228003F802A0228801322280228889
:107754000DF103011A4401A8FFF7B8FF0028CFD1A7
:1077640021889DF803200A44228001250136BAE7C6
:107774000C20C5E72DE9F341089CBDF824501746B9
:107784008DE8300002220646FFF7A2FF48B9102216
:10779400394630460995089402B0BDE8F041FFF738
:1077A40097BF02B0BDE8F0812DE9F04F00231688A1
:1077B400138090F82D3085B007460D46144643B328
:1077C400082E4ED902A8FFF779FF002840F0018166
:1077D40013880822CA54238801339BB21B222380B6
:1077E400CA542088013080B2208006220DF109019C
:1077F400284402F05DFC23889DF8082006339BB2E0
:1078040012F0FE0218BF01222380EA5423880133B8
:107814002380BB78FBB123880433B34221D802A868
:10782400FFF750FF002840F0D48023880322EA5455
:10783400238801339BB219222380EA542388BDF89C
:10784400082001339BB2E9182380EA54120A4A70D3
:10785400238802332380FA78AAB12388D91CB14241
:1078640001D90C20B5E00221E954238801339BB2ED
:1078740001212380E95423880B449BB22380EA54DA
:1078840023880B4423807A68AAB12388D91CB14287
:10789400E7D8022192F90020E954238801339BB2EE
:1078A4000A212380E954238801339BB22380EA54BC
:1078B4002388013323803B89002B7ED13B8A53B13B
:1078C4008DE850002B460722032107F11000FFF733
:1078D40051FF00287DD13B8B53B18DE850002B46DE
:1078E4001522142107F11800FFF744FF002870D176
:1078F4003A6A002A70D1D7F82480B8F1000F2ED04C
:10790400B8F804302188981C8A1C0244B242A8D8D2
:10791400FE28A6D803336B54238801339BB2FF227D
:107924002380EA54238801339BB22380B8F80020D3
:10793400EA54E918120A4A702088023080B2208082
:10794400B8F804205AB1D8F8081000294ED02844B9
:1079540002F0AEFB2388B8F804201344238097F880
:107964002C30002B7DD1387898B33B88012B3DD047
:10797400228802F1020EB6453FF673AF012805D105
:107984007B78023313449E42FFF46BAF023EB61A77
:1079940004A9B6B221F8086D05EB0E00FFF794FEBA
:1079A400B8B93B78022B40F09F80BDF80830B34251
:1079B40040F2B580ADF808609FE08DE850002B469A
:1079C4000622022107F10800FFF7D4FE00283FF445
:1079D40075AF05B0BDE8F08FB4F800E00EF1060312
:1079E400B3423FF63EAF1188052901D80720F0E7DE
:1079F4006FF4486C01EB0C039BB24FF27D3C634582
:107A0400F4D95388052BF1D96FF44860181880B263
:107A14006045EBD94FF6FF70814203D0834201D019
:107A24009942E3D8052305F80E30238801339BB22D
:107A340012212380E954238801339BB223801188C7
:107A4400E954E818090A4170238802339BB2238061
:107A54005288EA54E918120A4A70238802332380B0
:107A640049E7BB6A002BC1D04FF000094FF00C0A64
:107A74004FF0160B97F82C305FFA89F293427FF699
:107A840072AFB96A0AFB02F201EB0208B8F80430DB
:107A9400981CFE283FF6E5AE208803332B54238838
:107AA40001339BB2238005F803B0238801339BB2D2
:107AB40023808A5AEA54E918120A4A70208802304C
:107AC40080B22080B8F804205AB1D8F808100029F0
:107AD4008CD0284402F0ECFA2388B8F8042013442C
:107AE400238009F10109C5E7012B7FF463AF7B789B
:107AF4009E42FFF45FAFADF808300821BDF80830AE
:107B0400FE2B3FF6AEAE22880133AB5422880132FD
:107B140092B22280A95422881344238059E7092170
:107B2400ECE730B593B01F230D46ADF80430ADF843
:107B34000630044628B1C3785B071DD4072013B070
:107B440030BDADF8040065B1EB78002BF6D10DF132
:107B540006020AA92846FFF727FE0028EFD10AAA41
:107B640002E0ADF806502A469DF806309DF8041050
:107B74002046FFF7A5FDE2E701AA02A9FFF714FEDC
:107B84000028DCD102ACDEE773DF704774DF704796
:107B9400F0B5077885B004460D46002F00F0D68076
:107BA400E1700020FCF716F9014620B1012363704F
:107BB400002005B0F0BD04F125060722304602F08E
:107BC400A1FAE38813B1E378012B04D0E37953B12C
:107BD400E378022B07D1D4F8CC30A3B1012284F886
:107BE4002C2008209847334604F12B0113F8012F69
:107BF40012B99942FAD117466B1E032B38D8DFE825
:107C040003F005080B0D84F82C30ECE7A37903B1DD
:107C14004FB9E37903B16FBB237A6BBB637A002B53
:107C24000CBF00250425D4F8CC30E57033B3033DF4
:107C3400012D23D862790AB394F8D420F2B984F8D8
:107C4400D620012284F8D52007209847102200214D
:107C5400684602F057FAE27800238DF800308DF878
:107C64000830042A18D8DFE802F0470D212C4B0015
:107C74000025D8E70225D6E70325D4E7002384F8B6
:107C8400D530E3E70123A3708DF80030002301967B
:107C9400ADF80C30ADF80A30E378002B4ED1D4F8AF
:107CA400CC30002B84D0A078984781E70223A370BE
:107CB40001238DF800302369ADF80C300196E36898
:107CC400E8E76369ADF80A30A369ADF80C3063796D
:107CD400A3B194F8D41089B994F8D63073B10223BF
:107CE4008DF80830042384F8333004F13000FFF7B2
:107CF40018FF0028D0D10523A370CDE70323FBE7A9
:107D0400E369ADF80A30236AADF80C3063799BB1AE
:107D140094F8D41081B994F8D6306BB102238DF85D
:107D24000830042384F8333004F13000FFF7F9FEFF
:107D34000028B1D10623DFE70423DDE794F82410FB
:107D44006846FFF721FF0028A9D032E7082030E772
:107D54000388112B10B50C460AD01B2B1DD0102BF9
:107D640027D1C37B012B24D18388A1F8C83010BD4F
:107D74000022838881F8D420B1F8C8209A4218D10F
:107D84000B79B3B901212046FFF702FF88B1D4F87B
:107D9400D03073B1BDE810401847037A4BB9C978A5
:107DA4000523013191FBF3F303EB8303C91AC9B231
:107DB400E9E710BD0238012810B50C460ED84B78FF
:107DC40063B100234B702046C978FFF7E1FE28B168
:107DD400D4F8D03013B1BDE81040184710BD38B501
:107DE4000446FFF7D3FE012384F8D4300021062390
:107DF40084F8D61084F8333004F13000FFF791FE94
:107E0400054640B9E1782046FFF7C2FE18B1D4F820
:107E1400D03003B19847284638BD0000034B1A8878
:107E240082420CBF18460020704700BF0033002078
:107E3400024B9B6903B11847704700BFE43200202E
:107E440013B50B46497A0F4C024669B9A0686168BC
:107E54001C7A002C18BF01465868FBF70DFE08B1C8
:107E6400FFF7E6FF02B010BD002119726369002B11
:107E7400F8D00121ADF806008DF8041001A8984748
:107E8400F0E700BFE43200208388B3F5FA7F28BF0F
:107E94006FF4F97230B528BF9C1805884A8838BF3A
:107EA400002495420CD84088904209D38A88A24283
:107EB40006D303F2F310904234BF0020012030BDFA
:107EC400002030BD0388112B70B501462ED002D896
:107ED400102B05D070BD122B51D0502B35D070BD56
:107EE400C37B012B4AD14FF6FF70FFF797FF05467E
:107EF40020B90420BDE87040FFF79ABF264A8E8857
:107F04000680002303721368C5F80A300A305368E8
:107F140043601031FFF7B8FF204B6872DB896BBBFD
:107F240029463046BDE87040FFF78ABF8088FFF7D6
:107F340075FF044610B34068FBF7E4FD08B1FFF792
:107F440077FF4FF6FF73238070BD144BC288DB8923
:107F54009A4213D1038A022B10D186883046FFF748
:107F64005DFF054650B101F1120000F09DF80028B4
:107F7400D6D16868FBF7C6FD0028BBD170BD8688E2
:107F84003046FFF74BFF05460028F7D008310A308A
:107F9400FFF77AFF6872C3E714330020E43200204D
:107FA4002DE9F0430388112B95B0064649D01A2BCE
:107FB4004DD0102B66D1354DAA6C6B6C03AF23EA00
:107FC4000202291D3846FCF75BF801244FF0000833
:107FD40005F14409039A631E934204F1010426D374
:107FE400686CB488C043FCF713F84FF6FF739842EB
:107FF40042D0274905EB4000012384802246A1F1A9
:108004004400FCF734F823490123A1F1400022463F
:10801400FCF72DF8F37B20499A1E53425341B28852
:10802400A1F1480015B0BDE8F043FCF720B837F8DB
:1080340014301A48CDF800801D224946FBF7F7FF9B
:10804400C8E7134982880023A1F14400EAE7037AD0
:10805400134982881F2B94BF00230123A1F14C00F4
:10806400FCF705F8337A0F49B2882F2B94BF00230D
:108074000123A1F15000D5E7042015B0BDE8F04379
:10808400FBF718BA15B0BDE8F08300BF1C3300201D
:108094006433002060330020683300202033002044
:1080A4006C33002070330020007800F0010070472A
:1080B40090DF70479EDF7047ADDF704737B5828829
:1080C4000C4692B90388232B00F09D800FD8102B07
:1080D40022D0112B4ED0A37A3BB1E1880020FFF7C8
:1080E400E9FF10B90123A072E37203B030BD3A2B4B
:1080F4004BD0552B65D0242BEDD12369017A6173C4
:10810400002BE8D00092ADF804204DF67A22ADF8A9
:1081140000208DF8041072E0C37B0A790A73012BE6
:108124001ED0022B1FD0E18823898B4205D2002068
:10813400FFF7C0FFC8B90123E372237B627B9A4235
:10814400C9D29BB20022ADF80030ADF80230ADF8D0
:108154000420ADF8062069461046FFF7A9FFBAE7E8
:108164000B88E380DFE74B88FBE7112804BF01237A
:10817400A372E2E7F723CB8017230B81FB230B7356
:108184001B238A72CA724B73A5E74389C988256980
:108194008B4228BF0B46172B38BF1723238165B1A9
:1081A400E17A51B140F67721ADF80010ADF8022024
:1081B400ADF8043069462046A8470023E372A37251
:1081C40089E7C388C988A272172B38BF17238B424B
:1081D40028BF0B4610462381FFF76EFFE27A002A80
:1081E4007FF479AF2369002B3FF475AF40F6772114
:1081F400ADF802202289ADF80010ADF804206946DC
:108204002046984767E7037A097B01928B4228BF8F
:108214000B46ADF80030ADF802309CE7BFF34F8F4A
:108224000549064BCA6802F4E0621343CB60BFF30E
:108234004F8F00BFFDE700BF00ED00E00400FA052A
:10824400094B1B78062B0CD1084B1B681A0708D165
:10825400074B186800F0F000A0F130035842584171
:1082640070470020704700BFE00F00F0E40F00F0FB
:10827400E80F00F00C4B1B78062B10D10B4B1B683E
:108284001A070CD10A4B186800F0F003302B08D001
:1082940000F0E000A0F1400358425841704700202C
:1082A40070470120704700BFE00F00F0E40F00F0BA
:1082B400E80F00F008B5FFF7DDFF28B1834B844ACF
:1082C4001B68C3F304231360FFF7BAFF10B1814B9B
:1082D400814A1A60FFF7CEFF28B1804B804A1B68A1
:1082E400C3F342331360FFF7ABFF20B17D4AD36879
:1082F40023F08073D360FFF7BDFF40B14FF080439C
:108304000022C3F80C21C3F81021C3F83825FFF765
:1083140097FF10B1744B03221A60FFF791FF40B12D
:10832400724B05221A6001229A6700229A603F224A
:108334005A606F4B1B78062B09D16E4B1B681807CC
:1083440005D16D4B1B6803F0F003502B75D0FFF77C
:1083540091FF28B1694B6A4A1B6803F04F0313600D
:10836400FFF788FF48B14FF08043D3F80024D107CA
:1083740044BF6FF00102C3F80024624AD2F8883087
:1083840043F47003C2F88830BFF34F8FBFF36F8F8D
:108394004FF01023D3F80C22D2071ED55A4B0122DA
:1083A400C3F80425D3F80024002AFBD04FF0102290
:1083B400D2F80C3223F00103C2F80C32524B1A46A5
:1083C400D3F800140029FBD00021C3F80415D2F817
:1083D4000034002BFBD0FFF721FFD3F80022002A42
:1083E40003DBD3F80432002B23DA474B0122C3F812
:1083F4000425D3F80024002AFBD04FF010221521C5
:10840400C2F80012D3F80024002AFBD04FF0102346
:108414001522C3F804223C4B1A46D3F80014002951
:10842400FBD00021C3F80415D2F80034002BFBD094
:10843400D1E7364B364A1A6008BD4FF08052354BAF
:10844400D2F80414C3F82015D2F80814C3F824157C
:10845400D2F80C14C3F82815D2F81014C3F82C154C
:10846400D2F81414C3F83015D2F81814C3F834151C
:10847400D2F81C14C3F84015D2F82014C3F84415DC
:10848400D2F82414C3F84815D2F82814C3F84C15AC
:10849400D2F82C14C3F85015D2F83014C3F854157C
:1084A400D2F83414C3F86015D2F83814C3F864153C
:1084B400D2F83C14C3F86815D2F84014C3F86C150C
:1084C400D2F84424C3F8702541E700BF2403001008
:1084D4004035014074C007400DF0ADBA44020010AD
:1084E4003C050040F0ED00E0A005004010560040BF
:1084F400E00F00F0E40F00F0E80F00F05802001065
:10850400E40E004000ED00E000E00140742A002089
:108514000090D00300C00040A6DF704730B50C4681
:1085240085B031B128B10388112B15D003D8102B95
:108534000FD005B030BD502B11D0572BF9D11022DC
:108544000021684601F0DEFD01238DF8003001941E
:1085540015E08388A382ECE74FF6FF73FAE7C3883C
:108564000A8901919A4212D1058A022D0FD1123043
:10857400FFF79AFD30B10123A3758DF80050A3696C
:10858400684614E00323A0758DF80030F7E7A2894C
:108594009A42CED1A369002BCBD000F112020292F1
:1085A400028AADF80C2004A8002200F8102D984788
:1085B400BFE77FB50E4615460446E0B1828A4FF602
:1085C400FF739A4219D0837DBBB12B88F42B16D844
:1085D40000211022684601F095FDA388ADF8003013
:1085E40069460123A08A039602958DF80230FFF7AD
:1085F40093FF04B070BD0E20FBE70820F9E70720C5
:10860400F7E710DF704711DF7047000013B5044629
:1086140009496846FBF7E6FC019808B902B010BDA9
:10862400036841682046984718B16846FBF7E4FCA4
:10863400F2E71120F2E700BF54B1020013B504467B
:1086440007496846FBF7CEFC019B0BB902B010BD8D
:1086540020461A68596890476846FBF7CDFCF3E753
:108664006CB102000C4A92F816335B09012B01D954
:10867400042B08D142F20200FAF71CBF1A6842F434
:1086840080021A607047054B99680029F6D14FF4AF
:1086940080031360704700BF00E100E00C2C002051
:1086A400064B9A6822B11A6822F480021A60704755
:1086B400034B4FF48002C3F8802070470C2C002039
:1086C40000E100E0F7B5154F3C782CBB144E0125B2
:1086D40020463570FFF79AFF11281AD02046FFF77D
:1086E400ADFF104B10491868019001A8FFF789FFEE
:1086F400044670B90D4B307018700D4B3D70E0227C
:1087040083F8162383F81523FFF7ACFF2846FFF7F9
:1087140095FF204603B0F0BD0824FAE7D5330020C6
:10872400D433002050B10200D5340200D6330020E7
:1087340000E100E070B50F4E3378B3B10E4D012067
:108744002870FFF763FF112811D00220FFF776FF8E
:10875400FFF759FF044630B930702870FFF7A0FFC7
:108764000320FFF76BFF204670BD0824FBE70024BD
:10877400F9E700BFD5330020D4330020054B1B7824
:1087840033B1054B1B780BB1FFF7D4BFFFF79ABF8A
:1087940008207047D4330020D5330020014B1878CB
:1087A400704700BFD533002007B508496846FBF77A
:1087B40019FC019B13B903B05DF804FB58681A68EF
:1087C40090476846FBF718FCF3E700BF60B102006E
:1087D400FFF7EABF61DF704730B5104DEBB04FF4DF
:1087E400CE740DF1020103A8ADF80240FFF7F2FFC9
:1087F40070B9294601A8FBF7F5FB029B002BF0D0CA
:1088040003A81A685968904701A8FBF7F5FBF4E739
:10881400052801D0FAF74EFE6BB030BD78B10200E6
:1088240048DF70471FB50D4C01A8FFF7F9FF70B979
:10883400214602A8FBF7D6FB039B002BF4D001983A
:108844001A685968904702A8FBF7D6FBF4E7052895
:1088540001D0FAF72FFE04B010BD00BF84B10200AE
:108864000B78032B09D8054B087A1A680C2300FBF4
:1088740003234A781A7200229A727047D833002070
:1088840020BF704738B5194B1B78834202462BD959
:10889400174D00EB4004A400296808590B1918B3BC
:1088A400597AC90702D4587AC0B238BD596809B98F
:1088B400104959600121997203680F491B68984750
:1088C40028B12B681C44607AEEE75B6898472B68F4
:1088D40023449A7A002AF8D11A7A002AF1D15A7AD2
:1088E40002F0FE025A72ECE7032038BDDC330020AC
:1088F400D83300208588020065880200074B1B7866
:10890400834281BF064B1B6800EB400003EB8000F1
:1089140086BF407AC0B20120704700BFDC3300201C
:10892400D8330020F0B516461B4A1278824285B02F
:108934002ED9002B2CD0194F00EB400084003D6849
:108944002A192D5935B3507AC00723D40293012331
:10895400039193722B6801965B69284698470368D4
:108964009E4202D3012005B0F0BD2B6801A99B688B
:10897400284698470028F5D13B6823449A7A22B9BF
:10898400187A003018BF0120EDE75B689847F3E7D9
:108994000420E8E70320E6E7DC330020D833002096
:1089A400F0B516461E4A1278824285B032D9002BA1
:1089B40030D01C4F00EB400084003D6828192D592D
:1089C400002D29D0427AD20726D4427A520725D4E0
:1089D40002930123039183722B6801965B692846F5
:1089E400984703689E4202D3012005B0F0BD2B686E
:1089F40001A9DB68284698470028F5D13B68234441
:108A04009A7A22B9187A003018BF0120EDE75B6822
:108A14009847F3E70420E8E70320E6E70220E4E7C9
:108A2400DC330020D833002073B5214B1B788342FC
:108A3400144639D901291DD003D3022927D0012096
:108A440016E002AD012300EB400005F8013D194E8C
:108A540084003368185903682A461B690021984723
:108A640008B1112803D19DF80730002BF1D1002063
:108A740002B070BD0F4B00EB40001B6853F82000A0
:108A8400A0B103685B69984703682360EFE7094B6B
:108A940000EB40001B6853F8200038B103685B69A1
:108AA400984743682380E2E70420E1E70320DFE7F7
:108AB400DC330020D8330020024B1860024B1970BD
:108AC400704700BFD8330020DC330020428843784D
