:020000040000FA
:10000000902700204D030000550300005703000017
:10001000590300005B0300005D03000000000000C6
:100020000000000000000000000000005F0300006E
:10003000610300000000000063030000650300008E
:10004000670300006703000055090000F505000084
:100050006703000067030000F5030000670300006A
:1000600067030000670300006703000067030000E8
:1000700067030000670300006703000067030000D8
:1000800067030000D105000067030000670300005C
:1000900041060000670300006703000067030000DB
:1000A00067030000670300006703000067030000A8
:1000B000670300006703000000000000000000006C
:1000C0006703000067030000670300006703000088
:1000D00067030000670300006703000000000000E2
:1000E0000000000000000000000000000000000010
:1000F0000000000000000000000000000000000000
:1001000000000000000000000000000000000000EF
:1001100000000000000000000000000000000000DF
:1001200000000000000000000000000000000000CF
:1001300000000000000000000000000000000000BF
:1001400000000000000000000000000000000000AF
:10015000000000000000000000000000000000009F
:10016000000000000000000000000000000000008F
:10017000000000000000000000000000000000007F
:10018000000000000000000000000000000000006F
:10019000000000000000000000000000000000005F
:1001A000000000000000000000000000000000004F
:1001B000000000000000000000000000000000003F
:1001C000000000000000000000000000000000002F
:1001D000000000000000000000000000000000001F
:1001E000000000000000000000000000000000000F
:1001F00000000000000000000000000000000000FF
:10020000DFF80CD000F0E4F800480047B50F00001C
:100210009027002030B4044654E8000F0D4644E80F
:100220000053002BF8D1156030BC704730B4044641
:1002300054E8000F40EA010544E80053002BF7D1D1
:10024000156030BC704730B4044654E8000F00EA33
:10025000010544E80053002BF7D1156030BC70470E
:1002600030B4044654E8000F80EA010544E8005326
:10027000002BF7D1156030BC704730B4044654E809
:10028000000F00EB010544E80053002BF7D1156087
:1002900030BC704730B4044654E8000FA0EB0105B1
:1002A00044E80053002BF7D1156030BC70470000C4
:1002B00030B4044654E8000F0D4644E80053002BC8
:1002C000F8D1156030BC704730B4044654E8000FD4
:1002D00040EA010544E80053002BF7D1156030BC1B
:1002E000704730B4044654E8000F00EA010544E8C2
:1002F0000053002BF7D1156030BC704730B4044672
:1003000054E8000F80EA010544E80053002BF7D1C0
:10031000156030BC704730B4044654E8000F00EB61
:10032000010544E80053002BF7D1156030BC70473D
:1003300030B4044654E8000FA0EB010544E8005334
:10034000002BF7D1156030BC70470000064880478D
:1003500006480047FEE7FEE7FEE7FEE7FEE7FEE7AA
:10036000FEE7FEE7FEE7FEE74506000001020000AB
:1003700000487047242B000040EA01039B0703D08C
:1003800009E008C9121F08C0042AFAD203E011F8D4
:10039000013B00F8013B521EF9D27047D2B201E096
:1003A00000F8012B491EFBD270470022F6E710B57A
:1003B00013460A4604461946FFF7F0FF204610BDD3
:1003C000421C10F8011B0029FBD1801A7047000065
:1003D000064C074D06E0E06840F0010394E8070092
:1003E00098471034AC42F6D3FFF70EFFB02B000055
:1003F000D02B00002DE9F04700268CB0DFF860918B
:10040000B0464FF48075012437460696284601F021
:1004100013FB38B1D9F80403204203D0284601F079
:1004200001FB26432D1D64007F1CADB2082FEDD3C8
:100430004FF4BE74204601F0FFFA48B1204601F0A7
:10044000F1FA46F0004606AA0121002001F0D6FA92
:10045000444D16F0FF0F15D00127002437420DD070
:1004600009EB8401D1F81005D1F81015C0F3042070
:1004700055F82420C1F3014102B190477F00641C6C
:10048000082CEBD3002E67DA4FF0FF30CDE908805F
:1004900000263446281910F8507F90F9000027F004
:1004A000C008401C44D009A9404600F090FE58B353
:1004B0004FEA9719404600F0A9FB55F820701FB18C
:1004C000B9F1030F03D00FE0B9F1030F30D108A841
:1004D0004FEAD80208F00703815C4FF0010C0CFAD8
:1004E00003FC41EA0C0181544FF0A04101EB88006C
:1004F000D0F8000706A9C0F3014A404600F067FEA5
:1005000018B1BAF1020F03D012E0BAF1030F0FD104
:10051000B9F1030F08D1BAF1020F1BD002214046F6
:1005200001F048FA761CF6B217B149464046B84782
:10053000641C042CAED3002E0ED06A46012100208C
:1005400001F05CFA06990098884205D00690089858
:1005500009909DE70321E2E70CB0BDE8F0870000B9
:1005600000600040C800002000F01F0201219140FF
:100570004009800000F1E020C0F88012704700F0D0
:100580001F02012191404009800000F1E020C0F8E5
:100590000011704700F01F020121914040098000C6
:1005A00000F1E020C0F8001270470000BFF34F8F49
:1005B00005480168054A01F4E06111430160BFF399
:1005C0004F8F00BFFDE700000CED00E00400FA05CE
:1005D00007480021C0F84011C0F84411C0F8481184
:1005E000C0F84C11C0F80011C0F8041102F036B880
:1005F00000100140F8B511480F4D04464FF48C71BE
:1006000001F0C0FD002815D00026C4F81861D4F808
:1006100018010090A87F2C46FF2801D001F0DBF9DB
:1006200066772672D4E9002101B004F10800BDE824
:10063000F0401047F8BD00002001002000300040CD
:1006400001F07EBF2DE9F041B3480023021D01787F
:100650000125101D4FF0805606290BD11478240770
:1006600008D10478C4F30314032C06D0042C04D05E
:10067000052C02D0062907D00EE0B6F82443A74F78
:10068000C4F304243C6002E01478240704D1047805
:10069000C4F30314032C02D0062904D00FE0A14FA9
:1006A0009F4C7C670EE01478240708D10478C4F3CB
:1006B0000314032C06D0042C04D0052C02D00629E8
:1006C00007D00EE0D6F84442974FC4F342343C6062
:1006D00002E01478240704D10478C4F30314032C33
:1006E00002D0062906D011E0904C276827F08077C9
:1006F00027600EE01478240708D10478C4F30314AB
:10070000032C06D0042C04D0052C02D006290AD0D4
:1007100011E04FF08044C4F80C31C4F81031824C21
:10072000241F236002E01478240704D10478C4F362
:100730000314032C02D0062905D00CE07A4F0324C1
:1007400064373C600AE01478240704D10478C4F3C9
:100750000314032C02D006290DD014E0744F052495
:100760003C60734C78342560714C083423603F241E
:100770003F1D3C6002E01478240704D10478C4F3E0
:100780000314052C02D0062957D062E0694C246876
:10079000694F3C60674C241D24683F1D3C60654CDC
:1007A000083424683F1D3C60624C0C3424683F1DB3
:1007B0003C60604C103424683F1D3C605D4C143438
:1007C00024683F1D3C605B4C183424685A4F203726
:1007D0003C60584C1C3424683F1D3C60554C203410
:1007E00024683F1D3C60534C243424683F1D3C600A
:1007F000504C283424683F1D3C604E4C2C342468F7
:100800003F1D3C604B4C303424684B4F40373C60BC
:10081000484C343424683F1D3C60464C38342468CE
:100820003F1D3C60434C3C3424683F1D3C60414CC0
:10083000403424683F1D3C6002E01478240708D14E
:100840000478C4F30314032C06D0042C04D0052C24
:1008500002D0062907D019E0D6F85812374A01F01D
:100860004F01116002E0117809070FD10078C0F341
:100870000310032803D0042801D0052806D13048EE
:100880000168C90702D06FF0010101602748743880
:10089000016841F470010160BFF34F8FBFF36F8FA8
:1008A0004FF01022D2F80C022649C407264811D076
:1008B0000D600468002CFCD0D2F80C4224F0010436
:1008C000C2F80C420268002AFCD00B6001680029C3
:1008D000FCD01AE0D2F80042002C03DBD2F804422C
:1008E000002C14DA0D600468002CFCD01524C2F82A
:1008F00000420568002DFCD0C2F804420268002ABC
:10090000FCD00B6001680029FCD0FFF74FFE1049B6
:100910000E480860BDE8F081E00F00F0403501406E
:100920000DF0ADBA00C007403C050040FCED00E012
:10093000105600400404001020C50040E40E0040A2
:100940000004004004E5014000E401400090D003B1
:10095000100000200448017F04480029024901D00A
:1009600001F091BF01F000BF4401002000200040D1
:1009700002E008C8121F08C1002AFAD17047704768
:10098000002001E001C1121F002AFBD170470000C6
:1009900001F01AFB01F02CF90028FBD1104C0121C9
:1009A000208801EB00400FA101F06EFA10480068AA
:1009B000C00700D000BE2088022101EB00400DA13D
:1009C00001F062FABFF34F8F0948E43801680D4A1D
:1009D00001F4E06111430160BFF34F8F00BFFDE7F9
:1009E000BC000020466174616C206572726F7200F9
:1009F000F0ED00E053797374656D20726573657472
:100A0000000000000400FA050EB500210091CDE9B8
:100A100001106A4644F20100FFF7BAFF0EBD00F074
:100A200003B800F009B8000072B602480168491C1A
:100A3000016070472800002003490868401E0860D4
:100A400000D162B670470000280000202DE9F04177
:100A5000064608680C46411C4FF0A0474FF00105C0
:100A600006D005FA00F1C7F80815206800F098FFD5
:100A70006068411C02D0002100F07FFF30792049DE
:100A800001EB4010A169007F00283068C0F82415F0
:100A900025D0607D227D31681043C1F86C05D4E912
:100AA00000123068C0F80C15C0F8142524E0A068C6
:100AB000411C02D0002100F060FFE068411C05D01D
:100AC0008540C7F80855E06800F06AFFD4E90212D3
:100AD0003068C0F80825C0F81015BDE8F081607DC9
:100AE000217D32680843C2F86C05D4E900123068F1
:100AF000C0F81425C0F80C15207D0128D7D0ECE7EC
:100B00004401002007490B5C4FF0A041D1F80425B7
:100B10000120984020EA0203C1F808351040C1F8CE
:100B20000C057047442A00000249085C012100F0CE
:100B300059BF0000442A00007CB50024084E254619
:100B40000122305D009500231146019500F0D6FE8C
:100B5000641C042CF4D3BDE87C4000F003B8000012
:100B6000442A000010B500242046FFF7DDFF641C76
:100B7000042CF9D310BD00002DE9F041871C0E466E
:100B800001250020FFF74BFF124C20683060D4E9AC
:100B90000001401AA168091ABE1C06E000F0C0F965
:100BA000D4E90001401AA168091A491C8E42F5D8FF
:100BB000A1682068084004EB8000C16841F003018F
:100BC000C1602068384420600020FFF72AFF2846D3
:100BD000BDE8F0817003002030B482680468531CC3
:100BE0008360A154D0E901128A4202D330BC00F0E4
:100BF0008CBD30BC70470000034803C8814201D15E
:100C0000012070470020704770030020024908440B
:100C100090F9300070470000C80000202DE9F05F17
:100C200026484168F1B3DFF898B00E688146DBF8DA
:100C3000004087688078E11B21F07F45ED1CB0B94A
:100C4000DFF880804FF48030C8F84403C8F804030C
:100C50001120FFF789FC1120FFF791FC4FF0010AEA
:100C6000C8F800A02F2000F001FB89F802A0B542CF
:100C700000D23546124BE8193C3320F07F40186013
:100C8000DBF800105A46091B21F07F41001B20F0C1
:100C90007F40C91C81420FD9106818602F2000F0D6
:100CA000E5FA00E004E0BDE8F05F1120FFF772BC58
:100CB000BDE8F05F01F010BBBDE8F09F140000201C
:100CC00004150140001001400E4910B50A784C7817
:100CD0000023A24212D0521CD2B20A70022A00D1C2
:100CE0000B70084A0B780C3252F823200260886897
:100CF000104420F07F408860012010BD0360002078
:100D000010BD0000140000202DE9FC5F0E0083469A
:100D1000DDE90C47C6F1000098469246814600D4B2
:100D20000846012503E000BF90FBFAF06D1C50451A
:100D3000FADAA84500D9454624B1002E01DB780730
:100D400000D5641EB80702D5B8F1000F0AD0F80725
:100D500008D13CB1A54205D220215846641EFFF7B8
:100D60003BFFF6E7002E02DA4E462D2102E078071F
:100D700003D52B215846FFF72FFF07F00300022869
:100D80000BD1B8F1000F08D13CB1A54205D23021FA
:100D90005846641EFFF720FFF6E7CDE900474346BB
:100DA00052463146584601F0E7FDBDE8FC9F000081
:100DB00070B50E460446007918494FF4A27501EB50
:100DC0004010017F2068A1B14FF4887101F0F5F95E
:100DD0004FF49071206801F0F0F94FF4927120689F
:100DE00001F0EBF92946206801F0E7F90C49206889
:100DF00009E04FF48E7101F0CFF92946206801F027
:100E0000CBF908492068C0F80413206800F09BFA69
:100E10003146BDE8704000F07ABA0000440100207D
:100E200010030200800002002DE9F047394E002730
:100E300080463D46DFF8E090D6F804A057E003D0A6
:100E40000446D0F81C8035E099F8002002EB4201FE
:100E5000521CD2B289F8002009EBC10199F8023086
:100E6000091D9A4201D189F8005048680A78044661
:100E7000012A12D0022A02D0032A3BD108E001F055
:100E8000BDFB00B10127257434E00574C06900E0A2
:100E900070680028F9D170602CE0207C50BB886815
:100EA0006060C868A0600869E0604869A061F07887
:100EB00000B165606268B168184B501A20F07F403D
:100EC000984202D2A168084406E0881AA16820F07E
:100ED0007F40814202D9081A206000E025606560E9
:100EE0000120A56020742046E56101F069FBB8F19E
:100EF0000000A4D199F8001099F801008142A3D113
:100F000017B97168514502D00120BDE8F087002073
:100F1000FBE700001400002064010020FFFF7F00B9
:100F200070B588B0214800F0FFF82048001F064641
:100F300000F0FAF81E4DD5E9014105E0C0F3891231
:100F400002EB9050641C044404EA010005EB8000AD
:100F5000C0688207F2D000200DF1080204EA010304
:100F600005EB8303641CDB6842F82030401C022838
:100F7000F4D3029800F00300012808D002280AD117
:100F80000298032101EB905004EB900403E00298D7
:100F9000C0F3831004443046002101AAFFF7A1F9F1
:100FA000002800D06C6008B070BD000088070020E9
:100FB0007003002086B0FFF7BFFD002000F0BEFFE9
:100FC00008B1FFF721FD00F005FE2348032100884A
:100FD00001EB004021A100F057FF244B0DF1040C60
:100FE00007260FCB8CE80F008DF807600A208DF8DC
:100FF000060008208DF8050009208DF804001B4824
:1010000000231B4A01A9083800F0B0F908B1FFF726
:10101000FBFC184C184F0025A560A581A573257011
:10102000144B124808330722D91F0838009600F0E5
:1010300031FA18B1FFF7E8FC00E020BF2078002863
:10104000FBD000BF00F0D4FD0028FBD1FFF75AFD14
:10105000384600F0C5F8DFE7BC00002053504920B7
:101060006578616D706C652E00000000342A000008
:101070008923000000000020400D03002DE9F04707
:10108000C7880446181D16468946B0FBF7F1B0FB29
:10109000F7F207FB12009A193A44D21CB2FBF7F29E
:1010A000DDF820A001E02468491E0029FBD13D1A8B
:1010B0008846B54216D818E0BAF1000F05D02118BD
:1010C00009EB08002A46091D04E0204409EB080149
:1010D0002A46001DFFF750F900202468761BA8441B
:1010E000B74201D9354600E03D46002EE4D1BDE8C7
:1010F000F087000030B5024669B100F04DFF0021D5
:10110000084C0BE001EB410304EB830315685B889B
:10111000AB4202D11160002030BD491C8142F1D3A5
:10112000052030BD8C00002008B501216A46FFF77C
:10113000CBF8009808BD70B5044600252846FFF797
:101140006EFC21686268086890420ED9401E0860F3
:101150000178238AE26801FB0325227A2168101AAC
:10116000C0B20A79824200D208710020FFF759FC10
:10117000284670BD70B505460C460020FFF74FFCB1
:10118000E868298A201AB0FBF1F12A681068431C2C
:1011900013600170BDE870400020FFF742BC10B53D
:1011A00030B1017A42680368891AC9B21A6006E050
:1011B0000E2010BD03681A68541C1C601170491E73
:1011C000C9B2F7D2006800210171084610BDC208FB
:1011D00000F007030120895C984008407047000038
:1011E00000283ED01F49204A096800BF00BF00BF49
:1011F00000BF00BF00BF00BF00BF91422FD000BFA3
:1012000000BF00BF00BF00BF00BF00BF00BF00BFE6
:1012100000BF00BF00BF00BF00BF00BF00BF00BFD6
:1012200000BF00BF00BF00BF00BF00BF00BF00BFC6
:1012300000BF00BF00BF00BF00BF00BF00BF00BFB6
:1012400000BF00BF00BF00BF00BF00BF00BF00BFA6
:1012500000BF00BF00BF00BF00BF00BF00BF01381C
:10126000C3D17047100000200024F40000283ED0B5
:101270001F49204A096800BF00BF00BF00BF00BF70
:1012800000BF00BF00BF91422FD000BF00BF00BF12
:1012900000BF00BF00BF00BF00BF00BF00BF00BF56
:1012A00000BF00BF00BF00BF00BF00BF00BF00BF46
:1012B00000BF00BF00BF00BF00BF00BF00BF00BF36
:1012C00000BF00BF00BF00BF00BF00BF00BF00BF26
:1012D00000BF00BF00BF00BF00BF00BF00BF00BF16
:1012E00000BF00BF00BF00BF00BF0138C3D17047BF
:1012F000100000200024F40000F01F0201219140A2
:101300004009800000F1E020C0F8801170474907D3
:10131000090E002806DA00F00F0202F1E02282F83E
:10132000141D03E000F1E02282F8001400F01F0217
:10133000012191404009800000F1E020C0F88012B6
:10134000C0F800117047000B40B270470121B1EBAB
:10135000507F01D101207047002070470121B1EB7F
:10136000507F01D101207047002070472DE9FC5FBC
:10137000804640790C4600EBC001454800EB8107F0
:10138000387F10B10820BDE8FC9FC7E90023207B0F
:101390004FF0A04B4FF00109012805D8227809FA37
:1013A00002F0CBF80C0502E0207800F014FB4FF0BF
:1013B000000ACDF800A0CDF804A02078534652468C
:1013C000012100F0ADFA65784FF0FF36FF2D07D010
:1013D00009FA05F0CBF80C05284600F0D7FA00E032
:1013E0003546A078FF2809D0002206460123CDF813
:1013F00000A01146CDF804A000F092FAE078FF2892
:1014000004D000F0E8FAE07800F0C0FA98F805009F
:10141000E17800EBC0021E4800EB82008177D8F82B
:1014200000002178C0F80815C0F80C55C0F8106508
:10143000A168C0F82415227B617B01B10121012A3A
:1014400004D0022A05D0032A08D105E041F00201A8
:1014500004E041F0040101E041F00601C0F8541538
:101460006179C0F8C015396811B14021C0F8041382
:101470000721C0F80015386820B1217998F90400D7
:10148000FFF745FF504687F81DA087F81C907AE7C4
:10149000200100201FB5069C00918DF804200293C6
:1014A0008DF80C400022694600F002F804B010BD2F
:1014B000F0B40D4613464179144A01EBC10102EB29
:1014C00081014A7F12B1F0BC112070470C680122E3
:1014D0001CB113F0140F00D14A7795E8D0100C31ED
:1014E00081E8D01011F8154F24F0070401F82149C4
:1014F0008C7FFF2C04D04FF0A046A240C6F80C25EC
:1015000000682A46F0BC00F079BF000020010020EE
:101510002DE9F04105460079164F904607EB40143F
:101520000E46E07E10B10820BDE8F081707F207784
:101530002846FFF78BFA5FEA080060603169216096
:1015400003D0317F2846FFF733FC287907EB4010A2
:10155000007F0028286801D0082100E00421C0F89D
:1015600000150020E0752076A0750121E176A076B7
:10157000DAE70000440100202DE9F0470546007934
:101580003F4E904606EB40140F46207F18B10846A8
:10159000FFF7E4FE30B1284600F074F820B11120C6
:1015A000BDE8F0871020FBE784F81680A7600027CD
:1015B000A78228794FF0010806EB40143E46207FB1
:1015C0000028286825D04FF49079494600F0F5FDB1
:1015D0004FF4AC7A5146286800F0EFFD2868A17DF1
:1015E000A268C0F84425C0F848152868C0F80880EB
:1015F0006068F0B94946286800F0DAFD8046514637
:10160000286800F0D5FD58EA0001F3D058BBA77553
:101610000FE04FF48E7A514600F0BEFD2868C0F806
:1016200008802146286801F053F861684FF4807003
:1016300089B13046B4E75146286800F0A8FD10B9DA
:10164000A08A4845F7D1A08A484505D02146286898
:1016500001F03EF800E08146A08AA17D8842EAD3ED
:10166000A08A484501D10F26D1E75146286800F0ED
:101670008EFD0028F9D02868C0F80C80C7E700006C
:10168000440100200079044901EB4010807D0028CE
:1016900000D00120704700004401002070B50446CE
:1016A00000791149002601EB401520682A7FC0F817
:1016B0000065686888B1207901EB4010007F002840
:1016C000206801D0094901E008498C39C0F80813A5
:1016D0002068FFF738FEFFF70FFE204600F074FD8C
:1016E000EE766E6070BD0000440100201003020021
:1016F0000FB408B50399002904D004AA00926A46E1
:1017000000F00FF801B05DF814FB10B582680446D4
:10171000002A05D0D4E90403216898470020A0607E
:1017200010BD2DE9FC4791460C00804676D014F898
:10173000011B39B125290ED04046FFF74DFA20781C
:101740000028F4D198F80C00002867D04046BDE886
:10175000FC47FFF7DABF0020012221782B291BD09C
:101760002D2902D0302908D102E040F0010001E02B
:1017700040F00200641C002AEFD100252A290ED077
:101780002178A1F130020A2A11D205EB850201EB82
:101790004205641C303DF1E740F00400EAE7D9F867
:1017A00000100B1DC9F800300968641C0D44217835
:1017B00000232E290BD114F8011FA1F130020A2AAF
:1017C00005D203EB830201EB4203303BF3E76C29C4
:1017D0000DD068290BD0692921D00BDC252918D020
:1017E000582931D063290ED0642915D117E014F897
:1017F000011FECE7702969D0732932D075291BD0FD
:10180000782909D120E0D9F80000011DC9F800109D
:1018100001784046FFF7E0F9641C90E76CE0D9F8E6
:1018200000100A1DC9F800200968CDE900500A22FD
:101830004046FFF769FAEFE7D9F800100A1DC9F82A
:10184000002009680A2206E0D9F800100A1DC9F82C
:10185000002009681022CDE90050404601F08CF8C4
:10186000DAE7D9F8001000270A1DC9F800200E6831
:10187000C00705D112E04046761C7F1CFFF7ACF98B
:1018800031780029F7D104E0202140466D1EFFF792
:10189000A3F9BD42C0D9002DF6D1BDE74EB1304607
:1018A000FEF78EFD074604E0202140466D1EFFF73F
:1018B00093F9BD4206D9002DF6D103E04046761CCF
:1018C000FFF78AF931780029F8D1A5E7D9F80000A7
:1018D000011DC9F80010056830214046FFF77CF96A
:1018E00078214046FFF778F908200021CDE9000172
:1018F000034610222946B0E7BDE8FC8770B541EAEF
:101900004201DDE904564FF0A04441EA830141EA77
:10191000052104EB800041EA0641C0F8001770BDC4
:1019200070B541EA4201DDE904564FF0A04441EAB6
:10193000830141EA052104EB800041EA0641C0F839
:10194000001770BD70B541EA4201DDE904564FF061
:10195000A04441EA830141EA052104EB800041EA09
:101960000641C0F8001770BD1CB5002100910B4660
:1019700001220191FFF7E6FF1CBD1CB500220B46BA
:10198000009211460192FFF7DDFF1CBD1CB500213E
:1019900000910B46012201911146FFF7C1FF1CBDCA
:1019A0001CB5002100910B46012201911146FFF761
:1019B000C9FF1CBD4FF0A04202EB8000D0F8002709
:1019C00022F44032C0F80027D0F8002742EA014153
:1019D000C0F8001770474FF0A04201218140C2F8C3
:1019E0000815704701224FF0A043824011B1C3F89F
:1019F00008257047C3F80C257047000018B5084B40
:101A00006C4601441B68009306E000BF54F8203088
:101A1000D3F81035401C08C28142F7D818BD000029
:101A20004C2A0000034908B5084400210160006801
:101A3000009008BD0060004002494058012800D0D5
:101A4000002070470060004030B5124B0146002076
:101A5000D3F81044224609E0157A854205D1401C8E
:101A60000A28F7DB4FF0FF3030BD5268002AF3D16F
:101A7000421CF9D00872D3F810242AB152684A6087
:101A8000D3F81024516030BD0022C3F810144A600E
:101A900030BD000070030020F0B595B01C4615461F
:101AA0000F4608461A9E00F047FB182109A8FEF7CA
:101AB0007CFC0E96CDE909540023082203A9384680
:101AC00000F054FB059806900498ADF81C00002027
:101AD0008DF820000398082600F00300012802D0AA
:101AE00002281DD03CE003983346850AC0F3C200AB
:101AF0008DF81E0003980FA9C0F380008DF81F0019
:101B00000398C0F38314A200384600F02FFB09A805
:101B1000009006AB22460FA9284600F069FA1FE0A4
:101B20000398840DC0F3C2008DF81E000398C0F323
:101B300080008DF81F00082C01D2254600E0082502
:101B400033462A460FA9384600F010FB2E44641B8A
:101B500009AB06AA29460FA800F09AF9002CEAD191
:101B6000384600F0F2FA15B0F0BD7047012000F0E1
:101B7000D3BD000010B50448FFF790FDBDE810404C
:101B8000002000F0C9BD00003000002008B5034A65
:101B900000924023024AFFF77FFF08BD6123000047
:101BA000700200200A4A012902EBC00007D0022976
:101BB00007D0032907D0042907D00020704702204E
:101BC00070470420704700797047407970470000E3
:101BD000D02B000010B5FFF7C9FF04210348FFF721
:101BE00033FF02490120487210BD00003800002078
:101BF0002DE9FE4FFFF700F810B10020BDE8FE8F81
:101C000072480021C0F81814BFF34F8FD0E9014685
:101C100004EA060100EB81014FF000090AE000BF71
:101C2000C1F3891202EB9151641C0C4404EA0601D1
:101C300000EB8101C9688A07F2D000216A4680461C
:101C400004EA060008EB8000641CC06842F821002A
:101C5000491C43460229F3D3009800F003000228F0
:101C600006D0012800984FD0C04380077ED0A8E05E
:101C700000985022810D8A46B2EB905F00D8502127
:101C80000D4665F39F5000900831514800F00BFA63
:101C900007006CD000F050FA4B46082269463846DF
:101CA00000F06AFA04EA0600311A8900091D09F1F8
:101CB000080B8D4221D9454E0C3631B1CAB208EB22
:101CC0008000691A91460C3004E03046EAB20026E2
:101CD00091463146CDB201465B46384600F04CFA9B
:101CE0000BEB090326B12A463146384600F044FA88
:101CF0000AF1030004EB90043BE008EB80015B4633
:101D00002A4638460C31F1E7C0F38310062800D389
:101D10000620009960F38911C1F38310801C0091A3
:101D200081002B4800F0BFF907004AD000F004FA08
:101D30004B4608226946384600F01EFA09F10809A8
:101D400000250DE004EA060008EB80014B46042262
:101D500038460C31641C00F00FFA09F104096D1CBF
:101D60000098C0F38310A842ECD801E00BE028E013
:101D70003FB3D8F81054D8F81804464690B1384606
:101D800000F0E3F91DE0D3F8180400283FF436AF63
:101D900017E0687A012804D12A6828463946126873
:101DA00090476D68002DF4D1384600F0CEF9002040
:101DB000FEF735FED6F8180400B974600020FEF76F
:101DC00030FEFEF719FF80F0010017E770030020D6
:101DD0008C2A00002DE9F84FDFF8A89080468A464B
:101DE000D01C164680086946D9F80870FEF7C4FE74
:101DF00080B3009DAC1C0094D9F8081004EA0700D9
:101E0000091A8C00241DA64209EB800002D8324634
:101E100051460AE0224651460C30FEF7ADFA301B1F
:101E200086B218480AEB040132460C30FEF7A4FAD9
:101E3000681C384009EB80004FEA18423D4009EB2E
:101E40008501C2605FEAC86051F80C0F03D540F00D
:101E5000040002E00CE020F0040068F3C5004FF637
:101E6000C072904366F39F5020F00300801C08600E
:101E700099F81C0402E000BFFFF7BAFE0028FBD16E
:101E8000BDE8F88F7003002000231A4600F010BB55
:101E90002DE9F0470E4680461C46924608293ED85A
:101EA00094F80C90002020731946104600F0E6F9D3
:101EB0000025B54206D218F805201AA12046FFF7E2
:101EC00017FC03E019A12046FFF712FC6D1C082D3A
:101ED000EFD317A12046FFF70BFC0025B54210D227
:101EE00018F80570FEF744FA0068C05D10F03E0F68
:101EF00001D03A4600E02E220EA12046FFF7F8FB63
:101F000003E00DA12046FFF7F3FB6D1C082DE5D380
:101F100001222146504600F093F984F80C90BDE868
:101F2000F0870000202530327800000020202000BB
:101F30007C0000002563000020000000114810B55F
:101F4000FF218160002101604160C0F81814C0F8D1
:101F5000141480F81C140C4800F0F5F800280FD178
:101F60000A480B490B4B401AC108002005E000BF8E
:101F700000EB400223F82200401C8842F8D30020E6
:101F800010BD0000700300208C2A0000F82B000018
:101F9000D02B00008C00002002480349401AC008E2
:101FA00070470000F82B0000D02B000013B56846E6
:101FB000FFF7A0F808B100201CBD0248009950F8B6
:101FC00031001CBDD02B000070B508480125D0F8A9
:101FD000104480F81C5405E0657221682046496869
:101FE00088476468002CF7D170BD000070030020A2
:101FF0002DE9FF4781460C9D00200C462F7B28735E
:10200000984616462946184600F038F9072E42D25F
:10201000DFE806F004090F161F2A36004946284655
:10202000FFF766FB37E0494628462268FFF760FB6A
:1020300031E0D4E9002349462846FFF759FB2AE05E
:10204000A0680090D4E9002349462846FFF750FBDA
:1020500021E0D4E90201CDE90001D4E90023494699
:102060002846FFF745FB16E004F1080007C88DE895
:102070000700D4E9002349462846FFF739FB0AE068
:1020800004F108000FC88DE80F00D4E90023494689
:102090002846FFF72DFB00222946404600F0D0F8E5
:1020A0002F73BDE8FF872DE9F041058A80462D1F7B
:1020B0004819C01CB0FBF5F0C6B24046FFF73BF82C
:1020C000041E19D00020207101206071E5800027D6
:1020D0002546761EC4F800800BE04046FFF72BF83B
:1020E00060B16179491C6171286005467F1CC0F8A8
:1020F0000080B742F1D32046BDE8F081204600F0D1
:1021000002F80020F8E72DE9F041457901466B1E01
:10211000002201E00968521C9A42FBD30F68014675
:10212000002605E038460C68FFF724F82146761CA7
:10213000AE42F7D3BDE8F08108B501216A46001D23
:10214000FEF79BF808BDFFF72AB838B50446001D16
:1021500001216A46FEF79EF8009810F0FF0F04D1A7
:102160002046BDE83840FFF7CEBF38BD38B5012462
:102170000094FEF783FF38BD38B500240094FEF7C5
:102180007DFF38BD4058002800D0012070474058DE
:10219000002800D00120704708B500224250405866
:1021A000009008BDD0F80403084000D0012070471B
:1021B0004058002800D00120704708B50022425046
:1021C0004058009008BD000070B5034600791B49D7
:1021D00001EB40101968027F4FF0FF30002AD1F860
:1021E0000C25D1F81465D1F80855D1F8104504D064
:1021F000C1F80C05C1F8140503E0C1F81405C1F8D5
:102200000C051968C1F80805C1F81005501C02D06A
:102210001046FFF7A9FB701C02D03046FFF7A4FB65
:10222000601C02D02046FFF79FFB681C04D02846A4
:10223000BDE87040FFF798BB70BD0000440100206E
:1022400010B50C46C17949B11AB109A12046FFF772
:102250004FFA2046BDE81040FFF757BA007A002831
:10226000F3D0044804A102682046FFF741FAECE7E6
:102270000D0A0000680000202573000070B50446B8
:10228000C0790D4600281CD1207A50B1A179A088D0
:10229000FFF788FC0B4951F820200BA12846FFF7D7
:1022A00027FAA0880021FFF781FE03460549A0799F
:1022B000143951F820202846BDE8704003A1FFF7EB
:1022C00017BA70BD68000020257300003C25733EDE
:1022D0002025733A2000000070B5012670044FF0ED
:1022E000E0210025C1F88001084C4010C4F84803E3
:1022F000C4F8080366602F20FEF7B8FFA660044C00
:102300002F20A560FEF7B2FFA57070BD0010014040
:102310001400002070B50546C87D0C4600284FF417
:10232000847128460AD0FFF737FFD5F81805627E7A
:10233000E1688854607E401C607670BDFFF72CFF1A
:10234000D5F8180570BD1FB501238DF800308DF844
:1023500008100192D0E90012684690471FBD0000A6
:1023600010B5084C0020D2B22070201DFFF704F9F0
:1023700008B1FEF749FB6078002802D021780029D7
:10238000FAD010BD2C00002070B512490120087051
:10239000114C032511A1208805EB0040FFF774FDC7
:1023A0000C4808300078002813D0208810A105EBD5
:1023B0000040FFF769FD07480830FEF701F882B2D8
:1023C0002088044905EB0040BDE870400831FFF764
:1023D00001BD70BD00000020BC0000205472616E81
:1023E0007366657220636F6D706C657465642E0032
:1023F0002052656365697665643A00002DE9F8430B
:10240000044610681E4615460F464FF0000810B1EE
:10241000FEF79CFFF8B1A86810B1FEF797FFD0B1A6
:1024200028792968C4F84415C4F84805287BA968A8
:10243000C4F83415C4F838054FF48C754046C4F818
:102440001881D4F818110091F2074FF0010107D05C
:10245000C4F8501506E087F81D801020BDE8F88309
:10246000C4F85005B20702D5C4F8401501E0C4F81D
:102470004005300700D42161386848B146F3800038
:10248000401C4FF040000FD0C4F804030020E5E7E3
:1024900029462046FFF776FE0028F9D0B87FFF28AE
:1024A000F4D0FFF798FAF1E7C4F80803EEE700006C
:1024B0002DE9F843214C8846054691461F4669465A
:1024C0001846A668FEF758FB70B30098811C0022DE
:1024D0000AE000BF01EA060C59F8223004EB8C0C2C
:1024E000491C521CCCF80C30BA42F3D30246401CB3
:1024F000304004EB80002B0CC36002EA060004EBC2
:102500008002E80652F80C0F02D540F0040001E00A
:1025100020F0040065F3C50067F3891068F39F207D
:1025200020F00300401C106094F81C0402E000BF7F
:10253000FFF75EFB0028FBD1BDE8F88370030020A5
:102540002DE9F84F1D4C00256846D4E901A6FEF799
:10255000BBFB002738B30023009A61681CE0D1F868
:1025600000C00846944503D9ACEB02020A6015E0AE
:10257000A2EB0C0263440760D0F80CC0C16981462D
:10258000BCF1000F08D006EB030828F07F48C0E933
:10259000018CC9F81C5005460029E0D1284661602D
:1025A000FEF742FC03E02846FEF73EFC10B1504621
:1025B000FEF734FBE770BDE8F88F00001400002040
:1025C0000D4B10B5596831B102680C68A24204D8AD
:1025D000A21A0A60C161586010BD0B4603E00B46A9
:1025E000C969121B21B10C689442F8D3A41A0C607B
:1025F0000260C161D86110BD140000202DE9F041D6
:10260000144E77683D462C4603E0844204D02546AC
:10261000E469002CF9D11BE0D4B1A5420BD1F869D3
:10262000706040B90C49012088600021B160F070F1
:102630002F20FEF71BFE2168E069E86110B10268F7
:10264000114401607068874202D00120BDE8F0812A
:102650000020FBE714000020001001402DE9F041AC
:10266000194D6C68002C2CD0184800270068A96808
:10267000B846401A20F07F462068B0420CD8214668
:10268000361A0744E469087C20B181F81080886913
:1026900049698847002CEFD129786878814206D1B2
:1026A000401CC0B26870022801D185F8018006483C
:1026B00069780C3040F82170BDE8F0411420FDF736
:1026C00069BFBDE8F081000014000020041501403E
:1026D00070B50C4605464FF48E71FFF75DFDA18A7B
:1026E000A068415CA08A401CA082C5F81C1570BD82
:1026F0001FB500228DF800208DF808108168019127
:102700008275D0E90012684690471FBD014901203B
:10271000087070472C00002010B588B004462022B5
:102720000E496846FDF728FE06200090C01F019064
:10273000029003904FF0EB7006900CB1084A00E055
:10274000002269460748FEF7E3FE08B1FEF75CF990
:102750000448001F447008B010BD00006C2A00003F
:102760000D270000300000202DE9FF470C460546EC
:102770004FF40071FFF716FD01274FF40178002692
:1027800018B34FF4927949462846FFF700FDE0B1AF
:1027900049462846FFF700FDC5F80883A07E00B92A
:1027A0006F6002208DF80000D5F88004C5F8800421
:1027B0000390E07D8DF80800E0680190E6752676CC
:1027C000D4E900126846904727E004212846FFF725
:1027D000E9FC10B34FF484712846FFF7D8FCE0B150
:1027E00021462846FFF796FDE07D617E884214D1A0
:1027F000207E38B1617EE268E0752069E06026766F
:10280000667607E0A07E00B96F60C5F80883E675BC
:10281000617EE2682046FFF796FD4FF48E784146D0
:102820002846FFF7B4FC88B1A08AA17D884204D273
:1028300021462846FFF74CFF08E041462846FFF7AF
:10284000ABFCA17D11B12046FFF752FF4FF4A278F7
:1028500041462846FFF79BFC002812D041462846F7
:10286000FFF79AFCA07E00B12F60E07D002808D021
:10287000E675617EE26804B02046BDE8F047FFF7E8
:1028800062BDBDE8FF872DE9FF410C464FF492770A
:1028900005463946FFF78CFC0026C0B1394628466C
:1028A000FFF78BFC02208DF80000D5F88004C5F8F6
:1028B00080040390D5F83C058DF80800E06801908D
:1028C000E6752676D4E900126846904724E04FF476
:1028D000887739462846FFF76BFCE8B13946284629
:1028E000FFF76BFCD5F83C05C1B2E07D884213D1FF
:1028F000207E60B1E268D5F8000220F02000C5F823
:102900000002207EE0752069E060267601E0E67531
:10291000E2682046FFF717FD4FF4A27739462846B4
:10292000FFF746FC68B139462846FFF746FCE07DD4
:1029300038B1E675D5F83C05E268C1B22046FFF72C
:1029400002FD4FF4907631462846FFF731FC00280F
:102950000FD031462846FFF730FCA07D002808D074
:10296000D5F84C0504B0C1B22046BDE8F041FFF7F0
:10297000BFBEBDE8FF8100002DE9F05F8346DDE9C1
:102980000A4A994690460D460846012703E000BFD3
:10299000B0FBF8F07F1C4045FAD2B94500D94F464C
:1029A0005FEACA7012D18CB15FEA8A7002D5B9F1C0
:1029B000000F01D0202607E0302605E031465846BA
:1029C000641EFEF709F90CB1A742F7D35FF00106C8
:1029D000B9F1010F02D9A9F1010903E0B5FBF6F045
:1029E000404502D306FB08F6F2E7DFF83C9000BF53
:1029F000B5FBF6F000FB165519F800105846FEF727
:102A0000EBF8B6FBF8F6002EF2D15FEACA7009D0F7
:102A1000002C07D0A74205D220215846641EFEF79D
:102A2000DBF8F5E7BDE8F09F502A000000300040D9
:102A300003000100FFFFFFFF07FF00000000004050
:102A400000000000111213140D0E0F1000000050B2
:102A500030313233343536373839414243444546D4
:102A60008D1B0000751B00006B1B0000FFFFFFFFAC
:102A7000FFFFFFFFFFFFFFFFFFFFFFFF0000000062
:102A8000000000000000D601070100004C000020FB
:102A9000440000204C000020B0020020180000007C
:102AA0000040404040404040404041414141414061
:102AB0004040404040404040404040404040404016
:102AC00040050202020202020202020202020202A5
:102AD00002202020202020202020200202020202AA
:102AE0000202909090909090101010101010101002
:102AF000101010101010101010101010020202020E
:102B00000202888888888888080808080808080851
:102B1000080808080808080808080808020202024D
:102B200040000000A12A00007761726E696E6700A4
:102B300064656275670000001B5B313B33306D00DC
:102B40001B5B306D000000001B5B313B33316D00BF
:102B50001B5B313B33326D001B5B313B33336D000C
:102B60001B5B313B33346D001B5B313B33356D00F8
:102B70001B5B313B33366D001B5B313B33376D00E4
:102B8000696E666F000000006572726F720000006F
:102B90006770696F746500007370690075617274A5
:102BA0000000000062616C6C6F6300006170700077
:102BB000F82B000000000020C80000007009000091
:102BC000C02C0000C8000020C826000080090000BA
:102BD000902B000000000000982B00000000000077
:102BE0009C2B000000000000A42B0000000000004F
:102BF000AC2B000000000300004E6F72646963009C
:102C000000000000000000000090D0030000000061
:102C100000000000000000000000000000000000B4
:102C20000000000000000000002000400000000044
:102C3000602A00000000000000000000000000000A
:102C40000000000000000000000000000000000084
:102C5000882B0000282B0000802B0000302B000068
:102C6000402B0000382B0000482B0000502B0000A8
:102C7000582B0000602B0000682B0000702B000018
:102C8000782B0000000000000000000000000000A1
:102C90000000000000000000000000000000000034
:102CA0000000000000000000000000000000000024
:102CB0000000000000000000000000000000000014
:0400000500000201F4
:00000001FF
