:10000000000001203D020000950200009702000060
:10001000990200009B0200009D0200000000000009
:100020000000000000000000000000009F0200002F
:10003000A102000000000000A3020000A5020000D1
:10004000A9020000AB0200002D600000594E000024
:10005000B1020000B3020000F5630000B702000027
:10006000B9020000BB020000BD020000BF02000098
:10007000C1020000C3020000C5020000C702000068
:10008000C9020000CB020000CD020000CF02000038
:10009000D1020000D3020000D5020000D702000008
:1000A000D9020000DB020000DD020000DF020000D8
:1000B000E1020000E3020000A7020000A702000026
:1000C000E5020000E7020000E9020000EB02000088
:0C00D000ED020000EF020000F102000051
:1000DC00364937480A1A02D0072291438D463549D2
:1000EC0035480A1A06D00722914381F30988022267
:1000FC0082F3148831483249324A00F045F83248CC
:10010C003249334A00F040F832483349334A00F060
:10011C003BF833483349344A00F036F83348344915
:10012C00344A00F031F834483449354A00F02CF8A0
:10013C0034483549354A00F027F83548354900220E
:10014C0000F02DF834483549002200F028F83448E6
:10015C003449091A082903DB0022026004300160CB
:10016C00314A90471F482049884205D00268043024
:10017C0003B4904703BCF7E700208646EC4600200A
:10018C0000212A4A9047FEE7884207D0521A05D030
:10019C00037801300B700131013AF9D17047884274
:1001AC0002D002700130FAE7704700000000012015
:1001BC0000F80020000001200000012094AF000096
:1001CC003C000020AC000020F4020000F40200000F
:1001DC00409B000094AF00003C0000203C0000203D
:1001EC00A49B0000A49B0000A49B0000A49B000007
:1001FC00A49B0000A49B0000A49B0000A49B0000F7
:10020C0094AF000004B00000AC000020AC00002053
:10021C00AC000020CA0B0020CC0B0020CC0B002023
:10022C00CC0B0020CC0D0020610200009D6A000068
:10023C000F484FF00701884385460E4880470E480B
:10024C00016841F470010160BFF34F8FBFF36F8FF2
:10025C00FFF73EBF09480A490A4A884207D0521A9A
:10026C0005D0037801300B700131013AF9D1704798
:10027C0000000120E993000088ED00E0689B00007D
:10028C00000000203C000020FEE7FEE7FEE7FEE752
:10029C00FEE7FEE7FEE7FEE7FEE7FEE7FEE7FEE72A
:1002AC00FEE7FEE7FEE7FEE7FEE7FEE7FEE7FEE71A
:1002BC00FEE7FEE7FEE7FEE7FEE7FEE7FEE7FEE70A
:1002CC00FEE7FEE7FEE7FEE7FEE7FEE7FEE7FEE7FA
:1002DC00FEE7FEE7FEE7FEE7FEE7FEE7FEE7FEE7EA
:0802EC00FEE7FEE7FEE700BF9C
:1002F40000B5A1B00590049103920293049803F011
:100304008AFF039B1593029B1693002317930023E4
:100314008DF8603000231993229B1A9300231F93B6
:100324000FA91F9B0822049804F030F808231F9398
:10033400119B1293109B9BB2ADF84C3000238DF8A7
:1003440050309DF83C3003F00303DBB2012B32D173
:100354000F9BC3F395231D939DF83C30C3F3C20355
:10036400DBB28DF84E309DF83C30C3F38003DBB232
:10037400002B14BF01230023DBB28DF84F30BDF8EE
:100384003C30C3F38313DBB21C931C9B9A0009A972
:100394001F9B049803F0FAFF1C9B9B001F9A1344B5
:1003A4001F9312AA09A915AB009313461C9A1D9812
:1003B40000F02CFF3BE09DF83C3003F00303DBB27C
:1003C400022B34D1BDF83E30C3F389139BB21E9384
:1003D4009DF83C30C3F3C203DBB28DF84E309DF878
:1003E4003C30C3F38003DBB2002B14BF0123002392
:1003F400DBB28DF84F301E9B082B28BF08231B93BC
:1004040007A91F9B1B9A049803F0C0FF1F9A1B9B0C
:1004140013441F931E9A1B9BD31A1E9315AB12AA47
:1004240007A81B9900F094FF1E9B002BE3D10498AE
:1004340003F000FF00BF21B05DF804FB82B001901F
:100444000091034B01221A7000BF02B0704700BF35
:10045400EC00002030B58DB003468DF807301A4B00
:1004640002AC1D460FCD0FC495E80F0084E80F00C1
:10047400062302934FF0FF3303934FF0FF330493AB
:100484004FF0FF3305934FF0EB7308939DF807305B
:10049400002B01D00D4A00E0002202AB19460C48A3
:1004A40005F0DCF90B900B9B0A930A9B002B04D0FC
:1004B400084A43210A9801F0A9F8074A9DF8073031
:1004C400137000BF0DB030BD309C0000410400002B
:1004D4003C000020A49B0000ED00002000B583B088
:1004E40000238DF807309DF807301846FFF7B2FF58
:1004F40000BF03B05DF804FB00B589B0039002911E
:100504000192019B8DF81F30124B00221A709DF846
:100514001F301A460299104805F008FB0690069B06
:100524000593059B002B04D00C4A5321059801F038
:100534006DF800BF0A4B1B78002B07D0054B1B78C6
:10054400DBB283F00103DBB2002BF3D100BF09B0AF
:100554005DF804FBEC0000203C000020A49B00009C
:10056400ED00002000B585B003900291054B009387
:100574004023054A02990398FFF7BAFE00BF05B06D
:100584005DF804FBFD040000AC00002082B0019083
:1005940000BF02B07047000000B583B00190054869
:1005A40005F0AEF90020FFF755FF00BF03B05DF87A
:1005B40004FB00BF3C00002082B00190019B01229B
:1005C4005A7200BF02B0704700B583B04FF0FF33DA
:1005D4000193FFF783FF0421084800F051FD0190C7
:1005E400019B002B03DA0649482002F09EFD0348D4
:1005F400FFF7E2FF00BF03B05DF804FB44000020F6
:100604005C9C000000B583B001900091019B1B68C5
:100614001B6800990198984700BF03B05DF804FB7C
:1006240000B583B00190019B1B685B6801989847F3
:1006340000BF03B05DF804FB82B001900B468DF857
:100644000330019B9DF803201A7200BF02B070476B
:1006540082B00190019B1B7A184602B0704782B0A9
:100664000190019B01225A7200BF02B0704782B010
:100674000190019B5B7A184602B0704710B487B0B2
:1006840001900091019B009A53E8004F44EA020054
:1006940043E8000191F0000FF6D105940490039112
:1006A400049B184607B05DF8044B704710B487B03C
:1006B40001900091019B009A53E8004F04EA020064
:1006C40043E8000191F0000FF6D1059404900391E2
:1006D400059B184607B05DF8044B704700B583B01E
:1006E400019001210198FFF7C9FF0346184603B0A2
:1006F4005DF804FB00B583B0019000210198FFF779
:10070400D5FF0346184603B05DF804FB00B587B077
:1007140001901F4BFF229A601D4B00221A601C4B54
:1007240000225A601A4B0022C3F81824184B0022E6
:10073400C3F81424164B012283F81C24154803F033
:10074400CFFC0490049B002B01D0049B1CE0124AB4
:10075400124BD31ADB080393002305930FE0059A89
:1007640013465B0013449B001A460D4B134402933B
:10077400059B9AB2029B1A80059B01330593059A47
:10078400039B9A42EBD30023184607B05DF804FBA1
:10079400C0010020EC9C0000689B0000409B00000E
:1007A40000000020024A034BD31ADB0818467047A6
:1007B400689B0000409B000000B587B001900B4689
:1007C4008DF803309DF80330002B23D0FFF7EAFFA8
:1007D40004900023059317E0059A13465B00134425
:1007E4009B001A460E4B13440393039B5B881A46E3
:1007F400019B1B689A4204D1019B059A1A6000234D
:1008040009E0059B01330593059A049B9A42E3D3BF
:10081400052300E00023184607B05DF804FB00BF81
:100824000000002000B585B001900B468DF8033020
:100834009DF8032001AB11461846FFF7BDFF0346A0
:10084400002B07D1019BDB00054A13440393039B50
:100854001B6800E00023184605B05DF804FB00BFE8
:10086400409B000084B001900B468DF80330019B3F
:10087400DB00174A134402939DF80330013B032B1A
:100884001CD801A252F823F09D080000A50800001E
:10089400AD080000B708000002238DF80F3011E006
:1008A40004238DF80F300DE0029B1B798DF80F3077
:1008B40008E0029B5B798DF80F3003E000238DF88C
:1008C4000F3000BF9DF80F30184604B0704700BFCA
:1008D400409B000000B589B04148FFF7FFFE414846
:1008E400FFF7FCFE404B5B6807933F4B9B68049308
:1008F400079A049B134002339B003B4A134404337E
:1009040006931BE0079B01330793069B5B88C3F3A5
:1009140089139BB21A46069B1B88C3F389139BB2A7
:1009240013441A46079B13440793079A049B1340E6
:1009340002339B002C4A134404330693069B1B7812
:1009440003F00303DBB2002BDCD00023059311E09A
:10095400059B9B006A461A44079B591C07910499FE
:100964000B40214902339B000B445B681360059BD9
:1009740001330593059B012BEAD99DF80030C3F39D
:100984000103DBB2012B0CD0022B14D1BDF80230D1
:10099400C3F389139BB203339B08079A1344079349
:1009A4000FE0BDF80030C3F38313DBB21A46079B94
:1009B4001344079305E00D4940F24D1002F0B5FBD6
:1009C40000BF0848FFF796FE0390039B002B02D05C
:1009D400054A079B536000BF09B05DF804FB00BFE4
:1009E400D8050020D4050020C0010020109D00007F
:1009F40010B586B00390029101920093039B1B0CE7
:100A0400ADF81630BDF81640FFF7CCFE03469C4205
:100A140004D325494FF4B27002F087FB009B5A1CA3
:100A2400089B1340BDF81620204902339B000B4459
:100A34005A60009A089B134002339B001B4A1344DC
:100A440004330493039B03F01003002B14BF01230E
:100A54000023D9B2049A137861F382031370039BC1
:100A6400DBB203F00703D9B2049A137861F3C50328
:100A74001370019BDBB203F00F03D9B2049A1388FD
:100A840061F389131380029BC3F31501049A13685D
:100A940061F39F231360049A1378012161F3010326
:100AA400137000BF06B010BD109D0000C0010020EF
:100AB40000B589B001900091019B02330693022393
:100AC400059301238DF81330002002F0E7FA214B3F
:100AD4001A68009B1A601F4B9A681E4B59681D4B7D
:100AE4001B68CB1A134401330793069A059B1344DE
:100AF40003930BE0FFF7EEFE164B9A68154B59680B
:100B0400144B1B68CB1A134401330793039A079BB6
:100B14009A42EFD80F4B1A680E4B9B68134002336E
:100B24009B000C4A134404330293029A137843F053
:100B340003031370074B1A68069B1344054A13609A
:100B4400002002F0BFFA9DF81330184609B05DF892
:100B540004FB00BFC001002000B58BB005900491D8
:100B6400039202931F4B9B68079306AB19460298A6
:100B7400FFF79EFF0346002B24D0069B0233099304
:100B84000023089311E0099B5A1C0992079A134009
:100B9400089A920003990A441268124902339B008E
:100BA4000B445A60089B01330893089A029B9A42AB
:100BB400E9D3069A079B00931346029A0499059871
:100BC400FFF716FF074B93F81C34002B05D000BF2A
:100BD40000F064F80346002BFAD100BF0BB05DF8B7
:100BE40004FB00BFC001002000B583B00190009158
:100BF4000023002200990198FFF7AEFF00BF03B065
:100C04005DF804FB00B587B0039002910192019B4B
:100C1400059305AA012302990398FFF79DFF00BFDE
:100C240007B05DF804FB00B587B003900291019210
:100C34000093019B0493009B059304AA0223029949
:100C44000398FFF789FF00BF07B05DF804FB00B508
:100C540089B00390029101920093019B0493009B3D
:100C640005930A9B06930B9B079304AA04230299FA
:100C74000398FFF771FF00BF09B05DF804FB0000A3
:100C8400054B5A68044B1B689A420CBF012300238E
:100C9400DBB21846704700BFC001002000B597B012
:100CA400FFF7EEFF0346002B01D00023ADE1AC4B70
:100CB4000022C3F81824BFF34F8FA94B5B68159328
:100CC400A74B9B680E93159A0E9B134002339B000F
:100CD400A34A13440433149300231393002312935D
:100CE40000230D931BE0159B01331593149B5B8824
:100CF400C3F389139BB21A46149B1B88C3F389134D
:100D04009BB213441A46159B13441593159A0E9BD4
:100D1400134002339B00924A134404331493149BEC
:100D24001B7803F00303DBB2002BDCD00023119308
:100D340011E0119B9B006A461A44159B591C15919E
:100D44000E990B40864902339B000B445B68136089
:100D5400119B01331193119B012BEAD99DF80030AB
:100D640003F00303DBB2022B40F09C80BDF8023099
:100D7400C3F389139BB20B93BDF80230C3F38913F9
:100D84009BB2502BA8BF50230A930A9B9BB2C3F378
:100D940009039AB2BDF8023062F38F13ADF8023042
:100DA4000A9B083309939DF80030C3F3C203DBB2F6
:100DB4000D9309996B4803F09EF91390139B002B34
:100DC40000F0E280139803F026FA6946129B082289
:100DD400139803F0C9FA129B08331293159BDA4354
:100DE4000E9B134001339B0008930A9A089B9A4276
:100DF40042D9089B002B08D0159A0E9B134002334E
:100E04009B00574A1344043300E0574B0793089B55
:100E1400002B02D0089BDBB201E00A9BDBB28DF809
:100E24001B30089B002B01D04F4B00E0002305939F
:100E3400089B002B06D00A9BDAB2089BDBB2D31ABC
:100E4400DBB200E000238DF813309DF81B20129BC9
:100E54000799139803F088FA9DF81B30129A1344EB
:100E64001293059B002B16D09DF81320129B059915
:100E7400139803F079FA0EE0159A0E9B134002338F
:100E84009B00374A134404330393129B0A9A039931
:100E9400139803F069FA0B9B03339B08159A1344C8
:100EA400159371E09DF8003003F00303DBB2012BCE
:100EB4005CD1BDF80030C3F38313DBB2062B28BF2B
:100EC4000623DBB203F00F03DAB2BDF8003062F39D
:100ED4008913ADF80030BDF80030C3F38313DBB2DF
:100EE40002330C939DF80030C3F3C203DBB20D93BD
:100EF4000C9B9B0019461B4803F0FDF81390139BB1
:100F0400002B41D0139803F086F96946129B0822FE
:100F1400139803F029FA129B0833129300231193B8
:100F240014E0159B5A1C15920E9A134002339B0031
:100F34000B4A1344191D129B0422139803F014FA4C
:100F4400129B04331293119B01331193BDF80030AB
:100F5400C3F38313DBB21A46119B9A42E1D813E020
:100F6400C0010020EC9C0000CC0100209DF8003062
:100F740003F00303DBB2032B06D1264BD3F818345A
:100F8400002B01D1002340E0139B002B37D0214BD1
:100F9400D3F8103410931F4BD3F81834002B1AD005
:100FA400139803F047F92AE000238DF83F30109896
:100FB400FFF75DFB0346002B02D001238DF83F3081
:100FC4009DF83F30002B03D013991098FFF71AFBBC
:100FD400109B5B681093109B002BE5D1139803F0D2
:100FE40029F9002002F05AF80A4BD3F81834002BE0
:100FF40002D1084A159B5360002002F063F8FFF702
:101004003FFE034683F00103DBB2184617B05DF8D8
:1010140004FB00BFC001002000B585B0002303938A
:1010240022E0164BD3F81034029301238DF80730D5
:101034000EE00298FFF70CFB03461A46039B9A4204
:1010440003D100238DF8073005E0029B5B6802930F
:10105400029B002BEDD19DF80730002B01D0039BA0
:1010640007E0039B01330393039B092BD9DD4FF066
:10107400FF33184605B05DF804FB00BFC001002033
:1010840000B585B001900B468DF80330FFF7C4FF1F
:101094000390039BB3F1FF3F01D1039B1EE0039B2D
:1010A400DBB219460198FFF7C7FA0E4BD3F8103498
:1010B400002B07D10B4A019BC2F81034019B00227C
:1010C4005A600AE0074BD3F810345A68019B5A60FF
:1010D400044BD3F81034019A5A60039B184605B0A8
:1010E4005DF804FBC001002000B583B00C4BD3F8BD
:1010F400103401930A4B012283F81C2408E0019860
:10110400FFF7ADFA0198FFF78BFA019B5B68019337
:10111400019B002BF3D100BF03B05DF804FB00BFBB
:10112400C001002010B582B001900091019BDB79D1
:1011340083F00103DBB2002B28D0019B1B7A002B28
:1011440012D0019B9B881A46019B9B791946104635
:10115400FFF788FB03461A460E4B53F822301A4613
:101164000D49009802F08EFB019B9B791A460B4BAC
:1011740053F82240019B9B8800211846FFF752FB3D
:10118400034622460649009802F07CFB00BF02B0E9
:1011940010BD00BF64000020009E0000500000202D
:1011A400049E000000B585B00390029113468DF8AB
:1011B4000730039BDB7983F00103DBB2002B0FD0F4
:1011C400039B1B7A002B06D00D4B1B681A460D4956
:1011D400029802F057FB0C49029802F053FB07E017
:1011E4009DF80730002B03D00749029802F04AFB10
:1011F400029802F025FB00BF05B05DF804FB00BFB8
:1012040064000020009E0000109E000030B58BB0EA
:1012140007900691059204930E9B1B7B8DF8273053
:101224000E9B00221A730E990498FFF77BFF059B0F
:10123400062B7FD801A252F823F000BF5D120000F4
:1012440067120000771200008B120000A912000040
:10125400D11200000113000007990E9802F012FB4E
:1012640069E0069B1B681A4607990E9802F00AFB70
:1012740061E0069B1A68069B04331B6807990E9865
:1012840002F000FB57E0069B1A68069B04331968BA
:10129400069B08331B6800930B4607990E9802F0CF
:1012A400F1FA48E0069B1968069B04331868069B0C
:1012B40008331B68069A0C321268019200930346A5
:1012C4000A4607990E9802F0DDFA34E0069B186886
:1012D400069B04331C68069B08331B68069A0C3271
:1012E400126806991031096802910192009323460D
:1012F400024607990E9802F0C5FA1CE0069B1C688A
:10130400069B04331D68069B08331B68069A0C323F
:101314001268069910310968069814300068039021
:101324000291019200932B46224607990E9802F0EF
:10133400A9FA00E000BF00220E990498FFF732FFDB
:101344000E9B9DF827201A7300BF0BB030BD00BF61
:1013540000B587B00390029101920093029B082B81
:101364005CD8009B1B7B8DF81330009B00221A7302
:1013740000990198FFF7D6FE0023059314E0059A1F
:10138400029B9A4209D2039A059B13441B781A467E
:101394002449009802F076FA03E02349009802F009
:1013A40071FA059B01330593059B072BE7D91F4968
:1013B400009802F067FA0023059322E0059A029B45
:1013C4009A4217D2039A059B13441B788DF8123066
:1013D4009DF81230184608F051FB0346002B02D04A
:1013E4009DF8123000E02E231A461149009802F0AD
:1013F40049FA03E00F49009802F044FA059B0133CF
:101404000593059B072BD9D9012200990198FFF771
:10141400C9FE009B9DF813201A7300E000BF07B0BB
:101424005DF804FB149E00001C9E0000209E00003A
:10143400249E0000289E000000B583B00190019B0B
:101444001B681F2B04D905494FF4E87001F06DFEA9
:101454004FF0A043184603B05DF804FB2C9E000037
:1014640000B585B00190084611461A4603468DF82A
:1014740003300B468DF8023013468DF8013001AB72
:101484001846FFF7D9FF0390019A9DF803109DF8C1
:1014940002305B0019439DF801309B0019439DF80D
:1014A40018301B0219439DF81C301B041943039B7D
:1014B40002F5E07243F8221000BF05B05DF804FBAA
:1014C40000B585B00390002301930023009300230B
:1014D400012201210398FFF7C3FF00BF05B05DF8A7
:1014E40004FB00B585B0019001AB1846FFF7A4FFDB
:1014F4000390019B012202FA03F31946039800F0BA
:101504002AF800BF05B05DF804FB00B585B0019072
:1015140001AB1846FFF790FF0390019B012202FAEA
:1015240003F31946039800F020F800BF05B05DF8F6
:1015340004FB00B583B001900091009B002B03D104
:101544000198FFF7E2FF02E00198FFF7CAFF00BF2E
:1015540003B05DF804FB82B001900091019B009AF6
:10156400C3F8082500BF02B0704782B00190009113
:10157400019B009AC3F80C2500BF02B0704700001D
:1015840000B583B00190019B032B03D90749442084
:1015940001F0CBFD064A019B13441B780121184638
:1015A400FFF7C7FF00BF03B05DF804FB649E0000B3
:1015B400CC9E000000B583B00023019305E00198A0
:1015C400FFF7DEFF019B01330193019B032BF6D947
:1015D40000BF03B05DF804FB00B583B000230193A2
:1015E40009E0094A019B13441B781846FFF768FF7A
:1015F400019B01330193019B032BF2D9FFF7DAFF1F
:1016040000BF03B05DF804FBCC9E000000B589B0B8
:10161400039002910192029B9BB2ADF81430019B9E
:101624000693039B079305AB1A46002144F201007D
:1016340000F050F800BF09B05DF804FB86B00390D9
:101644000291019201238DF817309DF81730204A3A
:10165400039B13601E4A029B53601D4A019B9360C7
:10166400039B44F20102934212D044F202029342D9
:1016740022D1019B164AD360154BDB681B881A469E
:10168400134B9A61124BDB685B68114AD36113E018
:10169400019B0F4A13610E4B1B699B680C4A5361F3
:1016A4000B4B1B691B881A46094B9A61084B1B6933
:1016B4005B68074AD36100BF72B600BF9DF817305C
:1016C400DBB2002BFAD162B600BF06B0704700BF90
:1016D400E005002030B589B0059004910392FFF72E
:1016E40003FD00BFFFF7DAFA0346002BFAD1059B8E
:1016F40044F20102934213D044F2020293422DD1E8
:10170400039B0793224B1B881B0443F00100079B98
:101714005B681A46079B1B881E49FFF784FA28E07A
:10172400039B06931A4B1B881B0443F00104069B7E
:101734009D68069B9B68184602F03AFE03461946CC
:10174400069B5B681A46069B1B88019300920B4616
:101754002A4611492046FFF77AFA0AE00C4B1B8807
:101764001B0443F00103049A0C491846FFF74AFA94
:1017740000BF0B4B1B6803F00103002B00D0FFDEFE
:10178400039A04990598FFF759FF00BF09B030BDCB
:1017940000000020D09E0000EC9E0000049F00008A
:1017A400F0ED00E000B583B00190019B1B681F2B96
:1017B40004D905494FF4E87001F0B7FC4FF0A04399
:1017C400184603B05DF804FB1C9F000000B585B00B
:1017D4000190084611461A4603468DF803300B461D
:1017E4008DF8023013468DF8013001AB1846FFF72F
:1017F400D9FF0390019A9DF803109DF802305B0015
:1018040019439DF801309B0019439DF818301B02C1
:1018140019439DF81C301B041943039B02F5E07225
:1018240043F8221000BF05B05DF804FB00B585B095
:10183400039000230193002300930023012201213C
:101844000398FFF7C3FF00BF05B05DF804FB00B5C4
:1018540085B003900B468DF80B309DF80B200023C8
:101864000193002300931346002200210398FFF7FD
:10187400ADFF00BF05B05DF804FB00B585B0019075
:1018840001AB1846FFF78EFF0390019B012202FA79
:1018940003F31946039800F018F800BF05B05DF88B
:1018A40004FB00B585B0019001AB1846FFF77AFF41
:1018B4000390019B012202FA03F31946039800F0F6
:1018C4000EF800BF05B05DF804FB82B001900091F2
:1018D400019B009AC3F8082500BF02B0704782B08C
:1018E40001900091019B009AC3F80C2500BF02B03F
:1018F400704782B001900091009A019BC3F824259F
:1019040000BF02B07047000000B589B00590039293
:101914001A460B468DF8133013468DF812300F4BD0
:1019240093F858301846FFF7BCFF9DF813209DF834
:1019340012300093039B0599094803F0F7F80790C8
:10194400079B0693069B002B04D0064AF0210698B9
:10195400FFF75CFE00BF09B05DF804FB0006002041
:10196400C89F0000549F000008B5044B4FF080410D
:101974001846FFF7BEFF00BF08BD00BF003000409F
:1019840088B00190019B1B789B098DF81F309DF84E
:101994001F30012B36D0022B04D0002B02D000BF05
:1019A400002343E0019B08331B789B09DBB21A46F2
:1019B400019B07331B789B001A44019B06331B7859
:1019C4009B0203F4406313440693019B05331B7885
:1019D40003F00F030593019B0A331B78DB09DBB289
:1019E4001A46019B09331B785B0003F0060313447A
:1019F4000493069B5A1C0599049B0B44073B02FA6B
:101A040003F313E0019B09331B781A46019B083347
:101A14001B781B021A44019B07331B781B0403F435
:101A24007C1313440393039B01339B02184608B0B1
:101A34007047000000B585B0034600918DF807306B
:101A440013468DF80630594B93F82330002B01D000
:101A54001123A7E000238DF80F30544B012283F8A3
:101A640023209DF90730002B1EDA06238DF80F3052
:101A74004E4B022283F823204C4B772283F82820F4
:101A84004A4B002283F82920484B002283F82A205D
:101A9400464B002283F82B20444B002283F82C2051
:101AA400424BFF2283F82D209DF80F309DF807202C
:101AB40002F07F02D1B23D4A13440A4683F828203B
:101AC4009DF80F300133009A120ED1B2374A1344F5
:101AD4000A4683F828209DF80F300233009A120C2E
:101AE400D1B2324A13440A4683F828209DF80F30B5
:101AF4000333009A120AD1B22C4A13440A4683F8DB
:101B040028209DF80F300433009AD1B2274A134499
:101B14000A4683F828209DF80730402B02D0482B32
:101B240004D007E095238DF80E3007E087238DF865
:101B34000E3003E0FF238DF80E3000BF9DF80F3008
:101B440005331A4A13449DF80E2083F828209DF883
:101B54000630022B02D0032B05D009E0134B0522DB
:101B640083F8242009E0114B052283F8242004E0A3
:101B74000E4B012283F8242000BF9DF90730002B6F
:101B840003DB0A4B93F8243000E001238DF80D3079
:101B94009DF80D300E33DBB2054A06210548FFF7E8
:101BA400B3FE0023184605B05DF804FB00060020D0
:101BB400380600202806002000B589B00390019360
:101BC4000B468DF80B301346ADF8083001238DF821
:101BD4001F30A64BDB8B40F2D912934200F0EB800E
:101BE400B3F5ED7F07DA002B0ED040F2C712934213
:101BF40000F0A7802FE1B3F5F07F00F0FB80B3F590
:101C0400F67F00F0168126E1BDF80830002B04D1E0
:101C140097494FF4C87001F088FA944B9B8A002BC3
:101C240004D1934940F2911001F07FFA8F4B9A8AC4
:101C34008E4BDA82E7E08D4B00221A848B4BFF2215
:101C440083F82820894B00221A83884B032283F8C7
:101C540023207CE0854B1B8C01339AB2834B1A847E
:101C6400824B1B8C44F6206293420FD9019B0222C3
:101C74001A707E4B0022DA830223F3E0039B0133C4
:101C840003939DF80B30013B8DF80B309DF80B301E
:101C9400002B03D0039B1B78FF2BEFD09DF80B3058
:101CA400002B41D0039B1B78FE2B35D1039B0133C2
:101CB40003939DF80B30013B8DF80B306B4B0422E2
:101CC40083F823209DF80B309AB2BDF80830934274
:101CD40028BF1346ADF81430002306930BE0634B82
:101CE400DA68069B13440399069A0A4412781A7018
:101CF400069B01330693BDF81420069B9A42EED846
:101D04005A4ABDF814301383584BDA68BDF81430BE
:101D14001344564AD3601AE0019B05221A70534BB0
:101D24000022DA8302239DE01023524A0121524803
:101D3400FFF7EAFD00238DF81F304C4B40F2C71229
:101D4400DA839DF81F30002B01D101238AE0474B31
:101D540093F82330032B3FF47DAF32E0434B1B8BCE
:101D6400BDF80820D31AADF81630BDF81630F02BA4
:101D740002D9F023ADF816303C4BDA68BDF81630C2
:101D8400DBB201213C48FFF7BFFD384BDA68BDF8F0
:101D940016301344354AD360344B1A8BBDF81630D1
:101DA40013449AB2314B1A8300238DF81F302F4B02
:101DB40040F2D912DA839DF81F30002B01D10123A0
:101DC40050E02A4B1B8BBDF808209A42C6D8274BFB
:101DD400DB8A013B9AB2254BDA820223254A012190
:101DE4002548FFF791FD00238DF81F301F4B4FF45A
:101DF400F072DA839DF81F30002B01D1012331E00A
:101E040000238DF80B30194BDB8A002B7FF413AFC2
:101E1400164BFF2283F828200223164A0121164874
:101E2400FFF772FD00238DF81F30104B4FF4F6724C
:101E3400DA839DF81F30002B01D1012312E00B4BF4
:101E4400002283F82320019B00221A70074B0022F2
:101E5400DA83022306E000238DF81F30034B0022AF
:101E6400DA830323184609B05DF804FB000600205A
:101E7400549F0000380600202806002000B593B0C7
:101E840003900B4601928DF80B30039B1B788DF861
:101E94004730039B01331B781A06039B02331B78DC
:101EA4001B041A43039B03331B781B021343039A3B
:101EB400043212781343109301238DF84630B94B42
:101EC4009B8BB3F50E7F00F02781B3F50E7F17DCF3
:101ED40040F21322934268D0B3F5057F05DA002B54
:101EE4002DD0B3F5047F42D06CE240F21922934224
:101EF40000F0888040F22622934200F0CA8061E21A
:101F040040F26122934200F0DC8140F2612293426C
:101F14000ADC40F24D22934200F0628140F25322E7
:101F2400934200F090814DE240F26B22934200F024
:101F3400FA8140F27122934200F0188242E20122B7
:101F440000214020FFF776FD0F900F9B0E930E9B10
:101F5400002B05D0944A40F20F210E98FFF756FB50
:101F640000238DF846308F4B4FF404729A839DF80A
:101F74004630002B01D101232BE201220021402015
:101F8400FFF758FD0F900F9B0D930D9B002B05D071
:101F9400854A40F212210D98FFF738FB00238DF893
:101FA4004630804B40F213229A839DF84630002B32
:101FB40001D101230DE29DF8473023F00303002BE8
:101FC40007D0019B04221A70764B00229A830223C5
:101FD400FFE103224FF4D5714820FFF72BFD0F904A
:101FE4000F9B0C930C9B002B05D06F4A4FF406718A
:101FF4000C98FFF70BFB00238DF84630694B40F239
:1020040019229A839DF84630002B01D10123E0E187
:102014009DF8473003F00403002B13D1614A937AEF
:10202400032161F3020393729DF8473023F0030305
:10203400002B07D0019B04221A705A4B00229A836A
:102044000223C6E1574B00221A84564B9B7A03F0B5
:102054000703DBB2032B02D14FF0804300E00023DF
:102064000B9302220B99E920FFF7E4FC0F900F9BDE
:102074000A930A9B002B05D04B4A40F225210A986B
:10208400FFF7C4FA00238DF84630464B40F226226F
:102094009A839DF84630002B01D1012399E19DF8E4
:1020A400473003F00403002B51D03E4A937A0121B8
:1020B40061F3020393729DF8473023F004038DF813
:1020C4004730384B1B8C01339AB2364B1A84354B4C
:1020D4001B8CB3F5FA6F07D9019B02221A70314B9E
:1020E40000229A83022374E1022200214120FFF797
:1020F400A1FC0F900F9B0993099B002B05D02A4A42
:1021040040F237210998FFF781FA00238DF8463011
:10211400244B4FF40E729A839DF84630002B01D164
:10212400012356E19DF8473023F00303002B07D029
:10213400019B04221A701B4B00229A83022348E15C
:102144009DF8473003F00103002BBAD199E09DF8C4
:10215400473023F00303002B56D0019B04221A704E
:10216400104B00229A83022333E10E4B1B8C013364
:102174009AB20C4B1A840B4B1B8CB3F5FA6F07D92C
:10218400019B02221A70074B00229A83022320E14A
:10219400044B9B7A03F00703DBB2032B06D14FF009
:1021A400804304E000060020549F000000230B93AA
:1021B40002220B99E920FFF73DFC0F900F9B089337
:1021C400089B002B05D0854A4FF413710898FFF73C
:1021D4001DFA00238DF84630814B40F24D229A833C
:1021E4009DF84630002B01D10123F2E09DF84730E1
:1021F40023F00303002B08D0019B04221A70784BB0
:1022040000229A830223E4E000BF9DF8473003F0E4
:102214000103002BA9D1022200217A20FFF70AFC36
:102224000F900F9B0793079B002B05D06B4A40F23E
:1022340052210798FFF7EAF900238DF84630684BDE
:1022440040F253229A839DF84630002B01D101239A
:10225400BFE09DF8473023F00303002B07D0019B18
:1022640004221A705E4B00229A830223B1E0109B71
:1022740003F08043002B04D0594A937A43F00803B7
:102284009372574B9B7A03F00703DBB2032B2CD0DA
:1022940001224FF400715020FFF7CCFB0F900F9BED
:1022A4000693069B002B05D04C4A4FF418710698F0
:1022B400FFF7ACF900238DF84630494B40F2612218
:1022C4009A839DF84630002B01D1012381E09DF8CB
:1022D400473023F00303002B07D0019B04221A701C
:1022E4003F4B00229A83022373E03D4B3D4ADA6060
:1022F4003B4B01229A82012200214920FFF79AFBDD
:102304000F900F9B0593059B002B05D0334A40F299
:102314006A210598FFF77AF900238DF84630304B8F
:1023240040F26B229A839DF84630002B01D10123A1
:102334004FE09DF8473023F00303002B07D0019BA7
:1023440004221A70264B00229A83022341E0039B45
:10235400013303939DF80B30013B8DF80B30204B78
:102364000022DA831E4B40F271229A830DF113038B
:102374009DF80B1010220398FFF71EFC0346012B57
:1023840001D8002325E09DF81330002B08D09DF8D8
:102394001320019B1A70124B00229A83022318E027
:1023A4001048FFF7EDFA02460D4B5A600C4B4FF400
:1023B40000721A81019B00221A70094B00229A8331
:1023C400022306E000238DF84630054B00229A8351
:1023D4000323184613B05DF804FB00BF549F0000AC
:1023E400000600204806002000B589B003900B4683
:1023F40001928DF80B3001238DF81F303E4B9B8BDF
:1024040040F29A22934226D040F2A222934259D01B
:10241400002B65D1039B1B788DF81E309DF81E3070
:1024240023F00303002B07D0019B04221A70324BC4
:1024340000229A8302235AE0039B013303939DF8FD
:102444000B30013B8DF80B302B4B0022DA832A4BE7
:1024540040F29A229A830DF113039DF80B104FF466
:1024640000720398FFF7A8FB0346012B01D8002351
:102474003DE09DF81330002B08D09DF81320019BFC
:102484001A701D4B00229A83022330E01A4B9B8A58
:10249400012B1DD9012200214C20FFF7CBFA069015
:1024A400069B0593059B002B05D0144A40F2A121FD
:1024B4000598FFF7ABF800238DF81F300E4B40F260
:1024C400A2229A839DF81F30002B01D101230EE034
:1024D400019B00221A70084B00229A83022306E013
:1024E40000238DF81F30044B00229A8303231846DF
:1024F40009B05DF804FB00BF00060020549F0000F3
:1025040000B58DB003900B4601928DF80B3001237A
:102514008DF82F30AA4B9B8BB3F5397F00F0CA801E
:10252400B3F5397F0BDC40F2C322934255D040F21D
:10253400D322934200F09080002B17D0D1E140F2D7
:102544000A32934200F0278140F20A32934204DCBB
:10255400B3F53B7F00F0D180C3E1B3F5487F00F0D1
:102564006881B3F54C7F00F09381BAE1039B1B783B
:102574008DF823309DF8233023F00303002B07D07C
:10258400019B04221A708E4B00229A830223AFE12E
:102594008B4B9B7A03F00703DBB2012B35D0884BBE
:1025A4009B8A012B31D9864B1B690122194659207C
:1025B400FFF740FA0790079B0693069B002B05D074
:1025C400804A40F2C2210698FFF720F800238DF8D4
:1025D4002F307B4B40F2C3229A839DF82F30002B7F
:1025E40001D1012384E1039B1B788DF823309DF8EE
:1025F400233023F00303002B07D0019B04221A701D
:102604006F4B00229A83022372E16D4B9A8A6C4BC2
:10261400DA82F0E06A4B00221A83694B042283F8C1
:102624002320674BFF2283F82820654B9B8A012BCC
:1026340001D9FC2200E0FE22614B83F82920022309
:10264400614A02216148FFF75FF900238DF82F30BA
:102654005B4B40F2D3229A839DF82F30002B2FD16D
:10266400012345E1564B1B8BC3F50073ADF82C30A9
:10267400BDF82C30F02B02D9F023ADF82C30504BA0
:10268400DB684F4A128B9818BDF82C30D9B201235D
:102694004D4AFFF739F94A4B1A8BBDF82C301344D5
:1026A4009AB2474B1A8300238DF82F30444B4FF4D2
:1026B40039729A839DF82F30002B02D1012317E140
:1026C40000BF3F4B1B8BB3F5007FCBD33C4BDB6888
:1026D40003F500733A4AD360394B032283F823206D
:1026E4000323394A01213948FFF70EF900238DF8F5
:1026F4002F30334B4FF43B729A839DF82F30002BCD
:1027040001D10123F4E02E4B93F83A3003F01F0378
:102714008DF817309DF81730052B17D09DF817301A
:102724000B2B03D09DF817300D2B07D1019B0522ED
:102734001A70234B00229A830223D9E0019B0422BE
:102744001A701F4B00229A830223D1E01C4B0022F3
:102754001A8445E01A4B1B8C01339AB2184B1A8425
:10276400174B1B8C44F62062934207D9019B02222B
:102774001A70134B00229A830223B9E01023124AE1
:1027840001211248FFF7C0F800238DF82F300C4BBD
:1027940040F20A329A839DF82F30002B01D1012395
:1027A400A6E000230A9316E0039A0A9B13441B78BD
:1027B400002B0DD0024B002283F8232010E000BF31
:1027C40000060020549F0000380600202806002040
:1027D4000A9B01330A939DF80B200A9B9A42E3D883
:1027E400454B93F82330032BB4D0434BDB8A013B96
:1027F4009AB2414BDA82404BDB8A002B7FF40AAF5A
:102804003D4B9B8A012B64D93B4BFF2283F8282044
:10281400394BFD2283F829200323384A0221384802
:10282400FFF772F800238DF82F30334B4FF44872C2
:102834009A839DF82F30002B01D1012358E02E4BB1
:1028440000221A842C4B032283F823203CE02A4BD9
:102854001B8C01339AB2284B1A84274B1B8C44F6E9
:102864002062934207D9019B02221A70224B002254
:102874009A8302233CE01023204A01212048FFF7D9
:1028840043F800238DF82F301B4B4FF44C729A837E
:102894009DF82F30002B01D1012329E00023099357
:1028A4000DE0039A099B13441B78002B04D0124BB0
:1028B400002283F8232007E0099B013309939DF844
:1028C4000B20099B9A42ECD80B4B93F82330032B33
:1028D400BDD0019B00221A70074B00229A83022369
:1028E40006E000238DF82F30034B00229A83032344
:1028F40018460DB05DF804FB0006002038060020E1
:102904002806002000B58DB001900091019BDB6882
:102914000B93019B1B7C8DF82B30AD4BDB8A002B7A
:1029240005D1AB4B93F858301846FEF7A6FFA84BD9
:1029340093F82330022B05D0A54B93F82330012BB9
:1029440040F0C6809DF82B30062B04D8A14940F2F4
:10295400573000F0EAFB9DF82B30063B8DF82B3006
:102964000B9B06330B93019B5B681B784C2B14D198
:102974009DF82B30002B10D09DF82B30013B8DF8A7
:102984002B300B9B01330B9307E09DF82B30013B5D
:102994008DF82B300B9B01330B939DF82B30002BC0
:1029A40003D00B9B1B78FF2BEFD09DF82B30002B13
:1029B4000FD1019B5B681B784C2B08D19DF82B3001
:1029C40001338DF82B300B9B013B0B9301E000236B
:1029D4000B930B9B002B59D17D4B93F82230DBB228
:1029E400012B53D001238DF80D30794B93F822300D
:1029F400DBB2013B042B29D801A252F823F000BF1B
:102A0400192A0000192A0000512A0000412A000056
:102A1400492A000000238DF80C306D4B032283F803
:102A2400222000F0D3FA0990099B002B1AD0694A9E
:102A340040F283310998FEF7E9FD13E001238DF894
:102A44000C3012E002238DF80C300EE003230893BF
:102A5400089B002B08D05F4A4FF463710898FEF777
:102A6400D5FD01E000BF00E000BF594B93F858309A
:102A74001846FEF702FF564B032283F82220544BDC
:102A84001B6803AA1046984700BFE9E0504B93F82F
:102A94002330022B18D14E4B012283F823200B9BA9
:102AA4001B788DF81F309DF81F3023F00103002B95
:102AB4000AD14948464B93F824300E33DBB2474AD7
:102AC4000621FEF721FFCBE0414B002283F82320AF
:102AD40006238DF813303E4B93F82230DBB2013BD2
:102AE400042B00F2A98001A252F823F0052B000068
:102AF400132B00003D2C00007D2B0000E52B000073
:102B0400334B022283F82220314B00229A830DF1A9
:102B140013029DF82B3019460B98FFF7AFF90346C3
:102B2400012B40F2958000238DF810309DF813306E
:102B34008DF81130264B032283F82220244B93F87E
:102B440058301846FEF799FE9DF81330002B0BD031
:102B540000F03CFA0690069B002B05D01D4A40F27B
:102B6400B7310698FEF752FDFEF7FEFE184B1B68C0
:102B740004AA104698476BE00DF113029DF82B3020
:102B840019460B98FFF730FC0346012B62D9012349
:102B94008DF810309DF813308DF811300C4B032252
:102BA40083F822200A4B00229A82094B0022DA82FF
:102BB400074B002283F82320054B93F8583018461E
:102BC400FEF75BFE024B1B6804AA1046984741E0DF
:102BD40000060020549F00002E0600203806002026
:102BE4000DF113029DF82B3019460B98FFF788FC62
:102BF4000346012B30D902238DF810309DF8133091
:102C04008DF81130184B032283F82220164B002232
:102C140083F82320144B00229A82134B0022DA8279
:102C2400114B93F858301846FEF727FE0E4B1B68DD
:102C340004AA104698470FE003230593059B002B35
:102C44000CD00A4A4FF476710598FEF7DFFC05E0D4
:102C540000BF04E000BF02E000BF00E000BF00BF0F
:102C64000DB05DF804FB00BF00060020549F000077
:102C740000B589B0039002911346ADF80630039B6A
:102C8400002B04D12E4940F2E23000F04EFA2D4BD5
:102C940093F82230DBB2002B01D108234CE0294BFE
:102CA40093F82230DBB2032B01D0112344E0BDF8AA
:102CB4000630002B01D107233EE0224B042283F887
:102CC4002220204B9B7A03F00803DBB2002B04D1B3
:102CD400029B5B021B4A136102E01A4A029B1361C6
:102CE400184A039BD360174ABDF806309382154AED
:102CF400BDF80630D382134B00229A83BDF8063008
:102D0400012B01D9522300E051238DF81F300D4BC4
:102D140019699DF81F3001221846FEF78BFE0690B4
:102D2400069B0593059B002B05D0054A40F2024102
:102D34000598FEF76BFC0023184609B05DF804FB08
:102D4400549F00000006002000B589B00390029152
:102D54001346ADF80630039B002B04D13E4940F2E4
:102D64000A4000F0E2F93D4B93F82230DBB2002B2D
:102D740001D108236BE0394B93F82230DBB2032BEB
:102D840001D0112363E0BDF80630002B01D10723E5
:102D94005DE0324B052283F82220304B9B7A03F00E
:102DA4000803DBB2002B04D1029B5B022B4A1361A4
:102DB40002E02A4A029B1361284A039BD360274AF4
:102DC400BDF806309382254ABDF80630D382234BE2
:102DD40000229A83BDF80630012B14D11F4B1B69C6
:102DE400012219465820FEF725FE0790079B0693FB
:102DF400069B002B05D0184A40F22D410698FEF799
:102E040005FC002323E0154B9B7A03F00703DBB298
:102E1400012B08D1114B1B69012219465920FEF7D9
:102E240009FE079007E0BDF8063001221946D720B5
:102E3400FEF700FE0790079B0593059B002B05D02A
:102E4400054A40F23C410598FEF7E0FB0023184692
:102E540009B05DF804FB00BF549F00000006002089
:102E640000B58DB003900291524B93F82230DBB23F
:102E7400002B01D0082398E0029B002B0FD0039B6A
:102E8400DB78FF2B0BD0039B5B78FF2B07D0039BD6
:102E94001B78FF2B03D0039B9B78FF2B01D10723C7
:102EA40083E0039BDB78002B0BD0039B5B78002B28
:102EB40007D0039B1B78002B03D0039B9B78002B2C
:102EC40004D13D4940F2524000F02FF9039BDA78D7
:102ED400384B83F85820374B93F858301846FEF790
:102EE400A5FC344B93F858301846FEF7C6FC039BF8
:102EF4009B788DF81430039B1B788DF81530039B59
:102F04005B788DF81630FF238DF8173007238DF882
:102F14001830FF238DF819304FF080630793002396
:102F24008DF8203000238DF8213005A90023234A91
:102F3400234801F0DFFC0B900B9B0A930A9B002BA8
:102F440005D01D4A40F265410A98FEF75FFB194A15
:102F5400029B1360174B012283F82220154A937AAF
:102F64006FF302039372134A937A6FF3C30393725A
:102F7400104B002283F823200E4BFF2283F82820D5
:102F84000A2300930F4B01220F490D4801F0CEFD97
:102F94000B900B9B0993099B002B05D0064A40F22A
:102FA40071410998FEF732FB002318460DB05DF815
:102FB40004FB00BF00060020549F00000929000004
:102FC400C89F0000380600202806002008B5124BD0
:102FD40093F82230DBB2002B01D108231AE00E4B08
:102FE40093F82230DBB2032B01D0112312E00B48FB
:102FF40001F044FD084B93F8583000211846FEF7C1
:1030040026FC054B002283F82320034B002283F87F
:1030140022200023184608BD00060020C89F000097
:10302400094B93F82230DBB2032B07D0064B93F8FD
:103034002230DBB2002B01D0012300E0002303F097
:103044000103DBB21846704700060020054B93F8D5
:103054002230DBB2022B01D9034B00E000231846D7
:10306400704700BF000600200406002072B6034B20
:103074001B680133014A136000BF70475C060020DF
:10308400054B1B68013B044A1360034B1B68002B70
:1030940000D162B600BF70475C06002000B583B063
:1030A400019000F025F80346012B03D00449432086
:1030B40000F03BF8FFF7DAFF00BF03B05DF804FB54
:1030C400D09F000000B583B003468DF8073000F0B0
:1030D4000FF80346012B03D00449512000F025F8D2
:1030E400FFF7CEFF00BF03B05DF804FBD09F0000E4
:1030F40084B0EFF305830193019BC3F308030393A7
:10310400039B002B0DD1EFF314830093009B0293D8
:10311400029B03F00103002B0CBF01230023DBB24D
:1031240000E00123184604B0704700B585B003469B
:103134000091ADF80630BDF80630ADF80830009BBC
:10314400039302AB1A46002144F20200FEF7C2FACE
:1031540000BF05B05DF804FB00B583B001900B46D9
:103164008DF80330019B002B03D10849AF20FFF7F2
:10317400DCFF019BDA689DF803300199098A01FBA1
:1031840003F31344184603B05DF804FB50A0000099
:1031940000B583B001900091019B002B03D1084935
:1031A400BC20FFF7C2FF009B019AD2689B1A019AC8
:1031B400128AB3FBF2F3DBB2184603B05DF804FBEA
:1031C40050A0000000B585B00190019B002B01D1F7
:1031D4000E2349E0019B1B68002B03D12449C62020
:1031E400FFF7A3FF019B5B68002B03D12049C72095
:1031F400FFF79BFF019B9B68002B03D11C49C82050
:10320400FFF793FF019BDB68002B03D11849C9200A
:10321400FFF78BFF019B1B8A002B03D11449CA20A3
:10322400FFF783FF019B9B681A46019B5B68D31AD7
:103234008DF80F30019B1B68019A52681A6007E0F1
:10324400019B1A681368591C11609DF80F201A70AD
:103254009DF80F305A1E8DF80F20002BF0D1019BE2
:103264001B6800221A710023184605B05DF804FBA0
:1032740050A0000000B585B00190019B002B03D144
:103284001C49EC20FFF751FF002303930020FFF7B4
:1032940005FF019B1B681A68019B5B689A4220D951
:1032A400019B1B681A68013A1A601B681B7819464F
:1032B4000198FFF751FF0390019B9B681A46019BFD
:1032C4001B681B68D31A8DF80B30019B1B681B7994
:1032D4009DF80B209A4204D9019B1B689DF80B2092
:1032E4001A710020FFF7EEFE039B184605B05DF847
:1032F40004FB00BF50A0000010B584B00190009101
:10330400019B002B04D111494FF48870FFF70DFF86
:10331400009B002B04D10D4940F21110FFF705FF6B
:10332400009B03930020FFF7B9FE019B1B681C68F8
:10333400621C1A6003990198FFF72AFF0346237061
:103344000020FFF7BFFE00BF04B010BD50A0000076
:1033540000BF704708B501E0FFF7FAFFFFF760FE12
:103364000346002BF8D100BF08BD000000B58FB0A4
:103374000190019B5A78464B1A70464B1B680D937B
:103384000D9B9B690C93019B1B78012B2BD0022B6B
:1033940048D0002B65D1FFF759FE03461A680C9BF1
:1033A4001A600C9B4FF400725A603A4B1B689B697D
:1033B4009B68002B61D000238DF82030019B5B7843
:1033C400002B14BF01230023DBB28DF8213000232E
:1033D40009930C9B9B690A930C9B9B680D9A08A903
:1033E4001046984749E02B4B1B689B699B68002B50
:1033F40045D002238DF81430019B5B78002B14BF59
:1034040001230023DBB28DF815300C9B0C3306939B
:103414000C9B9B6907930C9B9B680D9A05A910460E
:1034240098472CE01B4B1B689B699B68002B28D09A
:1034340003238DF80830019B5B78002B14BF012314
:103444000023DBB28DF809300C9B0C3303930C9BE7
:103454009B6904930C9B9B680D9A02A9104698479C
:103464000FE003230B930B9B002B0CD00A4A812102
:103474000B98FEF7CBF800BF05E000BF04E000BFE7
:1034840002E000BF00E000BF0FB05DF804FB00BF26
:103494006006002064060020C4A0000000B58BB0C4
:1034A400039002910192039B002B03D12B498B20A3
:1034B400FFF73BFE039B0893089B9B690793089BBC
:1034C4001B69B3F5007F01D0062343E0244B1B683E
:1034D400002B01D011233DE0079B019A9A61079BC1
:1034E400029A9A601E4A089B136000230993089B62
:1034F40014331C491846FFF7B3FC0990099B002BB1
:103504000DD1029B002B0AD1FFF724FF164B1B7829
:10351400DBB2002B01D1002300E00D230993099BAA
:10352400002B16D00E4B00221A60029B002B10D0E9
:1035340000238DF8103001238DF8113000230593FA
:10354400079B9B690693079B9B6804AA11460398F3
:103554009847099B18460BB05DF804FBC4A0000013
:1035640064060020713300006006002000B589B0B5
:103574000190019B002B03D11F49C320FFF7D5FD08
:10358400019B0793079B9B6906931C4B1A68079B37
:103594009A4201D011232AE0FFF742FD0346002B93
:1035A40001D0112323E0FFF711FD0590059B002BAB
:1035B40002D1124B00221A60069B9B68002B15D087
:1035C40001238DF80830059B002B14BF0123002331
:1035D400DBB28DF8093000230393069B9B690493A7
:1035E400069B9B6802AA114601989847059B1846BA
:1035F40009B05DF804FB00BFC4A00000640600200D
:1036040000B589B001900091019B002B03D1304992
:10361400EF20FFF78AFD009B002B03D12C49F020FB
:10362400FFF783FD019B0693069B9B69059300238B
:103634000793284B1A68069B9A4201D0112343E052
:10364400FFF7EEFC0346002B01D011233CE0059B61
:10365400009A0C3307CA83E80700009B9868009B14
:103664001968009B5B689BB21A46FFF701FB079041
:10367400079B002B0ED1059B9B68002B0AD1FFF7FB
:1036840069FE154B1B78DBB2002B01D1002300E04F
:103694000D230793059B9B68002B14D0079B002BDD
:1036A40011D002238DF8083001238DF80930059BD1
:1036B4000C330393059B9B690493059B9B6802AAA7
:1036C400114601989847079B184609B05DF804FB1A
:1036D400C4A00000640600206006002000B589B084
:1036E40001900091019B002B04D1314940F221103B
:1036F400FFF71BFD009B002B04D12D494FF4917063
:10370400FFF713FD019B0693069B9B69059300231A
:103714000793284B1A68069B9A4201D0112343E071
:10372400FFF77EFC0346002B01D011233CE0059BF0
:10373400009A0C3307CA83E80700009B9868009B33
:103744001968009B5B689BB21A46FFF7FDFA079065
:10375400079B002B0ED1059B9B68002B0AD1FFF71A
:10376400F9FD154B1B78DBB2002B01D1002300E0DF
:103774000D230793059B9B68002B14D0079B002BFC
:1037840011D002238DF8083001238DF80930059BF0
:103794000C330393059B9B690493059B9B6802AAC6
:1037A400114601989847079B184609B05DF804FB39
:1037B400C4A00000640600206006002088B00390C6
:1037C4000B4601928DF80B30039B07939DF80B3049
:1037D400002B04D0012B0CD000BF062315E0019B65
:1037E4000693069B002B02D0069B00221A7000232E
:1037F4000BE0019B002B01D1072306E0019B0593FD
:10380400079B1A1D059B1A600023184608B07047D1
:1038140000B585B00190019B002B04D107494FF4FA
:10382400BB70FFF782FC019B0393039B9B6902938C
:10383400029B184605B05DF804FB00BFC4A000005D
:1038440000B583B00190019B002B03D10C493120BA
:10385400FFF76BFC019B9B68002B0CD0019B5B6901
:10386400019A1069019A1168019A92689847019B1C
:1038740000229A6000E000BF03B05DF804FB00BFC3
:1038840060A100000EB400B584B00190019B002B30
:1038940003D118494220FFF748FC019B5B69002BC8
:1038A40003D114494320FFF740FC019B1B68002B04
:1038B40003D110494420FFF738FC019B5B68002BBF
:1038C40003D10C494520FFF730FC059B002B0AD09F
:1038D4000023039306AB039303AB1A46059901989F
:1038E40000F0B0F900E000BF04B05DF804EB03B0F1
:1038F400704700BF60A1000000B583B001900B4683
:103904008DF80330019B1A68019B9B68581C019930
:10391400886013449DF803201A70019B9A68019BE8
:103924005B689A4202D30198FFF78AFF00BF03B095
:103934005DF804FB00B587B00390029101920093F7
:1039440000230593009B03F00103002B24D00BE01C
:10395400029B01330293059B013305939DF81330B9
:1039640019460398FFF7C8FF029B1B788DF81330A4
:103974009DF81330002BEBD106E0019B013B019332
:1039840020210398FFF7B8FF019A059B9A422ED98C
:10399400019B002BF1D12AE0029B002B0BD0029853
:1039A40006F09CF8059006E0019B013B0193202161
:1039B4000398FFF7A1FF019A059B9A420FD9019B37
:1039C400002BF1D10BE0029B01330293059B0133E1
:1039D40005939DF8133019460398FFF78DFF029B5A
:1039E4001B788DF813309DF81330002BEBD100BFFA
:1039F40007B05DF804FB000000B589B003900291A4
:103A040001920093029B07930123069307E0079A10
:103A1400019BB2FBF3F30793069B01330693079ACA
:103A2400019B9A42F3D2009A069B9A4201D9009BC9
:103A340006930B9B03F00103002B22D10A9B002B5E
:103A44001FD00B9B03F00203002B06D0009B002B1E
:103A540003D130238DF8173002E020238DF817307E
:103A640008E00A9B013B0A939DF817301946039816
:103A7400FFF742FF0A9B002B03D0069A0A9B9A4247
:103A8400EFD301230793009B012B03D9009B013B38
:103A9400009309E0029A079BB2FBF3F30493049AA0
:103AA400019B9A4200D205E0079B019A02FB03F3B3
:103AB4000793E8E7029A079BB2FBF3F30493049B92
:103AC400079A02FB03F3029AD31A0293154A049B42
:103AD40013441B7819460398FFF70EFF079A019BBE
:103AE400B2FBF3F30793079B002BE3D10B9B03F08B
:103AF4000103002B11D00A9B002B0ED006E00A9B79
:103B0400013B0A9320210398FFF7F6FE0A9B002B42
:103B140003D0069A0A9B9A42F1D300BF09B05DF81C
:103B240004FB00BF3CA2000000B589B005900491DD
:103B340003920293049B002BB8BF5B4206930123BC
:103B4400079307E0039B069A92FBF3F30693079B04
:103B540001330793039B069A9A42F3DA029A079B6E
:103B64009A4201D9029B07930A9B002B0AD0049B1B
:103B7400002B04DB0B9B03F00403002B02D00A9BF5
:103B8400013B0A930B9B03F00203002B02D0029B20
:103B9400002B16D00B9B03F00103002B11D10A9BC1
:103BA400002B0ED006E00A9B013B0A9320210598C6
:103BB400FFF7A2FE0A9B002B03D0079A0A9B9A42A6
:103BC400F1D3049B002B07DA049B5B4204932D2161
:103BD4000598FFF791FE08E00B9B03F00403002B0C
:103BE40003D02B210598FFF787FE0B9B03F00203FC
:103BF400002B19D00B9B03F00103002B14D1029B63
:103C0400002B11D10A9B002B0ED006E00A9B013B2E
:103C14000A9330210598FFF76FFE0A9B002B03D00F
:103C2400079A0A9B9A42F1D304990B9B01930A9B2E
:103C34000093029B039A0598FFF7DEFE00BF09B0CC
:103C44005DF804FB00B58FB0059004910392059BC9
:103C5400002B04D1C8494FF49F70FFF766FA059B07
:103C64005B69002B04D1C4494FF4A070FFF75DFADF
:103C7400059B1B68002B04D1BF4940F24110FFF79C
:103C840054FA059B5B68002B04D1BB494FF4A17027
:103C9400FFF74BFA049B002B00F0ED81049B1B788B
:103CA4008DF83730049B013304939DF83730002B93
:103CB40000F0D8819DF83730252B40F0C7810023D0
:103CC4000A9301230C93049B1B788DF837309DF8DD
:103CD40037302D2B04D0302B0AD02B2B10D017E0EB
:103CE4000A9B43F001030A93049B0133049312E0FB
:103CF4000A9B43F002030A93049B013304930AE0F2
:103D04000A9B43F004030A93049B0133049302E0E7
:103D140000230C9300BF0C9B002BD4D100230993E8
:103D24009DF837302A2B0CD1039B1B68191D039A6D
:103D340011601B68099A13440993049B013304938B
:103D44001AE0049B1B788DF837309DF837302F2B01
:103D540012D99DF83730392B0ED8049B01330493C4
:103D6400099A13469B0013445B001A469DF83730AA
:103D74001344303B0993D3E700230B93049B1B7834
:103D84008DF837309DF837302E2B1DD1049B01332D
:103D94000493049B1B788DF837309DF837302F2B14
:103DA40012D99DF83730392B0ED8049B0133049374
:103DB4000B9A13469B0013445B001A469DF8373058
:103DC4001344303B0B93E4E7049B1B788DF83730A6
:103DD4009DF837306C2B03D09DF83730682B07D112
:103DE400049B01330493049B1B788DF83730EFE771
:103DF4009DF83730253B532B00F2238101A252F862
:103E040023F000BF3D400000474000004740000051
:103E14004740000047400000474000004740000082
:103E24004740000047400000474000004740000072
:103E34004740000047400000474000004740000062
:103E44004740000047400000474000004740000052
:103E54004740000047400000474000004740000042
:103E64004740000047400000474000004740000032
:103E74004740000047400000474000004740000022
:103E84004740000047400000474000004740000012
:103E94004740000047400000474000004740000002
:103EA40047400000474000004740000047400000F2
:103EB40047400000474000004740000047400000E2
:103EC40047400000474000004740000047400000D2
:103ED400C93F000047400000474000004740000041
:103EE40047400000474000004740000047400000B2
:103EF400474000004740000047400000593F000091
:103F0400813F000047400000474000004740000058
:103F140047400000813F0000474000004740000048
:103F24004740000047400000474000004740000071
:103F3400094000004740000047400000ED3F0000FA
:103F440047400000A53F00004740000047400000F4
:103F5400C93F0000039B1B68191D039A11601B686D
:103F64000C930C9B8DF823309DF82330194605984B
:103F7400FFF7C2FC66E000BFCCA10000039B1B68F6
:103F8400191D039A11601B680C930A9B0193099BEA
:103F940000930B9B0A220C990598FFF7C5FD51E08D
:103FA400039B1B68191D039A11601B680C930C99E1
:103FB4000A9B0193099B00930B9B0A220598FFF728
:103FC4001BFD3FE0039B1B68191D039A11601B68CE
:103FD4000C930C990A9B0193099B00930B9B102251
:103FE4000598FFF709FD2DE0039B1B68191D039A33
:103FF40011601B6807930A9B099A07990598FFF7B4
:1040040099FC1FE0039B1B68191D039A11601B6830
:104014000C9330210598FFF76FFC78210598FFF782
:104024006BFC0C99002301930823009308231022AE
:104034000598FFF7E1FC05E025210598FFF75CFCF6
:1040440000E000BF049B0133049305E09DF8373082
:1040540019460598FFF750FC049B1B78002B7FF44E
:104064001DAE00E000BF059B1B7B002B04D0059810
:10407400FFF7E6FB00E000BF0FB05DF804FB00BFF4
:1040840010B487B001900091019B009A53E8004F4F
:1040940004EB020043E8000191F0000FF6D105940F
:1040A40004900391049B184607B05DF8044B7047D5
:1040B40010B487B001900091019B009A53E8004F1F
:1040C400A4EB020043E8000191F0000FF6D105943F
:1040D40004900391049B184607B05DF8044B7047A5
:1040E40000B583B001900198FFF76CF803461846B9
:1040F40003B05DF804FB00B58BB001900091019B07
:104104001B8A043B0793009A079B1344DA1C079B02
:10411400B2FBF3F38DF81B300198FFF7ABF8059071
:10412400059B002B01D1002338E0059B00221A7166
:10413400059B01225A71079B9AB2059BDA80059B65
:1041440009939DF81B30013B0493099B019A1A6063
:10415400002308931DE00198FFF78CF80390039B5C
:10416400002B0ED0059B5B790133DAB2059B5A71A3
:10417400099B039A1A60039B019A1A60039B099393
:1041840004E0059800F00EF8002307E0089B0133D3
:104194000893089A049B9A42DDD3059B18460BB0FA
:1041A4005DF804FB00B58BB00190019B0793079B5E
:1041B4005B798DF81B30019B08939DF81B30013B04
:1041C40005930023099305E0089B1B680893099B4A
:1041D40001330993099A059B9A42F5D3089B1B68FE
:1041E4000493019B0893002309930BE0089B1B682D
:1041F400039308990498FFF77FF8039B0893099B9E
:10420400013309939DF81B20099B9A42EED800BF05
:104214000BB05DF804FB00B585B00190019B0393DE
:10422400039B043301211846FFF72AFF00BF05B0A2
:104234005DF804FB00B587B00190019B0593059BD5
:10424400043301211846FFF733FF0346039303ABFE
:104254000493049B1B78002B02D10198FFF7A2FF63
:1042640000BF07B05DF804FB00B58DB00390029168
:1042740001920093039B0693069BDB880593039BA3
:104284000B93009B1A1D059BB2FBF3F30A93009B4F
:104294000433059AB3FBF2F2059901FB02F29B1A6F
:1042A4000993009A019B1A44059B1344DA1C059B4D
:1042B400B2FBF3F38DF81330069B5B799DF8132062
:1042C4009A420AD92749BA20FEF72FFF05E00B9B33
:1042D4001B680B930A9B013B0A930A9B002BF6D1A4
:1042E40000230893059A099BD31A0793079A019B05
:1042F400934228BF134607932DE09DF83830002BD6
:104304000BD0029A089BD0180B9A099B13440433D0
:10431400079A194605F0B8FB0AE00B9A099B134467
:10432400181D029A089B1344079A194605F0ACFB22
:10433400002309930B9B1B680B93019A079BD31AC9
:104344000193089A079B13440893059A019B93428F
:1043540028BF13460793019B002BCED100BF0DB09D
:104364005DF804FB4CA2000000B587B005900491F1
:104374000392029300230093029B039A04990598E5
:10438400FFF772FF00BF07B05DF804FB00B587B00C
:10439400059004910392029301230093029B039AD4
:1043A40004990598FFF760FF00BF07B05DF804FBB0
:1043B40000B585B00190019800F00EF80390039BBE
:1043C400002B01D0039B00E0024B184605B05DF8BA
:1043D40004FB00BFCCA2000086B00190164B0593ED
:1043E400164B04931FE0049A059BD31ADB10DA0FD3
:1043F40013445B10DB00059A13440393039B1B686F
:104404000293029A019B9A4202D9039B04930AE005
:10441400029A019B9A4203D2039B0833059302E05C
:10442400039B5B6804E0059A049B9A42DBD3002358
:10443400184606B0704700BFE8A50000D8A60000E3
:1044440082B003468DF8073007499DF907305B09B0
:104454009DF8072002F01F02012000FA02F241F841
:10446400232000BF02B0704700E100E082B00346A1
:104474008DF8073008499DF907305B099DF807203E
:1044840002F01F02012000FA02F2603341F82320F7
:1044940000BF02B0704700BF00E100E082B00346F5
:1044A40000918DF807309DF90730002B0CDA0D4987
:1044B4009DF8073003F00F03043B009AD2B2520177
:1044C400D2B20B441A7609E007499DF90730009AE5
:1044D400D2B25201D2B20B4483F8002300BF02B01F
:1044E400704700BF00ED00E000E100E000B583B0DC
:1044F40003460A468DF8073013468DF806309DF8BA
:104504000630072B04D90D494FF49270FEF70DFEC7
:104514009DF806209DF9073011461846FFF7BEFFA7
:104524009DF907301846FFF7A1FF9DF9073018469B
:10453400FFF786FF00BF03B05DF804FBD8A60000B8
:1045440082B003468DF8073008499DF907305B09AE
:104554009DF8072002F01F02012000FA02F2203326
:1045640041F8232000BF02B0704700BF00E100E023
:1045740082B001900B468DF803309DF80330019A08
:10458400134401221A6000BF02B0704784B0019046
:104594000B46ADF80230BDF80230019A13440022F4
:1045A4001A60BDF80230019A13441B680393039BFD
:1045B40000BF04B0704782B001900B46ADF80230E2
:1045C400BDF80230019A13441B68002B14BF012369
:1045D4000023DBB2184602B0704782B0019000910C
:1045E400019B009AC3F8042300BF02B0704782B055
:1045F40001900091019B009AC3F8082300BF02B008
:10460400704782B00190019B0722C3F8002500BFC8
:1046140002B0704782B00190019B0022C3F80025CC
:1046240000BF02B0704784B00390029101920093DE
:10463400039B029AC3F80825039B019AC3F80C252F
:10464400039B009AC3F8102500BF04B0704782B0E2
:1046540001900091009A019BC3F8242500BF02B089
:10466400704784B00390029113468DF80730029A84
:10467400039BC3F844259DF80720039BC3F84825F2
:1046840000BF04B0704784B00390029113468DF8C4
:104694000730029A039BC3F834259DF80720039B37
:1046A400C3F8382500BF04B0704784B001900B46AE
:1046B4008DF8033013468DF802309DF80230002B3C
:1046C40014BF01230023DBB203939DF80330022BB4
:1046D40009D0032B0CD0012B00D00EE0039B43F038
:1046E4000203039309E0039B43F00403039304E0F0
:1046F400039B43F00603039300BF019B039AC3F893
:10470400542500BF04B0704782B001900B468DF869
:1047140003309DF80320019BC3F8C02500BF02B0FD
:10472400704782B00190019B0122C3F8502500BF5D
:1047340002B0704782B00190019B0022C3F850255B
:1047440000BF02B0704782B00190019B0122C3F800
:10475400402500BF02B0704782B00190019B002247
:10476400C3F8402500BF02B0704700B583B00346CC
:104774008DF807309DF907301846FFF7E1FE00BFBA
:1047840003B05DF804FB82B00190019B03F0604329
:10479400B3F1005F0CBF01230023DBB2184602B063
:1047A4007047000000B583B00190019B1B681F2B6C
:1047B40004D905494FF4E870FEF7B7FC4FF0A04365
:1047C400184603B05DF804FB54A7000000B585B09B
:1047D4000190084611461A4603468DF803300B46ED
:1047E4008DF8023013468DF8013001AB1846FFF7FF
:1047F400D9FF0390019A9DF803109DF802305B00E5
:1048040019439DF801309B0019439DF818301B0291
:1048140019439DF81C301B041943039B02F5E072F5
:1048240043F8221000BF05B05DF804FB00B585B065
:10483400039000230193002300930023012201210C
:104844000398FFF7C3FF00BF05B05DF804FB00B594
:1048540085B003900B468DF80B309DF80B20002398
:104864000193002300931346002200210398FFF7CD
:10487400ADFF00BF05B05DF804FB00B585B0019045
:1048840001AB1846FFF78EFF0390019B012202FA49
:1048940003F31946039800F018F800BF05B05DF85B
:1048A40004FB00B585B0019001AB1846FFF77AFF11
:1048B4000390019B012202FA03F31946039800F0C6
:1048C4000EF800BF05B05DF804FB82B001900091C2
:1048D400019B009AC3F8082500BF02B0704782B05C
:1048E40001900091019B009AC3F80C2500BF02B00F
:1048F4007047000000B58DB00590049103920293B7
:10490400049B002B03D15B49A820FEF70EFC059BFA
:104914005B791A461346DB0013449B00564A134442
:104924000993099B1B7F002B03D008230893089B42
:104934009CE0099B039A1A60099B029A5A60049BA3
:104944001B7B012B05D8049B1B781846FFF7A9FF96
:1049540004E0049B1B781846FFF78FFF049B1B7829
:104964001846002301930023009300230022012111
:10497400FFF72CFF049B5B78FF2B09D0049B5B782B
:104984000B930B98FFF78DFF0B98FFF74FFF02E097
:104994004FF0FF330B93049B9B78FF2B07D0049BB2
:1049A4009B780A9303210A98FFF751FF02E04FF026
:1049B400FF330A93049BDB78FF2B09D0049BDB783D
:1049C4001846FFF75AFF049BDB781846FFF72EFFC3
:1049D400059B5B791946049BD878274A0B46DB0074
:1049E4000B449B0013441E3302461A70059B1B683C
:1049F4000793049B1B7819460A9B0B9A0798FFF7A9
:104A040012FE049B9B6819460798FFF720FE049B3F
:104A1400197B049B5B7B1A460798FFF746FE049BB1
:104A24005B7919460798FFF76FFE099B1B68002BFB
:104A340003D040210798FFF7D0FD0798FFF7E1FD69
:104A4400099B1B68002B08D0059B93F90420049B49
:104A54001B7919461046FFF749FD099B00225A7736
:104A6400099B01221A7700230893089B18460DB06E
:104A74005DF804FB90A700006806002000B585B02F
:104A84000190019B5B791A461346DB0013449B009B
:104A9400244A13440393039B1B7F002B04D1224914
:104AA40040F23110FEF741FB039B1B68002B05D03D
:104AB400019B93F904301846FFF757FE019B1B68CE
:104AC4000293039B1B68002B1CD04FF0FF3102980C
:104AD400FFF78DFD039B5B7FDBB2002B12D014210B
:104AE4000298FFF745FD00BF4FF482710298FFF76B
:104AF40062FD034683F00103DBB2002BF4D1039B78
:104B040000225A774FF48C710298FFF73FFD029808
:104B1400FFF780FD039B00221A7700BF05B05DF804
:104B240004FB00BF6806002090A7000000B589B010
:104B340003900291009313468DF80730029B04936F
:104B4400009B06939DF807308DF814309DF82830AB
:104B54008DF81C3004AB00221946039800F0D8F8F5
:104B64000346184609B05DF804FB00B583B0019014
:104B7400019B9B7FFF2B04D0019B9B7F1846FFF773
:104B84007CFE019B00225A77019B00221A72019B32
:104B94001B68019A02F10800019A5268114698476D
:104BA40000BF03B05DF804FB00B583B001900B4671
:104BB4008DF803309DF8033083F00103DBB2002B42
:104BC40004D040210198FFF712FD03E04021019831
:104BD400FFF703FD00BF03B05DF804FB00B583B02D
:104BE40001900091009B03F00103002B03D0019876
:104BF400FFF797FD02E00198FFF79CFD009B03F08F
:104C04000203002B03D00198FFF79DFD02E00198F9
:104C1400FFF7A2FD00BF03B05DF804FB00B587B049
:104C24000390029101920093019B1B68002B0AD010
:104C3400019B1B681846FFF7A6FD034683F001039A
:104C4400DBB2002B0ED1019B9B68002B11D0019B82
:104C54009B681846FFF797FD034683F00103DBB218
:104C6400002B06D0029B00225A7710230593059B44
:104C74004AE0019B1968019B1B791A460398FFF7C8
:104C8400F0FC019B9968019B1B7B1A460398FFF774
:104C9400FAFC4FF48C710398FFF778FC00990398A1
:104CA400FFF79CFF009B03F00803002B03D11021A6
:104CB4000398FFF75DFC029B1B68002B15D100BF16
:104CC4004FF48C710398FFF776FC034683F00103DD
:104CD400DBB2002BF4D1029B9B7FFF2B11D0029BF4
:104CE4009B7F1846FFF7C9FD0BE0009B03F004030C
:104CF400002B0CBF01230023DBB219460398FFF7F6
:104D040053FF00230593059B184607B05DF804FB89
:104D140010B586B0039002910192039B5B791A4609
:104D24001346DB0013449B00364A13440593059B4A
:104D34001B7F002B04D1344940F25720FEF7F5F9CC
:104D4400029B1B68002B08D1029B1B79002B04D00B
:104D54002D494FF41670FEF7E8F9029B9B68002B6F
:104D640008D1029B1B7B002B04D0274940F2592019
:104D7400FEF7DBF900230493059B5B7FDBB2002B7A
:104D840003D011230493049B39E0059B1B68002B7B
:104D940007D0019B03F01403002B02D1059B0122D1
:104DA4005A77059B029A03F10C0413460FCB84E84F
:104DB4000F00059A92F821306FF3000382F8213036
:104DC400059A92F821306FF3410382F82130059A55
:104DD40092F821306FF3820382F82130059B9B7F88
:104DE400FF2B04D0059B9B7F1846FFF75AFD039BBE
:104DF4001868019B029A0599FFF710FF03461846AD
:104E040006B010BD6806002090A7000000B583B06E
:104E1400019000914FF48C710198FFF7CCFB03468D
:104E2400002B10D04FF48C710198FFF7AFFB009B5F
:104E34001B68002B04D1064940F2BE20FEF775F929
:104E44000098FFF792FE00BF03B05DF804FB00BFBB
:104E540090A7000000B583B0044B01930199044866
:104E6400FFF7D4FF00BF03B05DF804FB6806002021
:104E74000030004082B003468DF8073008499DF9A0
:104E840007305B099DF8072002F01F02012000FA99
:104E940002F2203341F8232000BF02B0704700BF64
:104EA40000E100E084B001900B46ADF80230BDF89B
:104EB4000230019A134400221A60BDF80230019AAC
:104EC40013441B680393039B00BF04B0704782B074
:104ED40001900B46ADF80230BDF80230019A13443C
:104EE4001B68002B14BF01230023DBB2184602B059
:104EF400704782B001900091019B009AC3F804238B
:104F040000BF02B0704782B001900091019BD3F8BA
:104F14000423009B1340002B14BF01230023DBB2A6
:104F2400184602B0704782B001900091019B009A2C
:104F3400C3F8082300BF02B0704784B00190019BFE
:104F4400D3F880340393019B039AC3F88024039B12
:104F5400184604B0704782B00190019B0422C3F844
:104F6400002500BF02B0704782B00190019B00226F
:104F7400C3F8002500BF02B0704784B003900291CB
:104F84000192039B019AC3F81425039B029AC3F868
:104F94000C2500BF04B0704700B583B001904FF0FA
:104FA400FF324FF0FF310198FFF7E7FF00BF03B076
:104FB4005DF804FB82B00190019BD3F80C351846D0
:104FC40002B0704782B00190019BD3F814351846A3
:104FD40002B0704782B00190019BD3F8083518469F
:104FE40002B0704782B00190019BD3F81035184687
:104FF40002B0704784B0039002910192039B029A1D
:10500400C3F80825039B019AC3F8102500BF04B018
:10501400704700B583B001904FF0FF324FF0FF317D
:105024000198FFF7E7FF00BF03B05DF804FB82B00F
:105034000190019BD3F81835DBB2184602B07047D3
:1050440082B001900B468DF803309DF80320019B3C
:10505400C3F81C2500BF02B0704782B001900B4614
:105064008DF803309DF80330019A134401221A602D
:1050740000BF02B0704782B001900B468DF8033038
:1050840013468DF802309DF803209DF80230134337
:10509400DBB21A46019BC3F86C2500BF02B070470F
:1050A40082B001900091019B009AC3F8242500BFAF
:1050B40002B0704784B001900B46ADF80230BDF8E1
:1050C4000230019A134400221A60BDF80230019A9A
:1050D40013441B680393039B00BF04B0704782B062
:1050E40001900B46ADF80230BDF80230019A13442A
:1050F4001B68002B14BF01230023DBB2184602B047
:10510400704782B001900091019BD3F80022009B6C
:10511400DB431A40019BC3F8002200BF02B0704772
:1051240082B001900091019B009AC3F8042300BF50
:1051340002B0704782B001900091019B009AC3F8BD
:10514400082300BF02B0704784B00190019BD3F8DC
:1051540080340393019B039AC3F88024039B18466D
:1051640004B0704782B00190019B0822C3F8002567
:1051740000BF02B0704782B00190019B0022C3F8C7
:10518400002500BF02B0704784B0039002910192E1
:10519400039B029AC3F80C25039B019AC3F81425B8
:1051A40000BF04B0704700B583B001904FF0FF32E8
:1051B4004FF0FF310198FFF7E7FF00BF03B05DF840
:1051C40004FB82B00190019BD3F80C35184602B061
:1051D400704782B00190019BD3F81435184602B091
:1051E400704782B00190019BD3F80835184602B08D
:1051F400704782B00190019BD3F81035184602B075
:10520400704784B0039002910192039B029AC3F801
:105214000825039B019AC3F8102500BF04B070470A
:1052240000B583B001904FF0FF324FF0FF31019889
:10523400FFF7E7FF00BF03B05DF804FB82B0019005
:105244000B468DF803309DF80330019A1344012274
:105254001A6000BF02B0704782B001900B468DF80F
:10526400033013468DF802309DF803209DF8023078
:105274001343DBB21A46019BC3F86C2500BF02B08E
:10528400704782B001900091019B009AC3F82425D5
:1052940000BF02B0704784B00390029113468DF8AA
:1052A4000730029A039BC3F844259DF80720039B0B
:1052B400C3F8482500BF04B0704782B00190019B39
:1052C400D3F84C35184602B0704782B00190019B68
:1052D400D3F83C35184602B0704700B583B0034696
:1052E4008DF807309DF907301846FFF7C3FD00BF5E
:1052F40003B05DF804FB84B00190019B1B0B8DF897
:105304000F309DF90F30184604B0704782B00190F9
:10531400019B03F06043B3F1005F0CBF0123002342
:10532400DBB2184602B0704700B583B00190019B10
:105334001B681F2B04D905494FF4E870FDF7F5FEEF
:105344004FF0A043184603B05DF804FB0CA800001E
:1053540000B585B00190084611461A4603468DF8FB
:1053640003300B468DF8023013468DF8013001AB43
:105374001846FFF7D9FF0390019A9DF803109DF892
:1053840002305B0019439DF801309B0019439DF8DE
:1053940018301B0219439DF81C301B041943039B4E
:1053A40002F5E07243F8221000BF05B05DF804FB7B
:1053B40000B585B0039000230193002300930023DC
:1053C400012201210398FFF7C3FF00BF05B05DF878
:1053D40004FB00B585B003900B468DF80B309DF8A7
:1053E4000B20002301930023009313460022002185
:1053F4000398FFF7ADFF00BF05B05DF804FB00B5EF
:1054040085B003900023019300230093002301221D
:1054140000210398FFF79CFF00BF05B05DF804FB73
:1054240000B585B0019001AB1846FFF77DFF0390EE
:10543400019B012202FA03F31946039800F004F8D1
:1054440000BF05B05DF804FB82B001900091019BA0
:10545400009AC3F8082500BF02B0704700B583B0B6
:1054640001900091009B1B68B3F1FF3F09D0009BA2
:105474001B681846FFF7D4FF009B1B681846FFF70C
:1054840097FF009B5B68B3F1FF3F05D0009B5B680F
:1054940000211846FFF79DFF019B1B79464A5B01DB
:1054A40013441C331B78002B41D0019B1A68009BCA
:1054B4009B6919461046FFF7E4FE019B1868009BA0
:1054C400597D009B1B7D1A46FFF7C6FE019B186899
:1054D400009B1968009B5B681A46FFF755FE009B0A
:1054E4001B7D012B64D1009B9B68B3F1FF3F05D06A
:1054F400009B9B6800211846FFF76BFF009BDB684D
:10550400B3F1FF3F09D0009BDB681846FFF788FF23
:10551400009BDB681846FFF74BFF019B1868009B54
:10552400D968009B9B681A46FFF76BFE40E0019B1D
:105534001A68009B9B6919461046FFF7B1FD019B51
:105544001868009B597D009B1B7D1A46FFF793FD4D
:10555400019B1868009B1968009B5B681A46FFF75B
:105564000CFD009B1B7D012B22D1009B9B68B3F19A
:10557400FF3F05D0009B9B6800211846FFF729FFD9
:10558400009BDB68B3F1FF3F09D0009BDB68184642
:10559400FFF746FF009BDB681846FFF709FF019BF6
:1055A4001868009BD968009B9B681A46FFF722FD88
:1055B40000BF03B05DF804FB8C06002000B583B087
:1055C40001900B468DF80330019B1B792D4A5B013A
:1055D40013441C331B78002B2FD0019B1B684FF402
:1055E40088711846FFF766FD019B1B684FF49071A4
:1055F4001846FFF75FFD019B1B684FF49271184634
:10560400FFF758FD019B1B684FF4A2711846FFF782
:1056140051FD019B1B681C491846FFF781FD019B46
:105624001B681846FFF767FE03461A469DF80330C9
:1056340019461046FEF75AFF20E0019B1B684FF401
:105644008E711846FFF72EFC019B1B684FF4A27164
:105654001846FFF727FC019B1B680C491846FFF707
:1056640048FC019B1B681846FFF745FE03461A4693
:105674009DF8033019461046FEF738FF00BF03B00B
:105684005DF804FB8C060020100302008000020079
:1056940000B583B00190019B1B79154A5B0113444B
:1056A4001C331B78002B0FD0019B1B681149184633
:1056B400FFF740FD019B1B681846FFF71CFE0346DD
:1056C4001846FFF70AFE0EE0019B1B680A491846BC
:1056D400FFF729FC019B1B681846FFF70CFE0346E5
:1056E4001846FFF7FAFD00BF03B05DF804FB00BFE6
:1056F4008C060020100302008402020000B587B06B
:105704000190019B1B79364A5B0113441C331B78BF
:10571400002B22D0019B1B681846FFF752FD059011
:10572400019B1B681846FFF754FD0490019B1B68FE
:105734001846FFF756FD0390019B1B681846FFF7B8
:1057440058FD0290019B1B681846FFF72CFD019B36
:105754001B681846FFF764FD21E0019B1B6818468F
:10576400FFF728FC0590019B1B681846FFF72AFCED
:105774000490019B1B681846FFF72CFC0390019BC7
:105784001B681846FFF72EFC0290019B1B68184605
:10579400FFF702FC019B1B681846FFF73AFC059BC8
:1057A400B3F1FF3F02D00598FFF729FE049BB3F144
:1057B400FF3F02D00498FFF722FE029BB3F1FF3FA4
:1057C40002D00298FFF71BFE039BB3F1FF3F02D008
:1057D4000398FFF714FE00BF07B05DF804FB00BF99
:1057E4008C06002000B583B00190019B1B790B4A05
:1057F4005B0113441C331B78002B05D0019B1B68F1
:105804001846FFF7AFFC04E0019B1B681846FFF73E
:10581400A2FB00BF03B05DF804FB00BF8C060020B0
:1058240000B583B00190019B1B790B4A5B011344C3
:105834001C331B78002B05D0019B1B681846FFF70F
:105844009AFC04E0019B1B681846FFF78DFB00BF20
:1058540003B05DF804FB00BF8C06002000B587B0E0
:10586400039002910192029B002B04D122494FF430
:105874008870FDF75AFC039B1B795B011F4A134494
:10588400059300230493059BDB7E002B03D00823A0
:105894000493049B2BE0029B5A7F059B1A77029981
:1058A4000398FFF7DBFD059B019A5A60029B1A6976
:1058B400059B1A60059B5B68002B05D0029B1B7F30
:1058C40019460398FFF77AFE0398FFF78BFF059BB1
:1058D4000022DA75059B00221A76059B00229A7530
:1058E400059B0122DA76059B00229A76049B1846D2
:1058F40007B05DF804FB00BF4CA800008C06002034
:1059040000B585B00190019B1B795B010C4A1344DF
:1059140003930198FFF784FF039B5B68002B02D07D
:105924000198FFF7B5FE0198FFF7E8FE039B0022FC
:10593400DA76039B00225A6000BF05B05DF804FBD1
:105944008C06002000B585B0019000914FF48E7153
:105954000198FFF7A7FA009B9B68009A928A92B27B
:1059640013441B788DF80F30009B9B8A9BB2013344
:105974009AB2009B9A829DF80F3019460198FFF75E
:105984005FFB00BF05B05DF804FB000000B585B007
:105994000190019B1B795B01344A13440293002359
:1059A4000393019B1B684FF48E711846FFF77AFA34
:1059B400019B1B6808211846FFF74FFB019B1B68DE
:1059C40002991846FFF7BEFF029B5B68002B48D183
:1059D4001FE000BF019B1B684FF48E711846FFF750
:1059E40076FA034683F00103DBB2002B05D0029B59
:1059F4009B8A9BB2B3F5807FECD1029B9B8A9BB2BE
:105A0400B3F5807F05D0019B1B6802991846FFF708
:105A140099FF029B9B8A9AB2029B9B7D9BB29A42FE
:105A2400D7D3029B9B8A9BB2B3F5807F02D10F230D
:105A3400039313E000BF019B1B684FF48E7118465B
:105A4400FFF745FA034683F00103DBB2002BF2D1E2
:105A5400019B1B680C211846FFF7FFFA029B0022EA
:105A64009A75039B184605B05DF804FB8C0600206C
:105A740000B587B00190019B1B795B012A4A13444E
:105A8400049300230593019B1B684FF490711846FF
:105A9400FFF710FB019B1B684FF4AC711846FFF72E
:105AA40009FB019B1868049B9968049B9B7D1A461B
:105AB400FFF7F1FB019B1B6808211846FFF7BEFBAB
:105AC400049B5B68002B2AD1019B1B684FF49071E7
:105AD4001846FFF704FB03468DF80F30019B1B6843
