:10000000000001203D020000950200009702000060
:10001000990200009B0200009D0200000000000009
:100020000000000000000000000000009F0200002F
:10003000A102000000000000A3020000A5020000D1
:10004000A9020000AB0200005D280000852300002B
:10005000B1020000B3020000F52A0000B702000060
:10006000B9020000BB020000BD020000BF02000098
:10007000C1020000C3020000C5020000C702000068
:10008000C9020000CB020000CD020000CF02000038
:10009000D1020000D3020000D5020000D702000008
:1000A000D9020000DB020000DD020000DF020000D8
:1000B000E1020000E3020000A7020000A702000026
:1000C000E5020000E7020000E9020000EB02000088
:0C00D000ED020000EF020000F102000051
:1000DC00364937480A1A02D0072291438D463549D2
:1000EC0035480A1A06D00722914381F30988022267
:1000FC0082F3148831483249324A00F045F83248CC
:10010C003249334A00F040F832483349334A00F060
:10011C003BF833483349344A00F036F83348344915
:10012C00344A00F031F834483449354A00F02CF8A0
:10013C0034483549354A00F027F83548354900220E
:10014C0000F02DF834483549002200F028F83448E6
:10015C003449091A082903DB0022026004300160CB
:10016C00314A90471F482049884205D00268043024
:10017C0003B4904703BCF7E700208646EC4600200A
:10018C0000212A4A9047FEE7884207D0521A05D030
:10019C00037801300B700131013AF9D17047884274
:1001AC0002D002700130FAE7704700000000012015
:1001BC0000F800200000012000000120584C000035
:1001CC003C00002074000020F4020000F402000047
:1001DC0040460000584C00003C0000203C00002031
:1001EC00A4460000A4460000A4460000A44600005B
:1001FC00A4460000A4460000A4460000A44600004B
:10020C00584C0000904C000074000020740000203A
:10021C0074000020720B0020740B0020740B002063
:10022C00740B0020740D002061020000792C00007A
:10023C000F484FF00701884385460E4880470E480B
:10024C00016841F470010160BFF34F8FBFF36F8FF2
:10025C00FFF73EBF09480A490A4A884207D0521A9A
:10026C0005D0037801300B700131013AF9D1704798
:10027C00000001206D42000088ED00E0684600009F
:10028C00000000203C000020FEE7FEE7FEE7FEE752
:10029C00FEE7FEE7FEE7FEE7FEE7FEE7FEE7FEE72A
:1002AC00FEE7FEE7FEE7FEE7FEE7FEE7FEE7FEE71A
:1002BC00FEE7FEE7FEE7FEE7FEE7FEE7FEE7FEE70A
:1002CC00FEE7FEE7FEE7FEE7FEE7FEE7FEE7FEE7FA
:1002DC00FEE7FEE7FEE7FEE7FEE7FEE7FEE7FEE7EA
:0802EC00FEE7FEE7FEE700BF9C
:1002F400F0B595B01C4608460D46164601F02DFE95
:100304001A9B099400240D930822234605A9284624
:1003140008960A948DF82C400C9401F06AFE079B11
:100324000293069BADF80C309DF814308DF8104004
:1003340003F00302012A21D1BDF81440059EC3F342
:10034400C202C4F38314C3F380038DF80E208DF826
:100354000F30A20008230EA9284601F04AFEC6F376
:10036400952608AB0093224602AB0EA9304600F056
:1003740055FB284601F0FEFD15B0F0BD022AF8D168
:10038400BDF81640C3F3C202C3F38003C4F3891457
:100394008DF80E208DF80F300827082C264628BF2C
:1003A40008263B4632460EA9284601F022FEA41B2D
:1003B40008AB02AA31460EA8374400F095FB002C86
:1003C400EBD1D6E77047000007B5044B0093044A0D
:1003D4004023FFF78DFF03B05DF804FBE903000041
:1003E4007500002010B5084C08480023D2B22370D1
:1003F40002F0AEF908B100F0F7FB054B1A7812B120
:100404002378002BFBD010BDB50000203C00002059
:100414007400002030B50C4D0FCD89B06C460FC46C
:1004240095E80F0084E80F0008A9062341F8203D51
:100434000022064802F026F808B100F0D5FB044B70
:1004440000221A7009B030BDA44600003C00002010
:100454007400002008B5034802F0EEF8BDE8084037
:10046400FFF7D8BF3C000020FFF7D4BF10B5054C00
:10047400FFF7FAFF0421204600F054FA01236372C7
:1004840010BD00BF440000202DE9F04F044685B0A4
:1004940000200D4601F0BCF9404B1A682A609968A7
:1004A4005A681E680A440132B71C921B04F10408FE
:1004B40003F5836E012003F214454FF0000C42450E
:1004C40010D3314003313C4413F8212042F003029D
:1004D40003F8212000201C6001F09CF9012005B0E4
:1004E400BDE8F08F5EE8002F42EA00094EE8009A6A
:1004F4009AF0000FF6D155E8002F42EA000945E8CA
:10050400009A9AF0000FF6D15A6801EA020909F13B
:10051400030903EB890999F800A01AF0030F2AD004
:1005240001EA020903EB89090232D9F80C90CDF8EB
:10053400049009F00309B9F1010F28D0B9F1020FB1
:1005440007D1BDF80690C9F3891909F1030902EB33
:10055400990255E8009F09EA0C0A45E800AB9BF0B4
:10056400000FF6D1B9F1000F00D05A605A680A445E
:100574000132921BA3E7B9F802A0B9F80090C9F3BD
:10058400891909EB9A1909F101094A44BDE7BDF833
:100594000490C9F383194A44DBE700BFB800002084
:1005A40038B5104B1048FF229A600022C3F8182473
:1005B4001A605A60C3F81424012283F81C2401F041
:1005C40083FC40B9094A0A4B0A4C9B1ADB080246D1
:1005D4000C219A4200D138BD01FB02F52A530132A5
:1005E400F7E700BFB8000020D046000040460000F6
:1005F400684600000000002070B50B4C81B10B4A26
:100604000B4D121BD20800230C219A4201D1002069
:1006140070BD01FB03567688864202D00133F4E7AD
:10062400034654F8330070BD40460000684600009D
:1006340000000020094B013903EBC000032909D84D
:10064400DFE801F00A0204060420704700797047CD
:1006540040797047002070470220704740460000F0
:10066400034B58681B68C31A58425841704700BF6F
:10067400B80000202DE9F04F85B0FFF7F1FF002806
:1006840040F0D580704DC5F81804BFF34F8F6B68E8
:10069400AC6804EA0302033205EB8202117889078D
:1006A4005CD004EA03029E1C013305EB8202234062
:1006B40005EB8303D268DB68029302F00303022B89
:1006C40001925CD1BDF806306048C3F38919B9F1D1
:1006D400500FCA46A8BF4FF0500A6AF38F130AF1AD
:1006E4000801ADF8063001F007FC8046002800F050
:1006F400858024EA0607013701F02FFCBF000023A0
:10070400082201A9404601F049FCBA452FD9002F1F
:1007140000F08F805FFA87FB04EA06010331AAEB3D
:100724000B0A4B4F05EB81015FFA8AFA08235A46FC
:10073400404601F033FC37B10BF108035246394609
:10074400404601F02BFC09F1030906EB9906D5F8A4
:100754001834002B4FD1D5F8104458E05188128832
:10076400C2F3891202EB91120132134491E704EAB5
:10077400060103310823524605EB8101E0E7012B12
:1007840031D1BDF804303148C3F38311062928BFA1
:10079400062161F3891302318900ADF8043001F0B8
:1007A400ABFB804650B301F0D8FB0023082201A91B
:1007B400404601F0F3FB0027BDF80420C2F3831286
:1007C400BB1C97424FEA8303C1D204EA06010331FA
:1007D40006F10109042205EB8101404601F0DEFB2C
:1007E40001374E46E8E7032B08D1D5F818342BB966
:1007F40005B0BDE8F08F404601F0BCFBFFF730FFC9
:1008040080F00100C0B2F3E7637ABBB96468002CDE
:10081400FAD1404601F0AEFB204600F0F9FFD5F8CE
:10082400183403B96E60002000F0F4FFE6E70020FE
:10083400DEE75FFA8AFB0649BA4677E72368414652
:100844001B6820469847E1E7B8000020D046000026
:10085400C40000202DE9F743254F06460D461846EF
:1008640001A990469946BC68FFF70EFE394648B385
:10087400019F002007F1020E48452DD17A1C224029
:1008840001EB8202330CD36004EA07030333C6F39B
:10089400001411F8232064F3820266F3C50201F800
:1008A400232031F8232060F3891221F8232051F802
:1008B4002320012065F39F2241F8232060F30102E5
:1008C40001F8232091F81C341BB1FFF7D3FE002854
:1008D400FBD103B0BDE8F0830EEA040301EB83030C
:1008E40058F82020DA6001300EF1010EC4E700BF91
:1008F400B800002000231A46FFF7ACBF13B502ACC2
:10090400012344F8042D2246FFF7A4FF02B010BDD2
:1009140007B58DE80C0002236A46FFF79BFF03B07E
:100924005DF804FB0F4A30B5D2F810440023214689
:1009340041B90372D2F810444CB9C2F810044160B2
:10094400184630BD0D7A9D4205D04968F0E76268CB
:1009540042606060F4E701330A2BE8D14FF0FF33C3
:10096400EEE700BFB8000020084A38B50123D2F8EA
:10097400104482F81C341D4604B938BD23686572DE
:1009840020465B6898476468F6E700BFB80000201B
:10099400C37910B50C467BB9037A23B1084A0949D7
:1009A400204601F0DAF80849204601F0D6F820463E
:1009B400BDE8104001F0C6B8002AF8D0F3E700BF44
:1009C4001B470000E54800002047000070B5037A8B
:1009D40004460D4653B181798088FFF72BFE0B4BFB
:1009E4000B4953F82020284601F0B7F8A279094BA7
:1009F400A08853F822600021FFF7FEFD324603462B
:100A040005492846BDE8704001F0A7B8E846000053
:100A1400E548000030470000234700002DE9F0437B
:100A240085B01F460C9D002395F80C902B73FB7921
:100A340006460C4690461BB929463846FFF7C6FFC2
:100A4400B8F1060F09D8DFE808F00412181F28339C
:100A540040003146284601F080F8002229463846F5
:100A6400FFF796FF85F80C9005B0BDE8F083226887
:100A74003146284601F071F8EFE794E80C0031465E
:100A8400284601F06AF8E8E7A3680093314694E841
:100A94000C00284601F061F8DFE7E3680193A368DE
:100AA4000093314694E80C00284601F056F8D4E748
:100AB40023690293E3680193A3680093314694E8A1
:100AC4000C00284601F049F8C7E7636903932369DA
:100AD4000293E3680193A3680093314694E80C0001
:100AE400284601F03AF8B8E708292DE9F84F80467E
:100AF4000F4616461C4639D893F80C9000232373EE
:100B0400D3791BB921461046FFF760FFDFF87CA0BC
:100B1400DFF87CB00025AF422AD918F805205946E1
:100B2400204601F01AF80135082DF4D11549DFF8F3
:100B340064B0204601F011F80025AF421DD918F821
:100B440005A0504603F01AFD002814BF52462E2279
:100B54005946204601F001F80135082DEDD1012256
:100B640021463046FFF714FF84F80C90BDE8F88F57
:100B74005146204600F0F1FFD5E70349204600F036
:100B8400ECFFE9E716470000144700001247000095
:100B94000C47000018470000044B1A5C01239340E3
:100BA4004FF0A042C2F80835704700BF97470000D5
:100BB40008B50020FFF7F0FF0120FFF7EDFF02204A
:100BC400FFF7EAFF0320BDE80840FFF7E5BF4FF059
:100BD400A0430322C3F84427C3F84827C3F84C278B
:100BE400C3F85027FFF7E4BF1FB50021039001AA03
:100BF40044F20100ADF80410029100F003F805B0CE
:100C04005DF804FB10B5FFF7AFFEFFF733FD0028D6
:100C1400FBD1104C10492088000440F00100FFF77C
:100C240069FE0E4B1B68DB0700D5FFDE20880C49EC
:100C3400000440F00200FFF75DFEBFF34F8F094947
:100C4400094BCA6802F4E0621343CB60BFF34F8FD1
:100C540000BFFDE7000000209B470000F0ED00E02E
:100C6400A747000000ED00E00400FA0537B50C4C7E
:100C740094F858500124AC404FF0A045C5F80C45F9
:100C8400009313460A460146064801F069FB20B169
:100C940003B0BDE83040FFF7A7BF03B030BD00BFCD
:100CA400A8050020B44700002DE9F843544FFE8BFB
:100CB40040F2D914A6423C463AD0B6F5ED7F09D2AB
:100CC400AEB140F2C715AE422AD00023E38303201D
:100CD400BDE8F883B6F5F07F4FF0000109D0B6F512
:100CE400F67FF2D187F823101970F98343E0BD8AA7
:100CF400FD82E68AFF255EB9424A84F82850022321
:100D04000121A2F11000FFF7B1FF4FF4F67369E07F
:100D1400002684F8285003252684268384F823504B
:100D240044F6206E4FF0040C94F82350032D0FD09A
:100D3400258B954243D3E38A324A013BE382012166
:100D44000223A2F11000FFF791FF4FF4F07349E082
:100D5400268C0136B6B2764526840FD8064600297D
:100D640044D010F8015BFF2D0ED0FE2D0FD00522CC
:100D74001A700023E3830220BDE8F8830220187070
:100D84000023E383BDE8F8830139C9B2E6E70139FA
:100D9400C9B29142884684F823C028BF90460025F2
:100DA400454505D3E568A4F818804544E560BBE7EC
:100DB400E76816F8019F07F805900135F0E7551B21
:100DC400ADB2F02D28BFF025EBB2E2680E48012148
:100DD400FFF74CFFE3682B44E360238B1D4425831A
:100DE40040F2D913E3830120BDE8F883054A1023B8
:100DF4000121A2F11000FFF739FF40F2C713F1E718
:100E0400A8050020E0050020D0050020F8B52A4BF5
:100E140093F82340002C4DD146B2002E22DB01254D
:100E240083F823501D1900F07F0785F828700F0EF2
:100E340085F829700F0C85F82A7040284FEA11278D
:100E440085F82B7085F82C101FD048280CBF8721FB
:100E5400FF211C44022A84F82D1018D0032A16D02E
:100E6400012215E0022583F8235083F829407725D1
:100E740083F82A4083F82B4083F82C40FF2483F81E
:100E84002D4083F828500624CCE79521E1E705227C
:100E940083F82420002EA8BF93F82430074AB8BF53
:100EA40001230E33A2F11000DBB20621FFF7DEFEB0
:100EB4000020F8BD1120F8BDA8050020E0050020A1
:100EC400154B10B593F82240FCB193F82240032C43
:100ED4001DD1F2B1042483F822409C7AD8602407FF
:100EE40058BF49021961012A9A82DA824FF000043C
:100EF4008CBF52205120012219699C83FFF786FF81
:100F040048B1FFF771FE204610BD082010BD112026
:100F140010BD072010BD10BDA805002038B51A4B20
:100F2400154693F8222042B393F82220032A26D1AF
:100F34003DB3052283F822209A7AD860140758BF5B
:100F440049020024012D19619D82DD829C8309D10F
:100F540019692A465820FFF759FF08B1FFF744FEE4
:100F6400002038BD02F00702012A07BF1969592081
:100F74000122294618BFD720EDE7082038BD1120EB
:100F840038BD072038BD00BFA8050020F0B5334C9C
:100F940094F8222087B00E4602F0FF03002A57D1AE
:100FA400002957D0C278FF2A54D04178FF2951D064
:100FB4000778FF2F4ED08078FF284BD002F5E075DC
:100FC4004FF0A04E4FF0030C84F858204EF825C083
:100FD400012505FA02F2CEF80825FF228DF80A1041
:100FE4008DF80B2007218DF80D204FF080628DF8CD
:100FF40008008DF80C10049202A9194A19488DF8BA
:1010040009708DF814308DF8153001F043F808B1EB
:10101400FFF7EAFDA37A84F8225003F0F8036FF394
:10102400C303A372FF2384F828300A2300930E4BD2
:101034000C48266000250122A3F1100184F82350F6
:1010440001F08EF940B1FFF7CFFD284607B0F0BD9F
:101054000820FBE70720F9E7F8E700BFA805002010
:10106400B5100000B4470000E005002010B50E4C98
:1010740094F82230A3B194F82230032B12D10B48F8
:1010840001F0A2F894F858304FF0A04203F5E07351
:10109400002042F8230084F8230084F8220010BDC5
:1010A400082010BD112010BDA8050020B447000081
:1010B400F7B5BC4C0646E58AC068317C3DB994F866
:1010C4005820012393404FF0A042C2F8083594F809
:1010D40023707B1E012B56D8766836788A1F4C2ED7
:1010E400D2B200F1060305D1002A00F0A782073925
:1010F400CAB2C31D184611460346002900F09C825B
:101104001A78FF2A00F1010014D0022F37D10122EE
:1011140084F823201A7812F0FE0F30D194F824308A
:10112400A14A0E33DBB20621A2F10A00FFF79EFDAD
:1011340003B0F0BD0139C9B2DEE700238DF80430F5
:10114400032384F82230FFF791FF28B1FFF74CFD09
:1011540002E002238DF8043094F8582001239340D0
:101164004FF0A042C2F80835032384F822302368E4
:1011740001A89847DCE70320E8E70023C5E700223D
:1011840084F82320184694F82230013B042B00F203
:101194004F82DFE813F005000A004D020D015A01E9
:1011A400022384F822300023A383A58B0378B5F5AA
:1011B4000E7F00F09D822CD840F21322954200F05D
:1011C4006882B5F5057F09D2002D52D0B5F5047FAC
:1011D40000F054820023A383062159E040F219222F
:1011E400954200F0668240F226229542F2D15A07D7
:1011F4006AD413F0FC0F48D113F001017FD102220D
:101204007A20FFF703FE08B1FFF7EEFC40F2532308
:1012140039E040F26122954200F0828212D840F215
:101224004D229542E5D040F253229542D2D113F09B
:10123400FC0F2AD143785D0642BFA37A43F008032A
:10124400A3725CE240F26B22954200F07B8240F292
:1012540071239D42BED101AB1022FFF725FD012869
:101264007FF666AF9DF80410002961D00023A383A4
:101274000EE0012229464020FFF7C8FD08B1FFF720
:10128400B3FC4FF40473A38352E70023A383042124
:10129400002394F858208DF80430032384F8223076
:1012A400012393404FF0A0428DF80510C2F8083591
:1012B40021B1FFF7DBFE08B1FFF796FC3B4B4FF083
:1012C4008042C3F8242552E7A37A012262F3020381
:1012D400A372238C01339BB2B3F5FA6F238403D931
:1012E4000023A3830221D3E7022200214120FFF738
:1012F4008DFD08B1FFF778FC4FF40E73C3E7238C20
:1013040001339BB2B3F5FA6F2384E9D8A37A03F0CF
:101314000703032B0CBF4FF0804100210222E92078
:10132400FFF774FD08B1FFF75FFC40F24D23AAE715
:1013340094F848309B09012B25D001D3022B2FD1DF
:1013440094F84F3094F8502094F852009B0003EB2B
:10135400921394F84E20920202F440620133134433
:1013640094F85120520002F0060202EBD01294F8D5
:101374004D0000F00F0007380244934063604FF4BF
:101384000073238172E794F8513094F850200133AC
:1013940003EB022394F84F2003EB02439B02EDE797
:1013A4000B46EBE7A8050020E005002000300040D4
:1013B400A28B40F29A25AA4225D040F2A2239A4257
:1013C4003CD0002A3DD1037833F0030316D0A28326
:1013D4000421032284F8222000220123A282E28233
:1013E40084F8232094F858208DF804308DF80510E3
:1013F40093404FF0A042C2F80835B8E601390130F5
:10140400C9B2E383A58301AB4FF40072FFF74CFC30
:1014140001287FF68DAE9DF8041011B10023A3833B
:10142400D7E7A38A012B09D901224C20FFF7EEFC50
:1014340008B1FFF7D9FB40F2A22324E70021A183DE
:10144400C7E70023A3830621C3E7A38BB3F5397F42
:1014540000F0A28022D840F2C322934200F07E81A1
:1014640040F2D322934200F0978003BB037813F039
:10147400FC0F50D00023A38304238DF805300323ED
:10148400022284F8223000238DF8042084F82330CB
:10149400A382E38294F858200123A9E740F20A3298
:1014A40093422BD007D8B3F53B7F00F0698100232A
:1014B400A3830623E1E7B3F5487F00F07281B3F517
:1014C4004C7FF4D103461A1A8A42C0F0A88094F8DB
:1014D4002330032B40F05181238C01339BB244F61B
:1014E4002062934223847CD8B04A10230121A2F1C4
:1014F4001000FFF7BBFB4FF44C73C4E603461A1A03
:10150400914240F2468113F8012B002AF7D00023C0
:1015140084F823303DE1A37A03F00703012B00F0A4
:101524002281A38A012B40F21E81012221695920C4
:10153400FFF76CFC08B1FFF757FB40F2C323A2E6A8
:10154400002222830422012B84F823204FF0FF027F
:101554008CBFFC23FE2384F82820944A84F8293085
:1015640002231946A2F11000FFF780FB40F2D323B7
:1015740089E6C0F50075ADB2F02DE6688B4A28BF48
:10158400F0250123E9B23044FFF770FB238B1D449F
:1015940025834FF4397376E6208BB0F5007FE8D3CA
:1015A400E368824A03F50073E36001210323A2F197
:1015B400100084F82330FFF759FB4FF43B7362E6C5
:1015C4000B2B02D00D2B7FF455AF0023A3830523EF
:1015D40053E7238C01339BB244F620629342238465
:1015E40003D90023A383022347E7704A1023012170
:1015F400A2F11000FFF73AFB40F20A3343E6FF235F
:101604006A4A84F82830FD2384F829300221032310
:10161400A2F11000FFF72AFB4FF4487333E613F8E6
:10162400012B002A3FF44FAF002384F823304EE708
:101634000320FFF7D9FA7BE54C2E04D1013B4FF090
:1016440001017FF462AD94F82230012B3FF495AD93
:1016540094F822200123013A8DF80530042A3FF63C
:101664008AAD01A151F822F03F1100003F110000A2
:101674007B110000591100005711000001220021C4
:101684004020FFF7C3FB08B1FFF7AEFA40F2132383
:10169400F9E513F0FC0F7FF4F8AD03224FF4D57194
:1016A4004820FFF7B3FB08B1FFF79EFA40F2192375
:1016B400E9E5580708D4A27A032161F3020213F082
:1016C400FC0FA2727FF4E1AD00232384A37A03F01C
:1016D4000703032B0CBF4FF0804100210222E920B5
:1016E400FFF794FB08B1FFF77FFA40F22623CAE51F
:1016F40013F0FC0F7FF4C9ADDE073FF5EAADA37A22
:1017040003F00703032B0FD001224FF40071502084
:10171400FFF77CFB08B1FFF767FA40F26123B2E5FB
:1017240013F0FC0F7FF4B1AD214BE36001220021E3
:101734004920A282FFF76AFB08B1FFF755FA40F28D
:101744006B23A0E533F003037FF49FAD0139E383FA
:1017540040F271230130C9B2A3837CE5037813F00E
:10176400FC0F7FF487AEA38AE382E28AA38A002A6D
:101774007FF4E6AE012B3FF642AF0023A3837CE661
:1017840094F83A3003F01F03052B7FF419AF0023BC
:10179400238494F82330032B3FF41BAF013DE582EF
:1017A400E3E70023238403233FE700BFE005002091
:1017B400F0050020064B93F82220032A05D093F865
:1017C4002200003018BF012070470020704700BF7E
:1017D400A8050020044890F82230022B00F10400F0
:1017E40098BF0020704700BFA805002072B6024AC7
:1017F400136801331360704704060020034A13681A
:10180400013B136003B962B6704700BF04060020B1
:10181400FFF7ECBFFFF7F2BF10B590B142688368E1
:1018240001689B1ADBB20A60013BDBB2FF2B026842
:1018340002D10020107110BD11684C1C14600B7093
:10184400F2E70E2010BD38B504460020FFF7E0FF94
:10185400226863681168994213D9481E106011F810
:10186400015CE368218A01FB0535A36811791B1A21
:10187400DBB2994200D213710020FFF7CBFF284658
:1018840038BD0025F8E738B5054600200C46FFF7BB
:10189400BFFF2A681368591C1160E968641A298A11
:1018A400B4FBF1F41C700020BDE83840FFF7B2BF70
:1018B40019B1012905D00620704702B1117000202A
:1018C400704712B104301060F9E70720704780694F
:1018D400704708B5FFF76EFF0028FBD108BD000074
:1018E400F0B51C4B1B68984285B007460C4603D0E4
:1018F4001124204605B0F0BD8569FFF75BFF002881
:10190400F6D194E8070005F10C0686E80700A288E2
:101914002168A068FFF702FB044640B9AB6833B9FD
:10192400FFF7D7FF0C4B1B78002B18BF0D24AB68B7
:10193400002BDED0002CDCD002228DF80420012202
:101944008DF80520AA690296039201A938469847A2
:10195400CFE700BF080600200C060020F0B51C4BA2
:101964001B68984285B007460C4603D011242046D4
:1019740005B0F0BD8569FFF71DFF0028F6D194E896
:10198400070005F10C0686E80700A2882168A06814
:10199400FFF796FA044640B9AB6833B9FFF799FFED
:1019A4000C4B1B78002B18BF0D24AB68002BDED02A
:1019B400002CDCD002228DF8042001228DF80520B1
:1019C400AA690296039201A938469847CFE700BF57
:1019D400080600200C060020F0B5134F3B6898421F
:1019E40085B0054603D01124204605B0F0BD8669B4
:1019F400FFF7E0FE0028F6D1FFF738FB044600B9F4
:101A04003860B368002BEFD001228DF80420221C2B
:101A140018BF01228DF8052000220292B2690392B8
:101A240001A928469847DFE7080600202DE9FF4171
:101A34000369B3F5007F074688462AD1174D2B6802
:101A44004BBB86692860B160B26115491430FFF759
:101A54009DFA044640B9B8F1000F16D1FFF739FFDB
:101A6400104B1B788BB10D2400232B60B8F1000FB1
:101A74000BD08DF8043001220293B36903938DF8DF
:101A84000520B36801A938469847204604B0BDE84C
:101A9400F0810624F9E71124F7E700BF08060020C7
:101AA400AD1A00000C060020F0B5244A4378244FF8
:101AB400137002783D68012A85B00646AC6923D0CC
:101AC40005D3022A34D00320FFF78EF81AE0FFF77B
:101AD40081FE036823604FF4007363603B689B6975
:101AE4009B687BB1737800229B1A18BF01238DF881
:101AF4000530A36903938DF804200292A36801A919
:101B04002846984705B0F0BDA268002AFAD0022101
:101B1400003318BF01238DF8053004F10C03029340
:101B2400A3698DF80410039301A928469047E9E7B7
:101B3400A268002AE6D00321EAE700BF0C060020D1
:101B440008060020826810B504462AB1436901687A
:101B5400006998470023A36010BD0EB403B5039930
:101B640029B102AA04AB42F8043D00F06DF802B0BA
:101B74005DF804EB03B07047826830B40468551C08
:101B84008560A154826843689A4202D330BCFFF74F
:101B9400D9BF30BC704700002DE9F84F0A9C994624
:101BA4000B9B1746824688460A460126BA420FD244
:101BB4004E4538BF4E4613F0010B01D164B90024E1
:101BC4000125B9F1010F1AD909F1FF397D43F8E76D
:101BD400B2FBF7F20136E9E79B070ED5B9F1000F26
:101BE4000CBF30252025A642EAD2013C29465046A6
:101BF400FFF7C2FF002CF6D1E1E72025F3E7B8FB9D
:101C0400F5F39F42E2D9DFF83C90B8FBF5F3504678
:101C140019F8031005FB1388FFF7AEFFB5FBF7F5C2
:101C2400002DF2D1BBF1000F0AD03CB9BDE8F88F0A
:101C3400013C20215046FFF79FFF0CB1A642F7D389
:101C4400BDE8F88FDC4700002DE9F74F054617463D
:101C54000C46002900F0358114F8011B49B92B7B8F
:101C6400002B00F02E81284603B0BDE8F04FFFF7AB
:101C740069BF252940F0218123460026194611F821
:101C8400012B2D2A24D0302A26D02B2A27D0002419
:101C94002A2A994603F1010124D13B681A1D1B68C5
:101CA4003A601C44894699F800302E2B25D109F15D
:101CB40001014FF00008894611F8012BA2F1300010
:101CC40009281CD80A2303FB0823A3F13008F2E7F0
:101CD40046F001060B46D1E746F00206FAE746F065
:101CE4000406F7E71A780B46A2F130010929DAD87D
:101CF4000A2101FB0424303CCAE74FF0000899F89C
:101D0400001001F0FB02682A02D119F8011FF8E75C
:101D140069290FD04BD8582965D007D825296ED00A
:101D240009F101042378002B96D198E7632962D046
:101D34006429F5D13A68D2F800A0111D8AEAEA7242
:101D44003960A2EBEA724FF0010B092A5BDCC34550
:101D540038BFC3462CB1BAF1000F01DB710700D5BF
:101D6400013CB20702D5B8F1000F04D0F30702D446
:101D7400002C4ED10024BAF1000F52DACAF1000A45
:101D84002D212846FFF7F8FE06F00302022A05D1AA
:101D9400B8F1000F02D1002C47D100248DE8500087
:101DA40043460A2251462846FFF7F6FEB8E7732950
:101DB4004CD014D87029B3D13B681A1D3A60302135
:101DC40028461C68FFF7D8FE78212846FFF7D4FE82
:101DD400002301930823009310222146E3E7752989
:101DE4002BD078299CD139680A1D3A6043468DE886
:101DF4005000102228E03B681A1D19783A602846E2
:101E0400FFF7BAFE8CE70A230BF1010B92FBF3F206
:101E14009BE7A345AFD220212846013CFFF7ACFE47
:101E2400A6E77007B0D52B21ABE7A345B6D2302186
:101E34002846013CFFF7A0FEADE739680A1D3A6069
:101E44008DE8500043460A220968ACE73B681A1D36
:101E54003A60F107D3F800A012D55646A6EB0A0B58
:101E640016F8011B41B95C457FF65AAF202128467C
:101E7400013CFFF781FEF6E72846FFF77DFEEDE71C
:101E8400BAF1000F11D0504602F0A8FB0646B44246
:101E940000D964B90AF1FF3A1AF8011F00293FF486
:101EA4003FAF2846FFF768FEF6E75646EFE72021E6
:101EB4002846013CFFF760FEE9E72846FFF75CFE91
:101EC40030E703B0BDE8F08FFFF7A6BCF8B546795C
:101ED4000446721E00239342246804D3014600255D
:101EE400B54202D3F8BD0133F5E70F682046FFF78A
:101EF400CAFC01353946F3E72DE9F843078ACD1CBE
:101F04008046FFF7A0FC043F3D440446B5FBF7F5CB
:101F1400002650B10123EDB206714371C780013D23
:101F2400C0F800808146AE4202D32046BDE8F88363
:101F34004046FFF788FC074648B163790133637173
:101F44000136C9F80000C0F800808146EBE720465E
:101F5400FFF7BCFF3846BDE8F88310B50430012311
:101F640050E8002F02EB030140E8001494F0000F46
:101F7400F6D110BD30B4031D012253E8004FA4EB89
:101F8400020143E8001595F0000FF6D111F0FF0FA0
:101F940002D130BCFFF79ABF30BC70472DE9F8433B
:101FA400C68804330F46B3FBF6F4154606FB143318
:101FB40080463CB9A6EB0309A94528BFA9462DB91B
:101FC400BDE8F883D8F80080013CF2E7043308EB5D
:101FD4000300A5EB09054A46391902F0D5FAAE42C9
:101FE4004C44D8F80080B1464FF0000328BFA946FE
:101FF400E5E72DE9F843C6880F46191D1546B1FBE0
:10200400F6F4804606FB14113CB9A6EB0109A94578
:1020140028BFA9462DB9BDE8F883D8F80080013C53
:10202400F2E704314144A5EB09054A46381902F0A8
:10203400ABFAAE424C44D8F80080B1464FF00001F0
:1020440028BFA946E6E7000000284FEA4111BFBFB8
:1020540000F00F020E4BC9B29954A8BF00F16043BF
:1020640000F01F024FEA5010A8BF03F561434FEA86
:102074008000A8BFC9B200F16040A8BF83F8001374
:1020840000F5614001239340C0F88031036070473C
:1020940014ED00E02DE9F04745794A4E24246C43C1
:1020A400371997F81CE0BEF1000F40F088803251D8
:1020B4007B600F7891F80CE04FF0A0440123BB4003
:1020C400BEF1010F94BFC4F80C35C4F8083591F87B
:1020D40000804FF0A04708F5E073012447F823403F
:1020E4004B78FF2B1FBF9C40C7F80C4503F5E074E9
:1020F4004FF0030C18BF47F824C08F7808BF4FF087
:10210400FF33FF2F1FBF4FF0A04407F5E07C4FF0D3
:102114000C0944F82C90CC7808BF4FF0FF37FF2C03
:102124000DD04FF0A0494FF0010C0CFA04FCC9F893
:1021340008C504F5E07C4FF0030A49F82CA04FF0E1
:10214400240C0CFB056C8CF81E400468C4F808854C
:10215400C4F80C358B68C4F81075C4F824354B7B6F
:10216400003318BF0123BEF1020F22D0BEF1030FCA
:1021740022D0BEF1010F01D143F00203C4F854355B
:102184004B79C4F8C03512B14023C4F80433072393
:10219400C4F8003522B1097990F90400FFF754FF1F
:1021A400242303FB05650020012368772B77BDE812
:1021B400F08743F00403E1E743F00603DEE7082079
:1021C400BDE8F0871006002073B543791A4A24212C
:1021D400594356585EB190F9041001254C0901F099
:1021E4001F0105FA01F12034144D45F8241001684B
:1021F4009EB14FF0FF30C1F80803242000FB0320F8
:10220400407F50B101204861D1F804010028FBD07F
:10221400242000FB0320002444770020C1F8180187
:10222400D1F818410194019CC1F80005242101FB57
:102234000323187702B070BD1006002000E100E00F
:102244002DE9F7434779454E24237B431446F2187E
:102254000D46517F804600297DD156F803C0BCF15C
:10226400000F04D014F0140F04BF0123537795E832
:102274000F004FF0240E0EFB076E0EF10C0989E8D7
:102284000F009EF821309EF81E2003F0FC036FF32C
:1022940082038EF82130FF2A1CBF01234FF0A04196
:1022A40028681CBF9340C1F80C3520B100F060438E
:1022B400B3F1005F06D1A96869B101F06043B3F1DD
:1022C400005F08D0242303FB0766002373771020E4
:1022D40003B0BDE8F083D8F800302E79C3F8440584
:1022E400C3F84865287BC3F834150021C3F83805C2
:1022F400C3F81811D3F818110191019914F00101D0
:1023040018BF0121C3F8501514F0020118BF0121B0
:10231400C3F8401521075CBF01211961BCF1000F0E
:102324000ED1D3F818110029FBD0FF2A06D00123BF
:1023340003FA02F24FF0A043C3F808250020C7E7D0
:1023440014F004004FF0400202D0C3F80823F5E76C
:10235400C3F80423BCE71120BAE700BF100600202D
:102364001FB5009102938DF804209DF818308DF864
:102374000C3000226946FFF763FF05B05DF804FBEB
:102384000F4BD3F8183107B5B3B10E4B0E480022EA
:102394001A601B680193019B0C4B997FFF291FBF97
:1023A40001228A404FF0A041C1F8082500225A7743
:1023B4001A7259681A68904703B05DF804FB00BFAD
:1023C400003000401831004018060020100600209C
:1023D4000023435082B043580193019B02B07047DD
:1023E4000023435082B043580193019B02B07047CD
:1023F4000A4610B54FF48E71FFF7EAFF938A91688D
:102404009BB2C95C938A01339BB29382C0F81C15BA
:1024140010BD1FB582688DF8081000238DF80030B8
:102424008375019290E80A006846984705B05DF804
:1024340004FB10B5CB7D0A464FF4847123B9FFF732
:10244400C7FFD0F8183510BDFFF7C2FF537ED1681F
:10245400D0F81805C854537E0133DBB2537610BD4F
:102464001FB501238DF80030054B8DF8080001914C
:10247400684693E80600904705B05DF804FB00BF8A
:10248400340600202DE9F0410679684D7601944622
:10249400AA190446D07E002840F0C580086891F847
:1024A4001DE082F81CE0431C0AD04FF0A042012337
:1024B4008340C2F8083500F5E073032742F823701F
:1024C4004A68571C1FBF02F5E0734FF0A0474FF056
:1024D400000847F823802368D1F818800F7DC3F8DB
:1024E4002485BEF1000F66D091F815E0012F47EA6C
:1024F4000E0EC3F86CE5C3F80C05C3F814251DD102
:102504008A68501C1FBF02F5E0704FF0A0474FF0DF
:10251400000E47F820E0C868471C0BD04FF0A04ECF
:1025240001278740CEF8087500F5E0774FF00308DF
:102534004EF82780C3F80805C3F81025AB190A69BB
:10254400C3F804C0AA51BCF1000F20D01B7F0A7F3E
:10255400002B58D04FF488712068FFF741FF4FF4E7
:1025640090712068FFF73CFF4FF492712068FFF7E9
:1025740037FF20684FF4A271FFF732FF20682C4B1D
:10258400C0F80433114640F30730FFF75DFD2379AB
:1025940005EB43131B7F002B42D023680822C3F8AA
:1025A4000025AB1900200122D87518769875DA76C3
:1025B4009876BDE8F08191F81580012F47EA080864
:1025C400C3F86C85C3F81425C3F80C05B6D18F681D
:1025D400781C1EBF4FF0A04007F5E07240F822E0DF
:1025E400C868421C0AD04FF0A0480122824000F57E
:1025F400E07EC8F80825032248F82E20C3F8080511
:10260400C3F810759AE74FF48E712068FFF7E0FE67
:1026140020684FF4A271FFF7DBFE2068054BAFE79B
:1026240023680422BBE70820BDE8F08134060020BB
:102634001003020080000200F0B50179404B49010B
:102644005A18147F1A460368002C54D00025C3F886
:10265400005553185B68002B6FD00368002C4DD0D5
:10266400384CC3F808431B0B5CB20125640903F022
:102674001F0305FA03F32034334D45F8243003686F
:102684004FF0FF37D3F80C65D3F81455D3F8080589
:10269400D3F81045C3F80C75C3F81475C3F808755E
:1026A400C3F81075771C1FBF4FF0A04306F5E07602
:1026B400022743F826706E1C1FBF4FF0A04305F598
:1026C400E075022643F82560651C1FBF04F5E0741D
:1026D4004FF0A043022543F82450431C1FBF4FF082
:1026E400A04300F5E070022443F820405318002270
:1026F400DA765A60F0BDC3F80045AAE7134CC3F874
:1027040008431B0B5CB20125640903F01F0305FA9F
:1027140003F320340C4D45F8243003684FF0FF37A1
:10272400D3F80C65D3F81455D3F80805D3F810453D
:10273400C3F81475C3F80C75B0E7002C9FD1ECE70F
:10274400340600201003020000E100E084020200CD
:102754002DE9F04107793F4D4FEA471805EB08038F
:1027640006461B7F23B101F06040B0F1005F6BD1DE
:1027740005EB0804A07D002869D1A275A160A082A0
:102784004BB34FF490713068FFF72AFE4FF4AC71ED
:102794003068FFF725FE3368A27DA168C3F84415AD
:1027A400C3F8482501229A60626812B10020BDE88E
:1027B400F081D3F82011D3F8582119B9002AF8D0A0
:1027C4000F2003E0002A14BF0F20002045440023FB
:1027D400AB75BDE8F0814FF48E713068FFF7F8FDFA
:1027E4003068012305EB471783603946FFF700FE85
:1027F4006368002BDAD1A17DA38A9BB28B4204F1DA
:10280400140213D2306804E0A38A9BB2B3F5807F2C
:1028140003D0D0F81C31002BF6D0A38A9BB2B3F5B9
:10282400807FE9D03946FFF7E3FDE4E713889BB2E4
:10283400B3F5807FC4D03368D3F81C21002AFBD0C1
:102844000122DA600020C1E71020BDE8F0811120E8
:10285400BDE8F081340600207FB5784C784A237FA8
:10286400002B65D0D2F82461002E3FD04FF4927132
:102874001046FFF7B5FD02238DF80030D2F88034FE
:10288400C2F880340393D2F83C358DF80830E368FD
:1028940001930023E3752376684694E80A00984779
:1028A400674AD2F8443173B14FF4A2711046FFF76E
:1028B40097FDE37D3BB10023E375D2F83C05E16865
:1028C400C0B2FFF7CDFD5E4AD2F8203163B14FF4B8
:1028D40090711046FFF784FDA37D2BB1D2F84C15FF
:1028E4005648C9B2FFF795FD04B070BDD2F8103157
:1028F400002BD5D010464FF48871FFF771FDD2F844
:102904003C35E07DDBB29842CAD1237E6BB1D2F86C
:102914000052E16825F02005C2F80052E3752369EE
:10292400E3602676FFF79CFDBAE7E375E168F9E713
:10293400D2F80433990549D5D2F82431002B45D077
:102944004FF492711046FFF743FD4FF40173C2F840
:102954000833A37E0BB901235360394A02238DF84F
:102964000030D2F88034C2F880340393E37D8DF8CC
:102974000830E36801930023E3752376684694E8FE
:102984000A0098472E48D0F81C313BB1A38AA27D97
:102994009BB29A4246D92949FFF72AFD284AD2F820
:1029A4004431002BA0D04FF4A2711046FFF710FD64
:1029B400A37E0BB101231360E37D002B94D000238D
:1029C400607EE168E375FFF74BFD8DE71C4DD5F89C
:1029D40004335B07D6D5D5F80831002BD2D017497C
:1029E4002846FFF726FD637EE27D9A42CAD1237E04
:1029F40053B1E3752369E168E3600023607E2376C5
:102A04006376FFF72DFDBDE7A37E0BB901236B6051
:102A14000B4BE1684FF40172C3F808230023E375FC
:102A2400607EEEE74FF48E71FFF7D2FCA17D0029A2
:102A3400B4D00248FFF7EDFCB0E700BF3406002035
:102A44000020004000F1804000F5C040002382B027
:102A5400036003680193019B02B07047800000F19A
:102A6400A040D0F8003723F44033C0F80037D0F842
:102A7400003743EA0141C0F800177047054B4FF097
:102A8400FF32072843F8202084BF1B1883F848200E
:102A9400704700BF5406002010B5134C94F854300E
:102AA400FBB9FF21E2180133202B82F83010F9D151
:102AB4000021C8B2FFF7E2FF01310C29F9D1072147
:102AC4000620FFF7C1FA4FF4BE70FFF7BBFF074BB8
:102AD4004FF00042C3F80423012384F8543000204B
:102AE40010BD082010BD00BF540600200060004047
:102AF4002DE9FF4700245A4A5A4E5B4D01940121A7
:102B0400A2F5C04052F8043B012B80B206D1D6F89E
:102B140004330B4202D0FFF795FF0C43AA424FEA5D
:102B24004101EDD1514B1B68012B0AD14FF4BE700A
:102B3400FFF788FF4FF0A04344F00044D3F810356A
:102B4400019314F0FF0F38D1002C80F2858000230C
:102B54000293DFF81C914FF0FF3303930126002406
:102B6400A0464FF0A04709EB080393F95020531CEB
:102B740061D0D2B222F0C005E90804A8084402F0EA
:102B8400070310F804EC06FA03F31EEA030F52D00D
:102B940009EB050E92099EF930E059F82EA0BAF11E
:102BA400000F26D1032A46D10DF1080C1CF801E0D0
:102BB4004EEA030E0CF801E01DE02D4F012600251E
:102BC400344210D0AB0003F1804303F5C043D3F883
:102BD4001005D3F8101557F8253023B1C1F301417E
:102BE400C0F3042098470135082D4FEA4606E7D183
:102BF400AAE7032AD8D005F5E07110F80C0C57F8B1
:102C040021101842C1F3014105D0022913D1032A2E
:102C14000BD1114604E003290DD1032A05D1022169
:102C24002846FFF71BFF0134E4B2BAF1000F02D0CB
:102C340011462846D04708F10108B8F1040F92D193
:102C440054B14FF0A043019AD3F81035934203D006
:102C54000193029B039382E704B0BDE8F08700BFB1
:102C64000061004000600040206100407C61004041
:102C740054060020F7B5FDF7AAFF0020FDF790FCED
:102C840008B1FDF7B1FF6A4CFDF7F0FB20886949F4
:102C9400000440F00300FDF72DFEFFF7FDFE4FF0AA
:102CA400A04303254FF48022C3F84857C3F84C5778
:102CB400C3F85057C3F81C57C3F80C254FF400222F
:102CC400C3F808254FF48012C3F808258022012197
:102CD4005948C3F8082500F00DFA20885749000424
:102CE4002843FDF707FE002000F0EAF8013D27D055
:102CF4000028F8D1524B53485F69B847456851489A
:102D0400B847026820885049000440F003004FF49B
:102D14008016B6FBF5F5B2FBF5F2FDF7EFFD208862
:102D24004A49000440F00300FDF7E4FD012248494C
:102D3400484800F0C5FE70B120884749000404E00B
:102D44000028D7D020884549000440F00300FDF74F
:102D5400D1FD20BFFDE7208841494FF0A043000486
:102D640040F00300C3F80C65FDF7C4FD3D493E483F
:102D740001F088F960B93D4D3B4F05F109063B4927
:102D8400384601F0B2F938B1208839490004DCE74B
:102D9400208838490004D8E76B7A5BB12B7A208805
:102DA400DB064FEA004020D53246334940F0130099
:102DB400FDF7A4FD6B7A002BE1D12088244900049F
:102DC40040F01300FDF796FD20882C49000440F0E4
:102DD4000300FDF78FFD332229492A4800F098FEAD
:102DE40058B1208828490004AFE733462A682749A8
:102DF40040F01300FDF78CFDDCE701AB1022244901
:102E0400204800F0D9FF238848B11804214940F034
:102E14000300FDF76FFD1B4801F027F999E718043B
:102E2400019A1D4940F00300FDF768FDF3E700BF78
:102E3400000000201848000050000020274800002F
:102E4400C4470000FC4700006048000070480000D0
:102E5400224700001809002083480000444800006D
:102E640091480000A7480000AC060020000900209B
:102E7400C3480000A9480000DA480000F1480000F7
:102E84000F490000D80600201A490000E848000055
:102E94004549000056490000664900000B78032BA1
:102EA40009D8054B087A1A680C2300FB03234A78D7
:102EB4001A7200229A727047640B002020BF704778
:102EC40038B5194B1B78834202462BD9174D00EBBA
:102ED4004004A400296808590B1918B3597AC90782
:102EE40002D4587AC0B238BD596809B9104959603A
:102EF4000121997203680F491B68984728B12B6810
:102F04001C44607AEEE75B6898472B6823449A7AFE
:102F1400002AF8D11A7A002AF1D15A7A02F0FE0274
:102F24005A72ECE7032038BD680B0020640B0020C4
:102F3400C12E0000A12E0000074B1B78834281BFE5
:102F4400064B1B6800EB400003EB800086BF407A11
:102F5400C0B20120704700BF680B0020640B002042
:102F6400F0B516461B4A1278824285B02ED9002B42
:102F74002CD0194F00EB400084003D682A192D59CC
:102F840035B3507AC00723D402930123039193727B
:102F94002B6801965B692846984703689E4202D3D2
:102FA400012005B0F0BD2B6801A99B68284698470D
:102FB4000028F5D13B6823449A7A22B9187A003064
:102FC40018BF0120EDE75B689847F3E70420E8E7C2
:102FD4000320E6E7680B0020640B0020F0B51646DA
:102FE4001E4A1278824285B032D9002B30D01C4F51
:102FF40000EB400084003D6828192D59002D29D08C
:10300400427AD20726D4427A520725D40293012366
:10301400039183722B6801965B692846984703687D
:103024009E4202D3012005B0F0BD2B6801A9DB68E4
:10303400284698470028F5D13B6823449A7A22B958
:10304400187A003018BF0120EDE75B689847F3E772
:103054000420E8E70320E6E70220E4E7680B002009
:10306400640B002073B5214B1B788342144639D975
:1030740001291DD003D3022927D0012016E002AD77
:10308400012300EB400005F8013D194E840033682C
:10309400185903682A461B690021984708B111286A
:1030A40003D19DF80730002BF1D1002002B070BD90
:1030B4000F4B00EB40001B6853F82000A0B10368DD
:1030C4005B69984703682360EFE7094B00EB400016
:1030D4001B6853F8200038B103685B69984743685C
:1030E4002380E2E70420E1E70320DFE7680B002008
:1030F400640B0020024B1860024B1970704700BF2C
:10310400640B0020680B002042884378007843EA6F
:10311400022340EA032070470B0A017043700B0C32
:10312400090E8370C1707047024400F8011B90427D
:10313400FBD1704743690239023B99423DBF438941
:10314400806A01FB030000207047026810B552B189
:1031540011460B4611F8014B202C0CD93A2CF8D10E
:10316400511C8B4202D04FF0FF3010BD1278302A30
:10317400F9D101330360002010BD38B50D46044673
:1031840018B900232B60092038BD0368002BF8D040
:103194001A78002AF5D0D98882889142F1D15878DA
:1031A400FFF7CAFE10F00100EBD123682B6038BD95
:1031B40001380A4411F8013B00F8013F9142F9D16A
:1031C4007047CA7E8B7E032843EA022301BF487DF1
:1031D4000A7D42EA002243EA024318467047F8B5E2
:1031E400C56A00F13007044601232A46394640786F
:1031F400FFF7F4FEA0B9236AA269E070EB1A9342C8
:1032040001D30020F8BDA678012EFAD9A36960780D
:103214001D442A4601233946FFF7E0FE013EF3E749
:103224000120F8BD38B5C36A8B4204460D4615D05B
:10323400C37873B92A46012304F130016078FFF79B
:103244008FFE002816BF4FF0FF3500200120E562F5
:1032540038BDFFF7C4FF0028ECD038BD0020FCE7E0
:10326400002310B5C3704FF0FF33C3620446FFF769
:10327400D9FF30BB94F82F2294F82E3243EA02236C
:103284004AF6552293421ED194F83030E92B05D0EA
:10329400236B104A03F0FF13934216D104F1660026
:1032A400FFF732FF0C4B20F07F4098420FD004F11F
:1032B4008200FFF729FF094B984214BF0220002027
:1032C40010BD042010BD032010BD022010BD00203D
:1032D40010BD00BFEB0090004641540046415433FA
:1032E4002DE9F043002385B00B600F461546FFF728
:1032F4002CFF061EC0F231819B4B53F82640002C54
:1033040000F02D813C60237805F0FE0573B16078F0
:10331400FFF712FEC10709D4002D00F0F78010F06A
:10332400040000D00A2005B0BDE8F0830023F0B209
:1033340023706070FFF7C4FDC20700F112810DB164
:103344004307EFD400212046FFF78AFF022840F00C
:10335400E88004F5FB75002115F8040C10B128462B
:10336400FFF7D2FE4DF821000131042905F11005C3
:10337400F2D100255DF82560002E00F0C9803146A9
:103384002046FFF76DFF012800F2C38094F83C202B
:1033940094F83B3043EA0223B3F5007F40F0C58044
:1033A40094F8473094F8465055EA032504D104F1C3
:1033B4005400FFF7A9FE054694F84090A56109F171
:1033C400FF33012B84F8029000F2AF8094F83D7033
:1033D400BBB26381002B00F0A8807B1E3B4240F00F
:1033E400A48094F8423094F8418048EA032818F005
:1033F4000F0FA4F8088040F0988094F8441094F8D3
:10340400430050EA012003D104F15000FFF77CFE91
:1034140094F83F3094F83E2052EA032200F085806D
:1034240005FB09F302EB181E9E4470457DD3A0EB07
:103434000E01B1FBF7F1002977D04FF6F570814208
:1034440077D840F6F577B9428CBF022701270231BD
:10345400324406EB0E00032F6161E6612262A06232
:1034640069D194F85B2094F85A3053EA02235CD172
:10347400B8F1000F59D104F15C00FFF745FE60621A
:10348400890001F2FF11B5EB512F4ED34FF0FF33FA
:103494002361E360032F4FF0800323712FD194F84D
:1034A400612094F8603043EA0223012B27D1711C78
:1034B4002046FFF7B7FE10BB94F82F2294F82E3263
:1034C400207143EA02234AF65522934217D104F1AC
:1034D4003000FFF719FE254B984210D104F5057012
:1034E400FFF712FE224B984209D104F50670FFF74C
:1034F4000BFE206104F50770FFF706FEE0601D4A2D
:103504002770138801339BB21380E38000200AE7FD
:1035140003200135042D7FF42DAF042805D10120AB
:1035240001E70428FBD0012801D90D20FBE6002681
:103534002CE703278BE7B8F1000FF6D0022F4FEAF0
:10354400410018BF4018134418BF01F00101636221
:103554000CBF014601EB500193E70B20E3E60C207E
:10356400E1E60320DFE600BF6C0B0020525261410C
:1035740072724161700B002001292DE9F047054664
:103584000C46174672D9436999426FD20378022BCD
:103594003FD0032B50D0012B68D101EB5108016AB5
:1035A40001EB5821FFF73EFE064638BB05F1300912
:1035B40008F1010AC8F3080814F001041FBF19F840
:1035C400083003F00F023B0103F0F00314BF134370
:1035D400FBB209F80830296A0123EB7001EB5A2188
:1035E4002846FFF71FFE064640B9CAF3080A44B14D
:1035F400C7F3071709F80A700123EB703046BDE8DA
:10360400F08719F80A30C7F3032723F00F031F4389
:10361400F0E7016A01EB1421FFF704FE06460028D7
:10362400ECD1640005F1300304F4FF741A191F553A
:10363400C7F307275770DFE7016A01EBD411FFF7DF
:10364400F1FD06460028D9D1A40005F1300304F4A5
:10365400FE741C442046FFF757FD27F0704700F026
:10366400704139432046FFF757FDC5E70226C5E7F9
:103674000129F8B505460C4652D9436999424FD2FF
:103684000378022B29D0032B38D0012B48D101EB2E
:103694005106016A01EB5621FFF7C4FD10B14FF04A
:1036A400FF30F8BD771C296AC6F308062E4401EBE7
:1036B4005721284696F83060FFF7B4FD0028EED174
:1036C400C7F308073D44E30795F8300046EA0020B5
:1036D4004CBF0009C0F30B00F8BD016A01EB1421D3
:1036E400FFF7A0FD0028DAD16400303504F4FF743C
:1036F4002B19285D5B7840EA0320F8BD016A01EBD1
:10370400D411FFF78FFD0028C9D1A40005F13000C2
:1037140004F4FE742044FFF7F7FC20F07040F8BD79
:103724000120F8BD2DE9F041804605680F4671B9C6
:10373400EE68F6B16B699E4228BF012634466B6978
:1037440001349C4218D3012E15D8002409E02846E0
:10375400FFF78EFF0128044637D9431C04D14FF0EC
:10376400FF342046BDE8F0816B699842F9D33E46A8
:10377400E4E70126E2E702242146D8F80000FFF737
:1037840077FF30B1012820D00130E8D0B442D6D13F
:10379400DBE74FF0FF3221462846FFF7EDFE90B9F4
:1037A40057B96A692B69EC60023A93420FD32B79BB
:1037B40043F001032B71D4E7224639462846FFF72C
:1037C400DBFE0028EDD00128C9D00124C9E7013B64
:1037D4002B61ECE783692DE9F04705468846A3B1E0
:1037E40007692037B7F5001F0FD2C7F3080904682B
:1037F400B9F1000F4FD141690133836141B9238984
:10380400B3EB571F47D80023AB610420BDE8F08712
:103814006389013B13EA57233DD12046FFF728FF74
:103824000128064602D80220BDE8F087421C02D1D6
:103834000120BDE8F0876369984226D3B8F1000FF0
:10384400E1D069692846FFF76DFF064600283CD0A1
:103854000128E8D0431CEBD0E3781BBB4FF4007283
:10386400002104F13000FFF75FFC31462046FFF7EA
:1038740061FC4FF00008E0624FF0010A638998454B
:1038840016D3E36AA3EB0803E3626E613146204674
:10389400FFF750FCA86130344C442F61EC610020E8
:1038A400BDE8F0872046FFF79AFC0028C0D1D5E791
:1038B40084F803A02046FFF792FC0028B8D1E36AFD
:1038C400013308F10108E362D8E70720BDE8F08777
:1038D400826838B5002305460468036192B92378E9
:1038E400022B01D9636A73B923890BB9022038BD4D
:1038F400636AAB61AB696A61002BF7D03034EC6169
:10390400002038BD134661891A4661B911462868FA
:10391400FFF7AEFE431C02460BD00128E6D96369CB
:103924009842F3D3E2E719462046FFF703FCA86167
:10393400E0E7012038BD00002DE9F843076804469C
:103944000B782F2B0D4601F10101F9D05C2BF7D038
:103954000023A3602B781F2B59D9DFF85C8104F175
:1039640020060B2220213046FFF7DEFB002205F162
:10397400FF3E114608201EF8013F202B01F10101F2
:103984000BD92F2B4BD16818411B10F801EBBEF15A
:103994002F0FF9D0BEF15C0FF6D00D44002A54D09D
:1039A40094F82020D4F80090E52A04BF052284F876
:1039B4002020212B34BF0423002384F82B302046FD
:1039C400FFF786FF002845D1A1694846FFF72AFC86
:1039D40000283FD1E3691A78002A46D0DA7A02F047
:1039E4003F02A271DA7A11070CD403F10B0E3146AF
:1039F40013F8012B11F801CB9E45A2EB0C0227D042
:103A0400002AF5D000212046FFF7E4FEDAE7802300
:103A140084F82B302046BDE8F843FFF759BF5C2BF0
:103A2400B1D02E2B36D090420FD913F0800F18BF8F
:103A3400803BDFF8889018BF18F8033019F801CFDD
:103A4400BCF1000F2BD06345F8D10620BDE8F88304
:103A5400002AD7D194F82B3048B1042829D113F087
:103A6400040F08BF0520BDE8F8830420F2E75A07D5
:103A74001FD4A379DB060AD523693878C3F3080376
:103A840007F130011944FFF79CFBA06067E70520AC
:103A9400BDE8F8830B28D8D008220B206BE7A3F1EC
:103AA400610CBCF1190F01D8203BDBB2B3540132D5
:103AB40061E7BDE8F88300BF88490000074A0000B9
:103AC4001FB5019004A8009140F8041D1446FFF7A7
:103AD4003CFB011E15DB0D4B53F8210008B10022FD
:103AE4000270019808B10022027043F8210030B13D
:103AF400012C08D1002201A96846FFF7F1FB04B0AC
:103B040010BD0B20FBE70020F9E700BF6C0B002081
:103B14002DE9F04F8FB0914601910546002800F041
:103B24003C8102F03F06324602A901A8FFF7D8FB08
:103B34008046002840F034810EAF029B47F82C3DAC
:103B440001993846FFF7F8FE044620B99DF937304D
:103B5400002BB8BF062419F01C0F00F0B580002C10
:103B640037D0042C27D13846DDF80C90FFF7B0FE8F
:103B74000446002840F01C8109994846FFF752FB8F
:103B84000446002840F014810A9B1B78E52B19D1C8
:103B940009994846FFF746FB044660B901462022CE
:103BA4000A98FFF7C1FA0B220BA90A98FFF700FB4A
:103BB400012389F8033046F00806A4B100232B60E2
:103BC400A046E4E0002BE3D001213846FFF702FED3
:103BD400CEE79DF8123013F0110F40F0E78019F092
:103BE400040F40F0DF8037077AD50A9BDDF808A080
:103BF40000242121482219745A749C73DC730A9B93
:103C040019765A769C75DC750A9B2022DA72DDF8E7
:103C140028909AF800004946FFF7D3FA89F81A4029
:103C240089F81B409AF80030032B04BF89F814402C
:103C340089F815400A9B1C775C779C77DC77012315
:103C440007468AF8033000284AD0984201D8022453
:103C5400B4E7DDF80C90D9F814309842F7D2DAF8CA
:103C64002CA0044621460398FFF702FD834608B3BF
:103C74000128ECD0B0F1FF3F01D101249EE7214699
:103C840000224846FFF778FC0446002896D1D9F86C
:103C94001420D9F81030911E8B4208D20133C9F890
:103CA400103099F8043043F0010389F80430934547
:103CB4005C46D7D351460298FFF7B4FA029B013F02
:103CC400DF60044660B179E7002C7FF477AF9DF89C
:103CD4001230DC0668D419F0020F01D0D80765D47D
:103CE400029C0A9FE36A2B626F622078310739468F
:103CF40048BF46F04006FFF764FAA86007F11C00CD
:103D0400FFF702FA05F12807E388E86000214FF481
:103D140000722C60AB802E746974E9616961384665
:103D2400FFF702FAB20632D5EE6886B3029BA968A1
:103D3400B3F80A906E614FEA4929B14501D30024D2
:103D44000CE02868FFF794FC0128014623D9431CA2
:103D54005C425C41A6EB0906002CEED0A961002C64
:103D64007FF42CAFC6F308038BB1029C2046FFF707
:103D7400E1F900283FF46BAF00EB5622EA6101231E
:103D840039466078FFF7ECF800287FF476AF4046B8
:103D94000FB0BDE8F08F0224DCE74FF00908F6E726
:103DA40004460BE7082409E7042407E7072405E78A
:103DB400042C08BF0724FEE62DE9F04F9B4685B08E
:103DC40000238946CBF8003003A904461746FFF7C1
:103DD400D4F9064628BB667C1EBB237C9A0740F1B7
:103DE400A8806369FB4228BFDF4304F1280AA7B116
:103DF4006369C3F30802002A40F08980039A528958
:103E0400013A12EA532201921ED173B9A06870B923
:103E140001462046FFF786FC48B9237C43F0400363
:103E24002374304605B0BDE8F08FA169F1E701289D
:103E340002D102266674F4E7431C01D10126F9E796
:103E4400A368A06103B9A06094F91030002B0CDAC8
:103E54000398E269407801235146FFF7BFF8002830
:103E6400ECD1237C03F07F032374039BA1690093AB
:103E74001846FFF75FF90028DBD0019B7D0A03EBAE
:103E8400000832D0009B019A5B8900982A449A4228
:103E940088BF019A407888BF9D1A2B4642464946FE
:103EA400FFF79CF80028C9D1E169A1EB08018D4214
:103EB4000AD94FF4007209EB41215046FFF778F913
:103EC400237C03F07F0323746D026369E2682B444F
:103ED40063619A422CBFE260E360DBF800302B445C
:103EE400A944CBF800307F1B81E7E36998450CD0E7
:103EF4006269E3689A4208D2009801234246514617
:103F04004078FFF72DF8002898D1C4F81C80606928
:103F1400C0F30800C0F50075BD4228BF3D462A46DF
:103F240049465044FFF744F9237C63F07F0323742C
:103F3400CBE7072675E72DE9F34101A90546FFF70D
:103F44001CF9002840F08C802B7C5A0640F18880B4
:103F54001B060DD50198EA694078012305F1280173
:103F6400FFF73CF800287ED12B7C03F07F032B74F1
:103F7400296A0198FFF756F9002871D16A6AD37A41
:103F840043F02003D372AB6829689376C3F3072008
:103F9400D0760978032901BF1B0C13751B0A5375CE
:103FA40002F11C00E968FFF7B7F80023019C937540
:103FB4002121D37511769374D3744821012351764A
:103FC4002046E370FFF70BF90646002844D1237816
:103FD400032B39D194F80480B8F1010F34D104F1E2
:103FE400300701464FF400723846FFF79DF8552319
:103FF40084F82E32AA2384F82F32522341227221CC
:1040040084F8303084F83130612384F8323084F815
:10401400332084F8162284F8173284F8141284F8B2
:10402400151204F506702169FFF776F8E16804F5C6
:104034000770FFF771F8E26960780132E262434683
:104044003946FEF7CBFF2671002211466078FFF750
:1040540009F8003018BF01202B7C23F040032B7497
:1040640002B0BDE8F0810120FAE713B50446FFF77A
:1040740062FF28B901A92046FFF77FF800B9206044
:1040840002B010BD1FB50446019148B3002203A934
:1040940001A8FFF725F970B9039B23600199204615
:1040A400FFF74AFCF0B994F92B30002B0CDBA37911
:1040B400DB0603D40520002323600FE0039BE169A2
:1040C4001878FFF77EF8A060039BDB88A380204666
:1040D400FFF7FEFB0428EDD00028ECD104B010BD9E
:1040E4000920FBE70428E5D0E5E7F7B50D4601A96B
:1040F4000446FFF742F8064620B935B92046FFF7D3
:10410400E7FB0646304603B0F0BD27680420A169EA
:1041140000293AD1002853D100236B72A26962B3FB
:10412400E16918464F1E4FF02E0E17F8012F202A72
:1041340000F101000ED0052A08BFE522092802BFBC
:1041440005EB030C01338CF809E005EB030C013398
:104154008CF809200B28E8D12B4400225A72CB7A20
:104164002B7201F11C00FEF7CFFF286001F116004D
:10417400FEF7CAFFE880000CA88000212046FFF764
:1041840029FB042818BF0646BCE73846FFF74AF85F
:10419400B0B9E3691A78CAB1DB7AE52A03F03F03C0
:1041A400A37107D02E2A05D00F2B03D023F02003B0
:1041B400082BB1D100212046FFF70CFB0028A6D024
:1041C400002310F0FB0FA3619BD1A5E70420F7E7C0
:1041D400BFF34F8F0549064BCA6802F4E0621343EC
:1041E400CB60BFF34F8F00BFFDE700BF00ED00E0E1
:1041F4000400FA05094B1B78062B0CD1084B1B68ED
:104204001A0708D1074B186800F0F000A0F130033A
:104214005842584170470020704700BFE00F00F03B
:10422400E40F00F0E80F00F00C4B1B78062B10D1C4
:104234000B4B1B681A070CD10A4B186800F0F003EB
:10424400302B08D000F0E000A0F140035842584160
:104254007047002070470120704700BFE00F00F056
:10426400E40F00F0E80F00F008B5FFF7DDFF28B118
:10427400834B844A1B68C3F304231360FFF7BAFF1C
:1042840010B1814B814A1A60FFF7CEFF28B1804BF1
:10429400804A1B68C3F342331360FFF7ABFF20B1BE
:1042A4007D4AD36823F08073D360FFF7BDFF40B12C
:1042B4004FF080430022C3F80C21C3F81021C3F847
:1042C4003825FFF797FF10B1744B03221A60FFF7EC
:1042D40091FF40B1724B05221A6001229A670022B5
:1042E4009A603F225A606F4B1B78062B09D16E4BA4
:1042F4001B68180705D16D4B1B6803F0F003502BA6
:1043040075D0FFF791FF28B1694B6A4A1B6803F027
:104314004F031360FFF788FF48B14FF08043D3F891
:104324000024D10744BF6FF00102C3F80024624A9D
:10433400D2F8883043F47003C2F88830BFF34F8F4B
:10434400BFF36F8F4FF01023D3F80C22D2071ED582
:104354005A4B0122C3F80425D3F80024002AFBD0C9
:104364004FF01022D2F80C3223F00103C2F80C32C1
:10437400524B1A46D3F800140029FBD00021C3F88D
:104384000415D2F80034002BFBD0FFF721FFD3F83B
:104394000022002A03DBD3F80432002B23DA474B34
:1043A4000122C3F80425D3F80024002AFBD04FF0DF
:1043B40010221521C2F80012D3F80024002AFBD0E1
:1043C4004FF010231522C3F804223C4B1A46D3F8AD
:1043D40000140029FBD00021C3F80415D2F80034DE
:1043E400002BFBD0D1E7364B364A1A6008BD4FF09C
:1043F4008052354BD2F80414C3F82015D2F80814AF
:10440400C3F82415D2F80C14C3F82815D2F81014E4
:10441400C3F82C15D2F81414C3F83015D2F81814B4
:10442400C3F83415D2F81C14C3F84015D2F820147C
:10443400C3F84415D2F82414C3F84815D2F8281444
:10444400C3F84C15D2F82C14C3F85015D2F8301414
:10445400C3F85415D2F83414C3F86015D2F83814DC
:10446400C3F86415D2F83C14C3F86815D2F84014A4
:10447400C3F86C15D2F84424C3F8702541E700BF93
:10448400240300104035014074C007400DF0ADBA5C
:10449400440200103C050040F0ED00E0A00500409F
:1044A40010560040E00F00F0E40F00F0E80F00F0B9
:1044B40058020010E40E004000ED00E000E001406E
:1044C4005C0000200090D00300C000407F2805D885
:1044D400034B185C034B5B5C18407047002070472B
:1044E400184A0000984A0000A0F16103192B98BFF4
:1044F40020387047A0F14103192B98BF2030704732
:104504007F2805D8034B185C034B5B5C184070474D
:1045140000207047184A0000984A0000A0F1610387
:10452400192B98BF20387047A0F14103192B98BF6D
:10453400203070477F299ABF017001206FF02E0050
:1045440070475AB10A787F2A0AD800B10260002164
:1045540019605960501A18BF012070470020704735
:104564006FF02E007047000008B5034B5B689B6832
:104574001B68984708BD00BF6000002008B50921EA
:10458400FFF7F2FF08BD0000844640EA010313F080
:10459400030F18D18446202A0BD32DE9F007B1E884
:1045A400F807A0E8F807A2F12002202AF7D2BDE814
:1045B400F007042A07D351F8043B40F8043BA2F166
:1045C4000402042AF7D2002A05D011F8013B00F8AE
:1045D400013B013AF9D16046704700BF00F1010187
:1045E40010F0030F11D010F8012B002A23D010F083
:1045F400030F0AD010F8012B002A1CD010F0030F6F
:1046040003D010F8012B002A15D02DE970004FF0CB
:1046140001324FF0803350F8044BA4EB020525EA35
:1046240004051D4000D1F6E7A0F1040070BC10F8A9
:0C463400012B002AFBD1A0EB0100704715
:10464000E446000000000300BC470000000000003A
:10465000F547000000000000EC47000000000000EB
:08466000F0470000000000001B
:104668000000000000000000000000000000000042
:104678000000000000000000000000000000000032
:104688000000000000000000000000000000000022
:0C46980000000000000000000000000016
:1046A400FFFFFFFFFFFFFFFFFFFFFFFFFFFFFFFF16
:1046B40000000000000000000000D6010701000017
:1046C400CD03000059040000C9030000D8040020F1
:1046D400A0050020A8050020E00400201800000028
:1046E400617070001B470000444700004C47000005
:1046F400544700005C470000644700006C4700001A
:10470400744700007C4700002025303278002020C8
:1047140020007C002563001B5B306D000D0A003C0B
:1047240025733E2025733A2000000000000000009D
:10473400A1470000844700008C4700009147000017
:104744001B5B313B33306D001B5B313B33316D0000
:104754001B5B313B33326D001B5B313B33336D00EC
:104764001B5B313B33346D001B5B313B33356D00D8
:104774001B5B313B33366D001B5B313B33376D00C4
:104784007761726E696E6700696E666F0064656258
:1047940075670011121314466174616C206572729E
:1047A4006F720053797374656D207265736574005C
:1047B400003000400300010062616C6C6F63000014
:1047C400311A0000DD19000061190000E51800002D
:1047D400B5180000D3180000303132333435363781
:1047E40038394142434445467370690075617274B7
:1047F400006770696F746500C44700007849000061
:104804007F49000083490000000200000B0A0911DF
:10481400480B00204641544653206578616D706C06
:10482400652E00496E697469616C697A696E6720E6
:104834006469736B20302028534443292E2E2E00A4
:104844004469736B20696E697469616C697A617417
:10485400696F6E206661696C65642E0043617061E6
:10486400636974793A202564204D42004D6F756E5A
:1048740074696E6720766F6C756D652E2E2E004DF3
:104884006F756E74206661696C65642E000D0A2074
:104894004C697374696E67206469726563746F72BE
:1048A400793A202F004469726563746F7279206CC1
:1048B400697374696E67206661696C65642100447C
:1048C40069726563746F72792072656164206661D0
:1048D400696C65642E002020203C4449523E20200F
:1048E4002025730025396C752020257300577269C3
:1048F40074696E6720746F2066696C65204E4F5230
:104904004449432E5458542E2E2E004E4F5244499F
:10491400432E54585400556E61626C6520746F20A8
:104924006F70656E206F72206372656174652066B6
:10493400696C653A204E4F524449432E5458542EC4
:104944000053442063617264206578616D706C6506
:104954002E005772697465206661696C65640D0A7E
:104964002E002564206279746573207772697474EB
:10497400656E2E004E6F72646963005344430031C8
:104984002E303000809A45418E418F8045454549FF
:1049940049498E8F9092924F994F555559999A9BA8
:1049A4009C9D9E9F41494F55A5A5A6A7A8A9AAAB22
:1049B400ACADAEAFB0B1B2B3B4B5B6B7B8B9BABBBB
:1049C400BCBDBEBFC0C1C2C3C4C5C6C7C8C9CACBAB
:1049D400CCCDCECFD0D1D2D3D4D5D6D7D8D9DADB9B
:1049E400DCDDDEDFE0E1E2E3E4E5E6E7E8E9EAEB8B
:1049F400ECEDEEEFF0F1F2F3F4F5F6F7F8F9FAFB7B
:104A0400FCFDFEFF222A2B2C3A3B3C3D3E3F5B5DE6
:104A14007C7F0000202020202020202020682828BF
:104A24002828202020202020202020202020202072
:104A340020202020481010101010101010101010FA
:104A440010101010848484848484848484841010DA
:104A540010101010108181818181810101010101F7
:104A64000101010101010101010101010101011023
:104A740010101010108282828282820202020202CC
:104A840002020202020202020202020202020210F4
:104A940010101020000703200417020108571040CB
:104AA400800000004C4C0000104B0000244C00001F
:104AB40053756E004D6F6E00547565005765640044
:104AC4005468750046726900536174000000000068
:104AD4004A616E00466562004D6172004170720069
:104AE4004D6179004A756E004A756C004175670026
:104AF400536570004F6374004E6F76004465630025
:104B040000000000414D00504D000000484C0000E2
:104B1400444C0000444C0000444C0000444C000051
:104B2400444C0000444C0000444C0000444C000041
:104B3400444C0000FFFFFFFFFFFFFFFFFFFFFFFFED
:104B4400FFFF0000844B0000B44A0000C04B00008B
:104B5400D44A0000084B0000684B0000184C0000C9
:104B6400744B0000256D2F25642F2579000000006B
:104B74002561202562202565202554202559000023
:104B840053756E646179004D6F6E6461790054757C
:104B94006573646179005765646E65736461790057
:104BA400546875727364617900467269646179004E
:104BB4005361747572646179000000004A616E7516
:104BC400617279004665627275617279004D617235
:104BD400636800417072696C004D6179004A756EBA
:104BE40065004A756C790041756775737400536587
:104BF4007074656D626572004F63746F62657200F4
:104C04004E6F76656D62657200446563656D6265BD
:104C14007200000025483A254D3A25530000000053
:104C2400D1440000ED440000F944000005450000B3
:104C3400214500002D45000039450000474500008E
:104C4400000000002E00000043000000504F5349B4
:044C54005800000004
:104C58000020004000000000C446000000000000E2
:104C680000000000FC4700000000000000010000F8
:104C78000090D003A84A0000A84A0000A84A0000F3
:084C8800A84A0000A84A000040
:040000030000023DBA
:00000001FF
