:020000022000DC
:10300000000001203D3202008132020083320200C2
:10301000853202008732020089320200000000007F
:103020000000000000000000000000008B320200E1
:103030008D320200000000008F3202009132020047
:1030400035770200973202001598020035AC020075
:103050009DBC02009F320200E9810200C999020072
:10306000A53202001DA90200A9320200AB32020003
:10307000AD320200AF320200B1320200B3320200C0
:10308000B532020099420200B9320200BB3202009E
:10309000D9420200BF32020085060300C33202009B
:1030A000C5320200C7320200C9320200CB32020030
:1030B000CD320200CF32020093320200933202007E
:1030C000D1320200D3320200D5320200D7320200E0
:0C30D000D9320200DB320200DD320200C7
:1030DC00364937480A1A02D0072291438D463549A2
:1030EC0035480A1A06D00722914381F30988022237
:1030FC0082F3148831483249324A00F045F832489C
:10310C003249334A00F040F832483349334A00F030
:10311C003BF833483349344A00F036F833483449E5
:10312C00344A00F031F834483449354A00F02CF870
:10313C0034483549354A00F027F8354835490022DE
:10314C0000F02DF834483549002200F028F83448B6
:10315C003449091A082903DB00220260043001609B
:10316C00314A90471F482049884205D002680430F4
:10317C0003B4904703BCF7E700208646EC460020DA
:10318C0000212A4A9047FEE7884207D0521A05D000
:10319C00037801300B700131013AF9D17047884244
:1031AC0002D002700130FAE77047000000000120E5
:1031BC0000F800200000012000000120D855030079
:1031CC00682A00208C2A0020E0320200E032020043
:1031DC0090430300D8550300682A0020682A002079
:1031EC000844030008440300084403000844030097
:1031FC000844030008440300084403000844030087
:10320C00D8550300FC5503008C2A00208C2A002082
:10321C008C2A0020F8380020F8380020FC380020D8
:10322C00FC380020FC3A00204F32020081D402000E
:10323C000B484FF00701884385460A488047FFF743
:10324C0047BF094809490A4A884207D0521A05D093
:10325C00037801300B700131013AF9D1704700004D
:10326C000000012015F6020008440300682A002023
:10327C00682A0020FEE7FEE7FEE7FEE7FEE7FEE732
:10328C00FEE7FEE7FEE7FEE7FEE7FEE7FEE7FEE70A
:10329C00FEE7FEE7FEE7FEE7FEE7FEE7FEE7FEE7FA
:1032AC00FEE7FEE7FEE7FEE7FEE7FEE7FEE7FEE7EA
:1032BC00FEE7FEE7FEE7FEE7FEE7FEE7FEE7FEE7DA
:1032CC00FEE7FEE7FEE7FEE7FEE7FEE7FEE7FEE7CA
:0432DC00FEE700BF4A
:1032E00000487047F03800207047704700B589B03B
:1032F000019000238DF81F3051E02E4B1A689DF885
:103300001F30DB0013440693069B1B781A460123EB
:1033100093400593284B1A68059B1340002B39D026
:10332000059BDA43244B1B681340234A1360069B1A
:103330001B78184604F03EFF03468DF81330069BB9
:103340001B781A46012393401A461C4B1B681340F6
:103350009DF81320069909788A4093421AD19DF866
:103360001330069A5278012A0CBF01220022D2B2F1
:1033700093420CBF01230023DBB20393069B5B68DF
:10338000002B07D0069B5B68069A12780399C9B296
:10339000104698479DF81F3001338DF81F30084BB9
:1033A0001B789DF81F209A42A7D300BF09B05DF893
:1033B00004FB00BF8C2A0020BC2A0020B82A002071
:1033C000902A002000B585B001900B468DF803309F
:1033D0000122019B02FA03F303931E4B184601F0EE
:1033E00017F80290029B002B30D11B4B1A68039BED
:1033F0001340002B22D1019804F0DCFE0346002B81
:1034000006D0164B1A68039B1343144A136006E058
:10341000039BDA43114B1B681340104A13600E4B99
:103420001A68039B13430C4A13600A480C4B1B6831
:103430000022194600F0BAFF029008E0039BDA432D
:10344000054B1B681340044A136000E000BF05B041
:103450005DF804FB982A0020BC2A0020B82A00202E
:10346000942A002000B589B003900B4601928DF894
:103470000B30019B042B01D8072351E004F0A2FD7F
:10348000034683F00103DBB2002B07D004F052FDAA
:103490000790079B002B01D0079B41E0224A039B2A
:1034A0001360224A9DF80B301370214A019B136070
:1034B000204B00221A60204B00221A6023E09DF866
:1034C0000B30DB00039A1344069303238DF814306A
:1034D00000238DF8153000238DF8163000238DF869
:1034E0001730069B9B788DF81530069B1B78184685
:1034F00005AB124A194604F071FD0790079B002B9B
:1035000001D0079B0CE09DF80B305A1E8DF80B2064
:10351000002BD4D10A4A00210A4800F017FF0346C5
:10352000184609B05DF804FB8C2A0020902A002080
:10353000942A0020B82A0020BC2A0020C5330200AB
:10354000ED3202000844030000B583B0114B1B6844
:10355000002B03D11049B62009F024FA002301936F
:103560000CE00C4B1A68019BDB0013441B78012113
:10357000184604F097FD019B01330193074B1B781C
:103580001A46019B9A42ECD80023184603B05DF816
:1035900004FB00BF8C2A00200C440300902A00206A
:1035A00000B589B0039002910192029B9BB2ADF8E5
:1035B0001430019B0693039B079305AB1A46002129
:1035C00044F2010000F050F800BF09B05DF804FBC0
:1035D00086B003900291019201238DF817309DF877
:1035E0001730204A039B13601E4A029B53601D4AFA
:1035F000019B9360039B44F20102934212D044F278
:103600000202934222D1019B164AD360154BDB681C
:103610001B881A46134B9A61124BDB685B68114A90
:10362000D36113E0019B0F4A13610E4B1B699B682A
:103630000C4A53610B4B1B691B881A46094B9A6154
:10364000084B1B695B68074AD36100BF72B600BFB5
:103650009DF81730DBB2002BFAD162B600BF06B07E
:10366000704700BFC02A002000B587B003900291C8
:103670000192039B41F20102934215D041F20102F3
:10368000934202D8012B11D011E044F2010293427F
:1036900007D044F20202934200D008E0019B059358
:1036A00005E0019B049302E000BF00E000BF084B6F
:1036B0001B6803F00103002B00D0FFDE019A029982
:1036C0000398FFF785FF00BF07B05DF804FB00BF5C
:1036D000F0ED00E084B00190019B9B680393019B97
:1036E000DA68039BD31A184604B0704782B0019081
:1036F0000B468DF80330019B1A68019BDB6801992A
:1037000089880B4013449DF803201A70019BDB68E5
:103710005A1C019BDA6000BF02B0704784B003906E
:103720000B460192ADF80A30039B1A68039B996817
:10373000BDF80A300B44039989880B4013441A786A
:10374000019B1A7000BF04B0704700B583B00190B0
:103750000091009A00210198FFF7E0FF019B9B6810
:103760005A1C019B9A6000BF03B05DF804FB84B053
:10377000039002911346ADF80630029B002B01D155
:103780000E231DE0BDF80630002B07D0BDF8063033
:103790005A1EBDF806301340002B01D009230FE05C
:1037A000039B029A1A60BDF80630013B9AB2039B54
:1037B0009A80039B00229A60039B0022DA60002318
:1037C000184604B0704700B583B001900B468DF8E1
:1037D00003300198FFF77EFF0246019B9B889A42C7
:1037E00007D89DF8033019460198FFF77FFF0023A3
:1037F00000E00423184603B05DF804FB00B583B075
:10380000019000910198FFF765FF0346002B05D05A
:1038100000990198FFF799FF002300E0052318465F
:1038200003B05DF804FB000082B003468DF807305A
:1038300007499DF907305B099DF8072002F01F0238
:10384000012000FA02F241F8232000BF02B07047C5
:1038500000E100E082B003468DF8073008499DF989
:1038600007305B099DF8072002F01F02012000FAD3
:1038700002F2203341F8232000BF02B0704700BF9E
:1038800000E100E082B003468DF8073008499DF959
:1038900007305B099DF8072002F01F02012000FAA3
:1038A00002F2403341F8232000BF02B0704700BF4E
:1038B00000E100E082B003468DF8073008499DF929
:1038C00007305B099DF8072002F01F02012000FA73
:1038D00002F2603341F8232000BF02B0704700BFFE
:1038E00000E100E082B0034600918DF807309DF9B9
:1038F0000730002B0CDA0D499DF8073003F00F0359
:10390000043B009AD2B25201D2B20B441A7609E0BB
:1039100007499DF90730009AD2B25201D2B20B4446
:1039200083F8002300BF02B0704700BF00ED00E045
:1039300000E100E084B00190244B0393019B002B35
:1039400040D0234B1A680399019B00BF00BF00BF02
:1039500000BF00BF00BF00BF00BF8A422FD000BF22
:1039600000BF00BF00BF00BF00BF00BF00BF00BF5F
:1039700000BF00BF00BF00BF00BF00BF00BF00BF4F
:1039800000BF00BF00BF00BF00BF00BF00BF00BF3F
:1039900000BF00BF00BF00BF00BF00BF00BF00BF2F
:1039A00000BF00BF00BF00BF00BF00BF00BF00BF1F
:1039B00000BF00BF00BF00BF00BF00BF00BF013B92
:1039C000C3D1019300BF04B0704700BF0024F400CE
:1039D000782A002000B583B00190064A019BC2F806
:1039E000083507211120FFF77DFF00BF03B05DF808
:1039F00004FB00BF0010014008B50D4B4FF48032AE
:103A0000C3F844230A4B4FF48032C3F80423112037
:103A1000FFF750FF1120FFF707FF054B01221A6047
:103A20002F20FFF787FF034B01221A7000BF08BD4C
:103A300000100140FE2B002008B51120FFF70AFFFF
:103A40000E4B4FF48032C3F848230C4B4FF48032B6
:103A5000C3F80823094B01225A602F20FFF76AFFA1
:103A6000064B01229A60064B00221A602F20FFF7B6
:103A700061FF044B00221A7000BF08BD0010014016
:103A8000F02B0020FE2B0020024BD3F80435184603
:103A9000704700BF0010014082B001900091019A70
:103AA000009BD31A23F07F43184602B070470000F2
:103AB00082B00190034A019BC2F8403500BF02B0BA
:103AC000704700BF0010014086B00190284B1B6872
:103AD000002B03D1264A019B136045E0019B1A6825
:103AE000234B1B681B689A4210D8214B1B68204A45
:103AF00012681168019A12688A1A1A601C4B1A68B7
:103B0000019BDA611A4A019B13602DE0019B1B683F
:103B10000393174B1B680593154B1B68049309E02F
:103B2000049B1B68039AD31A0393049B0593049B7D
:103B3000DB690493049B002B04D0049B1A68039B4D
:103B40009A42EDD3049B002B05D0049B1A68039B7B
:103B5000D21A049B1A60019B039A1A60019B049A73
:103B6000DA61059B019ADA6100BF06B0704700BFB9
:103B7000EC2B002000B587B001902A4B1B68039303
:103B8000284B1B680593059B049308E0049A019B4E
:103B90009A4208D0049B0593049BDB690493049B21
:103BA000002BF3D100E000BF049B002B01D10023C8
:103BB00033E0059A049B9A4214D11A4B1B68DB69C7
:103BC000184A1360174B1B68002B0BD1164B0122B0
:103BD0009A60164B00221A60154B01221A702F2092
:103BE000FFF7A8FE049B1B680293049BDA69059B00
:103BF000DA61059BDB690493049B002B05D0049BD1
:103C00001A68029B1A44049B1A60064B1B68039AAD
:103C10009A4214BF01230023DBB2184607B05DF8B7
:103C200004FB00BFEC2B002000100140F02B002013
:103C3000FF2B002008B51120FFF724FE00BF08BDB0
:103C400008B51420FFF71EFE00BF08BD00B583B005
:103C50000190019B5B69019A92691046984700BFE9
:103C600003B05DF804FB000000B585B02B4B1B686A
:103C7000002B4ED000230193FFF706FF0246284B8E
:103C80001B6819461046FFF707FF0290234B1B687D
:103C900003931DE0039B1A68029B9A421CD8039B66
:103CA0001B68029AD31A0293039B1B68019A134460
:103CB0000193039B0093039BDB690393009B1B7C95
:103CC000002B05D0009B00221A740098FFF7BEFF5E
:103CD000039B002BDED100E000BF124B1A78124B81
:103CE0001B789A420CD1104B1B780133DAB20E4B81
:103CF0001A700D4B1B78022B02D10B4B00221A704D
:103D0000094B1B781946094A019B42F82130FFF7FD
:103D100097FF00BF05B05DF804FB00BFEC2B00204F
:103D2000F02B0020FC2B0020FD2B0020F42B00208A
:103D300082B00190184B1A78184B1B789A4223D006
:103D4000154B1B780133DAB2134B1A70124B1B78E8
:103D5000022B02D1104B00221A700F4B1B781A460F
:103D60000F4B53F82220019B1A60019B1A680D4BE0
:103D70001B6813440B4A13600A4B1B6823F07F43F4
:103D8000084A1360012303E0019B00221A6000230C
:103D9000184602B0704700BFFC2B0020FD2B00200E
:103DA000F42B0020F02B002088B0039002910192A8
:103DB0000023079338E0204B1B680693069B1A6884
:103DC000039B9A4206D9069B1A68039BD21A069B4C
:103DD0001A602DE0069B1B68039AD31A0393069B77
:103DE0001B68079A13440793069B00221A60124B24
:103DF0001B680593069BDB690F4A1360069BDB6813
:103E0000002B11D0029A079B134423F07F42069B9C
:103E10005A60069BDA68069B9A60019B1A68069BAB
:103E2000DA61019B059A1A60034B1B68002BC2D113
:103E300000BF08B0704700BFEC2B002000B589B070
:103E4000019000238DF81F30664B1B680593AAE094
:103E5000019B002B05D0019B0693069BDB69019318
:103E600061E0614B1B781A4613465B001344DB008C
:103E70005D4A1344043304935B4B1B780133DAB27D
:103E8000594B1A70584B1A78574B9B789A4202D16B
:103E9000554B00221A70049B5B680693049B1B78A9
:103EA000022B04D0032B1BD0012B1FD01DE0049B41
:103EB0005B681846FFF75EFE0346002B02D0012325
:103EC0008DF81F30069B00221A746CE0454B1B686E
:103ED0000393039B00221A74039BDB69414A13601E
:103EE000404B1B68002BF1D15DE05CE000BF069BFE
:103EF0001B7C002B00D056E0049B9A68069B5A60FE
:103F0000049BDA68069B9A60049B1A69069BDA6038
:103F1000049B5A69069B9A61344B1B78002B02D094
:103F2000069B00225A60069B5A68314B1B68D31AC5
:103F300023F07F432F4A93420ED8069B5A682C4B9E
:103F40001B6819461046FFF7A7FD0246069B9B68B3
:103F50001A44069B1A6017E0254B1A68069B5B689B
:103F600019461046FFF798FD0290069B9A68029B3F
:103F70009A4206D9069B9A68029BD21A069B1A603F
:103F800002E0069B00221A60069B00225A60069BF4
:103F900000229A60069B01221A74069B0022DA61B5
:103FA0000698FFF791FD019B002B7FF451AF0E4B5C
:103FB0001A780D4B5B789A427FF44AAF9DF81F3018
:103FC000002B04D1074B1A68059B9A4201D00123AC
:103FD00000E0002303F00103DBB2184609B05DF8EE
:103FE00004FB00BFEC2B0020E02A0020FF2B002068
:103FF000F02B0020FEFF7F0010B588B00190274B0A
:104000001B68002B44D0254B1B681B680793FFF7E8
:104010003BFD0690224B1B68059305990698FFF718
:104020003BFD0346033304931E4B1B7883F00103CF
:10403000DBB2002B01D0FFF7DFFC049A079B934211
:1040400038BF1346059A13440593059B23F07F431D
:1040500005930598FFF72CFDFFF716FD03900699D1
:104060000398FFF719FD0346DC1C06990598FFF736
:1040700013FD03469C420DD9FFF706FD0346184683
:10408000FFF716FD2F20FFF755FCFFF7D3FD01E0EA
:10409000FFF7D2FC00BF08B010BD00BFEC2B002022
:1040A000F02B0020FE2B002000B587B000230193E9
:1040B00000238DF81730194B1B680493184B1B68AD
:1040C00003936B461846FFF733FE03468DF80B301B
:1040D0009DF80B30002B08D0009B01AA04991846CC
:1040E000FFF762FE01238DF81730019B1846FFF79A
:1040F000A5FE0346002B02D001238DF817309DF852
:104100001730002B02D00398FFF776FF054B0022F3
:104110001A7000BF07B05DF804FB00BFF02B002051
:10412000EC2B0020FF2B002082B003468DF80730D7
:10413000034A9DF80730537000BF02B0704700BFBC
:10414000E02A002084B00190144B5B7801338DF895
:104150000F30124B9B789DF80F209A4202D100231A
:104160008DF80F300D4B1B789DF80F209A4201D12E
:1041700000230FE0019B9DF80F201A70074B5B781E
:104180001A4613465B001344DB00044A134404330D
:104190000293029B184604B0704700BFE02A00203B
:1041A00000B589B003900291019200930023079318
:1041B00000238DF816300DF11603184600F042FB6F
:1041C0000DF117031846FFF7BDFF0690069B002B65
:1041D00002D10423079318E0069B01221A70069B64
:1041E000039A5A60FFF750FC0246069B9A60069BB2
:1041F000029ADA60069B019A1A61069B009A5A613C
:104200009DF817301846FFF78FFF9DF816301846B7
:1042100000F02EFB079B002B01D1FFF711FD079B40
:10422000184609B05DF804FB00B587B001900B4655
:104230008DF803300023059300238DF80E300DF127
:104240000E03184600F0FEFA0DF10F031846FFF7B3
:1042500079FF0490049B002B02D1042305930BE00B
:10426000049B9DF803201A70049B019A5A609DF8E4
:104270000F301846FFF758FF9DF80E30184600F033
:10428000F7FA059B002B01D1FFF7DAFC059B1846D6
:1042900007B05DF804FB000008B50E4B0022C3F820
:1042A00040210C4B0022C3F844210A4B0022C3F8E2
:1042B0004821084B0022C3F84C21064B0022C3F8CA
:1042C0000021044B0022C3F80421FFF7CDFC00BFFE
:1042D00008BD00BF0010014008B5FFF7E5FE00BFB4
:1042E00008BD000008B5FFF7A7FB134B00221A70AA
:1042F000114B00225A70104B0B229A700F4B002268
:104300001A600F4B00221A700E4B00221A701420F4
:10431000FFF7D0FA07211420FFF7E4FA1420FFF783
:1043200083FA0020FFF756FBFFF7AEFB0246064B71
:104330001A600023184608BDE02A0020EC2B00205C
:10434000FC2B0020FD2B0020F02B002086B00390DA
:104350000B4601928DF80B30134B9B78002B01D14B
:1043600008231EE0019B002B01D1072319E0039BCA
:10437000002B01D1072314E0039B1B681B7C002B3F
:1043800001D008230DE0039B1B680593059B0022C9
:104390001A74059B9DF80B205A74059B019A5A616B
:1043A0000023184606B07047E02A002000B587B009
:1043B000039002910192039B0593144B9B78002B71
:1043C00001D108231EE0039B002B01D1082319E033
:1043D000029B042B01D8072314E0059B5B69002B8B
:1043E00001D108230EE0059B5B7C012B01D1029BD0
:1043F00000E000230493019B049A02990598FFF7BB
:10440000CFFE0346184607B05DF804FBE02A002003
:1044100000B585B00190019B03930D4B9B78002B59
:1044200001D1082310E0019B002B03D0039B5B69A3
:10443000002B01D1082307E0039B00221A740221FC
:104440000398FFF7F1FE0346184605B05DF804FB3C
:10445000E02A002084B00190019B9B680393019B9C
:10446000DA68039BD31A184604B0704700B587B0CA
:1044700001900091019B1B78012B04D0022B38D0B6
:10448000002B47D05CE0019B5B681B7819462E48E7
:10449000FFF799F90590059B002B0AD001238DF8B1
:1044A0000C30059B0493294B1B6803AA10469847C0
:1044B0000DE02548FFF7CEFF0346002B07D0002371
:1044C0008DF80C30214B1B6803AA104698471E48F4
:1044D000FFF7C0FF02461C4B9B889A4205D8012279
:1044E0001B491C4804F0CCFE2AE01B4B01221A7029
:1044F00026E002238DF80C30019BDB680493012237
:104500001349144804F0BCFE104B1B6803AA104664
:10451000984715E011491248FFF770F90346002B40
:1045200005D101220D490B4804F0A0FC07E003234C
:104530008DF80C30054B1B6803AA1046984700BF46
:1045400000BF07B05DF804FB0C2C0020002C0020FD
:10455000082C0020682A0020092C0020042C0020B0
:104560001C2C002030B58FB00390029101928DF881
:1045700003303E4A019B1360029B002B01D10723AD
:1045800071E0029B1968029B5B689BB21A4638482F
:10459000FFF7EDF80D900D9B002B01D00D9B62E015
:1045A000029B9968029BDB689BB21A463148FFF771
:1045B000DEF80D900D9B002B01D00D9B53E02E4B90
:1045C00005AC1D460FCD0FC495E80F0084E80F0021
:1045D000039B5B690B93039B1B7C002B14BF012384
:1045E0000023DBB28DF828309DF803308DF8303091
:1045F000039B5B7C002B01D00E2300E000238DF891
:104600002930039BDB680793039B9B680893039BFC
:104610001B680693039B5B68059305AB174A194615
:10462000174804F0DDFA0D900D9B002B01D00D9B77
:1046300019E0144B00221A70039B1B68B3F1FF3F73
:1046400010D09DF8313083F00103DBB2002B02D093
:104650000B4804F0D9FE01220B49094804F010FE72
:10466000034600E0002318460FB030BD002C0020A8
:104670000C2C00201C2C0020804403006D44020000
:10468000682A0020092C0020082C002000B587B0E3
:104690000190019B002B03D11449C92008F082F935
:1046A000134B1B788DF8173001991248FFF7A6F8C5
:1046B00004909DF81730002B12D00D4B00221A7079
:1046C00001220D490D4804F0DBFD0390039B02938A
:1046D000029B002B04D0054AD5210298FEF760FF0B
:1046E000049B184607B05DF804FB00BFA04403001C
:1046F000092C00200C2C0020082C0020682A002007
:1047000000B585B003468DF807309DF8073019468F
:104710001048FFF758F80390039B002B15D10E4863
:1047200004F010FC034683F00103DBB2002B0CD035
:104730000A490848FFF762F80346002B05D1012219
:104740000649054804F092FB0390039B184605B008
:104750005DF804FB1C2C0020682A0020042C00209B
:1047600082B0EFF310830093009B019372B6019B1C
:10477000184602B0704762B600BF704700B585B0FA
:104780000190FFF7EDFF0390164B9B68002B1BD1A8
:10479000144B01229A60144BD3F88020134B134022
:1047A000104A1360104B114AC3F880200E4BD3F807
:1047B00084300C4A53600C4B4FF0FF32C3F8842016
:1047C000019B00221A7002E0019B01221A70039BD8
:1047D000002B01D1FFF7CFFF0023184605B05DF88D
:1047E00004FB00BF2C2C002000E100E0FC06FFBD14
:1047F00000B585B003468DF80730104B9B68002B41
:1048000016D09DF80730002B12D1FFF7A9FF0390B7
:104810000B4A0A4B1B681360094A084B5B685360DC
:10482000064B00229A60039B002B01D1FFF7A3FFE8
:104830000023184605B05DF804FB00BF2C2C0020B7
:1048400000E100E000B583B0019000F02BF80346D2
:10485000012B03D00549432008F0A4F80198FFF785
:104860008DFF00BF03B05DF804FB00BF14450300DB
:1048700000B583B003468DF8073000F013F8034607
:10488000012B03D00649512008F08CF89DF8073021
:104890001846FFF7ADFF00BF03B05DF804FB00BF93
:1048A0001445030084B0EFF305830193019BC3F328
:1048B00008030393039B002B0DD1EFF314830093A4
:1048C000009B0293029B03F00103002B0CBF01230A
:1048D0000023DBB200E00123184604B0704786B025
:1048E00001900091019B53E8021F1FFAA1F2D888A2
:1048F000824202BFBFF32F8F00230DE0D88902440C
:104900009889824228BF121AC1EA024243E8022073
:104910000028E8D14FF001038DF80F300590029187
:104920000492029A009B1A609DF80F30DBB2184681
:1049300006B0704784B00190019951E8023FC3EA84
:10494000234341E80232002AF7D10392029300BFC9
:1049500004B0704700B583B001900091009B1946E8
:104960000198FFF7BCFF0346002B05D0019B1B6895
:10497000009A5288134400E00023184603B05DF803
:1049800004FB00B583B001900091009B1A88009B46
:104990005B889A4204D10198FFF7CCFF012300E025
:1049A0000023184603B05DF804FB000000B585B095
:1049B0000190019B002B03D0019B1B68002B28D189
:1049C0000023039319E0039A13469B0013449B00B2
:1049D0001A46154B13440193019B1B68002B09D009
:1049E000019B1B68DB69019898470346002B01D0A7
:1049F000012314E0039B013303930C4A0A4BD31A9F
:104A00000B4AA2FB03231B09039A9A42DBD3002320
:104A100005E0019B1B68DB6901989847034618462F
:104A200005B05DF804FB00BF682A0020682A00205A
:104A3000CDCCCCCC29DF704700BF184628DF7047AB
:104A400000BF184600B589B001900091019B1B681A
:104A50009B68002B31D003AB00221A605A609A6029
:104A6000DA601A61009B0493019B9B680793019B8A
:104A70001B79002B02D0012B0AD017E001238DF8FF
:104A80000C30019B1B690593019B5B6906930DE04C
:104A900002238DF80C30019BDB684FF4805202FB3F
:104AA00003F30593019B5B69069300BF019B1B68A1
:104AB0009B6803AA1046984700E000BF09B05DF864
:104AC00004FB00B587B00190019B5A69019B9B696B
:104AD000D31AB3F5805F28BF4FF4805305930422A7
:104AE000059BB3FBF2F3012B38BF01230593019B18
:104AF0001A69019B9B6913440493019BDB681A4666
:104B0000019B9B6913440393059A03990498FFF74B
:104B100091FF0346184607B05DF804FB00B583B06B
:104B20000190019BDA68019B1B6913441846FFF74B
:104B300085FF0346184603B05DF804FB08B5034B38
:104B400003491846FFF71DFF00BF08BD382C0020A1
:104B5000602C002008B5084B08491846FFF7FAFEFC
:104B60000246074B1A60064B1B68002B14BF01233B
:104B70000023DBB2184608BD382C0020602C002032
:104B80005C2C002000B583B0294B1B7A002B0BD185
:104B9000FFF7E0FF034683F00103DBB2002B03D0F5
:104BA000234B00225A6040E0214B02221A72214B13
:104BB0001B681B79002B02D0012B07D00DE01D4B89
:104BC0001B681846FFF77DFF019009E0194B1B6831
:104BD0001846FFF7A3FF019002E00323019300BFF3
:104BE000019B002B02D0112B0CD00FE0104B1B7C33
:104BF00083F00103DBB2002B16D00021022000F06D
:104C00006DF811E00A4B01221A720EE0094B1B6885
:104C100003211846FFF716FF054B00221A72044BBA
:104C200000225A6000BF00E000BF03B05DF804FB43
:104C3000482C00205C2C002084B001901B4B0022EB
:104C4000DA60019B1B79002B02D0012B19D028E0E0
:104C5000019B5A69019B9B69D31AB3F5805F28BFFA
:104C60004FF480530393019B9A69039B1A44019B61
:104C70009A61019B9A69019B5B699A420ED101235B
:104C800010E0019B1B695A1C019B1A61019B1A6968
:104C9000019B5B699A4203D1012303E000BF00E05E
:104CA00000BF0023184604B0704700BF482C002006
:104CB00082B00190084BDB680133074AD360064B92
:104CC000DB68082B04D9044B0022DA60012300E0E2
:104CD0000023184602B07047482C002000B585B06C
:104CE00001900091244B1B7A012B33D0022B00D072
:104CF0003FE000238DF80F30019B022B02D0032BE5
:104D000009D011E01D4B1B681846FFF795FF0346BD
:104D10008DF80F3008E0194B1B681846FFF7C8FFE5
:104D200003468DF80F3000BF9DF80F30002B13D0D5
:104D3000114B00221A72114B1A68019B022B01D1F0
:104D4000002300E00D2319461046FFF77BFEFFF716
:104D5000F5FE01E000BF00E000BF074B5B7C83F085
:104D60000103DBB2002B02D0FFF70CFF01E00BF0D8
:104D700041FC05B05DF804FB482C00205C2C0020B1
:104D800082B0034600918DF80730064B01225A7419
:104D9000044B1B7A002B0CBF01230023DBB2184607
:104DA00002B07047482C002000B583B00346009144
:104DB0008DF807309DF80730012B03D09DF80730A0
:104DC000032B0DD1084B00225A749DF80730012B9C
:104DD0000CBF01230023DAB2034B1A74FFF7D2FE93
:104DE00000BF03B05DF804FB482C002000B583B081
:104DF00001900091019B002B03D11049502007F036
:104E0000D1FD009B002B03D10C49512007F0CAFDB6
:104E1000019B009A1A60019B1B681A68019B5A60EB
:104E2000019B5A68019B1B685B689A4202D1019BF7
:104E300000225A6000BF03B05DF804FB8C450300FC
:104E400000B583B00190019B002B03D1144963206E
:104E500007F0A8FD019B1B68002B03D110496420BB
:104E600007F0A0FD019B5B68002B14D0019B5B68E1
:104E70001A46019B1B689B6813441A46019B5A60A3
:104E8000019B5A68019B1B685B689A4204D1019B95
:104E900000225A6000E000BF03B05DF804FB00BFD1
:104EA0008C45030000B583B001900091019BDBB2FB
:104EB0001846FFF725FC019B184603B05DF804FB7C
:104EC00082B001900B46ADF80230019B1A68BDF824
:104ED0000230012101FA03F31A43019B1A6000BF5B
:104EE00002B0704782B001900B46ADF80230019BD2
:104EF0001A68BDF80230012101FA03F3DB431A40BE
:104F0000019B1A6000BF02B0704782B001900B464F
:104F1000ADF80230BDF80230012202FA03F31A465E
:104F2000019B1340002B14BF01230023DBB2184662
:104F300002B0704700B585B001900023ADF80E3087
:104F400010E0BDF80E3019460198FFF7DEFF03466A
:104F5000002B02D0BDF80E300AE0BDF80E30013350
:104F6000ADF80E30BDF80E301F2BEAD94FF6FF73A7
:104F7000184605B05DF804FB00B587B005900491B4
:104F800011461A460B46ADF80E3013468DF80D301B
:104F9000BDF80E209DF80D300093134601220499B0
:104FA000059800F004F800BF07B05DF804FB00B5F9
:104FB00087B0039002910192ADF80230039B002B61
:104FC0003BD0029B002B38D0019B002B35D0002317
:104FD00005932FE0059B5B00039A13441B88BDF8E3
:104FE00002209A4223D1002304931BE09DF8203035
:104FF000002B0AD0049B9B00029A1344059A92B29C
:1050000011461846FFF75CFF09E0049B9B00029ADB
:105010001344059A92B211461846FFF763FF049BAA
:1050200001330493049A019B9A42DFD305E0059B68
:1050300001330593059B1F2BCCD907B05DF804FB0A
:1050400000B597B003900291019200230493029B54
:10505000002B1ED00023159318E0159B9BB2194618
:105060000198FFF752FF0346002B0CD0049B5A1CFB
:105070000492159A520002990A4412885B0016A9FC
:105080000B4423F8442C159B01331593159B1F2BC0
:10509000E3D9039B184604AB442219460EF05CFD8D
:1050A000039817B05DF804FB00BF704708B501E036
:1050B000FFF7FAFF01F0A4FF0346002BF8D100BF71
:1050C00008BD000000B58FB00190019B5A78464B97
:1050D0001A70464B1B680D930D9B9B690C93019BAB
:1050E0001B78012B2BD0022B48D0002B65D101F06F
:1050F0009DFF03461A680C9B1A600C9B4FF40072CC
:105100005A603A4B1B689B699B68002B61D0002357
:105110008DF82030019B5B78002B14BF0123002306
:10512000DBB28DF82130002309930C9B9B690A9315
:105130000C9B9B680D9A08A91046984749E02B4B99
:105140001B689B699B68002B45D002238DF81430A7
:10515000019B5B78002B14BF01230023DBB28DF889
:1051600015300C9B0C3306930C9B9B6907930C9B8F
:105170009B680D9A05A9104698472CE01B4B1B68AD
:105180009B699B68002B28D003238DF80830019B76
:105190005B78002B14BF01230023DBB28DF80930AC
:1051A0000C9B0C3303930C9B9B6904930C9B9B6897
:1051B0000D9A02A9104698470FE003230B930B9B0F
:1051C000002B0CD00A4A81210B98FEF7E9F900BFA9
:1051D00005E000BF04E000BF02E000BF00E000BF48
:1051E0000FB05DF804FB00BF642C0020682C002089
:1051F0001846030000B58BB0039002910192039B07
:10520000002B03D12B498B2007F0CCFB039B089389
:10521000089B9B690793089B1B69B3F5007F01D02E
:10522000062343E0244B1B68002B01D011233DE0F3
:10523000079B019A9A61079B029A9A601E4A089BF3
:10524000136000230993089B14331C49184601F08E
:10525000FFFC0990099B002B0DD1029B002B0AD16A
:10526000FFF724FF164B1B78DBB2002B01D1002384
:1052700000E00D230993099B002B16D00E4B002252
:105280001A60029B002B10D000238DF810300123F0
:105290008DF8113000230593079B9B690693079BAC
:1052A0009B6804AA114603989847099B18460BB0BF
:1052B0005DF804FB18460300682C0020C55002006E
:1052C000642C002000B589B00190019B002B03D114
:1052D0001F49C32007F066FB019B0793079B9B694F
:1052E00006931C4B1A68079B9A4201D011232AE0AF
:1052F00001F086FE0346002B01D0112323E001F0CC
:105300005DFD0590059B002B02D1124B00221A6017
:10531000069B9B68002B15D001238DF80830059B58
:10532000002B14BF01230023DBB28DF809300023CA
:105330000393069B9B690493069B9B6802AA1146F4
:1053400001989847059B184609B05DF804FB00BF1B
:1053500018460300682C002000B589B00190009128
:10536000019B002B03D13049EF2007F01BFB009B72
:10537000002B03D12C49F02007F014FB019B06936E
:10538000069B9B69059300230793284B1A68069B8D
:105390009A4201D0112343E001F032FE0346002B74
:1053A00001D011233CE0059B009A0C3307CA83E827
:1053B0000700009B9868009B1968009B5B689BB284
:1053C0001A4601F04DFB0790079B002B0ED1059B61
:1053D0009B68002B0AD1FFF769FE154B1B78DBB2E7
:1053E000002B01D1002300E00D230793059B9B6850
:1053F000002B14D0079B002B11D002238DF808300E
:1054000001238DF80930059B0C330393059B9B69A1
:105410000493059B9B6802AA114601989847079B35
:10542000184609B05DF804FB18460300682C0020FC
:10543000642C002000B589B001900091019B002BE5
:1054400004D1314940F2211007F0ACFA009B002B47
:1054500004D12D494FF4917007F0A4FA019B0693F3
:10546000069B9B69059300230793284B1A68069BAC
:105470009A4201D0112343E001F0C2FD0346002B04
:1054800001D011233CE0059B009A0C3307CA83E846
:105490000700009B9868009B1968009B5B689BB2A3
:1054A0001A4601F049FB0790079B002B0ED1059B84
:1054B0009B68002B0AD1FFF7F9FD154B1B78DBB277
:1054C000002B01D1002300E00D230793059B9B686F
:1054D000002B14D0079B002B11D002238DF808302D
:1054E00001238DF80930059B0C330393059B9B69C1
:1054F0000493059B9B6802AA114601989847079B55
:10550000184609B05DF804FB18460300682C00201B
:10551000642C002088B003900B4601928DF80B306C
:10552000039B07939DF80B30002B04D0012B0CD06C
:1055300000BF062315E0019B0693069B002B02D0BB
:10554000069B00221A7000230BE0019B002B01D167
:10555000072306E0019B0593079B1A1D059B1A6014
:105560000023184608B0704700B585B00190019B34
:10557000002B04D107494FF4BB7007F013FA019BCD
:105580000393039B9B690293029B184605B05DF849
:1055900004FB00BF1846030000B583B00190019BD7
:1055A0001B681F2B04D905494FF4E87007F0FAF97E
:1055B0004FF0A043184603B05DF804FBB446030067
:1055C00000B585B00190084611461A4603468DF88D
:1055D00003300B468DF8023013468DF8013001ABD5
:1055E0001846FFF7D9FF0390019A9DF803109DF824
:1055F00002305B0019439DF801309B0019439DF870
:1056000018301B0219439DF81C301B041943039BDF
:1056100002F5E07243F8221000BF05B05DF804FB0C
:1056200000B585B00390002301930023009300236D
:10563000012201210398FFF7C3FF00BF05B05DF809
:1056400004FB00B585B003900B468DF80B309DF838
:105650000B20002301930023009313460022002116
:105660000398FFF7ADFF00BF05B05DF804FB00B580
:1056700085B0019001AB1846FFF78EFF0390019BA8
:10568000012202FA03F31946039800F018F800BF4C
:1056900005B05DF804FB00B585B0019001AB18467C
:1056A000FFF77AFF0390019B012202FA03F31946E8
:1056B000039800F00EF800BF05B05DF804FB82B05F
:1056C00001900091019B009AC3F8082500BF02B029
:1056D000704782B001900091019B009AC3F80C259D
:1056E00000BF02B0704782B001900091009A019B08
:1056F000C3F8242500BF02B07047000000B589B090
:10570000059003921A460B468DF8133013468DF818
:1057100012300F4B93F858301846FFF7BCFF9DF836
:1057200013209DF812300093039B0599094806F059
:1057300021F90790079B0693069B002B04D0064A8D
:10574000EE210698FDF72CFF00BF09B05DF804FBC1
:105750006C2C002070470300EC46030008B54FF0A6
:1057600040234FF080411846FFF7BDFF00BF08BD42
:1057700088B00190019B1B789B098DF81F309DF824
:105780001F30012B36D0022B04D0002B02D000BFDB
:10579000002343E0019B08331B789B09DBB21A46C8
:1057A000019B07331B789B001A44019B06331B782F
:1057B0009B0203F4406313440693019B05331B785B
:1057C00003F00F030593019B0A331B78DB09DBB25F
:1057D0001A46019B09331B785B0003F00603134450
:1057E0000493069B5A1C0599049B0B44073B02FA41
:1057F00003F313E0019B09331B781A46019B08331E
:105800001B781B021A44019B07331B781B0403F40B
:105810007C1313440393039B01339B02184608B087
:105820007047000000B585B0034600918DF8073041
:1058300013468DF80630594B93F82330002B01D0D6
:105840001123A7E000238DF80F30544B012283F879
:1058500023209DF90730002B1EDA06238DF80F3028
:105860004E4B022283F823204C4B772283F82820CA
:105870004A4B002283F82920484B002283F82A2033
:10588000464B002283F82B20444B002283F82C2027
:10589000424BFF2283F82D209DF80F309DF8072002
:1058A00002F07F02D1B23D4A13440A4683F8282011
:1058B0009DF80F300133009A120ED1B2374A1344CB
:1058C0000A4683F828209DF80F300233009A120C04
:1058D000D1B2324A13440A4683F828209DF80F308B
:1058E0000333009A120AD1B22C4A13440A4683F8B1
:1058F00028209DF80F300433009AD1B2274A134470
:105900000A4683F828209DF80730402B02D0482B08
:1059100004D007E095238DF80E3007E087238DF83B
:105920000E3003E0FF238DF80E3000BF9DF80F30DE
:1059300005331A4A13449DF80E2083F828209DF859
:105940000630022B02D0032B05D009E0134B0522B1
:1059500083F8242009E0114B052283F8242004E079
:105960000E4B012283F8242000BF9DF90730002B45
:1059700003DB0A4B93F8243000E001238DF80D304F
:105980009DF80D300E33DBB2054A06210548FFF7BE
:10599000B5FE0023184605B05DF804FB6C2C002012
:1059A000A42C0020942C002000B589B00390019312
:1059B0000B468DF80B301346ADF8083001238DF8F7
:1059C0001F30A64BDB8B40F2D512934200F0EB80E8
:1059D000B3F5EB7F07DA002B0ED040F2C3129342EF
:1059E00000F0A7802FE1B3F5EE7F00F0FB80B3F568
:1059F000F47F00F0168126E1BDF80830002B04D1B9
:105A000097494FF4C67006F0CDFF944B9B8A002B4C
:105A100004D1934940F28D1006F0C4FF8F4B9A8A4F
:105A20008E4BDA82E7E08D4B00221A848B4BFF22EB
:105A300083F82820894B00221A83884B032283F89D
:105A400023207CE0854B1B8C01339AB2834B1A8454
:105A5000824B1B8C44F6206293420FD9019B022299
:105A60001A707E4B0022DA830223F3E0039B01339A
:105A700003939DF80B30013B8DF80B309DF80B30F4
:105A8000002B03D0039B1B78FF2BEFD09DF80B302E
:105A9000002B41D0039B1B78FE2B35D1039B013398
:105AA00003939DF80B30013B8DF80B306B4B0422B8
:105AB00083F823209DF80B309AB2BDF8083093424A
:105AC00028BF1346ADF81430002306930BE0634B58
:105AD000DA68069B13440399069A0A4412781A70EE
:105AE000069B01330693BDF81420069B9A42EED81C
:105AF0005A4ABDF814301383584BDA68BDF8143095
:105B00001344564AD3601AE0019B05221A70534B86
:105B10000022DA8302239DE01023524A01215248D9
:105B2000FFF7ECFD00238DF81F304C4B40F2C31201
:105B3000DA839DF81F30002B01D101238AE0474B07
:105B400093F82330032B3FF47DAF32E0434B1B8BA4
:105B5000BDF80820D31AADF81630BDF81630F02B7A
:105B600002D9F023ADF816303C4BDA68BDF8163098
:105B7000DBB201213C48FFF7C1FD384BDA68BDF8C4
:105B800016301344354AD360344B1A8BBDF81630A7
:105B900013449AB2314B1A8300238DF81F302F4BD8
:105BA00040F2D512DA839DF81F30002B01D101237A
:105BB00050E02A4B1B8BBDF808209A42C6D8274BD1
:105BC000DB8A013B9AB2254BDA820223254A012166
:105BD0002548FFF793FD00238DF81F301F4B4FF42E
:105BE000EE72DA839DF81F30002B01D1012331E0E2
:105BF00000238DF80B30194BDB8A002B7FF413AF99
:105C0000164BFF2283F828200223164A012116484A
:105C1000FFF774FD00238DF81F30104B4FF4F47222
:105C2000DA839DF81F30002B01D1012312E00B4BCA
:105C3000002283F82320019B00221A70074B0022C8
:105C4000DA83022306E000238DF81F30034B002285
:105C5000DA830323184609B05DF804FB6C2C00209E
:105C6000EC460300A42C0020942C002000B593B037
:105C700003900B4601928DF80B30039B1B788DF837
:105C80004730039B01331B781A06039B02331B78B2
:105C90001B041A43039B03331B781B021343039A11
:105CA000043212781343109301238DF84630B94B18
:105CB0009B8BB3F50D7F00F02781B3F50D7F17DCCB
:105CC00040F20F22934268D0B3F5047F05DA002B2F
:105CD0002DD0B3F5037F42D06CE240F215229342FF
:105CE00000F0888040F22222934200F0CA8061E2F4
:105CF00040F25D22934200F0DC8140F25D2293424B
:105D00000ADC40F24922934200F0628140F24F22C5
:105D1000934200F090814DE240F26722934200F0FE
:105D2000FA8140F26D22934200F0188242E2012291
:105D300000214020FFF776FD0F900F9B0E930E9BE6
:105D4000002B05D0944A40F20B210E98FDF728FC59
:105D500000238DF846308F4B4FF403729A839DF8E1
:105D60004630002B01D101232BE2012200214020EB
:105D7000FFF758FD0F900F9B0D930D9B002B05D047
:105D8000854A40F20E210D98FDF70AFC00238DF89C
:105D90004630804B40F20F229A839DF84630002B0C
:105DA00001D101230DE29DF8473023F00303002BBE
:105DB00007D0019B04221A70764B00229A8302239B
:105DC000FFE103224FF4D5714820FFF72BFD0F9020
:105DD0000F9B0C930C9B002B05D06F4A4FF4057161
:105DE0000C98FDF7DDFB00238DF84630694B40F23F
:105DF00015229A839DF84630002B01D10123E0E162
:105E00009DF8473003F00403002B13D1614A937AC5
:105E1000032161F3020393729DF8473023F00303DB
:105E2000002B07D0019B04221A705A4B00229A8340
:105E30000223C6E1574B00221A84564B9B7A03F08B
:105E40000703DBB2032B02D14FF0804300E00023B5
:105E50000B9302220B99E920FFF7E4FC0F900F9BB4
:105E60000A930A9B002B05D04B4A40F221210A9845
:105E7000FDF796FB00238DF84630464B40F2222278
:105E80009A839DF84630002B01D1012399E19DF8BA
:105E9000473003F00403002B51D03E4A937A01218E
:105EA00061F3020393729DF8473023F004038DF8E9
:105EB0004730384B1B8C01339AB2364B1A84354B22
:105EC0001B8CB3F5FA6F07D9019B02221A70314B74
:105ED00000229A83022374E1022200214120FFF76D
:105EE000A1FC0F900F9B0993099B002B05D02A4A18
:105EF00040F233210998FDF753FB00238DF846301B
:105F0000244B4FF40D729A839DF84630002B01D13B
:105F1000012356E19DF8473023F00303002B07D0FF
:105F2000019B04221A701B4B00229A83022348E132
:105F30009DF8473003F00103002BBAD199E09DF89A
:105F4000473023F00303002B56D0019B04221A7024
:105F5000104B00229A83022333E10E4B1B8C01333A
:105F60009AB20C4B1A840B4B1B8CB3F5FA6F07D902
:105F7000019B02221A70074B00229A83022320E120
:105F8000044B9B7A03F00703DBB2032B06D14FF0DF
:105F9000804304E06C2C0020EC46030000230B93AC
:105FA00002220B99E920FFF73DFC0F900F9B08930D
:105FB000089B002B05D0854A4FF412710898FDF715
:105FC000EFFA00238DF84630814B40F249229A8344
:105FD0009DF84630002B01D10123F2E09DF84730B7
:105FE00023F00303002B08D0019B04221A70784B86
:105FF00000229A830223E4E000BF9DF8473003F0BB
:106000000103002BA9D1022200217A20FFF70AFC0C
:106010000F900F9B0793079B002B05D06B4A40F214
:106020004E210798FDF7BCFA00238DF84630684BE7
:1060300040F24F229A839DF84630002B01D1012374
:10604000BFE09DF8473023F00303002B07D0019BEE
:1060500004221A705E4B00229A830223B1E0109B47
:1060600003F08043002B04D0594A937A43F008038D
:106070009372574B9B7A03F00703DBB2032B2CD0B0
:1060800001224FF400715020FFF7CCFB0F900F9BC3
:106090000693069B002B05D04C4A4FF417710698C7
:1060A000FDF77EFA00238DF84630494B40F25D2221
:1060B0009A839DF84630002B01D1012381E09DF8A1
:1060C000473023F00303002B07D0019B04221A70F2
:1060D0003F4B00229A83022373E03D4B3D4ADA6036
:1060E0003B4B01229A82012200214920FFF79AFBB3
:1060F0000F900F9B0593059B002B05D0334A40F270
:1061000066210598FDF74CFA00238DF84630304B98
:1061100040F267229A839DF84630002B01D101237B
:106120004FE09DF8473023F00303002B07D0019B7D
:1061300004221A70264B00229A83022341E0039B1B
:10614000013303939DF80B30013B8DF80B30204B4E
:106150000022DA831E4B40F26D229A830DF1130365
:106160009DF80B1010220398FFF71EFC0346012B2D
:1061700001D8002325E09DF81330002B08D09DF8AE
:106180001320019B1A70124B00229A83022318E0FD
:106190001048FFF7EDFA02460D4B5A600C4B4FF4D6
:1061A00000721A81019B00221A70094B00229A8307
:1061B000022306E000238DF84630054B00229A8327
:1061C0000323184613B05DF804FB00BFEC46030040
:1061D0006C2C0020B42C002000B589B003900B4635
:1061E00001928DF80B3001238DF81F303E4B9B8BB5
:1061F00040F29622934226D040F29E22934259D0FA
:10620000002B65D1039B1B788DF81E309DF81E3046
:1062100023F00303002B07D0019B04221A70324B9A
:1062200000229A8302235AE0039B013303939DF8D3
:106230000B30013B8DF80B302B4B0022DA832A4BBD
:1062400040F296229A830DF113039DF80B104FF440
:1062500000720398FFF7A8FB0346012B01D8002327
:106260003DE09DF81330002B08D09DF81320019BD2
:106270001A701D4B00229A83022330E01A4B9B8A2E
:10628000012B1DD9012200214C20FFF7CBFA0690EB
:10629000069B0593059B002B05D0144A40F29D21D7
:1062A0000598FDF77DF900238DF81F300E4B40F265
:1062B0009E229A839DF81F30002B01D101230EE00E
:1062C000019B00221A70084B00229A83022306E0E9
:1062D00000238DF81F30044B00229A8303231846B5
:1062E00009B05DF804FB00BF6C2C0020EC460300F5
:1062F00000B58DB003900B4601928DF80B30012351
:106300008DF82F30AA4B9B8BB3F5387F00F0CA80F5
:10631000B3F5387F0BDC40F2BF22934255D040F2F8
:10632000CF22934200F09080002B17D0D1E140F2B1
:106330000632934200F0278140F20632934204DC99
:10634000B3F53A7F00F0D180C3E1B3F5477F00F0A9
:106350006881B3F54B7F00F09381BAE1039B1B7812
:106360008DF823309DF8233023F00303002B07D052
:10637000019B04221A708E4B00229A830223AFE104
:106380008B4B9B7A03F00703DBB2012B35D0884B94
:106390009B8A012B31D9864B1B6901221946592052
:1063A000FFF740FA0790079B0693069B002B05D04A
:1063B000804A40F2BE210698FDF7F2F800238DF8DE
:1063C0002F307B4B40F2BF229A839DF82F30002B59
:1063D00001D1012384E1039B1B788DF823309DF8C4
:1063E000233023F00303002B07D0019B04221A70F3
:1063F0006F4B00229A83022372E16D4B9A8A6C4B99
:10640000DA82F0E06A4B00221A83694B042283F897
:106410002320674BFF2283F82820654B9B8A012BA2
:1064200001D9FC2200E0FE22614B83F829200223DF
:10643000614A02216148FFF761F900238DF82F308E
:106440005B4B40F2CF229A839DF82F30002B2FD147
:10645000012345E1564B1B8BC3F50073ADF82C307F
:10646000BDF82C30F02B02D9F023ADF82C30504B76
:10647000DB684F4A128B9818BDF82C30D9B2012333
:106480004D4AFFF73BF94A4B1A8BBDF82C301344A9
:106490009AB2474B1A8300238DF82F30444B4FF4A8
:1064A00038729A839DF82F30002B02D1012317E117
:1064B00000BF3F4B1B8BB3F5007FCBD33C4BDB685E
:1064C00003F500733A4AD360394B032283F8232043
:1064D0000323394A01213948FFF710F900238DF8C9
:1064E0002F30334B4FF43A729A839DF82F30002BA4
:1064F00001D10123F4E02E4B93F83A3003F01F034F
:106500008DF817309DF81730052B17D09DF81730F0
:106510000B2B03D09DF817300D2B07D1019B0522C3
:106520001A70234B00229A830223D9E0019B042294
:106530001A701F4B00229A830223D1E01C4B0022C9
:106540001A8445E01A4B1B8C01339AB2184B1A84FB
:10655000174B1B8C44F62062934207D9019B022201
:106560001A70134B00229A830223B9E01023124AB7
:1065700001211248FFF7C2F800238DF82F300C4B91
:1065800040F206329A839DF82F30002B01D101236F
:10659000A6E000230A9316E0039A0A9B13441B7893
:1065A000002B0DD0024B002283F8232010E000BF07
:1065B0006C2C0020EC460300A42C0020942C00201E
:1065C0000A9B01330A939DF80B200A9B9A42E3D859
:1065D000454B93F82330032BB4D0434BDB8A013B6C
:1065E0009AB2414BDA82404BDB8A002B7FF40AAF30
:1065F0003D4B9B8A012B64D93B4BFF2283F828201B
:10660000394BFD2283F829200323384A02213848D8
:10661000FFF774F800238DF82F30334B4FF4477297
:106620009A839DF82F30002B01D1012358E02E4B87
:1066300000221A842C4B032283F823203CE02A4BAF
:106640001B8C01339AB2284B1A84274B1B8C44F6BF
:106650002062934207D9019B02221A70224B00222A
:106660009A8302233CE01023204A01212048FFF7AF
:1066700045F800238DF82F301B4B4FF44B729A8353
:106680009DF82F30002B01D1012329E0002309932D
:106690000DE0039A099B13441B78002B04D0124B86
:1066A000002283F8232007E0099B013309939DF81A
:1066B0000B20099B9A42ECD80B4B93F82330032B09
:1066C000BDD0019B00221A70074B00229A8302233F
:1066D00006E000238DF82F30034B00229A8303231A
:1066E00018460DB05DF804FB6C2C0020A42C002093
:1066F000942C002000B58DB001900091019BDB68C7
:106700000B93019B1B7C8DF82B30AD4BDB8A002B50
:1067100005D1AB4B93F858301846FEF7A8FFA84BAD
:1067200093F82330022B05D0A54B93F82330012B8F
:1067300040F0C6809DF82B30062B04D8A14940F2CA
:10674000533006F02FF99DF82B30063B8DF82B3097
:106750000B9B06330B93019B5B681B784C2B14D16E
:106760009DF82B30002B10D09DF82B30013B8DF87D
:106770002B300B9B01330B9307E09DF82B30013B33
:106780008DF82B300B9B01330B939DF82B30002B96
:1067900003D00B9B1B78FF2BEFD09DF82B30002BE9
:1067A0000FD1019B5B681B784C2B08D19DF82B30D7
:1067B00001338DF82B300B9B013B0B9301E0002341
:1067C0000B930B9B002B59D17D4B93F82230DBB2FE
:1067D000012B53D001238DF80D30794B93F82230E3
:1067E000DBB2013B042B29D801A252F823F000BFF1
:1067F00005680200056802003D6802002D6802007D
:106800003568020000238DF80C306D4B032283F8AD
:10681000222000F0D3FA0990099B002B1AD0694A74
:1068200040F27F310998FCF7BBFE13E001238DF89D
:106830000C3012E002238DF80C300EE00323089395
:10684000089B002B08D05F4A4FF462710898FCF750
:10685000A7FE01E000BF00E000BF594B93F858309D
:106860001846FEF704FF564B032283F82220544BB0
:106870001B6803AA1046984700BFE9E0504B93F805
:106880002330022B18D14E4B012283F823200B9B7F
:106890001B788DF81F309DF81F3023F00103002B6B
:1068A0000AD14948464B93F824300E33DBB2474AAD
:1068B0000621FEF723FFCBE0414B002283F8232083
:1068C00006238DF813303E4B93F82230DBB2013BA8
:1068D000042B00F2A98001A252F823F0F168020013
:1068E000FF680200296A020069690200D16902009A
:1068F000334B022283F82220314B00229A830DF180
:1069000013029DF82B3019460B98FFF7AFF9034699
:10691000012B40F2958000238DF810309DF8133044
:106920008DF81130264B032283F82220244B93F854
:1069300058301846FEF79BFE9DF81330002B0BD005
:1069400000F03CFA0690069B002B05D01D4A40F251
:10695000B3310698FCF724FEFEF700FF184B1B68C6
:1069600004AA104698476BE00DF113029DF82B30F6
:1069700019460B98FFF730FC0346012B62D901231F
:106980008DF810309DF813308DF811300C4B032228
:1069900083F822200A4B00229A82094B0022DA82D5
:1069A000074B002283F82320054B93F858301846F4
:1069B000FEF75DFE024B1B6804AA1046984741E0B3
:1069C0006C2C0020EC4603009A2C0020A42C002004
:1069D0000DF113029DF82B3019460B98FFF788FC38
:1069E0000346012B30D902238DF810309DF8133067
:1069F0008DF81130184B032283F82220164B002209
:106A000083F82320144B00229A82134B0022DA824F
:106A1000114B93F858301846FEF729FE0E4B1B68B1
:106A200004AA104698470FE003230593059B002B0B
:106A30000CD00A4A4FF475710598FCF7B1FD05E0DA
:106A400000BF04E000BF02E000BF00E000BF00BFE5
:106A50000DB05DF804FB00BF6C2C0020EC46030079
:106A600000B589B0039002911346ADF80630039B40
:106A7000002B04D12E4940F2DE3005F093FF2D4B60
:106A800093F82230DBB2002B01D108234CE0294BD4
:106A900093F82230DBB2032B01D0112344E0BDF880
:106AA0000630002B01D107233EE0224B042283F85D
:106AB0002220204B9B7A03F00803DBB2002B04D189
:106AC000029B5B021B4A136102E01A4A029B13619C
:106AD000184A039BD360174ABDF806309382154AC3
:106AE000BDF80630D382134B00229A83BDF80630DE
:106AF000012B01D9522300E051238DF81F300D4B9B
:106B000019699DF81F3001221846FEF78BFE06908A
:106B1000069B0593059B002B05D0054A40F2FE31EC
:106B20000598FCF73DFD0023184609B05DF804FB0D
:106B3000EC4603006C2C002000B589B00390029154
:106B40001346ADF80630039B002B04D13E4940F2BA
:106B5000064005F027FF3D4B93F82230DBB2002BB7
:106B600001D108236BE0394B93F82230DBB2032BC1
:106B700001D0112363E0BDF80630002B01D10723BB
:106B80005DE0324B052283F82220304B9B7A03F0E4
:106B90000803DBB2002B04D1029B5B022B4A13617A
:106BA00002E02A4A029B1361284A039BD360274ACA
:106BB000BDF806309382254ABDF80630D382234BB8
:106BC00000229A83BDF80630012B14D11F4B1B699C
:106BD000012219465820FEF725FE0790079B0693D1
:106BE000069B002B05D0184A40F229410698FCF775
:106BF000D7FC002323E0154B9B7A03F00703DBB29D
:106C0000012B08D1114B1B69012219465920FEF7AF
:106C100009FE079007E0BDF8063001221946D7208B
:106C2000FEF700FE0790079B0593059B002B05D000
:106C3000054A4FF487610598FCF7B2FC002318461B
:106C400009B05DF804FB00BFEC4603006C2C00208B
:106C500000B58DB003900291524B93F82230DBB215
:106C6000002B01D0082398E0029B002B0FD0039B40
:106C7000DB78FF2B0BD0039B5B78FF2B07D0039BAC
:106C80001B78FF2B03D0039B9B78FF2B01D107239D
:106C900083E0039BDB78002B0BD0039B5B78002BFE
:106CA00007D0039B1B78002B03D0039B9B78002B02
:106CB00004D13D4940F24E4005F074FE039BDA7862
:106CC000384B83F85820374B93F858301846FEF766
:106CD000A7FC344B93F858301846FEF7C8FC039BCA
:106CE0009B788DF81430039B1B788DF81530039B2F
:106CF0005B788DF81630FF238DF8173007238DF859
:106D00001830FF238DF819304FF08063079300236C
:106D10008DF8203000238DF8213005A90023234A67
:106D2000234804F00BFD0B900B9B0A930A9B002B4E
:106D300005D01D4A40F261410A98FCF731FC194A1E
:106D4000029B1360174B012283F82220154A937A85
:106D50006FF302039372134A937A6FF3C303937230
:106D6000104B002283F823200E4BFF2283F82820AB
:106D70000A2300930F4B01220F490D4804F0FAFD3E
:106D80000B900B9B0993099B002B05D0064A40F200
:106D90006D410998FCF704FC002318460DB05DF81E
:106DA00004FB00BF6C2C0020EC460300F5660200DB
:106DB00070470300A42C0020942C002008B5124B2F
:106DC00093F82230DBB2002B01D108231AE00E4BDE
:106DD00093F82230DBB2032B01D0112312E00B48D1
:106DE00004F070FD084B93F8583000211846FEF768
:106DF00028FC054B002283F82320034B002283F854
:106E000022200023184608BD6C2C00207047030088
:106E100010B584B0064B6C460FCB84E80F00694672
:106E200000230022034804F089FC00BF04B010BD19
:106E3000604703007047030010B584B0064B6C46F2
:106E40000FCB84E80F0069460023044A044804F08D
:106E500075FC00BF04B010BD60470300F56602007A
:106E60007047030008B5024804F02CFD00BF08BDC0
:106E7000704703000000000010B58AB00390112095
:106E8000FEF7F5FBFFF7EEFFFFF7C2FF0720FEF767
:106E900002FC039BDB005BB203F038035BB263F0E0
:106EA0003F035BB2DBB28DF8183000238DF8193048
:106EB00000238DF81A3005AA06A903230093134670
:106EC00003224B4804F056FD0720FEF7D0FBFFF7E6
:106ED000C9FFFFF7B1FF1120FEF7DDFB9DF814306D
:106EE0005B0203F400729DF815305B0013439DF8BC
:106EF0001620D209D2B21343C3F3090309930998A8
:106F00000BF004FF03460C461A46234632A1D1E992
:106F100000010CF057FA03460C46184621464FF084
:106F20000002344B0CF052F803460C46184621463A
:106F30000BF020FF0346089308992F480BF052FFEF
:106F4000034608932C4908980BF04CFF034607931F
:106F500007980BF0F3FE03460C46184621460CF04A
:106F6000EFFB03460C46184621460BF003FF034691
:106F70000793224907980BF035FF034607930798BC
:106F80000BF0DCFE16A3D3E900230CF021F8034636
:106F90000C46184621460BF0EDFE03460793079971
:106FA0004FF07E500BF01EFF0346079307980BF03F
:106FB000C5FE0DA3D3E900230CF008F803460C46E8
:106FC000184621460BF0D6FE03460793079B18464A
:106FD0000AB010BDAFF300800000000000F88F4041
:106FE00083DBB5DCE1796B3F6666666666127140ED
:106FF000704703000000F03F00401C4600E0584589
:10700000094B93F82230DBB2032B07D0064B93F8E1
:107010002230DBB2002B01D0012300E0002303F07B
:107020000103DBB2184670476C2C0020054B93F827
:107030002230DBB2022B01D9034B00E000231846BB
:10704000704700BF6C2C0020702C002000B583B06E
:107050000190019B1B681F2B04D905494FF4E87070
:1070600005F0A0FC4FF0A043184603B05DF804FB08
:107070007847030000B585B00190084611461A46CE
:1070800003468DF803300B468DF8023013468DF819
:10709000013001AB1846FFF7D9FF0390019A9DF824
:1070A00003109DF802305B0019439DF801309B00EE
:1070B00019439DF818301B0219439DF81C301B041E
:1070C0001943039B02F5E07243F8221000BF05B09C
:1070D0005DF804FB00B585B0039000230193002305
:1070E00000930023012201210398FFF7C3FF00BF93
:1070F00005B05DF804FB00B585B0019001AB184602
:10710000FFF7A4FF0390019B012202FA03F3194643
:10711000039800F086F800BF05B05DF804FB00B5E9
:1071200085B0019001AB1846FFF790FF0390019BDB
:10713000012202FA03F31946039800F07CF800BF1D
:1071400005B05DF804FB00B585B0019001AB1846B1
:10715000FFF77CFF0390039BD3F804350293029B57
:10716000DA43019B012101FA03F31A40039BC3F8A0
:107170000825019B01229A40029B1A40039BC3F8F9
:107180000C2500BF05B05DF804FB00B583B001908D
:107190000091009B002B03D10198FFF7C0FF02E094
:1071A0000198FFF7A8FF00BF03B05DF804FB00B52E
:1071B00085B0019001AB1846FFF748FF0390039894
:1071C00000F01FF80246019B22FA03F303F00103CB
:1071D000184605B05DF804FB00B585B0019001AB21
:1071E0001846FFF733FF0390039800F012F80246A9
:1071F000019B22FA03F303F00103184605B05DF882
:1072000004FB82B00190019BD3F81035184602B000
:10721000704782B00190019BD3F80435184602B044
:10722000704782B001900091019B009AC3F8082535
:1072300000BF02B0704782B001900091019B009A9C
:10724000C3F80C2500BF02B07047000000B585B040
:107250000190019B032B03D91149372005F0A2FBB4
:10726000104A019B13441B781846FFF7B5FF0346ED
:10727000002B14BF012300238DF80F309DF80F3031
:10728000002B14BF01230023DBB283F00103DBB228
:1072900003F00103DBB2184605B05DF804FB00BF44
:1072A000B04703001848030000B583B00190019B6C
:1072B000032B03D907493E2005F074FB064A019BC6
:1072C00013441B7800211846FFF75FFF00BF03B08F
:1072D0005DF804FBB04703001848030000B583B015
:1072E0000190019B032B03D90749442005F05AFB69
:1072F000064A019B13441B7801211846FFF745FFFE
:1073000000BF03B05DF804FBB0470300184803005A
:1073100000B583B00023019305E00198FFF7DEFF7D
:10732000019B01330193019B032BF6D900BF03B0EE
:107330005DF804FB00B583B00023019305E00198DC
:10734000FFF7B2FF019B01330193019B032BF6D999
:1073500000BF03B05DF804FB00B583B00190019B52
:10736000032B03D907495C2005F01CFB064A019B4F
:1073700013441B781846FFF7E6FE00BF03B05DF824
:1073800004FB00BFB04703001848030000B583B0FA
:107390000023019309E0094A019B13441B78184616
:1073A000FFF798FE019B01330193019B032BF2D958
:1073B000FFF7AEFF00BF03B05DF804FB1848030001
:1073C00000B585B00190019B032B03D9114983209F
:1073D00005F0E8FA104A019B13441B781846FFF7A2
:1073E000E6FE0346002B14BF012300238DF80F3067
:1073F0009DF80F30002B14BF01230023DBB283F074
:107400000103DBB203F00103DBB2184605B05DF8FF
:1074100004FB00BFB04703001C48030084B0019088
:107420004FF0FF330293002303930DE00A4A039BBE
:1074300013441B781A46019B9A4202D1039B029384
:1074400005E0039B01330393039B032BEED9029BBF
:10745000184604B0704700BF1C48030000B583B055
:107460000190019B032B03D90549A22005F09AFA4C
:10747000044A019B13441B78184603B05DF804FBD3
:10748000B04703001C48030082B003468DF8073064
:1074900008499DF907305B099DF8072002F01F029B
:1074A000012000FA02F2203341F8232000BF02B08D
:1074B000704700BF00E100E082B001904FF08042D1
:1074C000019BC2F8083300BF02B0704782B0034688
:1074D0008DF807309DF8073003F1804301221A60D0
:1074E00000BF02B0704784B00346ADF80630BDF867
:1074F000063003F1804300221A60BDF8063003F124
:1075000080431B680393039B00BF04B0704782B0A5
:107510000346ADF80630BDF8063003F180431B6822
:10752000002B14BF01230023DBB2184602B07047C2
:1075300082B003468DF807304FF080429DF8073047
:1075400003F00303C2F8183500BF02B070474FF0D4
:107550008043D3F818341B0C03F00103002B14BF35
:1075600001230023DBB218467047000082B00346B7
:107570008DF807300A4A9DF907305B0952F823203D
:107580009DF8073003F01F03012101FA03F31340B4
:10759000002B14BF01230023DBB2184602B0704752
:1075A00000E100E008B50020FFF7E0FF034683F0AC
:1075B0000103DBB2002B03D00721002000F096F975
:1075C00000BF08BD08B509F031F8034683F0010398
:1075D000DBB2002B03D10949842005F0E3F90C202C
:1075E000FFF774FF00BFFFF7B2FF0346002BFAD18D
:1075F000034B00229A7000BF08BD00BF2048030063
:10760000C82C002000B583B000230193134B1B78D6
:10761000002B02D0852301931BE0104B00229A60BF
:107620000E4B00225A600D4B00221A610B4B0022B8
:10763000DA60FFF7B7FF08F0F9FF034683F00103B4
:10764000DBB2002B02D00020FFF772FF034B0122B8
:107650001A70019B184603B05DF804FBC82C00208B
:1076600084B00190019B1B680393039B002B03D004
:10767000039B1A68019B1A60039B184604B070476D
:1076800000B583B0164B1B78002B04D115494FF47D
:107690008E7005F087F9124BDB68002B04D111497D
:1076A00040F21D1005F07EF900238DF807300DF132
:1076B00007031846FDF7C6F8094BDB68013B084A8B
:1076C000D360074BDB68002B01D1FFF77BFF9DF8F0
:1076D00007301846FDF7CCF800BF03B05DF804FB97
:1076E000C82C00202048030000B585B003468DF863
:1076F00007309DF80730002B02D10C4B039301E0BB
:107700000B4B03930398FFF7ABFF0290029B002BF8
:1077100006D0029B5B689DF8072010469847F1E76A
:1077200000BF00BF05B05DF804FB00BFD02C0020F7
:10773000D82C002008B54FF48070FFF7E8FE034610
:10774000002B0CD04FF48070FFF7CDFE0120FFF727
:10775000B3FE0E4B01225A700020FFF7C5FF4FF415
:107760008270FFF7D4FE0346002B0CD04FF48270DA
:10777000FFF7B9FE0220FFF79FFE044B01229A702B
:107780000120FFF7B1FF00BF08BD00BFC82C0020DB
:1077900000B583B001900091019B002B02D1002025
:1077A000FFF7A2FF00BF03B05DF804FB00B585B092
:1077B000034600918DF807309DF80730012B08D063
:1077C000032B25D0002B00D032E00020FFF75CFE19
:1077D0002EE000238DF80F300DF10F031846FDF752
:1077E00031F8154B1B7883F00103DBB2002B01D07D
:1077F000FFF708FF104BDB6801330F4AD3600E4BD5
:1078000001229A709DF80F301846FDF731F80FE00D
:10781000094B1B78002B04D1084940F25B2005F08E
:10782000C1F80721002000F061F8FFF729FF00BF31
:1078300000BF05B05DF804FBC82C00202048030001
:1078400082B003468DF8073007499DF907305B0980
:107850009DF8072002F01F02012000FA02F241F811
:10786000232000BF02B0704700E100E082B0034671
:107870008DF8073008499DF907305B099DF807200E
:1078800002F01F02012000FA02F2603341F82320C7
:1078900000BF02B0704700BF00E100E082B00346C5
:1078A00000918DF807309DF90730002B0CDA0D4957
:1078B0009DF8073003F00F03043B009AD2B2520147
:1078C000D2B20B441A7609E007499DF90730009AB5
:1078D000D2B25201D2B20B4483F8002300BF02B0EF
:1078E000704700BF00ED00E000E100E000B583B0AC
:1078F00003460A468DF8073013468DF806309DF88A
:107900000630012B03D99DF80630032B0CD99DF8C6
:107910000630042B03D99DF80630072B04D90D49F6
:107920004FF4927005F03EF89DF806209DF907305F
:1079300011461846FFF7B2FF9DF907301846FFF7CA
:1079400095FF9DF907301846FFF77AFF00BF03B097
:107950005DF804FB9848030000B583B00346ADF81A
:107960000630BDF80630184600F026F803461B68BE
:10797000012B0CBF01230023DBB2184603B05DF8D6
:1079800004FB00B585B00346ADF80630BDF80630FF
:10799000184600F011F803461A4600231360BDF89C
:1079A0000630184600F008F803461B680393039B53
:1079B00000BF05B05DF804FB82B00346ADF80630A9
:1079C000BDF8063003F1804303F5C043184602B00A
:1079D0007047000082B00190034A019BC2F8043353
:1079E00000BF02B0704700BF0060004082B001904D
:1079F000034BD3F80423019B1340184602B0704791
:107A00000060004082B001900849084A019B03F5DC
:107A1000A27352F8233043F00102019B03F5A273D5
:107A200041F8232000BF02B0704700BF0060004053
:107A300084B00390029113468DF807301449144A1C
:107A4000039B03F5A27352F8233023F4473323F446
:107A50004073039A02F5A27241F822300C480C4A96
:107A6000039B03F5A27352F82320029B1B0203F42D
:107A7000F8519DF807301B0403F440330B431A43BD
:107A8000039B03F5A27340F8232000BF04B07047A6
:107A90000060004082B00190054A019B03F5A2738B
:107AA00052F823301B0A03F01F03184602B0704738
:107AB0000060004082B00190064A019B03F5A2736A
:107AC00052F823301B0C03F00303DBB2184602B05C
:107AD000704700BF0060004000B583B00190019B7B
:107AE0001B681F2B04D905494FF4E87004F05AFFB6
:107AF0004FF0A043184603B05DF804FB144903009F
:107B000000B585B00190084611461A4603468DF827
:107B100003300B468DF8023013468DF8013001AB6F
:107B20001846FFF7D9FF0390019A9DF803109DF8BE
:107B300002305B0019439DF801309B0019439DF80A
:107B400018301B0219439DF81C301B041943039B7A
:107B500002F5E07243F8221000BF05B05DF804FBA7
:107B600000B585B003900B468DF80B309DF80B20C7
:107B70000023019300230093134600220021039861
:107B8000FFF7BEFF00BF05B05DF804FB00B585B090
:107B9000019001AB1846FFF79FFF0390019A039BEA
:107BA00002F5E07253F8223023F002030293019AA7
:107BB000039B02F5E072029943F8221000BF05B062
:107BC0005DF804FB00B585B001900B468DF80330DD
:107BD00001AB1846FFF780FF0390019A0199039BC0
:107BE00001F5E07153F8213023F44031039B02F595
:107BF000E07243F82210019A0199039B01F5E071AC
:107C000053F821309DF8031009041943039B02F532
:107C1000E07243F8221000BF05B05DF804FB00B528
:107C200085B0019001AB1846FFF756FF039003980B
:107C300000F020F80246019B22FA03F303F001034F
:107C4000184605B05DF804FB00B585B0019001ABA6
:107C50001846FFF741FF0390019A039B02F5E0727B
:107C600053F822301B0C03F00303DBB2184605B0B7
:107C70005DF804FB82B00190019BD3F810351846E3
:107C800002B0704700B587B00390029101924FF0A7
:107C9000A0430493039A029B1344012B04D9124975
:107CA0004FF43A7004F07EFE039B059311E0059BB0
:107CB0009B0006AA134453F8083C1846FFF7DAFF66
:107CC0000246019B1A60019B04330193059B01331B
:107CD0000593039A029B1A44059B9A42E7D800BF7A
:107CE00007B05DF804FB00BF1449030084B00190A5
:107CF0000091009B0393019BDB080293019B03F01F
:107D0000070301930122019B02FA03F30399029AEC
:107D10000A4412781340184604B0704784B00190AA
:107D20000091009B0393019BDB080293019B03F0EE
:107D300007030193039A029B13440399029A0A448E
:107D4000127851B20120019A00FA02F252B20A43AB
:107D500052B2D2B21A7000BF04B0704782B0019024
:107D60000C4A019B1344303393F90030002B09DB9C
:107D7000084A019B1344303393F90030072B01DC90
:107D8000012300E0002303F00103DBB2184602B038
:107D9000704700BFDC2C002082B00190064A019B96
:107DA0001344303393F90030072BCCBF0123002359
:107DB000DBB2184602B07047DC2C002082B0019084
:107DC000064A019B1344303393F90030DB43DBB2A6
:107DD000DB09DBB2184602B0704700BFDC2C002084
:107DE00084B00390029101928DF80330029B59B246
:107DF0000E4A039B134430330A461A700B49029B08
:107E0000019A41F823209DF8033083F00103DBB28F
:107E1000002B08D0029B083B039A51B2034A13443B
:107E20000A4683F8502000BF04B07047DC2C0020C5
:107E300082B00190044A019B13443033FF221A7030
:107E400000BF02B0704700BFDC2C002082B0019060
:107E5000044A019B1344303393F90030184602B0B2
:107E6000704700BFDC2C002082B00190034A019BC8
:107E700052F82330184602B0704700BFDC2C0020B7
:107E800000B589B00390029113468DF80730FF23A7
:107E90008DF81F309DF80730002B01D0002300E043
:107EA000082305939DF80730002B01D0082300E03C
:107EB0000C230493059B069314E00F4A069B52F88B
:107EC0002330B3F1FF3F0AD19DF80730029A06999B
:107ED0000398FFF785FF069B8DF81F3006E0069B91
:107EE00001330693069A049B9A42E6D39DF91F300C
:107EF000184609B05DF804FBDC2C002082B0034674
:107F00008DF807309DF80730094A4FF0FF3142F8ED
:107F100023109DF80730072B07D99DF80730083B41
:107F2000034A1344FF2283F8502000BF02B0704779
:107F3000DC2C002000B583B0214B93F85430002B8B
:107F400003D008230093009B36E000238DF8073010
:107F500009E09DF807301846FFF76AFF9DF80730E3
:107F600001338DF807309DF807301F2BF1D900231E
:107F70008DF8073009E09DF807301846FFF7BEFF7F
:107F80009DF8073001338DF807309DF807300B2B33
:107F9000F1D907210620FFF7A9FC4FF4BE70FFF7C7
:107FA000F0FC4FF00040FFF715FD054B012283F870
:107FB000542000230093009B184603B05DF804FB97
:107FC000DC2C0020044B93F85430002B14BF012309
:107FD0000023DBB218467047DC2C002000B587B0C8
:107FE000039002910192039B1F2B04D92B4940F26D
:107FF000F71004F0D7FC002305930398FFF7DEFE8B
:108000000346002B02D00823059341E0029BDB7856
:108010001A4601990398FFF733FF03468DF8133092
:108020009DF91330B3F1FF3F30D0029B9B78002BBA
:1080300003D00398FFF7AAFD05E0029B5B78194681
:108040000398FFF78DFD029BDB78002B08D09DF98C
:108050001300029B1B781A460399FFF7E9FC17E00F
:108060009DF91330083B9DF91320083A0C490A4446
:1080700092F95010029A1278920152B20A4351B208
:10808000074A13440A4683F8502001E0042305936D
:10809000059B184607B05DF804FB00BF4C49030080
:1080A000DC2C002000B587B001900B468DF8033022
:1080B000019B1F2B04D93D4940F2252004F072FC9E
:1080C0000198FFF77BFE0346002B04D1374940F2AD
:1080D000262004F067FC0198FFF75EFE0346002BA4
:1080E0002FD00198FFF7B2FE0346083B304A1344F5
:1080F00093F950308DF816309DF816309B098DF8A5
:1081000015309DF81530032B0BD10198FFF787FD33
:108110000346002B01D0032300E002238DF8173023
:1081200008E09DF81530012B01D1022300E0032364
:108130008DF817309DF8173019460198FFF742FD6A
:1081400030E00198FFF70AFE0346002B2AD0019881
:10815000FFF77CFE03460493049B9BB240339BB223
:108160009B00ADF80E30049B1846FFF74BFCBDF8A2
:108170000E301846FFF705FC9DF80330002B11D098
:108180000198FFF763FE03461846FFF76DFE029065
:10819000029B002B06D00122049B02FA03F318462F
:1081A000FFF718FC00BF07B05DF804FB4C49030063
:1081B000DC2C002000B583B00190019B1F2B04D95B
:1081C000084940F2722004F0EDFB0198FFF727FD0B
:1081D0000346002B14BF01230023DBB2184603B073
:1081E0005DF804FB4C49030000B595B000231393E0
:1081F000002303934FF48073ADF8463001231093AE
:108200000023129321E0BDF846301846FFF7A4FB87
:108210000346002B0ED01098FFF7E8FB0346002B17
:1082200008D0BDF846301846FFF7ABFB139A109BF9
:1082300013431393109B5B001093BDF84630043337
:10824000ADF84630129B01331293129B072BDAD9FB
:108250004FF4BE70FFF780FB0346002B0DD04FF4A8
:10826000BE70FFF78EFB139B43F00043139303ABE9
:108270001A4601210020FFF705FD139BDBB2002BFE
:1082800029D0012310930023129321E0109A139B0D
:108290001340002B16D01298FFF7FCFB0D9012989C
:1082A000FFF708FC03468DF833301298FFF7DCFD2A
:1082B0000B900B9B002B05D09DF833200B9B114698
:1082C0000D989847109B5B001093129B01331293FB
:1082D000129B072BDAD9139B002B80F2EE80002330
:1082E0008DF83B300023029300230F930AE00F9B8D
:1082F0009B0014AA13444FF0FF3243F84C2C0F9B01
:1083000001330F930F9B002BF1D000238DF83B30EE
:108310000023129378E06B4A129B1344503393F975
:1083200000308DF82B309DF82B3023F0C0030993DB
:10833000644A129B1344503393F90030B3F1FF3F6A
:108340005FD001AB19460998FFF7D0FC0346002B1C
:1083500057D09DF82B309B098DF823300998FFF7F3
:1083600075FD03461846FFF77FFD0790079B002B1E
:1083700003D19DF82330032B43D19DF82330032BE9
:1083800004D102AB19460998FFF7C8FC0998FFF71A
:108390005BFC03468DF81B3003AB19460998FFF7C9
:1083A000A5FC0590059B002B03D09DF81B30022BEC
:1083B00006D0059B002B24D19DF81B30032B20D128
:1083C0009DF82330032B13D19DF81B30022B01D1D4
:1083D000032300E002238DF813309DF81330194673
:1083E0000998FFF7EFFB9DF83B3001338DF83B30E8
:1083F000079B002B05D09DF82320079B1146099869
:108400009847129B01331293129B032B83D99DF83B
:108410003B30002B4CD001238DF83A306B461A4686
:1084200001210020FFF72EFC00230F9314E00F9B87
:108430009B0014AA134453F8502C0F9B9B0014A9C3
:108440000B4453F8443C9A4203D000238DF83A3051
:1084500005E00F9B01330F930F9B002BE7D09DF896
:108460003A30002B03D000238DF83B3020E000236E
:108470000F931AE00F9B9B0014AA134453F8502C3F
:108480000F9B9B0014A90B4443F8442C0F9B9B00AB
:1084900014AA134453F8482C0F9B9B0014A90B44B7
:1084A00043F84C2C0F9B01330F930F9B002BE1D013
:1084B0009DF83B30002B7FF428AF00BF15B05DF86E
:1084C00004FB00BFDC2C002084B001900B46ADF80B
:1084D0000230BDF80230019A134400221A60BDF840
:1084E0000230019A13441B680393039B00BF04B03E
:1084F000704782B001900B46ADF80230BDF80230F3
:10850000019A13441B68002B14BF01230023DBB224
:10851000184602B0704782B001900091019B009A0A
:10852000C3F8042300BF02B0704782B001900091ED
:10853000019BD3F80423009B1340002B14BF01239D
:108540000023DBB2184602B0704782B00190009160
:10855000019B009AC3F8082300BF02B0704784B0A3
:108560000190019BD3F880340393019B039AC3F8D5
:108570008024039B184604B0704782B00190019B91
:108580000422C3F8002500BF02B0704784B00390F6
:1085900002910192039B019AC3F81425039B029A4E
:1085A000C3F80C2500BF04B0704784B0039002915B
:1085B0000192039B029AC3F80825039B019AC3F812
:1085C000102500BF04B0704782B00190019BD3F822
:1085D0001835DBB2184602B0704782B001900B46E6
:1085E0008DF803309DF80320019BC3F81C2500BFC4
:1085F00002B0704782B001900B468DF803309DF8B1
:108600000330019A134401221A6000BF02B0704780
:1086100082B001900B468DF8033013468DF802307E
:108620009DF803209DF802301343DBB21A46019BEC
:10863000C3F86C2500BF02B0704782B00190009172
:10864000019B009AC3F8242500BF02B0704784B094
:1086500001900B46ADF80230BDF80230019A134488
:1086600000221A60BDF80230019A13441B6803937C
:10867000039B00BF04B0704782B001900B46ADF879
:108680000230BDF80230019A13441B68002B14BF5E
:1086900001230023DBB2184602B0704782B001907C
:1086A0000091019BD3F80022009B1A43019BC3F861
:1086B000002200BF02B0704782B001900091019B80
:1086C000D3F80022009BDB431A40019BC3F8002231
:1086D00000BF02B0704782B001900091019B009AE8
:1086E000C3F8042300BF02B0704782B0019000912C
:1086F000019B009AC3F8082300BF02B0704784B002
:108700000190019BD3F880340393019B039AC3F833
:108710008024039B184604B0704782B00190019BEF
:108720000822C3F8002500BF02B0704784B0039050
:1087300002910192039B029AC3F80C25039B019AB4
:10874000C3F8142500BF04B0704784B003900291B1
:108750000192039B029AC3F80825039B019AC3F870
:10876000102500BF04B0704782B001900B468DF811
:1087700003309DF80330019A134401221A6000BFB0
:1087800002B0704782B001900B468DF8033013465B
:108790008DF802309DF803209DF802301343DBB2C0
:1087A0001A46019BC3F86C2500BF02B0704782B027
:1087B00001900091019B009AC3F8242500BF02B0EC
:1087C000704784B00390029113468DF80730029AE7
:1087D000039BC3F844259DF80720039BC3F8482555
:1087E00000BF04B0704782B00190019BD3F84C35B4
:1087F000184602B0704784B00390029113468DF87A
:108800000730029A039BC3F834259DF80720039B89
:10881000C3F8382500BF04B0704782B00190019BB7
:10882000D3F83C35184602B0704784B00190019BE4
:108830001B0B8DF80F309DF90F30184604B07047B0
:1088400082B00190019B03F06043B3F1005F0CBF65
:1088500001230023DBB2184602B0704700B583B095
:108860000190019B1B681F2B04D905494FF4E87048
:1088700004F098F84FF0A043184603B05DF804FBED
:10888000C849030000B585B00190084611461A4654
:1088900003468DF803300B468DF8023013468DF8F1
:1088A000013001AB1846FFF7D9FF0390019A9DF8FC
:1088B00003109DF802305B0019439DF801309B00C6
:1088C00019439DF818301B0219439DF81C301B04F6
:1088D0001943039B02F5E07243F8221000BF05B074
:1088E0005DF804FB00B585B00390002301930023DD
:1088F00000930023012201210398FFF7C3FF00BF6B
:1089000005B05DF804FB00B585B003900B468DF80B
:108910000B309DF80B200023019300230093134696
:10892000002200210398FFF7ADFF00BF05B05DF8FE
:1089300004FB00B585B0019001AB1846FFF78EFF30
:108940000390019B012202FA03F31946039800F0F9
:1089500004F800BF05B05DF804FB82B001900091FF
:10896000019B009AC3F8082500BF02B070470000C1
:1089700000B583B001900091009B1B68B3F1FF3FED
:1089800009D0009B1B681846FFF7D3FF009B1B68AC
:108990001846FFF7A7FF009B5B68B3F1FF3F05D0C8
:1089A000009B5B6800211846FFF7ADFF019B1B7918
:1089B000464A5B0113441C331B78002B41D0019BBA
:1089C0001A68009B9B6919461046FFF7F0FE019B51
:1089D0001868009B597D009B1B7D1A46FFF7D2FE4D
:1089E000019B1868009B1968009B5B681A46FFF79B
:1089F0009DFE009B1B7D012B64D1009B9B68B3F106
:108A0000FF3F05D0009B9B6800211846FFF77BFFC6
:108A1000009BDB68B3F1FF3F09D0009BDB68184681
:108A2000FFF787FF009BDB681846FFF75BFF019BA2
:108A30001868009BD968009B9B681A46FFF785FE63
:108A400040E0019B1A68009B9B6919461046FFF79E
:108A5000F4FD019B1868009B597D009B1B7D1A4605
:108A6000FFF7D6FD019B1868009B1968009B5B68A7
:108A70001A46FFF78BFD009B1B7D012B22D1009B2B
:108A80009B68B3F1FF3F05D0009B9B68002118460F
:108A9000FFF739FF009BDB68B3F1FF3F09D0009B74
:108AA000DB681846FFF745FF009BDB681846FFF7B9
:108AB00019FF019B1868009BD968009B9B681A46A8
:108AC000FFF773FD00BF03B05DF804FB342D0020F9
