:020000040000FA
:1000000018200020150200001D0200001F02000041
:100010002102000023020000250200000000000071
:1000200000000000000000000000000027020000A7
:1000300029020000000000002B0200002D02000039
:100040002F0200002F0200002F0200002F020000EC
:100050002F0200002F0200002F0200002F020000DC
:100060002F020000910500002F0200002F02000067
:100070002F0200002F0200002F0200002F020000BC
:100080002F0200002F0200002F0200002F020000AC
:100090002F0200002F0200002F0200002F0200009C
:1000A0002F0200002F0200002F0200002F0200008C
:1000B0002F0200002F0200000000000000000000DE
:1000C0002F0200002F0200002F0200002F0200006C
:1000D0002F0200002F0200002F020000000000008D
:1000E0000000000000000000000000000000000010
:1000F0000000000000000000000000000000000000
:1001000000000000000000000000000000000000EF
:1001100000000000000000000000000000000000DF
:1001200000000000000000000000000000000000CF
:1001300000000000000000000000000000000000BF
:1001400000000000000000000000000000000000AF
:10015000000000000000000000000000000000009F
:10016000000000000000000000000000000000008F
:10017000000000000000000000000000000000007F
:10018000000000000000000000000000000000006F
:10019000000000000000000000000000000000005F
:1001A000000000000000000000000000000000004F
:1001B000000000000000000000000000000000003F
:1001C000000000000000000000000000000000002F
:1001D000000000000000000000000000000000001F
:1001E000000000000000000000000000000000000F
:1001F00000000000000000000000000000000000FF
:10020000DFF80CD000F018F800480047B9060000ED
:10021000182000200648804706480047FEE7FEE712
:10022000FEE7FEE7FEE7FEE7FEE7FEE7FEE7FEE7A6
:100230008102000001020000064C074D06E0E06864
:1002400040F0010394E8070098471034AC42F6D31D
:10025000FFF7DAFFB0080000D0080000BFF34F8FAF
:1002600005480168054A01F4E06111430160BFF3EC
:100270004F8F00BFFDE700000CED00E00400FA0521
:100280002DE9F041B3480023021D01780125101D1E
:100290004FF0805606290BD11478240708D1047832
:1002A000C4F30314032C06D0042C04D0052C02D074
:1002B000062907D00EE0B6F82443A74FC4F3042460
:1002C0003C6002E01478240704D10478C4F30314DA
:1002D000032C02D0062904D00FE0A14F9F4C7C676D
:1002E0000EE01478240708D10478C4F30314032C17
:1002F00006D0042C04D0052C02D0062907D00EE02D
:10030000D6F84442974FC4F342343C6002E014787C
:10031000240704D10478C4F30314032C02D0062963
:1003200006D011E0904C276827F0807727600EE018
:100330001478240708D10478C4F30314032C06D0DE
:10034000042C04D0052C02D006290AD011E04FF06D
:100350008044C4F80C31C4F81031824C241F23604F
:1003600002E01478240704D10478C4F30314032CA6
:1003700002D0062905D00CE07A4F032464373C6094
:100380000AE01478240704D10478C4F30314032C7E
:1003900002D006290DD014E0744F05243C60734C44
:1003A00078342560714C083423603F243F1D3C6045
:1003B00002E01478240704D10478C4F30314052C54
:1003C00002D0062957D062E0694C2468694F3C602E
:1003D000674C241D24683F1D3C60654C083424682C
:1003E0003F1D3C60624C0C3424683F1D3C60604CF7
:1003F000103424683F1D3C605D4C143424683F1D5C
:100400003C605B4C183424685A4F20373C60584C91
:100410001C3424683F1D3C60554C203424683F1D2B
:100420003C60534C243424683F1D3C60504C2834BD
:1004300024683F1D3C604E4C2C3424683F1D3C60BA
:100440004B4C303424684B4F40373C60484C34347C
:1004500024683F1D3C60464C383424683F1D3C6096
:10046000434C3C3424683F1D3C60414C403424687C
:100470003F1D3C6002E01478240708D10478C4F3DF
:100480000314032C06D0042C04D0052C02D006291A
:1004900007D019E0D6F85812374A01F04F01116021
:1004A00002E0117809070FD10078C0F30310032888
:1004B00003D0042801D0052806D130480168C907B7
:1004C00002D06FF00101016027487438016841F4DF
:1004D00070010160BFF34F8FBFF36F8F4FF0102299
:1004E000D2F80C022649C407264811D00D600468D2
:1004F000002CFCD0D2F80C4224F00104C2F80C42CB
:100500000268002AFCD00B6001680029FCD01AE0C8
:10051000D2F80042002C03DBD2F80442002C14DA9B
:100520000D600468002CFCD01524C2F80042056858
:10053000002DFCD0C2F804420268002AFCD00B60F7
:1005400001680029FCD0FFF789FE10490E480860B9
:10055000BDE8F081E00F00F0403501400DF0ADBA8C
:1005600000C007403C050040FCED00E01056004094
:100570000404001020C50040E40E004000040040C8
:1005800004E5014000E401400090D0030400002095
:100590002DE9F84300250F4C04274FF4A078BE0343
:1005A0004FEA050908EB850006FA05F122585AB111
:1005B000D4F804230A4207D044F800902158064A90
:1005C00000915168126890476D1CEDB2BD42E9D3AD
:1005D000BDE8F883009000400800002002E008C851
:1005E000121F08C1002AFAD170477047002001E0AD
:1005F00001C1121F002AFBD17047000009480068A2
:10060000C00700D000BEBFF34F8F0648E438016832
:10061000054A01F4E06111430160BFF34F8F00BF51
:10062000FDE70000F0ED00E00400FA050EB5002142
:100630000091CDE901106A4644F20100FFF7DEFFA8
:100640000EBD000007490B5C4FF0A041D1F8042516
:100650000120984020EA0203C1F808351040C1F893
:100660000C057047A80800000249085C012100F051
:10067000F7B80000A80800007CB50024084E254605
:100680000122305D009500231146019500F0D6F857
:10069000641C042CF4D3BDE87C4000F003B80000D7
:1006A000A808000010B500242046FFF7DDFF641CF9
:1006B000042CF9D310BD00000EB5FFF7DDFF0F4984
:1006C0000F4AD1E90201CDE9010101A90B4800F06F
:1006D0006DF808B1FFF7AAFF08480068D0F81005C8
:1006E000084A0021C240012003460090034800F060
:1006F00047F8024800F036F830BFFDE798080000E0
:10070000790800000048E8014907090E002806DAC8
:1007100000F00F0202F1E02282F8141D03E000F164
:10072000E02282F8001400F01F02012191404009EC
:10073000800000F1E020C0F88012C0F8001170477E
:1007400030B54FF4803405688C4013B1C5F80443CC
:1007500001E0C5F80843006800EB8100C0F84025BF
:1007600030BD0000016801220A600079034A00EBF5
:10077000400002EB80000221017270470800002057
:10078000F0B40468049E40F20115D4F800728D4064
:10079000AF43C4F800720468D4F800521D43C4F893
:1007A00000523346F0BCFFF7CBBF0000F8B504465B
:1007B0000D460079204900EB400001EB8006307ABD
:1007C00008B10820F8BD3AB1326068687060002056
:1007D00003464FF4A07709E00720F8BD226807EB35
:1007E000800153505158401CC0B200916179814240
:1007F000F4D82068E978000B40B2FFF785FF206845
:100800006978D0F8042561F30102C0F80425206856
:10081000A978D0F8082561F30102C0F808252068FE
:100820002978D0F8102561F30302C0F810250120C3
:1008300030720020F8BD00000800002070B541EAC9
:100840004201DDE904564FF0A04441EA830141EA48
:10085000052104EB800041EA0641C0F8001770BD95
:1008600001224FF0A043824011B1C3F80825704720
:10087000C3F80C2570470000064A0346116801F0D2
:100880000300491C1160B3F5A07F01D1FFF7DABE68
:1008900070470000000000200090004000040000AD
:1008A0000000030700000000111213140D0E0F10BA
:1008B000D00800000000002008000000DC05000057
:1008C000D80800000800002010200000EC050000FF
:0808D000000000000090D003BD
:0400000500000201F4
:00000001FF
