:020000040002F8
:10300000F05000204D3302005533020057330200C8
:10301000593302005B3302005D3302000000000000
:103020000000000000000000000000005F3302000C
:1030300061330200000000006333020065330200C8
:10304000F533020067330200D9380200673302000B
:10305000673302006733020067330200493402001D
:103060008D380200673302006733020067330200C5
:1030700067330200673302006733020067330200E0
:1030800067330200673302006733020067330200D0
:1030900067330200673302006733020067330200C0
:1030A00067330200673302006733020067330200B0
:1030B00067330200673302000000000000000000D8
:1030C0006733020067330200673302006733020090
:1030D000673302006733020067330200000000001C
:1030E00000000000000000000000000000000000E0
:1030F00000000000000000000000000000000000D0
:1031000000000000000000000000000000000000BF
:1031100000000000000000000000000000000000AF
:10312000000000000000000000000000000000009F
:10313000000000000000000000000000000000008F
:10314000000000000000000000000000000000007F
:10315000000000000000000000000000000000006F
:10316000000000000000000000000000000000005F
:10317000000000000000000000000000000000004F
:10318000000000000000000000000000000000003F
:10319000000000000000000000000000000000002F
:1031A000000000000000000000000000000000001F
:1031B000000000000000000000000000000000000F
:1031C00000000000000000000000000000000000FF
:1031D00000000000000000000000000000000000EF
:1031E00000000000000000000000000000000000DF
:1031F00000000000000000000000000000000000CF
:10320000DFF80CD000F0E4F800480047F53C02007D
:10321000F050002030B4044654E8000F0D4644E856
:103220000053002BF8D1156030BC704730B4044611
:1032300054E8000F40EA010544E80053002BF7D1A1
:10324000156030BC704730B4044654E8000F00EA03
:10325000010544E80053002BF7D1156030BC7047DE
:1032600030B4044654E8000F80EA010544E80053F6
:10327000002BF7D1156030BC704730B4044654E8D9
:10328000000F00EB010544E80053002BF7D1156057
:1032900030BC704730B4044654E8000FA0EB010581
:1032A00044E80053002BF7D1156030BC7047000094
:1032B00030B4044654E8000F0D4644E80053002B98
:1032C000F8D1156030BC704730B4044654E8000FA4
:1032D00040EA010544E80053002BF7D1156030BCEB
:1032E000704730B4044654E8000F00EA010544E892
:1032F0000053002BF7D1156030BC704730B4044642
:1033000054E8000F80EA010544E80053002BF7D190
:10331000156030BC704730B4044654E8000F00EB31
:10332000010544E80053002BF7D1156030BC70470D
:1033300030B4044654E8000FA0EB010544E8005304
:10334000002BF7D1156030BC70470000064880475D
:1033500006480047FEE7FEE7FEE7FEE7FEE7FEE77A
:10336000FEE7FEE7FEE7FEE79135020001320200CC
:10337000004870479858020040EA01039B0703D0B9
:1033800009E008C9121F08C0042AFAD203E011F8A4
:10339000013B00F8013B521EF9D27047D2B201E066
:1033A00000F8012B491EFBD270470022F6E710B54A
:1033B00013460A4604461946FFF7F0FF204610BDA3
:1033C000421C10F8011B0029FBD1801A7047000035
:1033D000064C074D06E0E06840F0010394E8070062
:1033E00098471034AC42F6D3FFF70EFF385902006D
:1033F0005859020070B54FF08040D0F80443114D89
:10340000600706D54FF4847001F0E2FC08B16868EB
:103410008047A00607D54FF48A7001F0D9FC10B19F
:10342000A9680020884760060AD54FF48C7001F027
:10343000CFFC002804D0A968BDE8704001200847EF
:1034400070BD0000742A00202DE9FE434FF48278FD
:10345000404601F03BFD4C4F00254C4C012600B38B
:10346000404601F03BFD94F82E0010B194F82F1067
:10347000D1B18DF80050616801912189ADF8081033
:10348000E26832B1218B618362602181E56010B115
:1034900002E0257400E03E6021686846884784F8B1
:1034A0002F5094F82E0060B34FF48077384601F027
:1034B0000DFD30B3384601F011FD628B94F82D10EC
:1034C0008A420AD9A2EB010080B260832289A2EB72
:1034D0000000626802EB400005E007D1E06828B117
:1034E00084F82F60658301F0ABFC04E08A4202D1CE
:1034F00084F82F606583404601F0F0FC2248001DEF
:1035000006604FF48877384601F0E0FC48B1384651
:1035100001F0E4FC257402208DF800002168684663
:1035200088474FF48A77384601F0D0FC28B13846F6
:1035300001F0D4FC2574BDE8FE834FF000484FF441
:103540008C7967691DE000BFB7FA87F028FA00F1AF
:1035500009EB80058F43284601F0B8FC88B1284666
:1035600001F0BCFCA5F58C75E8088DF8040045F366
:103570008000401C8DF800608DF8050021686846C9
:103580008847002FE0D1D6E700700040682B00206C
:10359000F0B5AE480023021D01780125101D4FF043
:1035A000805406290BD11678360708D10678C6F361
:1035B0000316032E06D0042E04D0052E02D00629B1
:1035C00007D00EE0B4F82463A14FC6F304263E6092
:1035D00002E01678360704D10678C6F30316032EE8
:1035E00002D0062904D00FE09B4F9A4E7E670EE072
:1035F0001678360708D10678C6F30316032E06D0D0
:10360000042E04D0052E02D0062907D00EE0D4F8EF
:103610004462924FC6F342363E6002E016783607A7
:1036200004D10678C6F30316032E02D0062906D06D
:1036300011E08B4E376827F0807737600EE0167800
:10364000360708D10678C6F30316032E06D0042EDB
:1036500004D0052E02D006290AD011E04FF0804692
:10366000C6F80C31C6F810317C4E361F336002E0CC
:103670001678360704D10678C6F30316032E02D057
:10368000062905D00CE0754F032664373E600AE03A
:103690001678360704D10678C6F30316032E02D037
:1036A00006290DD014E06F4F05263E606D4E78362A
:1036B00035606C4E083633603F263F1D3E6002E0A9
:1036C0001678360704D10678C6F30316052E02D005
:1036D000062957D062E0644E3668644F3E60624E01
:1036E000361D36683F1D3E605F4E083636683F1D0A
:1036F0003E605D4E0C3636683F1D3E605A4E1036B9
:1037000036683F1D3E60584E143636683F1D3E6099
:10371000554E18363668554F20373E60524E1C368F
:1037200036683F1D3E60504E203636683F1D3E6075
:103730004D4E243636683F1D3E604B4E2836366867
:103740003F1D3E60484E2C3636683F1D3E60464E5B
:1037500030363668454F40373E60434E3436366823
:103760003F1D3E60404E383636683F1D3E603E4E3F
:103770003C3636683F1D3E603B4E403636683F1D46
:103780003E6002E01678360708D10678C6F30316C5
:10379000032E06D0042E04D0052E02D0062907D011
:1037A00019E0D4F85812324A01F04F01116002E0DA
:1037B000117809070FD10078C0F30310032803D054
:1037C000042801D0052806D12A480168C90702D07B
:1037D0006FF00101016022487438016841F4700102
:1037E0000160BFF34F8FBFF36F8F4FF01021D1F8FF
:1037F0000002002803DBD1F80402002822DA1E4A66
:1038000015601E480468002CFCD01524C1F8004245
:103810000568002DFCD0C1F8044201680029FCD0E5
:10382000136001680029FCD0BFF34F8F0C48F038BB
:103830000168134A01F4E06111430160BFF34F8F47
:1038400000BFFDE710490F480860F0BDE00F00F031
:10385000403501400DF0ADBA00C007403C050040C6
:10386000FCED00E0105600400404001020C50040AC
:10387000E40E00400004004004E5014000E4014083
:103880000400FA050090D003702A00202DE9F843C7
:1038900000250F4C04274FF4A078BE034FEA05091A
:1038A00008EB850006FA05F122585AB1D4F8042332
:1038B0000A4207D044F800902158064A0091516806
:1038C000126890476D1CEDB2BD42E9D3BDE8F883A4
:1038D00000800040982B00200448017F0448002904
:1038E000024901D001F04DBE01F0BCBDA42B002067
:1038F0000020004002E008C8121F08C1002AFAD1C7
:1039000070477047002001E001C1121F002AFBD15F
:103910007047000001F07EF900F0E2FF0028FBD1C3
:10392000104C0121208801EB00400FA101F0CAF8E2
:1039300010480068C00700D000BE2088022101EBBB
:1039400000400DA101F0BEF8BFF34F8F0948E438E5
:1039500001680D4A01F4E06111430160BFF34F8F2C
:1039600000BFFDE73C2B0020466174616C2065724E
:10397000726F7200F0ED00E053797374656D207220
:1039800065736574000000000400FA050EB500219F
:103990000091CDE901106A4644F20100FFF7BAFF39
:1039A0000EBD00F003B800F009B8000072B602487E
:1039B0000168491C01607047882A00200349086893
:1039C000401E086000D162B670470000882A0020BF
:1039D0002DE9F041064608680C46411C4FF0A0470F
:1039E0004FF0010506D005FA00F1C7F80815206868
:1039F00000F098FE6068411C02D0002100F089FEB2
:103A00003079204901EB4010A169007F002830681F
:103A1000C0F8241525D0607D227D31681043C1F89F
:103A20006C05D4E900123068C0F80C15C0F81425F4
:103A300024E0A068411C02D0002100F06AFEE0688A
:103A4000411C05D08540C7F80855E06800F06AFEC3
:103A5000D4E902123068C0F80825C0F81015BDE896
:103A6000F081607D217D32680843C2F86C05D4E99D
:103A700000123068C0F81425C0F80C15207D01280C
:103A8000D7D0ECE7A42B00202DE9F041871C0E468F
:103A900001250020FFF785FF124C20683060D4E933
:103AA0000001401AA168091ABE1C06E000F0D8F80F
:103AB000D4E90001401AA168091A491C8E42F5D8C0
:103AC000A1682068084004EB8000C16841F0030150
:103AD000C1602068384420600020FFF764FF28465A
:103AE000BDE8F081D02C002030B482680468531CFB
:103AF0008360A154D0E901128A4202D330BC00F0A5
:103B0000F4BC30BC70470000034803C8814201D1B7
:103B10000120704700207047D02C00202DE9FC5F69
:103B20000E008346DDE90C47C6F100009846924638
:103B3000814600D40846012503E000BF90FBFAF05F
:103B40006D1C5045FADAA84500D9454624B1002E2F
:103B500001DB780700D5641EB80702D5B8F1000F65
:103B60000AD0F80708D13CB1A54205D22021584619
:103B7000641EFFF7B9FFF6E7002E02DA4E462D214C
:103B800002E0780703D52B215846FFF7ADFF07F079
:103B9000030002280BD1B8F1000F08D13CB1A542B7
:103BA00005D230215846641EFFF79EFFF6E7CDE9A7
:103BB0000047434652463146584601F05BFDBDE89A
:103BC000FC9F000070B50E460446007918494FF47A
:103BD000A27501EB4010017F2068A1B14FF48871FC
:103BE00001F0B3F94FF49071206801F0AEF94FF491
:103BF0009271206801F0A9F92946206801F0A5F921
:103C00000C49206809E04FF48E7101F08DF92946C6
:103C1000206801F089F908492068C0F80413206879
:103C200000F072F93146BDE8704000F051B9000073
:103C3000A42B00201003020080000200012181401B
:103C400003484068014201D00120704700207047BE
:103C5000802A002001218140080300D00120704704
:103C600070B588B0214800F0D5F82048001F0646FE
:103C700000F0D0F81E4DD5E9014105E0C0F38912EE
:103C800002EB9050641C044404EA010005EB800040
:103C9000C0688207F2D000200DF1080204EA010397
:103CA00005EB8303641CDB6842F82030401C0228CB
:103CB000F4D3029800F00300012808D002280AD1AA
:103CC0000298032101EB905004EB900403E002986A
:103CD000C0F3831004443046002101AAFFF701FB22
:103CE000002800D06C6008B070BD0000E8300020F3
:103CF000D02C0020002000F047FF08B1FFF746FE5F
:103D000000F0E0FD002000F00BF908B1FFF73EFEE7
:103D100001F068F808B1FFF739FE0B48032100886D
:103D200001EB004009A100F0CDFE01F003FA01F023
:103D3000A7FA01F097FA00BF01F068F800F0D0FD93
:103D40000028FBD1F8E700003C2B00205341414400
:103D5000432048414C2073696D706C652065786123
:103D60006D706C652E0000002DE9F047C788044691
:103D7000181D16468946B0FBF7F1B0FBF7F207FBBA
:103D800012009A193A44D21CB2FBF7F2DDF820A0D7
:103D900001E02468491E0029FBD13D1A8846B5423E
:103DA00016D818E0BAF1000F05D0211809EB080069
:103DB0002A46091D04E0204409EB08012A46001D9B
:103DC000FFF7DAFA00202468761BA844B74201D92D
:103DD000354600E03D46002EE4D1BDE8F087000006
:103DE00030B5024669B100F0FDFE0021084C0BE041
:103DF00001EB410304EB830315685B88AB4202D1FE
:103E00001160002030BD491C8142F1D3052030BD36
:103E1000F42A002008B501216A46FFF755FA0098F8
:103E200008BD70B5044600252846FFF7BAFD216895
:103E30006268086890420ED9401E08600178238AA3
:103E4000E26801FB0325227A2168101AC0B20A79C0
:103E5000824200D208710020FFF7A5FD284670BD00
:103E600070B505460C460020FFF79BFDE868298ADF
:103E7000201AB0FBF1F12A681068431C136001702E
:103E8000BDE870400020FFF78EBD10B530B1017A5B
:103E900042680368891AC9B21A6006E00E2010BD94
:103EA00003681A68541C1C601170491EC9B2F7D20D
:103EB000006800210171084610BD00F01F020121B9
:103EC00091404009800000F1E020C0F88011704767
:103ED0004907090E002806DA00F00F0202F1E0227D
:103EE00082F8141D03E000F1E02282F8001400F0D3
:103EF0001F02012191404009800000F1E020C0F83C
:103F00008012C0F800117047000B40B270470121C9
:103F1000B1EB507F01D101207047002070470000B5
:103F200070B50D4C217809B1852070BD00B90B48E2
:103F30000B49007800F0010008604FF0E020D0F855
:103F40000001012510F0010F03D107210020FFF728
:103F5000BFFF2570002070BD742A00209957020011
:103F6000780500402DE9F0470427144E81460024CF
:103F70004FF001080020FFF714FD08FA04F5354260
:103F800003D02046FFF75AFE58B10020FFF70BFD83
:103F900027B104F10104AE43E4B2EBD13846BDE8E9
:103FA000F087074908FA04F000274A681043486080
:103FB00089F800403846FFF7F6FCEFE7FFFF0F00F7
:103FC000802A00202DE9F04114460D00074612D04A
:103FD0008CB10026FFF73EFE78B13846FFF72EFE83
:103FE00068B1084800EBC700C0F81055C0F8144588
:103FF0003046BDE8F0810E20FBE70726F8E70826EB
:10400000F6E7000000F0014070B5044601260025E7
:10401000A640FFF71FFE18B12046FFF70FFE18B1AC
:1040200002480660284670BD0825FBE704F50140FC
:104030000448017809B185207047012101700020F2
:1040400070470000802A00202DE9F041254C0646EB
:1040500012200D46C4F808032348017C022918D019
:10406000027C01464FF4807891F82E10012A12D07C
:104070000222C4F804230127077446600581002248
:10408000C26021B3458390F82D10304600F0D8FE71
:1040900025E0122002E0C2682AB10220C4F804031D
:1040A0001120BDE8F081C660058361B947463846F6
:1040B00000F00CFF0028FAD0384600F00FFF294628
:1040C000304600F0BDFE0220C4F8040307E0294694
:1040D000304600F0B5FE404600F000FF27600020AB
:1040E000DFE7000000700040682B002070B50C4630
:1040F00014490546087C08B1112070BD2079124E84
:1041000008B1012801D10020306001EB4500027F99
:104110001AB911F82D2F521C0A70E1790177217A12
:1041200041772146284600F093FE227AE17928461D
:1041300000F0C2FE207908B1012801D101203060D1
:10414000002070BD682B0020007500402DE9F04173
:104150001D4C054694F82C0010B10820BDE8F081F4
:1041600009B115B102E00720F8E7184D44F8101B1B
:10417000174928780860091D68780860E878A077F2
:10418000012727770020207060776060114EE0776C
:104190006FF00040C6F808034FF4827000F09EFEF6
:1041A000B01500F09BFEA9780720FFF791FE0220D2
:1041B000C6F80403A07F10B10120C6F80403044828
:1041C000F03807600020C9E7682B00209A570200EA
:1041D000F075004000700040044890F82E0008B1CF
:1041E000002000E00420024908447047682B0020AA
:1041F0000070004030B54FF4803405688C4013B136
:10420000C5F8044301E0C5F80843006800EB8100ED
:10421000C0F8402530BD0000016801220A60007925
:10422000034A00EB400002EB80000221017270475C
:10423000982B0020F0B40468049E40F20115D4F8D5
:1042400000728D40AF43C4F800720468D4F8005285
:104250001D43C4F800523346F0BCFFF7CBBF00004B
:10426000F8B504460D460079204900EB400001EB0B
:104270008006307A08B10820F8BD3AB1326068682B
:104280007060002003464FF4A07709E00720F8BDD6
:10429000226807EB800153505158401CC0B2009176
:1042A00061798142F4D82068E978000B40B2FFF7C9
:1042B0000FFE20686978D0F8042561F30102C0F888
:1042C00004252068A978D0F8082561F30102C0F818
:1042D000082520682978D0F8102561F30302C0F87A
:1042E0001025012030720020F8BD0000982B00201E
:1042F0002DE9F04105460079164F904607EB401432
:104300000E46E07E10B10820BDE8F081707F207776
:104310002846FFF75DFB5FEA0800606031692160B5
:1043200003D0317F2846FFF74DFC287907EB40107A
:10433000007F0028286801D0082100E00421C0F88F
:1043400000150020E0752076A0750121E176A076A9
:10435000DAE70000A42B00202DE9F047054600799C
:104360003F4E904606EB40140F46207F18B108469A
:10437000FFF7CDFD30B1284600F074F820B11120D0
:10438000BDE8F0871020FBE784F81680A7600027BF
:10439000A78228794FF0010806EB40143E46207FA3
:1043A0000028286825D04FF49079494600F0CDFDCB
:1043B0004FF4AC7A5146286800F0C7FD2868A17D0B
:1043C000A268C0F84425C0F848152868C0F80880DD
:1043D0006068F0B94946286800F0B2FD8046514651
:1043E000286800F0ADFD58EA0001F3D058BBA7756E
:1043F0000FE04FF48E7A514600F096FD2868C0F821
:1044000008802146286800F0E0FF61684FF4807062
:1044100089B13046B4E75146286800F080FD10B9F4
:10442000A08A4845F7D1A08A484505D0214628688A
:1044300000F0CBFF00E08146A08AA17D8842EAD34C
:10444000A08A484501D10F26D1E75146286800F0DF
:1044500066FD0028F9D02868C0F80C80C7E7000086
:10446000A42B00200079044901EB4010807D002836
:1044700000D0012070470000A42B002070B5044636
:1044800000791149002601EB401520682A7FC0F809
:104490000065686888B1207901EB4010007F002832
:1044A000206801D0094901E008498C39C0F8081397
:1044B0002068FFF729FDFFF700FD204600F04CFDC6
:1044C000EE766E6070BD0000A42B00201003020089
:1044D0000FB408B50399002904D004AA00926A46D3
:1044E00000F00FF801B05DF814FB10B582680446C7
:1044F000002A05D0D4E90403216898470020A06071
:1045000010BD2DE9FC4791460C00804676D014F88A
:10451000011B39B125290ED04046FFF7E5FA207876
:104520000028F4D198F80C00002867D04046BDE878
:10453000FC47FFF7DABF0020012221782B291BD08E
:104540002D2902D0302908D102E040F0010001E01D
:1045500040F00200641C002AEFD100252A290ED069
:104560002178A1F130020A2A11D205EB850201EB74
:104570004205641C303DF1E740F00400EAE7D9F859
:1045800000100B1DC9F800300968641C0D44217827
:1045900000232E290BD114F8011FA1F130020A2AA1
:1045A00005D203EB830201EB4203303BF3E76C29B6
:1045B0000DD068290BD0692921D00BDC252918D012
:1045C000582931D063290ED0642915D117E014F889
:1045D000011FECE7702969D0732932D075291BD0EF
:1045E000782909D120E0D9F80000011DC9F8001090
:1045F00001784046FFF778FA641C90E76CE0D9F840
:1046000000100A1DC9F800200968CDE900500A22EF
:104610004046FFF783FAEFE7D9F800100A1DC9F802
:10462000002009680A2206E0D9F800100A1DC9F81E
:10463000002009681022CDE90050404601F01AF828
:10464000DAE7D9F8001000270A1DC9F800200E6823
:10465000C00705D112E04046761C7F1CFFF744FAE4
:1046600031780029F7D104E0202140466D1EFFF784
:104670003BFABD42C0D9002DF6D1BDE74EB1304660
:10468000FEF79EFE074604E0202140466D1EFFF720
:104690002BFABD4206D9002DF6D103E04046761C28
:1046A000FFF722FA31780029F8D1A5E7D9F8000000
:1046B000011DC9F80010056830214046FFF714FAC3
:1046C00078214046FFF710FA08200021CDE90001CB
:1046D000034610222946B0E7BDE8FC8770B541EAE1
:1046E0004201DDE904564FF0A04441EA830141EA6A
:1046F000052104EB800041EA0641C0F8001770BDB7
:104700001CB5002100910B4601220191FFF7E6FF45
:104710001CBD1CB500220B46009211460192FFF70A
:10472000DDFF1CBD1CB5002100910B46012201914B
:104730001146FFF7D3FF1CBD30B5124B01460020D8
:10474000D3F81044224609E0157A854205D1401C71
:104750000A28F7DB4FF0FF3030BD5268002AF3D152
:10476000421CF9D00872D3F810242AB152684A606A
:10477000D3F81024516030BD0022C3F810144A60F1
:1047800030BD0000D02C0020F0B595B01C46154679
:104790000F4608461A9E00F0F5FA182109A8FEF700
:1047A00004FE0E96CDE909540023082203A93846D9
:1047B00000F002FB059806900498ADF81C0000205C
:1047C0008DF820000398082600F00300012802D08D
:1047D00002281DD03CE003983346850AC0F3C2008E
:1047E0008DF81E0003980FA9C0F380008DF81F00FC
:1047F0000398C0F38314A200384600F0DDFA09A83C
:10480000009006AB22460FA9284600F017FA1FE0D9
:104810000398840DC0F3C2008DF81E000398C0F306
:1048200080008DF81F00082C01D2254600E00825E5
:1048300033462A460FA9384600F0BEFA2E44641BC0
:1048400009AB06AA29460FA800F048F9002CEAD1C6
:10485000384600F0A0FA15B0F0BD7047012000F016
:10486000D9BD000010B50448FFF708FEBDE81040B0
:10487000002000F0CFBD0000982A002008B5034AB0
:1048800000924023024AFFF77FFF08BD1153020048
:10489000D02B00200A4A012902EBC00007D00229D0
:1048A00007D0032907D0042907D000207047022031
:1048B00070470420704700797047407970470000C6
:1048C0005859020010B5FFF7C9FF04210348FFF74C
:1048D00033FF02490120487210BD0000A02A0020C9
:1048E0002DE9FE4FFFF710F910B10020BDE8FE8F53
:1048F00072480021C0F81814BFF34F8FD0E9014669
:1049000004EA060100EB81014FF000090AE000BF54
:10491000C1F3891202EB9151641C0C4404EA0601B4
:1049200000EB8101C9688A07F2D000216A468046FF
:1049300004EA060008EB8000641CC06842F821000D
:10494000491C43460229F3D3009800F003000228D3
:1049500006D0012800984FD0C04380077ED0A8E041
:1049600000985022810D8A46B2EB905F00D850210A
:104970000D4665F39F5000900831514800F0B9F999
:1049800007006CD000F0FEF94B4608226946384615
:1049900000F018FA04EA0600311A8900091D09F12D
:1049A000080B8D4221D9454E0C3631B1CAB208EB05
:1049B0008000691A91460C3004E03046EAB20026C5
:1049C00091463146CDB201465B46384600F0FAF9D1
:1049D0000BEB090326B12A463146384600F0F2F9BE
:1049E0000AF1030004EB90043BE008EB80015B4616
:1049F0002A4638460C31F1E7C0F38310062800D36D
:104A00000620009960F38911C1F38310801C009186
:104A100081002B4800F06DF907004AD000F0B2F990
:104A20004B4608226946384600F0CCF909F10809DE
:104A300000250DE004EA060008EB80014B46042245
:104A400038460C31641C00F0BDF909F104096D1CF5
:104A50000098C0F38310A842ECD801E00BE028E0F6
:104A60003FB3D8F81054D8F81804464690B13846E9
:104A700000F091F91DE0D3F8180400283FF436AF98
:104A800017E0687A012804D12A6828463946126856
:104A900090476D68002DF4D1384600F07CF9002075
:104AA000FEF77FFFD6F8180400B974600020FEF707
:104AB0007AFFFFF729F880F0010017E7D02C0020DB
:104AC0000058020000231A4600F036BC08B5012346
:104AD00000926A4600F030FC08BD00002DE9F04766
:104AE0000E4680461C46924608293ED894F80C9003
:104AF000002020731946104600F088FA0025B542C0
:104B000006D218F805201AA12046FFF7E1FC03E0C1
:104B100019A12046FFF7DCFC6D1C082DEFD317A16F
:104B20002046FFF7D5FC0025B54210D218F80570D5
:104B3000FEF71EFC0068C05D10F03E0F01D03A4643
:104B400000E02E220EA12046FFF7C2FC03E00DA1DB
:104B50002046FFF7BDFC6D1C082DE5D30122214640
:104B6000504600F035FA84F80C90BDE8F08700005C
:104B70002025303278000000202020007C0000003A
:104B80002563000020000000114810B5FF2181605E
:104B9000002101604160C0F81814C0F8141480F8B6
:104BA0001C140C4800F0F5F800280FD10A480B49F6
:104BB0000B4B401AC108002005E000BF00EB40028B
:104BC00023F82200401C8842F8D3002010BD0000CA
:104BD000D02C0020005802009059020058590200C1
:104BE000F42A002002480349401AC0087047000018
:104BF000905902005859020013B56846FFF7F0F8C3
:104C000008B100201CBD0248009950F831001CBDBD
:104C10005859020070B508480125D0F8104480F8B2
:104C20001C5405E06572216820464968884764681D
:104C3000002CF7D170BD0000D02C00202DE9FF47DB
:104C400081460C9D00200C462F7B28739846164603
:104C50002946184600F0DAF9072E42D2DFE806F0BE
:104C600004090F161F2A360049462846FFF730FC74
:104C700037E0494628462268FFF72AFC31E0D4E9AC
:104C8000002349462846FFF723FC2AE0A06800904D
:104C9000D4E9002349462846FFF71AFC21E0D4E96D
:104CA0000201CDE90001D4E9002349462846FFF777
:104CB0000FFC16E004F1080007C88DE80700D4E9EE
:104CC000002349462846FFF703FC0AE004F10800E8
:104CD0000FC88DE80F00D4E9002349462846FFF7A6
:104CE000F7FB00222946404600F072F92F73BDE819
:104CF000FF872DE9F041058A80462D1F4819C01C09
:104D0000B0FBF5F0C6B24046FFF78BF8041E19D091
:104D10000020207101206071E58000272546761E65
:104D2000C4F800800BE04046FFF77BF860B1617982
:104D3000491C6171286005467F1CC0F80080B7429D
:104D4000F1D32046BDE8F081204600F002F80020B3
:104D5000F8E72DE9F041457901466B1E002201E09C
:104D60000968521C9A42FBD30F680146002605E0F1
:104D700038460C68FFF774F82146761CAE42F7D32C
:104D8000BDE8F08108B501216A46001DFEF775FAFD
:104D900008BDFFF77AB838B50446001D01216A4600
:104DA000FEF778FA009810F0FF0F04D12046BDE816
:104DB0003840FFF7CEBF38BD38B501240094FEF768
:104DC000D3FF38BD38B500240094FEF7CDFF38BDC1
:104DD00000F180410868002210B101200A6070478C
:104DE00010467047064910B500204870091D08603C
:104DF000BFF35F8F0349044800F07AF8002010BD2C
:104E00008C2A0020C8570200C42B002010B50020B7
:104E1000FEF7C7FDF1EE100A20F09F00E1EE100A48
:104E2000BFF35F8F05494020C1F880020020FEF7E4
:104E3000BAFD20BF40BF20BF10BD000004E000E06D
:104E4000024A1060101D0160704700002C7600407F
:104E500010B50A784B78302402F0030204EA0313F9
:104E60001A438B784FF4E06404EA03231A43CB78A7
:104E70004FF4805404EA03331A430B794FF4E024CF
:104E800004EA03431A434B794FF4801404EA0353B2
:104E90001A438B79240104EA03631A43030105488A
:104EA0001844C0F81825CA79097AC0F81415C0F852
:104EB000102510BD00700040030103481844C0F8DD
:104EC0001425C0F810157047007000400249405882
:104ED000002800D00120704700700040034908B549
:104EE0000844002202600068009008BD0070004085
:104EF000016009684160AFF3008010B5D0E900217E
:104F00005368994201D1002104E0D1E90034A34261
:104F100002D01946816010BD08314160F0E7405869
:104F2000002800D00120704708B5002242504058A8
:104F3000009008BDD0F80403084000D0012070475D
:104F40004058002800D00120704708B50022425088
:104F50004058009008BD000070B5034600791B4919
:104F600001EB40101968027F4FF0FF30002AD1F8A2
:104F70000C25D1F81465D1F80855D1F8104504D0A6
:104F8000C1F80C05C1F8140503E0C1F81405C1F817
:104F90000C051968C1F80805C1F81005501C02D0AD
:104FA0001046FFF7ADFB701C02D03046FFF7A8FBA0
:104FB000601C02D02046FFF7A3FB681C04D02846E3
:104FC000BDE87040FFF79CBB70BD0000A42B002023
:104FD00010B50C46C17949B11AB109A12046FFF7B5
:104FE00077FA2046BDE81040FFF77FBA007A002824
:104FF000F3D0044804A102682046FFF769FAECE701
:105000000D0A0000D02A00202573000070B5044668
:10501000C0790D4600281CD1207A50B1A179A08812
:10502000FFF738FC0B4951F820200BA12846FFF769
:105030004FFAA0880021FFF7DFFD03460549A0795C
:10504000143951F820202846BDE8704003A1FFF72D
:105050003FBA70BDD02A0020257300003C25733E66
:105060002025733A2000000070B50546C87D0C4627
:1050700000284FF4847128460AD0FFF755FFD5F871
:105080001805627EE1688854607E401C607670BDC1
:10509000FFF74AFFD5F8180570BD1FB501238DF83D
:1050A00000308DF808100192D0E900126846904750
:1050B0001FBD00002DE9F04105460078002824D1ED
:1050C00008216868FEF7C0FF08B1FEF75FFC104FCB
:1050D000DFF84080032638880FA106EB0040D8F89F
:1050E0000420FFF7F3FC0024686811A130F91420B4
:1050F000388806EB0040FFF7E9FC641C082CF3DB62
:10510000D8F80410491CC8F80410BDE8F08100006C
:105110003C2B0020682A0020414443206576656EC0
:1051200074206E756D6265723A202564000000007F
:105130002564000030B59BB0474801AD0DF1100C5F
:1051400050F8141B199102218DF864101CC885E8D1
:105150001C008DF8061001228DF8072038C88CE855
:10516000380038C80DF11C0C8CE8380038C80DF137
:10517000280C8CE8380038C80DF1340C8CE8380065
:1051800038C80DF1400C8CE838008DF812108DF8FD
:10519000132038C80DF14C0C8CE838008DF81E1027
:1051A0008DF81F2019C816AD85E819008DF82A1052
:1051B0008DF82B20294919A8FEF7C8FF08B1FEF782
:1051C000E5FB01A90020FEF791FF08B1FEF7DEFB29
:1051D00004A90120FEF78AFF08B1FEF7D7FB07A953
:1051E0000220FEF783FF08B1FEF7D0FB0AA90320D7
:1051F000FEF77CFF08B1FEF7C9FB0DA90420FEF7FE
:1052000075FF08B1FEF7C2FB10A90520FEF76EFF7F
:1052100008B1FEF7BBFB13A90620FEF767FF08B134
:10522000FEF7B4FB16A90720FEF760FF08B1FEF7F2
:10523000ADFB08210A48FEF707FF08B1FEF7A6FB01
:10524000074808211030FEF7FFFE002801D0FEF7C6
:105250009DFB1BB030BD000028570200B550020076
:10526000482B0020054810B50078FEF7CDFE002839
:1052700003D0BDE81040FEF789BB10BD682A0020AE
:105280003EB5FEF7D5FE08B1FEF780FB1C491D4A6E
:10529000D1E90301CDE9010103208DF8060018488A
:1052A00001A9001DFEF7DCFF08B1FEF76FFB144CEF
:1052B000241D2068D0F81005134A0123C2400020A5
:1052C000014600902046FEF7B5FF2046FEF7A4FFFA
:1052D000246804F5A074FEF77FFF05460B48FEF72F
:1052E00041FE08B1FEF752FB08482A4621460078E5
:1052F000FEF768FE002801D0FEF748FB3EBD000027
:1053000028570200C953020000A86100682A002043
:1053100010B5084C0020D2B22070201DFFF71CF8F9
:1053200008B1FEF733FB6078002802D0217800290D
:10533000FAD010BD942A00202DE9F843214C88466C
:10534000054691461F4669461846A668FEF79CFB2F
:1053500070B30098811C00220AE000BF01EA060C2D
:1053600059F8223004EB8C0C491C521CCCF80C3040
:10537000BA42F3D30246401C304004EB80002B0CB1
:10538000C36002EA060004EB8002E80652F80C0F44
:1053900002D540F0040001E020F0040065F3C500F0
:1053A00067F3891068F39F2020F00300401C106011
:1053B00094F81C0402E000BFFFF792FA0028FBD12A
:1053C000BDE8F883D02C0020704770B50C46054628
:1053D0004FF48E71FFF7A8FDA18AA068415CA08AF6
:1053E000401CA082C5F81C1570BD1FB500228DF8A9
:1053F00000208DF80810816801918275D0E90012B3
:10540000684690471FBD00000149012008707047A1
:10541000942A002010B588B0044620220E49684620
:10542000FDF7AAFF06200090C01F01900290039094
:105430004FF0EB7006900CB1084A00E0002269467C
:105440000748FEF755FF08B1FEF7A0FA0448001F11
:10545000447008B010BD0000E0570200095402007B
:10546000982A00202DE9FF470C4605464FF40071AD
:10547000FFF760FD01274FF40178002618B34FF4C1
:10548000927949462846FFF74AFDE0B14946284649
:10549000FFF74AFDC5F80883A07E00B96F600220BF
:1054A0008DF80000D5F88004C5F880040390E07DF5
:1054B0008DF80800E0680190E6752676D4E90012C0
:1054C0006846904727E004212846FFF733FD10B3D4
:1054D0004FF484712846FFF722FDE0B121462846AB
:1054E000FFF7C2FDE07D617E884214D1207E38B195
:1054F000617EE268E0752069E0602676667607E006
:10550000A07E00B96F60C5F80883E675617EE26829
:105510002046FFF7C2FD4FF48E7841462846FFF73C
:10552000FEFC88B1A08AA17D884204D2214628468B
:10553000FFF74BFF08E041462846FFF7F5FCA17D49
:1055400011B12046FFF751FF4FF4A278414628469B
:10555000FFF7E5FC002812D041462846FFF7E4FC9F
:10556000A07E00B12F60E07D002808D0E675617E46
:10557000E26804B02046BDE8F047FFF78EBDBDE805
:10558000FF872DE9FF410C464FF4927705463946D7
:10559000FFF7D6FC0026C0B139462846FFF7D5FCF8
:1055A00002208DF80000D5F88004C5F8800403902F
:1055B000D5F83C058DF80800E0680190E675267680
:1055C000D4E900126846904724E04FF488773946C2
:1055D0002846FFF7B5FCE8B139462846FFF7B5FC89
:1055E000D5F83C05C1B2E07D884213D1207E60B180
:1055F000E268D5F8000220F02000C5F80002207E05
:10560000E0752069E060267601E0E675E2682046F4
:10561000FFF743FD4FF4A27739462846FFF790FC89
:1056200068B139462846FFF790FCE07D38B1E67551
:10563000D5F83C05E268C1B22046FFF72EFD4FF4D5
:10564000907631462846FFF77BFC00280FD0314684
:105650002846FFF77AFCA07D002808D0D5F84C0535
:1056600004B0C1B22046BDE8F041FFF7BEBEBDE8C0
:10567000FF8100002DE9F05F8346DDE90A4A994683
:1056800090460D460846012703E000BFB0FBF8F046
:105690007F1C4045FAD2B94500D94F465FEACA702F
:1056A00012D18CB15FEA8A7002D5B9F1000F01D036
:1056B000202607E0302605E031465846641EFEF7F6
:1056C00013FA0CB1A742F7D35FF00106B9F1010F4D
:1056D00002D9A9F1010903E0B5FBF6F0404502D378
:1056E00006FB08F6F2E7DFF83C9000BFB5FBF6F0EA
:1056F00000FB165519F800105846FEF7F5F9B6FBF1
:10570000F8F6002EF2D15FEACA7009D0002C07D05B
:10571000A74205D220215846641EFEF7E5F9F5E7B9
:10572000BDE8F09F9E570200010007000080004086
:10573000000400000000000700000000000000005E
:105740000200000100000000000000000200000252
:105750000000000000000000020000030000000044
:105760000000000002000004000000000000000033
:10577000020000050000000000000000020000061A
:105780000000000000000000020000070000000010
:105790000000000002000008000101000700303195
:1057A00032333435363738394142434445460000B8
:1057B00000000000000000000000000000000000E9
:1057C0000000000000000000B0570200C8570200AF
:1057D000040000007D480200654802005B480200AA
:1057E000FFFFFFFFFFFFFFFFFFFFFFFFFFFFFFFFC9
:1057F00000000000000000000000D60107010000CA
:10580000B42A0020AC2A0020B42A0020102C00204A
:1058100018000000004040404040404040404141AE
:105820004141414040404040404040404040404075
:10583000404040404005020202020202020202020F
:10584000020202020220202020202020202020020C
:10585000020202020202909090909090101010109C
:105860001010101010101010101010101010101038
:1058700002020202020288888888888808080808CC
:105880000808080808080808080808080808080898
:105890000202020240000000155802007761726E99
:1058A000696E670064656275670000001B5B313BD1
:1058B00033306D001B5B306D000000001B5B313B23
:1058C00033316D001B5B313B33326D001B5B313B71
:1058D00033336D001B5B313B33346D001B5B313B5D
:1058E00033356D001B5B313B33366D001B5B313B49
:1058F00033376D00696E666F000000006572726F6D
:1059000072000000707069007361616463000000E0
:1059100074696D65720000007561727400000000AA
:1059200062616C6C6F6300007077725F6D676D749D
:10593000000000006170700090590200682A002089
:10594000E0000000F4380200705A0200482B0020EA
:10595000A8250000043902000459020000000000DC
:105960000859020000000000105902000000000069
:105970001859020000000000205902000000000039
:105980002859020000000000345902000000030002
:1059900000000000000000000090D00300000000A4
:1059A00000000000000000000000000000000000F7
:1059B00000000000000000000000000000000000E7
:1059C0000020004000000000D4570200000000004A
:1059D00000000000000000000000000000000000C7
:1059E0000000000000000000FC5802009C5802006B
:1059F000F4580200A4580200B4580200AC58020047
:105A0000BC580200C4580200CC580200D45802000E
:105A1000DC580200E4580200EC58020000000000CC
:105A20000000000000000000000000000000000076
:105A30000000000000000000000000000000000066
:105A40000000000000000000000000000000000056
:105A50000000000000000000000000000000000046
:105A60000000000000000000000000000000000036
:0400000500023201C2
:00000001FF
