:10000000000001203D020000950200009702000060
:10001000990200009B0200009D0200000000000009
:100020000000000000000000000000009F0200002F
:10003000A102000000000000A3020000A5020000D1
:10004000A9020000AB02000089510000B53F00008A
:10005000B1020000B3020000D1340000B70200007A
:10006000B9020000BB020000BD020000BF02000098
:10007000C1020000C3020000C5020000C702000068
:10008000C9020000FD210000CD020000CF020000E7
:100090003D220000D3020000D5020000D70200007C
:1000A000D9020000DB020000DD020000DF020000D8
:1000B000E1020000E3020000A7020000A702000026
:1000C000E5020000E7020000E9020000EB02000088
:0C00D000ED020000EF020000F102000051
:1000DC00364937480A1A02D0072291438D463549D2
:1000EC0035480A1A06D00722914381F30988022267
:1000FC0082F3148831483249324A00F045F83248CC
:10010C003249334A00F040F832483349334A00F060
:10011C003BF833483349344A00F036F83348344915
:10012C00344A00F031F834483449354A00F02CF8A0
:10013C0034483549354A00F027F83548354900220E
:10014C0000F02DF834483549002200F028F83448E6
:10015C003449091A082903DB0022026004300160CB
:10016C00314A90471F482049884205D00268043024
:10017C0003B4904703BCF7E700208646EC4600200A
:10018C0000212A4A9047FEE7884207D0521A05D030
:10019C00037801300B700131013AF9D17047884274
:1001AC0002D002700130FAE7704700000000012015
:1001BC0000F800200000012000000120A46B0000CA
:1001CC003C000020A8000020F4020000F402000013
:1001DC00D85B0000A46B00003C0000203C00002019
:1001EC003C5C00003C5C00003C5C00003C5C0000A3
:1001FC003C5C00003C5C00003C5C00003C5C000093
:10020C00A46B0000106C0000A8000020A8000020C7
:10021C00A8000020C8070020C8070020C80700203D
:10022C00C8070020C809002061020000E552000048
:10023C000F484FF00701884385460E4880470E480B
:10024C00016841F470010160BFF34F8FBFF36F8FF2
:10025C00FFF73EBF09480A490A4A884207D0521A9A
:10026C0005D0037801300B700131013AF9D1704798
:10027C00000001201954000088ED00E0005C000033
:10028C00000000203C000020FEE7FEE7FEE7FEE752
:10029C00FEE7FEE7FEE7FEE7FEE7FEE7FEE7FEE72A
:1002AC00FEE7FEE7FEE7FEE7FEE7FEE7FEE7FEE71A
:1002BC00FEE7FEE7FEE7FEE7FEE7FEE7FEE7FEE70A
:1002CC00FEE7FEE7FEE7FEE7FEE7FEE7FEE7FEE7FA
:1002DC00FEE7FEE7FEE7FEE7FEE7FEE7FEE7FEE7EA
:0802EC00FEE7FEE7FEE700BF9C
:1002F40000B5A1B00590049103920293049802F012
:10030400FEFD039B1593029B169300231793002372
:100314008DF8603000231993229B1A9300231F93B6
:100324000FA91F9B0822049802F0A4FE08231F9320
:10033400119B1293109B9BB2ADF84C3000238DF8A7
:1003440050309DF83C3003F00303DBB2012B32D173
:100354000F9BC3F395231D939DF83C30C3F3C20355
:10036400DBB28DF84E309DF83C30C3F38003DBB232
:10037400002B14BF01230023DBB28DF84F30BDF8EE
:100384003C30C3F38313DBB21C931C9B9A0009A972
:100394001F9B049802F06EFE1C9B9B001F9A134443
:1003A4001F9312AA09A915AB009313461C9A1D9812
:1003B40000F0D4FF3BE09DF83C3003F00303DBB2D4
:1003C400022B34D1BDF83E30C3F389139BB21E9384
:1003D4009DF83C30C3F3C203DBB28DF84E309DF878
:1003E4003C30C3F38003DBB2002B14BF0123002392
:1003F400DBB28DF84F301E9B082B28BF08231B93BC
:1004040007A91F9B1B9A049802F034FE1F9A1B9B9A
:1004140013441F931E9A1B9BD31A1E9315AB12AA47
:1004240007A81B9901F03CF81E9B002BE3D104980C
:1004340002F074FD00BF21B05DF804FB82B00190AE
:100444000091034B01221A7000BF02B0704700BF35
:10045400E800002030B58DB003468DF807301A4B04
:1004640002AC1D460FCD0FC495E80F0084E80F00C1
:10047400062302934FF0FF3303934FF0FF330493AB
:100484004FF0FF3305934FF0EB7308939DF807305B
:10049400002B01D00D4A00E0002202AB19460C48A3
:1004A40004F08AFA0B900B9B0A930A9B002B04D04E
:1004B400084A43210A9801F08DF9074A9DF807304C
:1004C400137000BF0DB030BDC85C000041040000D3
:1004D4003C0000203C5C0000E900002000B583B033
:1004E40001238DF807309DF807301846FFF7B2FF57
:1004F40000BF03B05DF804FB00B589B0039002911E
:100504000192019B8DF81F30124B00221A709DF846
:100514001F301A460299104804F0B6FB0690069B59
:100524000593059B002B04D00C4A5321059801F038
:1005340051F900BF0A4B1B78002B07D0054B1B78E1
:10054400DBB283F00103DBB2002BF3D100BF09B0AF
:100554005DF804FBE80000203C0000203C5C000047
:10056400E900002000B585B003900291054B00938B
:100574004023054A02990398FFF7BAFE00BF05B06D
:100584005DF804FBFD040000A800002082B0019087
:1005940000BF02B07047000000B583B00190054869
:1005A40004F05CFA0020FFF755FF00BF03B05DF8CC
:1005B40004FB00BF3C00002082B00190019B01229B
:1005C4005A7200BF02B0704700B583B04FF0FF33DA
:1005D4000193FFF783FF0421084800F0F9FD01901F
:1005E400019B002B03DA0649482001F08AFE0348E8
:1005F400FFF7E2FF00BF03B05DF804FB44000020F6
:10060400F45C000000B583B001900091019B1B686D
:100614001B6800990198984700BF03B05DF804FB7C
:1006240000B583B00190019B1B685B6801989847F3
:1006340000BF03B05DF804FB82B001900B468DF857
:100644000330019B9DF803201A7200BF02B070476B
:1006540082B00190019B1B7A184602B0704782B0A9
:100664000190019B01225A7200BF02B0704782B010
:100674000190019B5B7A184602B0704710B487B0B2
:1006840001900091019B009A53E8004F44EA020054
:1006940043E8000191F0000FF6D105940490039112
:1006A400049B184607B05DF8044B704710B487B03C
:1006B40001900091019B009A53E8004F04EA020064
:1006C40043E8000191F0000FF6D1059404900391E2
:1006D400059B184607B05DF8044B704700B583B01E
:1006E400019001210198FFF7C9FF0346184603B0A2
:1006F4005DF804FB00B583B0019000210198FFF779
:10070400D5FF0346184603B05DF804FB00B587B077
:1007140001901F4BFF229A601D4B00221A601C4B54
:1007240000225A601A4B0022C3F81824184B0022E6
:10073400C3F81424164B002283F81C24154802F035
:1007440043FB0490049B002B01D0049B1CE0124A41
:10075400124BD31ADB080393002305930FE0059A89
:1007640013465B0013449B001A460D4B134402933B
:10077400059B9AB2029B1A80059B01330593059A47
:10078400039B9A42EBD30023184607B05DF804FBA1
:10079400BC010020845D0000005C0000D85B000008
:1007A40000000020024A034BD31ADB0818467047A6
:1007B400005C0000D85B000000B587B001900B46D8
:1007C4008DF803309DF80330002B23D0FFF7EAFFA8
:1007D40004900023059317E0059A13465B00134425
:1007E4009B001A460E4B13440393039B5B881A46E3
:1007F400019B1B689A4204D1019B059A1A6000234D
:1008040009E0059B01330593059A049B9A42E3D3BF
:10081400052300E00023184607B05DF804FB00BF81
:100824000000002000B585B001900B468DF8033020
:100834009DF8032001AB11461846FFF7BDFF0346A0
:10084400002B07D1019BDB00054A13440393039B50
:100854001B6800E00023184605B05DF804FB00BFE8
:10086400D85B000084B001900B468DF80330019BE7
:10087400DB00174A134402939DF80330013B032B1A
:100884001CD801A252F823F09D080000A50800001E
:10089400AD080000B708000002238DF80F3011E006
:1008A40004238DF80F300DE0029B1B798DF80F3077
:1008B40008E0029B5B798DF80F3003E000238DF88C
:1008C4000F3000BF9DF80F30184604B0704700BFCA
:1008D400D85B000000B589B04148FFF7FFFE4148EE
:1008E400FFF7FCFE404B5B6807933F4B9B68049308
:1008F400079A049B134002339B003B4A134404337E
:1009040006931BE0079B01330793069B5B88C3F3A5
:1009140089139BB21A46069B1B88C3F389139BB2A7
:1009240013441A46079B13440793079A049B1340E6
:1009340002339B002C4A134404330693069B1B7812
:1009440003F00303DBB2002BDCD00023059311E09A
:10095400059B9B006A461A44079B591C07910499FE
:100964000B40214902339B000B445B681360059BD9
:1009740001330593059B012BEAD99DF80030C3F39D
:100984000103DBB2012B0CD0022B14D1BDF80230D1
:10099400C3F389139BB203339B08079A1344079349
:1009A4000FE0BDF80030C3F38313DBB21A46079B94
:1009B4001344079305E00D4940F24D1001F0A1FCEA
:1009C40000BF0848FFF796FE0390039B002B02D05C
:1009D400054A079B536000BF09B05DF804FB00BFE4
:1009E400D4050020D0050020BC010020A85D000033
:1009F40010B586B00390029101920093039B1B0CE7
:100A0400ADF81630BDF81640FFF7CCFE03469C4205
:100A140004D325494FF4B27001F073FC009B5A1CB7
:100A2400089B1340BDF81620204902339B000B4459
:100A34005A60009A089B134002339B001B4A1344DC
:100A440004330493039B03F01003002B14BF01230E
:100A54000023D9B2049A137861F382031370039BC1
:100A6400DBB203F00703D9B2049A137861F3C50328
:100A74001370019BDBB203F00F03D9B2049A1388FD
:100A840061F389131380029BC3F31501049A13685D
:100A940061F39F231360049A1378012161F3010326
:100AA400137000BF06B010BDA85D0000BC0100209B
:100AB40000B589B001900091019B02330693022393
:100AC400059301238DF81330002001F0D3FB214B53
:100AD4001A68009B1A601F4B9A681E4B59681D4B7D
:100AE4001B68CB1A134401330793069A059B1344DE
:100AF40003930BE0FFF7EEFE164B9A68154B59680B
:100B0400144B1B68CB1A134401330793039A079BB6
:100B14009A42EFD80F4B1A680E4B9B68134002336E
:100B24009B000C4A134404330293029A137843F053
:100B340003031370074B1A68069B1344054A13609A
:100B4400002001F0ABFB9DF81330184609B05DF8A6
:100B540004FB00BFBC01002000B58BB005900491DC
:100B6400039202931F4B9B68079306AB19460298A6
:100B7400FFF79EFF0346002B24D0069B0233099304
:100B84000023089311E0099B5A1C0992079A134009
:100B9400089A920003990A441268124902339B008E
:100BA4000B445A60089B01330893089A029B9A42AB
:100BB400E9D3069A079B00931346029A0499059871
:100BC400FFF716FF074B93F81C34002B05D000BF2A
:100BD40000F00CF90346002BFAD100BF0BB05DF80E
:100BE40004FB00BFBC01002000B583B0019000915C
:100BF4000023002200990198FFF7AEFF00BF03B065
:100C04005DF804FB00B587B0039002910192019B4B
:100C1400059305AA012302990398FFF79DFF00BFDE
:100C240007B05DF804FB00B587B003900291019210
:100C34000093019B0493009B059304AA0223029949
:100C44000398FFF789FF00BF07B05DF804FB00B508
:100C540089B00390029101920093019B0493009B3D
:100C640005930A9B06930B9B079304AA04230299FA
:100C74000398FFF771FF00BF09B05DF804FB0000A3
:100C840000B58BB0039002911346ADF806304E4B7D
:100C94009B680993BDF8063003339B0805AA1146E7
:100CA4001846FFF705FF0346002B7ED0059B0893EB
:100CB400059B02330593444B9A680599099B0B40A5
:100CC400D31A01339B000793BDF80620079B9A4271
:100CD4000ED8059A099B134002339B003A4A1344E9
:100CE4000433BDF806200299184604F0E5FE1CE022
:100CF400059A099B134002339B00334A134404337F
:100D0400079A0299184604F0D7FE079B9BB2BDF8D8
:100D14000620D31AADF80630029A079B1344BDF897
:100D240006201946294804F0C7FE089B5A1C099B53
:100D34001340039A120C244902339B000B445A605B
:100D4400089A099B134002339B001F4A134404333F
:100D54000693039B03F01003002B14BF012300230D
:100D6400D9B2069A137861F382031370039BDBB242
:100D740003F00703D9B2069A137861F3C50313701D
:100D8400069A13886FF38F131380BDF80630C3F3EC
:100D9400090399B2069A538861F38F135380069A14
:100DA4001378022161F301031370074B93F81C3489
:100DB400002B05D000BF00F019F80346002BFAD130
:100DC40000BF0BB05DF804FBBC010020C80100208B
:100DD400054B5A68044B1B689A420CBF012300233D
:100DE400DBB21846704700BFBC01002000B597B0C5
:100DF400FFF7EEFF0346002B01D00023ADE1AC4B1F
:100E04000022C3F81824BFF34F8FA94B5B681593D6
:100E1400A74B9B680E93159A0E9B134002339B00BD
:100E2400A34A13440433149300231393002312930B
:100E340000230D931BE0159B01331593149B5B88D2
:100E4400C3F389139BB21A46149B1B88C3F38913FB
:100E54009BB213441A46159B13441593159A0E9B83
:100E6400134002339B00924A134404331493149B9B
:100E74001B7803F00303DBB2002BDCD000231193B7
:100E840011E0119B9B006A461A44159B591C15914D
:100E94000E990B40864902339B000B445B68136038
:100EA400119B01331193119B012BEAD99DF800305A
:100EB40003F00303DBB2022B40F09C80BDF8023048
:100EC400C3F389139BB20B93BDF80230C3F38913A8
:100ED4009BB2502BA8BF50230A930A9B9BB2C3F327
:100EE40009039AB2BDF8023062F38F13ADF80230F1
:100EF4000A9B083309939DF80030C3F3C203DBB2A5
:100F04000D9309996B4801F06AFF1390139B002B12
:100F140000F0E280139801F0F2FF6946129B082268
:100F2400139802F095F8129B08331293159BDA4339
:100F34000E9B134001339B0008930A9A089B9A4224
:100F440042D9089B002B08D0159A0E9B13400233FC
:100F54009B00574A1344043300E0574B0793089B04
:100F6400002B02D0089BDBB201E00A9BDBB28DF8B8
:100F74001B30089B002B01D04F4B00E0002305934E
:100F8400089B002B06D00A9BDAB2089BDBB2D31A6B
:100F9400DBB200E000238DF813309DF81B20129B78
:100FA4000799139802F054F89DF81B30129A1344D1
:100FB4001293059B002B16D09DF81320129B0599C4
:100FC400139802F045F80EE0159A0E9B1340023375
:100FD4009B00374A134404330393129B0A9A0399E0
:100FE400139802F035F80B9B03339B08159A1344AE
:100FF400159371E09DF8003003F00303DBB2012B7D
:101004005CD1BDF80030C3F38313DBB2062B28BFD9
:101014000623DBB203F00F03DAB2BDF8003062F34B
:101024008913ADF80030BDF80030C3F38313DBB28D
:1010340002330C939DF80030C3F3C203DBB20D936B
:101044000C9B9B0019461B4801F0C9FE1390139B8F
:10105400002B41D0139801F052FF6946129B0822DD
:10106400139801F0F5FF129B083312930023119398
:1010740014E0159B5A1C15920E9A134002339B00E0
:101084000B4A1344191D129B0422139801F0E0FF2C
:10109400129B04331293119B01331193BDF800305A
:1010A400C3F38313DBB21A46119B9A42E1D813E0CF
:1010B400BC010020845D0000C80100209DF80030C0
:1010C40003F00303DBB2032B06D1264BD3F8183409
:1010D400002B01D1002340E0139B002B37D0214B80
:1010E400D3F8103410931F4BD3F81834002B1AD0B4
:1010F400139801F013FF2AE000238DF83F30109875
:10110400FFF7B5FA0346002B02D001238DF83F30D8
:101114009DF83F30002B03D013991098FFF772FA13
:10112400109B5B681093109B002BE5D1139801F082
:10113400F5FE002001F09EF80A4BD3F81834002B7A
:1011440002D1084A159B5360002001F0A7F8FFF76D
:101154003FFE034683F00103DBB2184617B05DF887
:1011640004FB00BFBC01002000B585B0002303933D
:1011740022E0164BD3F81034029301238DF8073084
:101184000EE00298FFF764FA03461A46039B9A425C
:1011940003D100238DF8073005E0029B5B680293BE
:1011A400029B002BEDD19DF80730002B01D0039B4F
:1011B40007E0039B01330393039B092BD9DD4FF015
:1011C400FF33184605B05DF804FB00BFBC010020E6
:1011D40000B585B001900B468DF80330FFF7C4FFCE
:1011E4000390039BB3F1FF3F01D1039B1EE0039BDC
:1011F400DBB219460198FFF71FFA0E4BD3F81034EF
:10120400002B07D10B4A019BC2F81034019B00222A
:101214005A600AE0074BD3F810345A68019B5A60AD
:10122400044BD3F81034019A5A60039B184605B056
:101234005DF804FBBC01002000B583B00C4BD3F86F
:10124400103401930A4B012283F81C2408E001980E
:10125400FFF705FA0198FFF7E3F9019B5B68019337
:10126400019B002BF3D100BF03B05DF804FB00BF6A
:10127400BC01002010B582B001900091019BDB7984
:1012840083F00103DBB2002B28D0019B1B7A002BD7
:1012940012D0019B9B881A46019B9B7919461046E4
:1012A400FFF7E0FA03461A460E4B53F822301A466B
:1012B4000D49009801F05AF9019B9B791A460B4B92
:1012C40053F82240019B9B8800211846FFF7AAFA95
:1012D400034622460649009801F048F900BF02B0CF
:1012E40010BD00BF64000020985E00005000002084
:1012F4009C5E000000B585B00390029113468DF802
:101304000730039BDB7983F00103DBB2002B0FD0A2
:10131400039B1B7A002B06D00D4B1B681A460D4904
:10132400029801F023F90C49029801F01FF907E033
:101334009DF80730002B03D00749029801F016F9F5
:10134400029801F0F1F800BF05B05DF804FB00BF9E
:1013540064000020985E0000A85E000030B58BB0E9
:1013640007900691059204930E9B1B7B8DF8273002
:101374000E9B00221A730E990498FFF77BFF059BBE
:10138400062B7FD801A252F823F000BFAD13000052
:10139400B7130000C7130000DB130000F9130000AB
:1013A400211400005114000007990E9801F0DEF892
:1013B40069E0069B1B681A4607990E9801F0D6F857
:1013C40061E0069B1A68069B04331B6807990E9814
:1013D40001F0CCF857E0069B1A68069B04331968A1
:1013E400069B08331B6800930B4607990E9801F07F
:1013F400BDF848E0069B1968069B04331868069BF1
:1014040008331B68069A0C32126801920093034653
:101414000A4607990E9801F0A9F834E0069B18686B
:10142400069B04331C68069B08331B68069A0C321F
:1014340012680699103109680291019200932346BB
:10144400024607990E9801F091F81CE0069B1C686F
:10145400069B04331D68069B08331B68069A0C32EE
:1014640012680699103109680698143000680390D0
:101474000291019200932B46224607990E9801F09F
:1014840075F800E000BF00220E990498FFF732FFC0
:101494000E9B9DF827201A7300BF0BB030BD00BF10
:1014A40000B587B00390029101920093029B082B30
:1014B4005CD8009B1B7B8DF81330009B00221A73B1
:1014C40000990198FFF7D6FE0023059314E0059ACE
:1014D400029B9A4209D2039A059B13441B781A462D
:1014E4002449009801F042F803E02349009801F0F0
:1014F4003DF8059B01330593059B072BE7D91F494D
:10150400009801F033F80023059322E0059A029B2A
:101514009A4217D2039A059B13441B788DF8123014
:101524009DF81230184604F0C1FA0346002B02D08D
:101534009DF8123000E02E231A461149009801F05C
:1015440015F803E00F49009801F010F8059B0133EA
:101554000593059B072BD9D9012200990198FFF720
:10156400C9FE009B9DF813201A7300E000BF07B06A
:101574005DF804FBAC5E0000B45E0000B85E0000E1
:10158400BC5E0000C05E000000B583B00190019B0A
:101594001B681F2B04D905494FF4E87000F0B1FE15
:1015A4004FF0A043184603B05DF804FBC45E00008E
:1015B40000B585B00190084611461A4603468DF8D9
:1015C40003300B468DF8023013468DF8013001AB21
:1015D4001846FFF7D9FF0390019A9DF803109DF870
:1015E40002305B0019439DF801309B0019439DF8BC
:1015F40018301B0219439DF81C301B041943039B2C
:1016040002F5E07243F8221000BF05B05DF804FB58
:1016140000B585B0039000230193002300930023B9
:10162400012201210398FFF7C3FF00BF05B05DF855
:1016340004FB00B585B0019001AB1846FFF7A4FF89
:101644000390019B012202FA03F31946039800F068
:101654004CF800BF05B05DF804FB00B585B00190FF
:1016640001AB1846FFF790FF0390019B012202FA99
:1016740003F31946039800F042F800BF05B05DF883
:1016840004FB00B585B0019001AB1846FFF77CFF61
:101694000390039BD3F804350293029BDA43019B26
:1016A400012101FA03F31A40039BC3F80825019BA7
:1016B40001229A40029B1A40039BC3F80C2500BFE9
:1016C40005B05DF804FB00B583B001900091009B68
:1016D400002B03D10198FFF7C0FF02E00198FFF748
:1016E400A8FF00BF03B05DF804FB82B00190009135
:1016F400019B009AC3F8082500BF02B0704782B06E
:1017040001900091019B009AC3F80C2500BF02B020
:101714007047000000B583B00190019B032B03D9EF
:101724000749442000F0EDFD064A019B13441B7851
:1017340001211846FFF7C7FF00BF03B05DF804FBA3
:10174400FC5E0000605F000000B583B000230193DD
:1017540005E00198FFF7DEFF019B01330193019B34
:10176400032BF6D900BF03B05DF804FB00B583B0CA
:101774000190019B032B03D907495C2000F0C1FDB4
:10178400064A019B13441B781846FFF77AFF00BFF3
:1017940003B05DF804FB00BFFC5E0000605F000066
:1017A40000B583B00023019309E0094A019B134467
:1017B4001B781846FFF72CFF019B01330193019B13
:1017C400032BF2D9FFF7C0FF00BF03B05DF804FBA1
:1017D400605F000000B589B0039002910192029B02
:1017E4009BB2ADF81430019B0693039B079305ABA2
:1017F4001A46002144F2010000F050F800BF09B07D
:101804005DF804FB86B003900291019201238DF8E8
:1018140017309DF81730204A039B13601E4A029B21
:1018240053601D4A019B9360039B44F2010293425F
:1018340012D044F20202934222D1019B164AD36091
:10184400154BDB681B881A46134B9A61124BDB68F5
:101854005B68114AD36113E0019B0F4A13610E4B7D
:101864001B699B680C4A53610B4B1B691B881A4606
:10187400094B9A61084B1B695B68074AD36100BF37
:1018840072B600BF9DF81730DBB2002BFAD162B6F6
:1018940000BF06B0704700BFDC05002030B589B03A
:1018A400059004910392FFF7C7FC00BFFFF79EFA6F
:1018B4000346002BFAD1059B44F20102934213D054
:1018C40044F2020293422DD1039B0793224B1B88BF
:1018D4001B0443F00100079B5B681A46079B1B88A7
:1018E4001E49FFF7A0F928E0039B06931A4B1B88B7
:1018F4001B0443F00104069B9D68069B9B681846E5
:1019040001F0CAFB03461946069B5B681A46069B10
:101914001B88019300920B462A4611492046FFF783
:1019240096F90AE00C4B1B881B0443F00103049A4C
:101934000C491846FFF766F900BF0B4B1B6803F010
:101944000103002B00D0FFDE039A04990598FFF7EA
:1019540059FF00BF09B030BD00000020645F0000E3
:10196400805F0000985F0000F0ED00E082B0034665
:101974008DF8073007499DF907305B099DF807206A
:1019840002F01F02012000FA02F241F8232000BFF6
:1019940002B0704700E100E082B003468DF80730E2
:1019A40008499DF907305B099DF8072002F01F02E2
:1019B400012000FA02F2203341F8232000BF02B0D4
:1019C400704700BF00E100E082B003468DF80730A5
:1019D40008499DF907305B099DF8072002F01F02B2
:1019E400012000FA02F2403341F8232000BF02B084
:1019F400704700BF00E100E082B003468DF8073075
:101A040008499DF907305B099DF8072002F01F0281
:101A1400012000FA02F2603341F8232000BF02B033
:101A2400704700BF00E100E084B00190244B0393B1
:101A3400019B002B40D0234B1A680399019B00BFE4
:101A440000BF00BF00BF00BF00BF00BF00BF8A428D
:101A54002FD000BF00BF00BF00BF00BF00BF00BF4A
:101A640000BF00BF00BF00BF00BF00BF00BF00BF7A
:101A740000BF00BF00BF00BF00BF00BF00BF00BF6A
:101A840000BF00BF00BF00BF00BF00BF00BF00BF5A
:101A940000BF00BF00BF00BF00BF00BF00BF00BF4A
:101AA40000BF00BF00BF00BF00BF00BF00BF00BF3A
:101AB40000BF013BC3D1019300BF04B0704700BF16
:101AC4000024F4009000002008B50D4B4FF4803240
:101AD400C3F844230A4B4FF48032C3F80423112083
:101AE400FFF78AFF1120FFF741FF054B01221A601F
:101AF4002F20FFF799FF034B01221A7000BF08BD86
:101B0400001001401A07002008B51120FFF744FF18
:101B14000E4B4FF48032C3F848230C4B4FF4803201
:101B2400C3F80823094B01225A602F20FFF77CFFDA
:101B3400064B01229A60064B00221A602F20FFF701
:101B440073FF044B00221A7000BF08BD001001404F
:101B54000C0700201A070020024BD3F8043518465E
:101B6400704700BF0010014082B001900091019ABB
:101B7400009BD31A23F07F43184602B0704700003D
:101B840082B00190034A019BC2F8403500BF02B005
:101B9400704700BF0010014086B00190284B1B68BD
:101BA400002B03D1264A019B136045E0019B1A6870
:101BB400234B1B681B689A4210D8214B1B68204A90
:101BC40012681168019A12688A1A1A601C4B1A6802
:101BD400019BDA611A4A019B13602DE0019B1B688B
:101BE4000393174B1B680593154B1B68049309E07B
:101BF400049B1B68039AD31A0393049B0593049BC9
:101C0400DB690493049B002B04D0049B1A68039B98
:101C14009A42EDD3049B002B05D0049B1A68039BC6
:101C2400D21A049B1A60019B039A1A60019B049ABE
:101C3400DA61059B019ADA6100BF06B0704700BF04
:101C44000807002000B587B001902A4B1B68039356
:101C5400284B1B680593059B049308E0049A019B99
:101C64009A4208D0049B0593049BDB690493049B6C
:101C7400002BF3D100E000BF049B002B01D1002313
:101C840033E0059A049B9A4214D11A4B1B68DB6912
:101C9400184A1360174B1B68002B0BD1164B0122FB
:101CA4009A60164B00221A60154B01221A702F20DD
:101CB400FFF7BAFE049B1B680293049BDA69059B39
:101CC400DA61059BDB690493049B002B05D0049B1C
:101CD4001A68029B1A44049B1A60064B1B68039AF9
:101CE4009A4214BF01230023DBB2184607B05DF803
:101CF40004FB00BF08070020001001400C0700206F
:101D04001B07002008B51120FFF75EFE00BF08BDC9
:101D140008B51420FFF758FE00BF08BD00B583B016
:101D24000190019B5B69019A92691046984700BF34
:101D340003B05DF804FB000000B585B02B4B1B68B5
:101D4400002B4ED000230193FFF706FF0246284BD9
:101D54001B6819461046FFF707FF0290234B1B68C8
:101D640003931DE0039B1A68029B9A421CD8039BB1
:101D74001B68029AD31A0293039B1B68019A1344AB
:101D84000193039B0093039BDB690393009B1B7CE0
:101D9400002B05D0009B00221A740098FFF7BEFFA9
:101DA400039B002BDED100E000BF124B1A78124BCC
:101DB4001B789A420CD1104B1B780133DAB20E4BCC
:101DC4001A700D4B1B78022B02D10B4B00221A7098
:101DD400094B1B781946094A019B42F82130FFF749
:101DE40097FF00BF05B05DF804FB00BF08070020A3
:101DF4000C070020180700201907002010070020F6
:101E040082B00190184B1A78184B1B789A4223D051
:101E1400154B1B780133DAB2134B1A70124B1B7833
:101E2400022B02D1104B00221A700F4B1B781A465A
:101E34000F4B53F82220019B1A60019B1A680D4B2B
:101E44001B6813440B4A13600A4B1B6823F07F433F
:101E5400084A1360012303E0019B00221A60002357
:101E6400184602B0704700BF180700201907002069
:101E7400100700200C07002088B003900291019203
:101E84000023079338E0204B1B680693069B1A68CF
:101E9400039B9A4206D9069B1A68039BD21A069B97
:101EA4001A602DE0069B1B68039AD31A0393069BC2
:101EB4001B68079A13440793069B00221A60124B6F
:101EC4001B680593069BDB690F4A1360069BDB685E
:101ED400002B11D0029A079B134423F07F42069BE8
:101EE4005A60069BDA68069B9A60019B1A68069BF7
:101EF400DA61019B059A1A60034B1B68002BC2D15F
:101F040000BF08B0704700BF0807002000B589B0C3
:101F1400019000238DF81F30664B1B680593AAE0DF
:101F2400019B002B05D0019B0693069BDB69019363
:101F340061E0614B1B781A4613465B001344DB00D7
:101F44005D4A1344043304935B4B1B780133DAB2C8
:101F5400594B1A70584B1A78574B9B789A4202D1B6
:101F6400554B00221A70049B5B680693049B1B78F4
:101F7400022B04D0032B1BD0012B1FD01DE0049B8C
:101F84005B681846FFF75EFE0346002B02D0012370
:101F94008DF81F30069B00221A746CE0454B1B68B9
:101FA4000393039B00221A74039BDB69414A136069
:101FB400404B1B68002BF1D15DE05CE000BF069B49
:101FC4001B7C002B00D056E0049B9A68069B5A6049
:101FD400049BDA68069B9A60049B1A69069BDA6084
:101FE400049B5A69069B9A61344B1B78002B02D0E0
:101FF400069B00225A60069B5A68314B1B68D31A11
:1020040023F07F432F4A93420ED8069B5A682C4BE9
:102014001B6819461046FFF7A7FD0246069B9B68FE
:102024001A44069B1A6017E0254B1A68069B5B68E6
:1020340019461046FFF798FD0290069B9A68029B8A
:102044009A4206D9069B9A68029BD21A069B1A608A
:1020540002E0069B00221A60069B00225A60069B3F
:1020640000229A60069B01221A74069B0022DA6100
:102074000698FFF791FD019B002B7FF451AF0E4BA7
:102084001A780D4B5B789A427FF44AAF9DF81F3063
:10209400002B04D1074B1A68059B9A4201D00123F7
:1020A40000E0002303F00103DBB2184609B05DF839
:1020B40004FB00BF08070020FC0500201B070020CC
:1020C4000C070020FEFF7F0010B588B00190274B5D
:1020D4001B68002B44D0254B1B681B680793FFF734
:1020E4003BFD0690224B1B68059305990698FFF764
:1020F4003BFD0346033304931E4B1B7883F001031B
:10210400DBB2002B01D0FFF7DFFC049A079B93425C
:1021140038BF1346059A13440593059B23F07F4368
:1021240005930598FFF72CFDFFF716FD039006991C
:102134000398FFF719FD0346DC1C06990598FFF781
:1021440013FD03469C420DD9FFF706FD03461846CE
:10215400FFF716FD2F20FFF767FCFFF7D3FD01E023
:10216400FFF7D2FC00BF08B010BD00BF0807002075
:102174000C0700201A07002000B587B00023019344
:1021840000238DF81730194B1B680493184B1B68F8
:1021940003936B461846FFF733FE03468DF80B3066
:1021A4009DF80B30002B08D0009B01AA0499184617
:1021B400FFF762FE01238DF81730019B1846FFF7E5
:1021C400A5FE0346002B02D001238DF817309DF89D
:1021D4001730002B02D00398FFF776FF054B00223F
:1021E4001A7000BF07B05DF804FB00BF0C070020A5
:1021F400080700201B07002008B50E4B0022C3F877
:1022040040210C4B0022C3F844210A4B0022C3F89E
:102214004821084B0022C3F84C21064B0022C3F886
:102224000021044B0022C3F80421FFF785FD00BF01
:1022340008BD00BF0010014008B5FFF79DFF00BFB7
:1022440008BD000072B6034B1B680133014A1360DA
:1022540000BF70471C070020054B1B68013B044A64
:102264001360034B1B68002B00D162B600BF70479C
:102274001C07002000B583B0019000F025F8034648
:10228400012B03D00449432000F03BF8FFF7DAFFA9
:1022940000BF03B05DF804FBB05F000000B583B07D
:1022A40003468DF8073000F00FF80346012B03D0E6
:1022B4000449512000F025F8FFF7CEFF00BF03B01A
:1022C4005DF804FBB05F000084B0EFF30583019375
:1022D400019BC3F308030393039B002B0DD1EFF37E
:1022E40014830093009B0293029B03F00103002BD1
:1022F4000CBF01230023DBB200E00123184604B025
:10230400704700B585B003460091ADF80630BDF8BE
:102314000630ADF80830009B039302AB1A46002147
:1023240044F20200FFF7BAFA00BF05B05DF804FBFF
:1023340000B583B001900B468DF80330019B002B50
:1023440003D10849AF20FFF7DCFF019BDA689DF851
:1023540003300199098A01FB03F31344184603B0BF
:102364005DF804FB3060000000B583B0019000917B
:10237400019B002B03D10849BC20FFF7C2FF009B3F
:10238400019AD2689B1A019A128AB3FBF2F3DBB268
:10239400184603B05DF804FB3060000000B585B05A
:1023A4000190019B002B01D10E2349E0019B1B6886
:1023B400002B03D12449C620FFF7A3FF019B5B68D0
:1023C400002B03D12049C720FFF79BFF019B9B688B
:1023D400002B03D11C49C820FFF793FF019BDB6846
:1023E400002B03D11849C920FFF78BFF019B1B8ADF
:1023F400002B03D11449CA20FFF783FF019B9B687C
:102404001A46019B5B68D31A8DF80F30019B1B6839
:10241400019A52681A6007E0019B1A681368591CF4
:1024240011609DF80F201A709DF80F305A1E8DF818
:102434000F20002BF0D1019B1B6800221A7100238E
:10244400184605B05DF804FB3060000000B585B0A7
:102454000190019B002B03D11C49EC20FFF751FF95
:10246400002303930020FFF705FF019B1B681A68F4
:10247400019B5B689A4220D9019B1B681A68013A48
:102484001A601B681B7819460198FFF751FF0390E7
:10249400019B9B681A46019B1B681B68D31A8DF825
:1024A4000B30019B1B681B799DF80B209A4204D9C1
:1024B400019B1B689DF80B201A710020FFF7EEFEAC
:1024C400039B184605B05DF804FB00BF30600000B4
:1024D40010B584B001900091019B002B04D11149E7
:1024E4004FF48870FFF70DFF009B002B04D10D49BA
:1024F40040F21110FFF705FF009B03930020FFF744
:10250400B9FE019B1B681C68621C1A600399019840
:10251400FFF72AFF034623700020FFF7BFFE00BF2A
:1025240004B010BD3060000000B583B00190019B81
:10253400002B03D10C493120FFF7E3FE019B9B687C
:10254400002B0CD0019B5B69019A1069019A1168F8
:10255400019A92689847019B00229A6000E000BFAC
:1025640003B05DF804FB00BFA46000000EB400B526
:1025740084B00190019B002B03D118494220FFF73E
:10258400C0FE019B5B69002B03D114494320FFF774
:10259400B8FE019B1B68002B03D110494420FFF7B0
:1025A400B0FE019B5B68002B03D10C494520FFF76B
:1025B400A8FE059B002B0AD00023039306AB0393CC
:1025C40003AB1A460599019800F0B0F900E000BF8A
:1025D40004B05DF804EB03B0704700BFA4600000D2
:1025E40000B583B001900B468DF80330019B1A6847
:1025F400019B9B68581C0199886013449DF8032033
:102604001A70019B9A68019B5B689A4202D30198F5
:10261400FFF78AFF00BF03B05DF804FB00B587B085
:10262400039002910192009300230593009B03F011
:102634000103002B24D00BE0029B01330293059B82
:10264400013305939DF8133019460398FFF7C8FF2B
:10265400029B1B788DF813309DF81330002BEBD1BF
:1026640006E0019B013B019320210398FFF7B8FF8B
:10267400019A059B9A422ED9019B002BF1D12AE0A5
:10268400029B002B0BD0029803F074FA059006E02D
:10269400019B013B019320210398FFF7A1FF019ABD
:1026A400059B9A420FD9019B002BF1D10BE0029BB1
:1026B40001330293059B013305939DF813301946AA
:1026C4000398FFF78DFF029B1B788DF813309DF85C
:1026D4001330002BEBD100BF07B05DF804FB000002
:1026E40000B589B00390029101920093029B079375
:1026F4000123069307E0079A019BB2FBF3F30793C8
:10270400069B01330693079A019B9A42F3D2009ADF
:10271400069B9A4201D9009B06930B9B03F001038D
:10272400002B22D10A9B002B1FD00B9B03F002032A
:10273400002B06D0009B002B03D130238DF81730DB
:1027440002E020238DF8173008E00A9B013B0A932E
:102754009DF8173019460398FFF742FF0A9B002B98
:1027640003D0069A0A9B9A42EFD301230793009B56
:10277400012B03D9009B013B009309E0029A079BBC
:10278400B2FBF3F30493049A019B9A4200D205E04E
:10279400079B019A02FB03F30793E8E7029A079B5E
:1027A400B2FBF3F30493049B079A02FB03F3029A2C
:1027B400D31A0293154A049B13441B7819460398B1
:1027C400FFF70EFF079A019BB2FBF3F30793079BF6
:1027D400002BE3D10B9B03F00103002B11D00A9BC8
:1027E400002B0ED006E00A9B013B0A93202103989C
:1027F400FFF7F6FE0A9B002B03D0069A0A9B9A4227
:10280400F1D300BF09B05DF804FB00BF7C61000098
:1028140000B589B00590049103920293049B002BA8
:10282400B8BF5B4206930123079307E0039B069A14
:1028340092FBF3F30693079B01330793039B069ADA
:102844009A42F3DA029A079B9A4201D9029B0793B0
:102854000A9B002B0AD0049B002B04DB0B9B03F088
:102864000403002B02D00A9B013B0A930B9B03F049
:102874000203002B02D0029B002B16D00B9B03F00B
:102884000103002B11D10A9B002B0ED006E00A9BFA
:10289400013B0A9320210598FFF7A2FE0A9B002B17
:1028A40003D0079A0A9B9A42F1D3049B002B07DAC0
:1028B400049B5B4204932D210598FFF791FE08E0E9
:1028C4000B9B03F00403002B03D02B210598FFF787
:1028D40087FE0B9B03F00203002B19D00B9B03F024
:1028E4000103002B14D1029B002B11D10A9B002B56
:1028F4000ED006E00A9B013B0A9330210598FFF7AE
:102904006FFE0A9B002B03D0079A0A9B9A42F1D3CD
:1029140004990B9B01930A9B0093029B039A0598CD
:10292400FFF7DEFE00BF09B05DF804FB00B58FB011
:10293400059004910392059B002B04D1C8494FF4E0
:102944009F70FFF7DEFC059B5B69002B04D1C44933
:102954004FF4A070FFF7D5FC059B1B68002B04D136
:10296400BF4940F24110FFF7CCFC059B5B68002B8C
:1029740004D1BB494FF4A170FFF7C3FC049B002BA7
:1029840000F0ED81049B1B788DF83730049B0133F4
:1029940004939DF83730002B00F0D8819DF8373030
:1029A400252B40F0C78100230A9301230C93049B39
:1029B4001B788DF837309DF837302D2B04D0302B11
:1029C4000AD02B2B10D017E00A9B43F001030A9383
:1029D400049B0133049312E00A9B43F002030A931D
:1029E400049B013304930AE00A9B43F004030A9313
:1029F400049B0133049302E000230C9300BF0C9B5F
:102A0400002BD4D1002309939DF837302A2B0CD105
:102A1400039B1B68191D039A11601B68099A1344D0
:102A24000993049B013304931AE0049B1B788DF8EB
:102A340037309DF837302F2B12D99DF83730392B8A
:102A44000ED8049B01330493099A13469B00134444
:102A54005B001A469DF837301344303B0993D3E7A3
:102A640000230B93049B1B788DF837309DF8373087
:102A74002E2B1DD1049B01330493049B1B788DF8EA
:102A840037309DF837302F2B12D99DF83730392B3A
:102A94000ED8049B013304930B9A13469B001344F2
:102AA4005B001A469DF837301344303B0B93E4E740
:102AB400049B1B788DF837309DF837306C2B03D08E
:102AC4009DF83730682B07D1049B01330493049B92
:102AD4001B788DF83730EFE79DF83730253B532BC3
:102AE40000F2238101A252F823F000BF252D00003B
:102AF4002F2D00002F2D00002F2D00002F2D000062
:102B04002F2D00002F2D00002F2D00002F2D000051
:102B14002F2D00002F2D00002F2D00002F2D000041
:102B24002F2D00002F2D00002F2D00002F2D000031
:102B34002F2D00002F2D00002F2D00002F2D000021
:102B44002F2D00002F2D00002F2D00002F2D000011
:102B54002F2D00002F2D00002F2D00002F2D000001
:102B64002F2D00002F2D00002F2D00002F2D0000F1
:102B74002F2D00002F2D00002F2D00002F2D0000E1
:102B84002F2D00002F2D00002F2D00002F2D0000D1
:102B94002F2D00002F2D00002F2D00002F2D0000C1
:102BA4002F2D00002F2D00002F2D00002F2D0000B1
:102BB4002F2D00002F2D0000B12C00002F2D000020
:102BC4002F2D00002F2D00002F2D00002F2D000091
:102BD4002F2D00002F2D00002F2D00002F2D000081
:102BE4002F2D0000412C0000692C00002F2D000027
:102BF4002F2D00002F2D00002F2D0000692C000028
:102C04002F2D00002F2D00002F2D00002F2D000050
:102C14002F2D00002F2D0000F12C00002F2D00007F
:102C24002F2D0000D52C00002F2D00008D2C00002E
:102C34002F2D00002F2D0000B12C0000039B1B68DA
:102C4400191D039A11601B680C930C9B8DF823309B
:102C54009DF8233019460598FFF7C2FC66E000BFD3
:102C64000C610000039B1B68191D039A11601B680B
:102C74000C930A9B0193099B00930B9B0A220C99CA
:102C84000598FFF7C5FD51E0039B1B68191D039AC6
:102C940011601B680C930C990A9B0193099B009388
:102CA4000B9B0A220598FFF71BFD3FE0039B1B6863
:102CB400191D039A11601B680C930C990A9B0193CC
:102CC400099B00930B9B10220598FFF709FD2DE04B
:102CD400039B1B68191D039A11601B6807930A9BC9
:102CE400099A07990598FFF799FC1FE0039B1B6855
:102CF400191D039A11601B680C9330210598FFF786
:102D04006FFC78210598FFF76BFC0C990023019365
:102D140008230093082310220598FFF7E1FC05E03F
:102D240025210598FFF75CFC00E000BF049B0133FC
:102D3400049305E09DF8373019460598FFF750FCD9
:102D4400049B1B78002B7FF41DAE00E000BF059BA5
:102D54001B7B002B04D00598FFF7E6FB00E000BFC7
:102D64000FB05DF804FB00BF10B487B00190009170
:102D7400019B009A53E8004F04EB020043E8000172
:102D840091F0000FF6D1059404900391049B18462A
:102D940007B05DF8044B704710B487B00190009100
:102DA400019B009A53E8004FA4EB020043E80001A2
:102DB40091F0000FF6D1059404900391049B1846FA
:102DC40007B05DF8044B704700B583B001900198DB
:102DD400FFF7E4FA0346184603B05DF804FB00B5B8
:102DE4008BB001900091019B1B8A043B0793009ACE
:102DF400079B1344DA1C079BB2FBF3F38DF81B30DB
:102E04000198FFF723FB0590059B002B01D10023BC
:102E140038E0059B00221A71059B01225A71079B19
:102E24009AB2059BDA80059B09939DF81B30013B00
:102E34000493099B019A1A60002308931DE00198EA
:102E4400FFF704FB0390039B002B0ED0059B5B79DB
:102E54000133DAB2059B5A71099B039A1A60039BEA
:102E6400019A1A60039B099304E0059800F00EF898
:102E7400002307E0089B01330893089A049B9A42B5
:102E8400DDD3059B18460BB05DF804FB00B58BB091
:102E94000190019B0793079B5B798DF81B30019B85
:102EA40008939DF81B30013B05930023099305E02B
:102EB400089B1B680893099B01330993099A059B96
:102EC4009A42F5D3089B1B680493019B0893002343
:102ED40009930BE0089B1B68039308990498FFF778
:102EE400F7FA039B0893099B013309939DF81B2070
:102EF400099B9A42EED800BF0BB05DF804FB00B505
:102F040085B00190019B0393039B04330121184670
:102F1400FFF72AFF00BF05B05DF804FB00B587B0DA
:102F24000190019B0593059B043301211846FFF78B
:102F340033FF0346039303AB0493049B1B78002BDA
:102F440002D10198FFF7A2FF00BF07B05DF804FBB0
:102F540000B58DB00390029101920093039B0693F8
:102F6400069BDB880593039B0B93009B1A1D059B13
:102F7400B2FBF3F30A93009B0433059AB3FBF2F21A
:102F8400059901FB02F29B1A0993009A019B1A44CA
:102F9400059B1344DA1C059BB2FBF3F38DF8133045
:102FA400069B5B799DF813209A420AD92749BA20D7
:102FB400FFF7A7F905E00B9B1B680B930A9B013BEA
:102FC4000A930A9B002BF6D100230893059A099BC8
:102FD400D31A0793079A019B934228BF134607937A
:102FE4002DE09DF83830002B0BD0029A089BD018A6
:102FF4000B9A099B13440433079A194602F05CFDAB
:103004000AE00B9A099B1344181D029A089B134467
:10301400079A194602F050FD002309930B9B1B6885
:103024000B93019A079BD31A0193089A079B1344A5
:103034000893059A019B934228BF13460793019B6B
:10304400002BCED100BF0DB05DF804FB8C610000F5
:1030540000B587B005900491039202930023009376
:10306400029B039A04990598FFF772FF00BF07B00B
:103074005DF804FB00B587B00590049103920293B8
:1030840001230093029B039A04990598FFF760FFBC
:1030940000BF07B05DF804FB00B585B0019001984E
:1030A40000F00EF80390039B002B01D0039B00E07B
:1030B400024B184605B05DF804FB00BF0C6200002B
:1030C40086B00190164B0593164B04931FE0049AA7
:1030D400059BD31ADB10DA0F13445B10DB00059A4F
:1030E40013440393039B1B680293029A019B9A4225
:1030F40002D9039B04930AE0029A019B9A4203D2E9
:10310400039B0833059302E0039B5B6804E0059A84
:10311400049B9A42DBD30023184606B0704700BFD5
:10312400286500001866000082B003468DF8073059
:1031340007499DF907305B099DF8072002F01F023B
:10314400012000FA02F241F8232000BF02B07047C8
:1031540000E100E082B003468DF8073008499DF98C
:1031640007305B099DF8072002F01F02012000FAD6
:1031740002F2603341F8232000BF02B0704700BF61
:1031840000E100E082B0034600918DF807309DF91C
:103194000730002B0CDA0D499DF8073003F00F03BC
:1031A400043B009AD2B25201D2B20B441A7609E01F
:1031B40007499DF90730009AD2B25201D2B20B44AA
:1031C40083F8002300BF02B0704700BF00ED00E0A9
:1031D40000E100E000B583B003460A468DF80730ED
:1031E40013468DF806309DF80630072B04D90D4997
:1031F4004FF49270FFF785F89DF806209DF907308B
:1032040011461846FFF7BEFF9DF907301846FFF731
:10321400A1FF9DF907301846FFF786FF00BF03B0F2
:103224005DF804FB1866000000B583B00346ADF8F2
:103234000630BDF80630184600F026F803461B6831
:10324400012B0CBF01230023DBB2184603B05DF849
:1032540004FB00B585B00346ADF80630BDF8063072
:10326400184600F011F803461A4600231360BDF80F
:103274000630184600F008F803461B680393039BC6
:1032840000BF05B05DF804FB82B00346ADF806301C
:10329400BDF8063003F1804303F5C043184602B07D
:1032A4007047000082B00190034BD3F80423019BC4
:1032B4001340184602B070470060004082B001908D
:1032C400054A019B03F5A27352F823301B0A03F04D
:1032D4001F03184602B070470060004082B001909E
:1032E400064A019B03F5A27352F823301B0C03F02A
:1032F4000303DBB2184602B0704700BF0060004011
:1033040000B583B00190019B1B681F2B04D90549AC
:103314004FF4E870FEF7F5FF4FF0A043184603B0F2
:103324005DF804FB9066000000B585B001900B4683
:103334008DF8033001AB1846FFF7E2FF0390019AC2
:103344000199039B01F5E07153F8213023F44031D6
:10335400039B02F5E07243F82210019A0199039B42
:1033640001F5E07153F821309DF803100904194365
:10337400039B02F5E07243F8221000BF05B05DF82C
:1033840004FB00B585B0019001AB1846FFF7B8FF08
:103394000390019A039B02F5E07253F822301B0C50
:1033A40003F00303DBB2184605B05DF804FB82B0FA
:1033B4000190019BD3F81035184602B07047000005
:1033C40000B587B00390029101924FF0A04304939B
:1033D400039A029B1344012B04D912494FF43A7007
:1033E400FEF78FFF039B059311E0059B9B0006AA44
:1033F400134453F8083C1846FFF7D9FF0246019BD3
:103404001A60019B04330193059B01330593039ACE
:10341400029B1A44059B9A42E7D800BF07B05DF8A7
:1034240004FB00BF9066000084B001900091009BF3
:103434000393019BDB080293019B03F007030193B1
:103444000122019B02FA03F30399029A0A441278B7
:103454001340184604B0704784B001900091009B5B
:103464000393019BDB080293019B03F00703019381
:10347400039A029B13440399029A0A44127851B2A4
:103484000120019A00FA02F252B20A4352B2D2B2B5
:103494001A7000BF04B0704782B00190044A019BC7
:1034A4001344303393F90030184602B0704700BF1C
:1034B4002007002082B00190034A019B52F8233078
:1034C400184602B0704700BF2007002000B595B031
:1034D40000231393002303934FF48073ADF8463015
:1034E400012310930023129321E0BDF846301846BF
:1034F400FFF79AFE0346002B0ED01098FFF7D2FE7A
:103504000346002B08D0BDF846301846FFF7A1FE4D
:10351400139A109B13431393109B5B001093BDF8F5
:1035240046300433ADF84630129B01331293129B9C
:10353400072BDAD94FF4BE70FFF776FE0346002B53
:103544000DD04FF4BE70FFF784FE139B43F000438D
:10355400139303AB1A4601210020FFF731FF139B9D
:10356400DBB2002B29D0012310930023129321E016
:10357400109A139B1340002B16D01298FFF79EFE4F
:103584000D901298FFF7AAFE03468DF83330129877
:10359400FFF790FF0B900B9B002B05D09DF8332079
:1035A4000B9B11460D989847109B5B001093129B40
:1035B40001331293129B072BDAD9139B002B80F251
:1035C400EE8000238DF83B300023029300230F93F9
:1035D4000AE00F9B9B0014AA13444FF0FF3243F8F8
:1035E4004C2C0F9B01330F930F9B002BF1D0002326
:1035F4008DF83B300023129378E06B4A129B1344FE
:10360400503393F900308DF82B309DF82B3023F094
:10361400C0030993644A129B1344503393F9003056
:10362400B3F1FF3F5FD001AB19460998FFF7FCFEE9
:103634000346002B57D09DF82B309B098DF823307F
:103644000998FFF729FF03461846FFF733FF079051
:10365400079B002B03D19DF82330032B43D19DF806
:103664002330032B04D102AB19460998FFF7F4FE6B
:103674000998FFF786FE03468DF81B3003AB194605
:103684000998FFF7D1FE0590059B002B03D09DF808
:103694001B30022B06D0059B002B24D19DF81B3038
:1036A400032B20D19DF82330032B13D19DF81B301D
:1036B400022B01D1032300E002238DF813309DF87F
:1036C400133019460998FFF72FFE9DF83B3001335C
:1036D4008DF83B30079B002B05D09DF82320079BDA
:1036E400114609989847129B01331293129B032B9E
:1036F40083D99DF83B30002B4CD001238DF83A3010
:103704006B461A4601210020FFF75AFE00230F934F
:1037140014E00F9B9B0014AA134453F8502C0F9BE6
:103724009B0014A90B4453F8443C9A4203D0002351
:103734008DF83A3005E00F9B01330F930F9B002B5C
:10374400E7D09DF83A30002B03D000238DF83B30AE
:1037540020E000230F931AE00F9B9B0014AA13444C
:1037640053F8502C0F9B9B0014A90B4443F8442C92
:103774000F9B9B0014AA134453F8482C0F9B9B00E7
:1037840014A90B4443F84C2C0F9B01330F930F9B4C
:10379400002BE1D09DF83B30002B7FF428AF00BF15
:1037A40015B05DF804FB00BF2007002082B0019033
:1037B4000B468DF803309DF80330019A134401221F
:1037C4001A6000BF02B0704784B001900B46ADF898
:1037D4000230BDF80230019A134400221A60BDF889
:1037E4000230019A13441B680393039B00BF04B087
:1037F400704782B001900B46ADF80230BDF802303C
:10380400019A13441B68002B14BF01230023DBB26D
:10381400184602B0704782B001900091019B009A53
:10382400C3F8042300BF02B0704782B00190009136
:10383400019B009AC3F8082300BF02B0704782B00E
:103844000190019B0722C3F8002500BF02B0704716
:1038540084B00390029101920093039B029AC3F8EF
:103864000825039B019AC3F80C25039B009AC3F80F
:10387400102500BF04B0704782B001900091009AF7
:10388400019BC3F8242500BF02B0704784B00390A5
:10389400029113468DF80730029A039BC3F844251E
:1038A4009DF80720039BC3F8482500BF04B0704768
:1038B40084B00390029113468DF80730029A039B5B
:1038C400C3F834259DF80720039BC3F8382500BFAF
:1038D40004B0704784B001900B468DF80330134652
:1038E4008DF802309DF80230002B14BF0123002311
:1038F400DBB203939DF80330022B09D0032B0CD0C9
:10390400012B00D00EE0039B43F00203039309E074
:10391400039B43F00403039304E0039B43F0060377
:10392400039300BF019B039AC3F8542500BF04B05E
:10393400704782B001900B468DF803309DF8032048
:10394400019BC3F8C02500BF02B0704782B001904C
:10395400019B0122C3F8502500BF02B0704782B01A
:103964000190019B0022C3F8502500BF02B07047AC
:1039740082B00190019B0122C3F8402500BF02B030
:10398400704782B00190019B0022C3F8402500BF1C
:1039940002B0704782B00190019B03F06043B3F121
:1039A400005F0CBF01230023DBB2184602B070474E
:1039B40000B583B00190019B1B681F2B04D90549F6
:1039C4004FF4E870FEF79DFC4FF0A043184603B097
:1039D4005DF804FB4867000000B585B00190084617
:1039E40011461A4603468DF803300B468DF8023013
:1039F40013468DF8013001AB1846FFF7D9FF039049
:103A0400019A9DF803109DF802305B0019439DF85C
:103A140001309B0019439DF818301B0219439DF88F
:103A24001C301B041943039B02F5E07243F8221077
:103A340000BF05B05DF804FB00B585B0039000231A
:103A44000193002300930023012201210398FFF72F
:103A5400C3FF00BF05B05DF804FB00B585B003905B
:103A64000B468DF80B309DF80B20002301930023A7
:103A740000931346002200210398FFF7ADFF00BF17
:103A840005B05DF804FB00B585B0019001AB1846A4
:103A9400FFF78EFF0390019B012202FA03F31946FC
:103AA400039800F018F800BF05B05DF804FB00B5FA
:103AB40085B0019001AB1846FFF77AFF0390019B94
:103AC400012202FA03F31946039800F00EF800BF2E
:103AD40005B05DF804FB82B001900091019B009A4F
:103AE400C3F8082500BF02B0704782B0019000916E
:103AF400019B009AC3F80C2500BF02B07047000078
:103B040000B58DB00590049103920293049B002BA1
:103B140003D15B49A820FEF7F4FB059B5B791A46A9
:103B24001346DB0013449B00564A13440993099B34
:103B34001B7F002B03D008230893089B9CE0099B60
:103B4400039A1A60099B029A5A60049B1B7B012BFF
:103B540005D8049B1B781846FFF7A9FF04E0049BD3
:103B64001B781846FFF78FFF049B1B781846002329
:103B7400019300230093002300220121FFF72CFF6F
:103B8400049B5B78FF2B09D0049B5B780B930B9809
:103B9400FFF78DFF0B98FFF74FFF02E04FF0FF3365
:103BA4000B93049B9B78FF2B07D0049B9B780A9371
:103BB40001210A98FFF751FF02E04FF0FF330A9307
:103BC400049BDB78FF2B09D0049BDB781846FFF7B6
:103BD4005AFF049BDB781846FFF72EFF059B5B79A1
:103BE4001946049BD878274A0B46DB000B449B00FC
:103BF40013441E3302461A70059B1B680793049BEB
:103C04001B7819460A9B0B9A0798FFF721FE049B21
:103C14009B6819460798FFF72FFE049B197B049BAA
:103C24005B7B1A460798FFF755FE049B5B791946A0
:103C34000798FFF77EFE099B1B68002B03D04021E9
:103C44000798FFF7E8FD0798FFF7F9FD099B1B6844
:103C5400002B08D0059B93F90420049B1B7919467B
:103C64001046FFF7B7FA099B00225A77099B0122F5
:103C74001A7700230893089B18460DB05DF804FBDF
:103C8400846700007807002000B589B00390029192
:103C9400009313468DF80730029B0493009B069310
:103CA4009DF807308DF814309DF828308DF81C30BD
:103CB40004AB00221946039800F0D8F803461846CE
:103CC40009B05DF804FB00B583B00190019B9B7FB4
:103CD400FF2B04D0019B9B7F1846FFF7D4FE019B6A
:103CE40000225A77019B00221A72019B1B68019AD9
:103CF40002F10800019A52681146984700BF03B0C8
:103D04005DF804FB00B583B001900B468DF80330D9
:103D14009DF8033083F00103DBB2002B04D0402173
:103D24000198FFF782FD03E040210198FFF773FD3E
:103D340000BF03B05DF804FB00B583B001900091AF
:103D4400009B03F00103002B03D00198FFF7FEFD55
:103D540002E00198FFF703FE009B03F00203002B2F
:103D640003D00198FFF704FE02E00198FFF709FE73
:103D740000BF03B05DF804FB00B587B00390029167
:103D840001920093019B1B68002B0AD0019B1B68C6
:103D94001846FFF7FFFD034683F00103DBB2002B57
:103DA4000ED1019B9B68002B11D0019B9B68184688
:103DB400FFF7F0FD034683F00103DBB2002B06D0CE
:103DC400029B00225A7710230593059B4AE0019B2E
:103DD4001968019B1B791A460398FFF757FD019B4D
:103DE4009968019B1B7B1A460398FFF761FD4FF40A
:103DF4008C710398FFF7E8FC00990398FFF79CFF88
:103E0400009B03F00803002B03D110210398FFF754
:103E1400CDFC029B1B68002B15D100BF4FF48C71A5
:103E24000398FFF7E6FC034683F00103DBB2002BA3
:103E3400F4D1029B9B7FFF2B11D0029B9B7F1846E2
:103E4400FFF721FE0BE0009B03F00403002B0CBFE3
:103E540001230023DBB219460398FFF753FF002325
:103E64000593059B184607B05DF804FB10B586B0B2
:103E7400039002910192039B5B791A461346DB007F
:103E840013449B00364A13440593059B1B7F002B68
:103E940004D1344940F25720FEF733FA029B1B68E1
:103EA400002B08D1029B1B79002B04D02D494FF421
:103EB4001670FEF726FA029B9B68002B08D1029B22
:103EC4001B7B002B04D0274940F25920FEF719FA36
:103ED40000230493059B5B7FDBB2002B03D01123EB
:103EE4000493049B39E0059B1B68002B07D0019BBE
:103EF40003F01403002B02D1059B01225A77059B82
:103F0400029A03F10C0413460FCB84E80F00059AC0
:103F140092F821306FF3000382F82130059A92F869
:103F240021306FF3410382F82130059A92F8213051
:103F34006FF3820382F82130059B9B7FFF2B04D013
:103F4400059B9B7F1846FFF7B2FD039B1868019BF6
:103F5400029A0599FFF710FF0346184606B010BDF4
:103F6400780700208467000000B583B001900091B9
:103F74004FF48C710198FFF73CFC0346002B10D0E2
:103F84004FF48C710198FFF71FFC009B1B68002BFA
:103F940004D1064940F2BE20FEF7B3F90098FFF7BA
:103FA40092FE00BF03B05DF804FB00BF846700000D
:103FB40000B583B0044B019301990448FFF7D4FF83
:103FC40000BF03B05DF804FB780700200030004018
:103FD40082B003468DF8073008499DF907305B0924
:103FE4009DF8072002F01F02012000FA02F220339C
:103FF40041F8232000BF02B0704700BF00E100E099
:1040040084B001900B46ADF80230BDF80230019A3D
:10401400134400221A60BDF80230019A13441B684D
:104024000393039B00BF04B0704782B001900B461A
:10403400ADF80230BDF80230019A13441B68002B1E
:1040440014BF01230023DBB2184602B0704782B0CC
:1040540001900091019B009AC3F8042300BF02B0B1
:10406400704782B001900091019BD3F80423009B18
:104074001340002B14BF01230023DBB2184602B007
:10408400704782B001900091019B009AC3F8082305
:1040940000BF02B0704784B00190019BD3F8803414
:1040A4000393019B039AC3F88024039B184604B02E
:1040B400704782B00190019B0422C3F8002500BF21
:1040C40002B0704782B00190019B0022C3F8002522
:1040D40000BF02B0704784B0039002910192039B29
:1040E400019AC3F81425039B029AC3F80C2500BF58
:1040F40004B0704700B583B001904FF0FF324FF029
:10410400FF310198FFF7E7FF00BF03B05DF804FB40
:1041140082B00190019BD3F80C35184602B0704769
:1041240082B00190019BD3F81435184602B0704751
:1041340082B00190019BD3F80835184602B070474D
:1041440082B00190019BD3F81035184602B0704735
:1041540084B0039002910192039B029AC3F808254C
:10416400039B019AC3F8102500BF04B0704700B543
:1041740083B001904FF0FF324FF0FF310198FFF709
:10418400E7FF00BF03B05DF804FB82B00190019B20
:10419400D3F81835DBB2184602B0704782B00190EC
:1041A4000B468DF803309DF80320019BC3F81C25B2
:1041B40000BF02B0704782B001900B468DF8033007
:1041C4009DF80330019A134401221A6000BF02B023
:1041D400704782B001900B468DF8033013468DF87A
:1041E40002309DF803209DF802301343DBB21A46D7
:1041F400019BC3F86C2500BF02B0704782B00190E8
:104204000091019B009AC3F8242500BF02B07047B7
:1042140084B001900B46ADF80230BDF80230019A2B
:10422400134400221A60BDF80230019A13441B683B
:104234000393039B00BF04B0704782B001900B4608
:10424400ADF80230BDF80230019A13441B68002B0C
:1042540014BF01230023DBB2184602B0704782B0BA
:1042640001900091019BD3F80022009BDB431A408C
:10427400019BC3F8002200BF02B0704782B00190D6
:104284000091019B009AC3F8042300BF02B0704759
:1042940082B001900091019B009AC3F8082300BFEB
:1042A40002B0704784B00190019BD3F8803403932B
:1042B400019B039AC3F88024039B184604B07047FB
:1042C40082B00190019B0822C3F8002500BF02B010
:1042D400704782B00190019B0022C3F8002500BF03
:1042E40002B0704784B0039002910192039B029A3A
:1042F400C3F80C25039B019AC3F8142500BF04B02E
:10430400704700B583B001904FF0FF324FF0FF319A
:104314000198FFF7E7FF00BF03B05DF804FB82B02C
:104324000190019BD3F80C35184602B0704782B057
:104334000190019BD3F81435184602B0704782B03F
:104344000190019BD3F80835184602B0704782B03B
:104354000190019BD3F81035184602B0704784B021
:10436400039002910192039B029AC3F80825039BD0
:10437400019AC3F8102500BF04B0704700B583B09C
:1043840001904FF0FF324FF0FF310198FFF7E7FF44
:1043940000BF03B05DF804FB82B001900B468DF8BA
:1043A40003309DF80330019A134401221A6000BFC0
:1043B40002B0704782B001900B468DF8033013466B
:1043C4008DF802309DF803209DF802301343DBB2D0
:1043D4001A46019BC3F86C2500BF02B0704782B037
:1043E40001900091019B009AC3F8242500BF02B0FC
:1043F400704784B00390029113468DF80730029AF7
:10440400039BC3F844259DF80720039BC3F8482564
:1044140000BF04B0704782B00190019BD3F84C35C3
:10442400184602B0704782B00190019BD3F83C3526
:10443400184602B0704700B583B003468DF80730C4
:104444009DF907301846FFF7C3FD00BF03B05DF8C0
:1044540004FB84B00190019B1B0B8DF80F309DF978
:104464000F30184604B0704782B00190019B03F0EE
:104474006043B3F1005F0CBF01230023DBB2184695
:1044840002B0704700B583B00190019B1B681F2BDD
:1044940004D905494FF4E870FDF733FF4FF0A0430A
:1044A400184603B05DF804FB0068000000B585B051
:1044B4000190084611461A4603468DF803300B4610
:1044C4008DF8023013468DF8013001AB1846FFF722
:1044D400D9FF0390019A9DF803109DF802305B0008
:1044E40019439DF801309B0019439DF818301B02B5
:1044F40019439DF81C301B041943039B02F5E07219
:1045040043F8221000BF05B05DF804FB00B585B088
:10451400039000230193002300930023012201212F
:104524000398FFF7C3FF00BF05B05DF804FB00B5B7
:1045340085B003900B468DF80B309DF80B200023BB
:104544000193002300931346002200210398FFF7F0
:10455400ADFF00BF05B05DF804FB00B585B0039066
:1045640000230193002300930023012200210398D8
:10457400FFF79CFF00BF05B05DF804FB00B585B0F4
:10458400019001AB1846FFF77DFF0390019B0122C8
:1045940002FA03F31946039800F004F800BF05B0CB
:1045A4005DF804FB82B001900091019B009AC3F86E
:1045B400082500BF02B0704700B583B00190009198
:1045C400009B1B68B3F1FF3F09D0009B1B68184692
:1045D400FFF7D4FF009B1B681846FFF797FF009B6B
:1045E4005B68B3F1FF3F05D0009B5B680021184670
:1045F400FFF79DFF019B1B79464A5B0113441C3363
:104604001B78002B41D0019B1A68009B9B691946BB
:104614001046FFF7E4FE019B1868009B597D009B40
:104624001B7D1A46FFF7C6FE019B1868009B19689C
:10463400009B5B681A46FFF755FE009B1B7D012B10
:1046440064D1009B9B68B3F1FF3F05D0009B9B683E
:1046540000211846FFF76BFF009BDB68B3F1FF3FB7
:1046640009D0009BDB681846FFF788FF009BDB68D6
:104674001846FFF74BFF019B1868009BD968009B05
:104684009B681A46FFF76BFE40E0019B1A68009B8B
:104694009B6919461046FFF7B1FD019B1868009B02
:1046A400597D009B1B7D1A46FFF793FD019B1868FB
:1046B400009B1968009B5B681A46FFF70CFD009B82
:1046C4001B7D012B22D1009B9B68B3F1FF3F05D0DA
:1046D400009B9B6800211846FFF729FF009BDB68BD
:1046E400B3F1FF3F09D0009BDB681846FFF746FF94
:1046F400009BDB681846FFF709FF019B1868009BC5
:10470400D968009B9B681A46FFF722FD00BF03B0DF
:104714005DF804FB9C07002000B583B001900B46B4
:104724008DF80330019B1B792D4A5B0113441C3324
:104734001B78002B2FD0019B1B684FF488711846FF
:10474400FFF766FD019B1B684FF490711846FFF755
:104754005FFD019B1B684FF492711846FFF758FDEB
:10476400019B1B684FF4A2711846FFF751FD019B92
:104774001B681C491846FFF781FD019B1B681846FE
:10478400FFF767FE03461A469DF8033019461046A4
:10479400FEF720FD20E0019B1B684FF48E71184644
:1047A400FFF72EFC019B1B684FF4A2711846FFF71C
:1047B40027FC019B1B680C491846FFF748FC019B2A
:1047C4001B681846FFF745FE03461A469DF803305A
:1047D40019461046FEF7FEFC00BF03B05DF804FB6B
:1047E4009C070020100302008000020000B583B083
:1047F4000190019B1B79154A5B0113441C331B7800
:10480400002B0FD0019B1B6811491846FFF740FD90
:10481400019B1B681846FFF71CFE03461846FFF76A
:104824000AFE0EE0019B1B680A491846FFF729FCA3
:10483400019B1B681846FFF70CFE03461846FFF75A
:10484400FAFD00BF03B05DF804FB00BF9C07002025
:10485400100302008402020000B587B00190019B9E
:104864001B79364A5B0113441C331B78002B22D07E
:10487400019B1B681846FFF752FD0590019B1B68BE
:104884001846FFF754FD0490019B1B681846FFF778
:1048940056FD0390019B1B681846FFF758FD0290D4
:1048A400019B1B681846FFF72CFD019B1B681846EB
:1048B400FFF764FD21E0019B1B681846FFF728FC05
:1048C4000590019B1B681846FFF72AFC0490019B86
:1048D4001B681846FFF72CFC0390019B1B681846C5
:1048E400FFF72EFC0290019B1B681846FFF702FCA1
:1048F400019B1B681846FFF73AFC059BB3F1FF3F89
:1049040002D00598FFF729FE049BB3F1FF3F02D0C4
:104914000498FFF722FE029BB3F1FF3F02D00298F6
:10492400FFF71BFE039BB3F1FF3F02D00398FFF791
:1049340014FE00BF07B05DF804FB00BF9C07002015
:1049440000B583B00190019B1B790B4A5B011344B2
:104954001C331B78002B05D0019B1B681846FFF7FE
:10496400AFFC04E0019B1B681846FFF7A2FB00BFE5
:1049740003B05DF804FB00BF9C07002000B583B0C2
:104984000190019B1B790B4A5B0113441C331B7878
:10499400002B05D0019B1B681846FFF79AFC04E026
:1049A400019B1B681846FFF78DFB00BF03B05DF841
:1049B40004FB00BF9C07002000B587B00390029160
:1049C4000192029B002B04D122494FF48870FDF719
:1049D40098FC039B1B795B011F4A13440593002336
:1049E4000493059BDB7E002B03D008230493049BD4
:1049F4002BE0029B5A7F059B1A7702990398FFF7D5
:104A0400DBFD059B019A5A60029B1A69059B1A609B
:104A1400059B5B68002B05D0029B1B7F19460398FE
:104A2400FFF77AFE0398FFF78BFF059B0022DA75E8
:104A3400059B00221A76059B00229A75059B01228C
:104A4400DA76059B00229A76049B184607B05DF837
:104A540004FB00BF406800009C07002000B585B03F
:104A64000190019B1B795B010C4A13440393019849
:104A7400FFF784FF039B5B68002B02D00198FFF7CC
:104A8400B5FE0198FFF7E8FE039B0022DA76039B4C
:104A940000225A6000BF05B05DF804FB9C070020AB
:104AA40000B585B0019000914FF48E710198FFF725
:104AB400A7FA009B9B68009A928A92B213441B78CF
:104AC4008DF80F30009B9B8A9BB201339AB2009BF6
:104AD4009A829DF80F3019460198FFF75FFB00BFDB
:104AE40005B05DF804FB000000B585B00190019BA2
:104AF4001B795B01344A1344029300230393019B03
:104B04001B684FF48E711846FFF77AFA019B1B68F5
:104B140008211846FFF74FFB019B1B6802991846B2
:104B2400FFF7BEFF029B5B68002B48D11FE000BF6C
:104B3400019B1B684FF48E711846FFF776FA034603
:104B440083F00103DBB2002B05D0029B9B8A9BB24E
:104B5400B3F5807FECD1029B9B8A9BB2B3F5807F37
:104B640005D0019B1B6802991846FFF799FF029B29
:104B74009B8A9AB2029B9B7D9BB29A42D7D3029B9B
:104B84009B8A9BB2B3F5807F02D10F23039313E07A
:104B940000BF019B1B684FF48E711846FFF745FA5E
:104BA400034683F00103DBB2002BF2D1019B1B68A7
:104BB4000C211846FFF7FFFA029B00229A75039B0B
:104BC400184605B05DF804FB9C07002000B587B0CB
:104BD4000190019B1B795B012A4A1344049300232F
:104BE4000593019B1B684FF490711846FFF710FB67
:104BF400019B1B684FF4AC711846FFF709FB019B3E
:104C04001868049B9968049B9B7D1A46FFF7F1FB87
:104C1400019B1B6808211846FFF7BEFB049B5B68D9
:104C2400002B2AD1019B1B684FF490711846FFF7A3
:104C340004FB03468DF80F30019B1B684FF4AC71E5
:104C44001846FFF7FAFA03468DF80E309DF80F3038
:104C540083F00103DBB2002B06D09DF80E3083F005
:104C64000103DBB2002BDDD19DF80E30002B01D007
:104C74000F230593049B00229A75059B184607B0E1
:104C84005DF804FB9C07002000B587B003900291F7
:104C940013468DF80730039B1B795B012E4A13449E
:104CA4000593059BDB7E012B04D02C494FF4CC707B
:104CB400FDF727FB9DF80730002B04D1274940F26C
:104CC4009910FDF71EFB029B002B04D123494FF4DE
:104CD400CD70FDF716FB039B1B791F4A5B01134440
:104CE4001C331B78002B0CD00298FFF7BDFB034646
:104CF40083F00103DBB2002B03D010230493049B45
:104D040025E0039800F02CF80346002B03D0112370
:104D14000493049B1BE0059B9DF807209A75059B53
:104D2400029A9A60059B00229A82039B1B790A4A85
:104D34005B0113441C331B78002B04D00398FFF74A
:104D440045FF034603E00398FFF7CEFE03461846EB
:104D540007B05DF804FB00BF9C070020406800001A
:104D640082B00190019B1B79064A5B011344163300
:104D74001B78002B14BF01230023DBB2184602B0BA
:104D8400704700BF9C07002010B582B001900091CD
:104D9400009BDB7D002B08D14FF484710198FFF751
:104DA4002FF90198FFF7F1F916E04FF48471019897
:104DB400FFF726F9009BDB68009A527ED2B29C185A
:104DC4000198FFF7E2F903462370009B5B7EDBB298
:104DD4000133DAB2009B5A7602B010BD00B589B037
:104DE40003900B4601928DF80B3001238DF810309F
:104DF4009DF80B308DF81830019B0593039B5B687D
:104E0400039A116804AA1046984700BF09B05DF8D8
:104E140004FB00B587B001900B468DF803300023E6
:104E24008DF808309DF803308DF81030019B9B6895
:104E34000393019B00229A75019B5B68019A116898
:104E440002AA1046984700BF07B05DF804FB00B5FE
:104E540089B0019000914FF400710198FFF701F9B6
:104E64000346002B39D04FF492710198FFF7DDF817
:104E74000346002B31D04FF492710198FFF7C0F82C
:104E84004FF401710198FFF7FCF8009B9B7E83F0BF
:104E94000103DBB2002B03D004210198FFF78BF947
:104EA40002238DF808300198FFF7F5F803460593BF
:104EB400009BDB7D8DF81030009BDB680393009B27
:104EC4000022DA75009B00221A76009B5B68009A28
:104ED400116802AA1046984756E004210198FFF78A
:104EE400C0F80346002B4FD04FF484710198FFF7AC
:104EF4009CF80346002B47D000990198FFF744FF24
:104F0400009BDA7D009B5B7EDBB29A423CD1009B26
:104F14001B7E002B1CD0009BDB680793009B5B7EF1
:104F24008DF81B30009B1A7E009BDA75009B1A6972
:104F3400009BDA60009B00221A76009B00225A76BE
:104F44009DF81B30079A19460098FFF747FF1BE0AE
:104F5400009B9B7E83F00103DBB2002B03D0042172
:104F64000198FFF728F94FF401710198FFF789F8C8
:104F7400009B0022DA75009B5B7ED9B2009BDB6844
:104F84001A460098FFF72AFF4FF48E710198FFF735
:104F94004CF80346002B1BD0009B9B8A9AB2009BC3
:104FA4009B7D9BB29A4204D200990198FFF778FD49
:104FB4000EE04FF48E710198FFF722F8009B9B7D61
:104FC400002B05D0009B9B7D19460098FFF721FF1D
:104FD4004FF4A2710198FFF728F80346002B1CD068
:104FE4004FF4A2710198FFF70BF8009B9B7E002BF6
:104FF40003D000210198FFF7DEF8009BDB7D002B36
:105004000BD0009B0022DA75009B5B7ED9B2009B1B
:10501400DB681A460098FFF7E1FE00BF09B05DF8AF
:1050240004FB00B589B0019000914FF4927101988E
:10503400FFF703F90346002B24D04FF49271019833
:10504400FFF7E6F802238DF808300198FFF72AF9F4
:10505400034605930198FFF7E6F90346DBB28DF8A2
:105064001030009BDB680393009B0022DA75009BE1
:1050740000221A76009B5B68009A116802AA104607
:10508400984741E04FF488710198FFF7D6F803463A
:10509400002B39D04FF488710198FFF7B9F80198C3
:1050A400FFF7C1F903468DF81F30009BDB7D9DF8A7
:1050B4001F209A4228D1009B1B7E002B19D0009BF5
:1050C400DB68069320210198FFF7C9F8009B1A7E3C
:1050D400009BDA75009B1A69009BDA60009B002232
:1050E4001A769DF81F30069A19460098FFF776FE47
:1050F4000AE0009B0022DA75009BDA689DF81F30F5
:1051040019460098FFF76AFE4FF4A2710198FFF761
:1051140094F80346002B16D04FF4A2710198FFF7C0
:1051240077F8009BDB7D002B0DD0009B0022DA7505
:105134000198FFF778F90346D9B2009BDB681A4659
:105144000098FFF74BFE4FF490710198FFF775F844
:105154000346002B11D04FF490710198FFF758F8D3
:10516400009B9B7D002B08D00198FFF754F9034660
:10517400DBB219460098FFF74CFE00BF09B05DF89A
:1051840004FB000008B5074B1B7F002B04D0054926
:105194000548FFF746FF03E002490348FFF757FEBF
:1051A40000BF08BD9C0700200020004084B001908F
:1051B400244B0393019B002B40D0234B1A68039983
:1051C400019B00BF00BF00BF00BF00BF00BF00BF06
:1051D40000BF8A422FD000BF00BF00BF00BF00BF86
:1051E40000BF00BF00BF00BF00BF00BF00BF00BFC3
:1051F40000BF00BF00BF00BF00BF00BF00BF00BFB3
:1052040000BF00BF00BF00BF00BF00BF00BF00BFA2
:1052140000BF00BF00BF00BF00BF00BF00BF00BF92
:1052240000BF00BF00BF00BF00BF00BF00BF00BF82
:1052340000BF00BF00BF013BC3D1019300BF04B056
:10524400704700BF0024F4009000002000B583B034
:105254000190019B4FF47A7202FB03F31846FFF7A7
:10526400A5FF00BF03B05DF804FB000010B582B0D9
:1052740001900091154B01221A70154B1B881B04D9
:1052840043F0030313491846FBF7AEFC124B1B789B
:10529400002B17D00E4B1B881B0443F003030F494C
:1052A4001846FBF7A1FC0A4B1B881B0443F00304BC
:1052B400094800F05FFC03469BB21A4606492046A3
:1052C400FBF7DEFC00BF02B010BD00BFBC0700202E
:1052D40000000020BC680000C0070020D068000067
:1052E40010B58AB0FCF75CFA0020FBF70FFA0990BE
:1052F400099B002B04D0304A50210998FCF76AFA24
:10530400FBF762F92D4B1B881B0443F003032C4964
:105314001846FBF769FC2B4B03AC0FCB84E80F005A
:1053240007238DF80F300A238DF80E3008238DF8EB
:105334000D3009238DF80C3003A90023224A234899
:10534400FEF7DEFB0890089B002B04D01A4A5A2172
:105354000898FCF73FFA07231A4600211C4800F07E
:10536400D5FB1C4B00221A70072207230093184B0D
:1053740019491648FEF788FC0790079B002B06D0B6
:105384000D4A62210798FCF725FA00E020BF114B73
:105394001B78DBB283F00103DBB2002BF6D100BF34
:1053A400FBF724FD0346002BFAD10020FCF7DEF9BD
:1053B400C820FFF74BFFCEE7DC68000000000020A8
:1053C400446900005469000071520000B468000090
:1053D400C0070020BC07002088000020BFF34F8FC7
:1053E4000549054BDB6803F4E062044B1343CB60CF
:1053F400BFF34F8F00BFFDE700ED00E00400FA05A6
:10540400024B034A1A6000BF704700BF900000209F
:105414000090D00308B500F089F90346002B06D0AC
:10542400B14AB24B1B681B0A03F01F03136000F060
:10543400A9F90346002B02D0AD4BAE4A1A6000F026
:10544400BDF90346002B06D0AB4AAC4B1B685B0B83
:1054540003F00703136000F0DDF90346002B05D0C9
:10546400A74AA74BDB6823F08073D36000F0EEF902
:105474000346002B0ED04FF080430022C3F80C21CA
:105484004FF080430022C3F810214FF080430022E4
:10549400C3F8382500F006FA0346002B02D0994BD6
:1054A40003221A6000F01AFA0346002B0BD0964B25
:1054B40005221A60954B01221A60954B00221A604E
:1054C400944B3F221A6000F025FA0346002B76D055
:1054D400914A4FF08053D3F80434C2F820358E4AF1
:1054E4004FF08053D3F80834C2F824358A4A4FF079
:1054F4008053D3F80C34C2F82835874A4FF08053D0
:10550400D3F81034C2F82C35834A4FF08053D3F8C3
:105514001434C2F83035804A4FF08053D3F818342D
:10552400C2F834357C4A4FF08053D3F81C34C2F8A7
:105534004035794A4FF08053D3F82034C2F84435CB
:10554400754A4FF08053D3F82434C2F84835724A70
:105554004FF08053D3F82834C2F84C356E4A4FF0DC
:105564008053D3F82C34C2F850356B4A4FF0805333
:10557400D3F83034C2F85435674A4FF08053D3F827
:105584003434C2F86035644A4FF08053D3F8383469
:10559400C2F86435604A4FF08053D3F83C34C2F803
:1055A40068355D4A4FF08053D3F84034C2F86C3507
:1055B400594A4FF08053D3F84434C2F8703500F0A0
:1055C400C5F90346002B05D0544A554B1B6803F01C
:1055D4004F03136000F0E6F90346002B0DD04FF0A3
:1055E4008043D3F8003403F00103002B05D04FF0BF
:1055F40080436FF00102C3F800244A4A494BD3F8B0
:10560400883043F47003C2F88830BFF34F8FBFF380
:105614006F8F4FF01023D3F80C3203F00103012BEA
:1056240025D1414B0122C3F8042500BF3E4BD3F8DA
:105634000034002BFAD04FF010224FF01023D3F88F
:105644000C3223F00103C2F80C3200BF364BD3F8FE
:105654000034002BFAD0344B0022C3F8042500BFD9
:10566400314BD3F80034002BFAD0FFF7B7FE4FF0DC
:105674001023D3F80032002B05DB4FF01023D3F8AE
:105684000432002B2BDA284B0122C3F8042500BF77
:10569400254BD3F80034002BFAD04FF010231522F9
:1056A400C3F8002200BF204BD3F80034002BFAD0FB
:1056B4004FF010231522C3F8042200BF1A4BD3F86D
:1056C4000034002BFAD0184B0022C3F8042500BF85
:1056D400154BD3F80034002BFAD0FFF77FFEFFF709
:1056E4008FFE00BF08BD00BF4035014024030010F9
:1056F40074C007400DF0ADBA3C05004044020010F0
:10570400F0ED00E0A005004010560040885600402F
:10571400185600401456004000C00040E40E0040FB
:105724005802001000ED00E000E00140124B1B683D
:10573400DBB2062B1DD1114B1B6803F00F03002BAA
:1057440017D10F4B1B6803F0F003302B01D1012359
:1057540010E00B4B1B6803F0F003402B01D1012335
:1057640008E0074B1B6803F0F003502B01D1012321
:1057740000E0002318467047E00F00F0E40F00F04B
:10578400E80F00F00A4B1B68DBB2062B0DD1094B66
:105794001B6803F00F03002B07D1074B1B6803F0B2
:1057A400F003302B01D1012300E000231846704799
:1057B400E00F00F0E40F00F0E80F00F0124B1B685C
:1057C400DBB2062B1DD1114B1B6803F00F03002B1A
:1057D40017D10F4B1B6803F0F003302B01D10123C9
:1057E40010E00B4B1B6803F0F003402B01D10123A5
:1057F40008E0074B1B6803F0F003502B01D1012391
:1058040000E0002318467047E00F00F0E40F00F0BA
:10581400E80F00F00A4B1B68DBB2062B0DD1094BD5
:105824001B6803F00F03002B07D1074B1B6803F021
:10583400F003302B01D1012300E000231846704708
:10584400E00F00F0E40F00F0E80F00F0124B1B68CB
:10585400DBB2062B1DD1114B1B6803F00F03002B89
:1058640017D10F4B1B6803F0F003302B01D1012338
:1058740010E00B4B1B6803F0F003402B01D1012314
:1058840008E0074B1B6803F0F003502B01D1012300
:1058940000E0002318467047E00F00F0E40F00F02A
:1058A400E80F00F00A4B1B68DBB2062B0DD1094B45
:1058B4001B6803F00F03002B07D1074B1B6803F091
:1058C400F003302B01D1012300E000231846704778
:1058D400E00F00F0E40F00F0E80F00F00A4B1B6843
:1058E400DBB2062B0DD1094B1B6803F00F03002B11
:1058F40007D1074B1B6803F0F003302B01D10123C0
:1059040000E0002318467047E00F00F0E40F00F0B9
:10591400E80F00F00A4B1B68DBB2062B0DD1094BD4
:105924001B6803F00F03002B07D1074B1B6803F020
:10593400F003502B01D1012300E0002318467047E7
:10594400E00F00F0E40F00F0E80F00F0124B1B68CA
:10595400DBB2062B1DD1114B1B6803F00F03002B88
:1059640017D10F4B1B6803F0F003302B01D1012337
:1059740010E00B4B1B6803F0F003402B01D1012313
:1059840008E0074B1B6803F0F003502B01D10123FF
:1059940000E0002318467047E00F00F0E40F00F029
:1059A400E80F00F0124B1B68DBB2062B1DD1114B24
:1059B4001B6803F00F03002B17D10F4B1B6803F078
:1059C400F003302B01D1012310E00B4B1B6803F0D3
:1059D400F003402B01D1012308E0074B1B6803F0BF
:1059E400F003502B01D1012300E000231846704737
:1059F400E00F00F0E40F00F0E80F00F07F2805D876
:105A0400034B185C034B5B5C1840704700207047E5
:105A140064690000E4690000A0F16103192B98BFD8
:105A240020387047A0F14103192B98BF20307047EC
:105A34007F2805D8034B185C034B5B5C1840704708
:105A44000020704764690000E4690000A0F161036C
:105A5400192B98BF20387047A0F14103192B98BF28
:105A6400203070477F299ABF017001206FF02E000B
:105A740070475AB10A787F2A0AD800B1026000211F
:105A840019605960501A18BF0120704700207047F0
:105A94006FF02E007047000008B5034B5B689B68ED
:105AA4001B68984708BD00BF9400002008B5092171
:105AB400FFF7F2FF08BD0000844640EA010313F03B
:105AC400030F18D18446202A0BD32DE9F007B1E83F
:105AD400F807A0E8F807A2F12002202AF7D2BDE8CF
