:020000040000FA
:10000000982B00204D03000055030000570300000B
:10001000590300005B0300005D03000000000000C6
:100020000000000000000000000000005F0300006E
:10003000610300000000000063030000650300008E
:100040006703000067030000E50800006703000085
:100050008D05000067030000F50300006703000042
:1000600067030000670300006703000067030000E8
:1000700067030000670300006703000067030000D8
:1000800067030000670300006703000067030000C8
:1000900067030000670300006703000067030000B8
:1000A00067030000670300006703000067030000A8
:1000B000670300006703000000000000000000006C
:1000C0006703000067030000670300006703000088
:1000D00067030000670300006703000000000000E2
:1000E0000000000000000000000000000000000010
:1000F0000000000000000000000000000000000000
:1001000000000000000000000000000000000000EF
:1001100000000000000000000000000000000000DF
:1001200000000000000000000000000000000000CF
:1001300000000000000000000000000000000000BF
:1001400000000000000000000000000000000000AF
:10015000000000000000000000000000000000009F
:10016000000000000000000000000000000000008F
:10017000000000000000000000000000000000007F
:10018000000000000000000000000000000000006F
:10019000000000000000000000000000000000005F
:1001A000000000000000000000000000000000004F
:1001B000000000000000000000000000000000003F
:1001C000000000000000000000000000000000002F
:1001D000000000000000000000000000000000001F
:1001E000000000000000000000000000000000000F
:1001F00000000000000000000000000000000000FF
:10020000DFF80CD000F0E4F8004800473924000083
:10021000982B002030B4044654E8000F0D4644E803
:100220000053002BF8D1156030BC704730B4044641
:1002300054E8000F40EA010544E80053002BF7D1D1
:10024000156030BC704730B4044654E8000F00EA33
:10025000010544E80053002BF7D1156030BC70470E
:1002600030B4044654E8000F80EA010544E8005326
:10027000002BF7D1156030BC704730B4044654E809
:10028000000F00EB010544E80053002BF7D1156087
:1002900030BC704730B4044654E8000FA0EB0105B1
:1002A00044E80053002BF7D1156030BC70470000C4
:1002B00030B4044654E8000F0D4644E80053002BC8
:1002C000F8D1156030BC704730B4044654E8000FD4
:1002D00040EA010544E80053002BF7D1156030BC1B
:1002E000704730B4044654E8000F00EA010544E8C2
:1002F0000053002BF7D1156030BC704730B4044672
:1003000054E8000F80EA010544E80053002BF7D1C0
:10031000156030BC704730B4044654E8000F00EB61
:10032000010544E80053002BF7D1156030BC70473D
:1003300030B4044654E8000FA0EB010544E8005334
:10034000002BF7D1156030BC70470000064880478D
:1003500006480047FEE7FEE7FEE7FEE7FEE7FEE7AA
:10036000FEE7FEE7FEE7FEE7D5050000010200001C
:1003700000487047544A000040EA01039B0703D03D
:1003800009E008C9121F08C0042AFAD203E011F8D4
:10039000013B00F8013B521EF9D27047D2B201E096
:1003A00000F8012B491EFBD270470022F6E710B57A
:1003B00013460A4604461946FFF7F0FF204610BDD3
:1003C000421C10F8011B0029FBD1801A7047000065
:1003D000064C074D06E0E06840F0010394E8070092
:1003E00098471034AC42F6D3FFF70EFFF44A0000F2
:1003F000144B00002DE9F04700268CB0DFF8609127
:10040000B0464FF48075012437460696284602F020
:100410004BFD38B1D9F80403204203D0284602F03E
:1004200039FD26432D1D64007F1CADB2082FEDD38E
:100430004FF4BE74204602F037FD48B1204602F06A
:1004400029FD46F0004606AA0121002002F00EFD1B
:10045000444D16F0FF0F15D00127002437420DD070
:1004600009EB8401D1F81005D1F81015C0F3042070
:1004700055F82420C1F3014102B190477F00641C6C
:10048000082CEBD3002E67DA4FF0FF30CDE908805F
:1004900000263446281910F8507F90F9000027F004
:1004A000C008401C44D009A9404602F0CFF858B318
:1004B0004FEA9719404600F07BFD55F820701FB1B8
:1004C000B9F1030F03D00FE0B9F1030F30D108A841
:1004D0004FEAD80208F00703815C4FF0010C0CFAD8
:1004E00003FC41EA0C0181544FF0A04101EB88006C
:1004F000D0F8000706A9C0F3014A404602F0A6F86A
:1005000018B1BAF1020F03D012E0BAF1030F0FD104
:10051000B9F1030F08D1BAF1020F1BD002214046F6
:1005200002F07AFC761CF6B217B149464046B8474D
:10053000641C042CAED3002E0ED06A46012100208C
:1005400002F094FC06990098884205D0069008981D
:1005500009909DE70321E2E70CB0BDE8F0870000B9
:1005600000600040C4050020BFF34F8F05480168BC
:10057000054A01F4E06111430160BFF34F8F00BFF2
:10058000FDE700000CED00E00400FA05F8B54FF0BF
:1005900040200F4D04464FF48C7102F0E1FF00281B
:1005A00015D00026C4F81861D4F818010090A87F6F
:1005B0002C46FF2801D002F040FC66772672D4E971
:1005C000002101B004F10800BDE8F0401047F8BD7B
:1005D000800500202DE9F041B3480023021D017879
:1005E0000125101D4FF0805606290BD114782407E1
:1005F00008D10478C4F30314032C06D0042C04D0CF
:10060000052C02D0062907D00EE0B6F82443A74FE8
:10061000C4F304243C6002E01478240704D1047875
:10062000C4F30314032C02D0062904D00FE0A14F19
:100630009F4C7C670EE01478240708D10478C4F33B
:100640000314032C06D0042C04D0052C02D0062958
:1006500007D00EE0D6F84442974FC4F342343C60D2
:1006600002E01478240704D10478C4F30314032CA3
:1006700002D0062906D011E0904C276827F0807739
:1006800027600EE01478240708D10478C4F303141B
:10069000032C06D0042C04D0052C02D006290AD045
:1006A00011E04FF08044C4F80C31C4F81031824C92
:1006B000241F236002E01478240704D10478C4F3D3
:1006C0000314032C02D0062905D00CE07A4F032432
:1006D00064373C600AE01478240704D10478C4F33A
:1006E0000314032C02D006290DD014E0744F052406
:1006F0003C60734C78342560714C083423603F248F
:100700003F1D3C6002E01478240704D10478C4F350
:100710000314052C02D0062957D062E0694C2468E6
:10072000694F3C60674C241D24683F1D3C60654C4C
:10073000083424683F1D3C60624C0C3424683F1D23
:100740003C60604C103424683F1D3C605D4C1434A8
:1007500024683F1D3C605B4C183424685A4F203796
:100760003C60584C1C3424683F1D3C60554C203480
:1007700024683F1D3C60534C243424683F1D3C607A
:10078000504C283424683F1D3C604E4C2C34246867
:100790003F1D3C604B4C303424684B4F40373C602D
:1007A000484C343424683F1D3C60464C383424683F
:1007B0003F1D3C60434C3C3424683F1D3C60414C31
:1007C000403424683F1D3C6002E01478240708D1BF
:1007D0000478C4F30314032C06D0042C04D0052C95
:1007E00002D0062907D019E0D6F85812374A01F08E
:1007F0004F01116002E0117809070FD10078C0F3B2
:100800000310032803D0042801D0052806D130485E
:100810000168C90702D06FF00101016027487438F0
:10082000016841F470010160BFF34F8FBFF36F8F18
:100830004FF01022D2F80C022649C407264811D0E6
:100840000D600468002CFCD0D2F80C4224F00104A6
:10085000C2F80C420268002AFCD00B600168002933
:10086000FCD01AE0D2F80042002C03DBD2F804429C
:10087000002C14DA0D600468002CFCD01524C2F89A
:1008800000420568002DFCD0C2F804420268002A2C
:10089000FCD00B6001680029FCD0FFF765FE104911
:1008A0000E480860BDE8F081E00F00F040350140DF
:1008B0000DF0ADBA00C007403C050040FCED00E083
:1008C000105600400404001020C50040E40E004013
:1008D0000004004004E5014000E401400090D00322
:1008E0000C0000200448017F04480029024901D07F
:1008F00003F0BBBE03F02ABEA40500200020004088
:1009000002E008C8121F08C1002AFAD170477047D8
:10091000002001E001C1121F002AFBD17047000036
:1009200002F040FD02F09CFB0028FBD1104C01219D
:10093000208801EB00400FA102F084FC1048006801
:10094000C00700D000BE2088022101EB00400DA1AD
:1009500002F078FCBFF34F8F0948E43801680D4A74
:1009600001F4E06111430160BFF34F8F00BFFDE769
:10097000BC000020466174616C206572726F720069
:10098000F0ED00E053797374656D207265736574E2
:10099000000000000400FA050EB500210091CDE929
:1009A00001106A4644F20100FFF7BAFF0EBD0000D5
:1009B000144B10B593F822402CB193F82240032C2D
:1009C00003D0112010BD082010BD82B1042483F88B
:1009D00022409C7A240700D44902C3E903019A8289
:1009E0000020DA829883012A03D9522002E00720EE
:1009F00010BD5120012202F031FF08B1FFF7CCFFFA
:100A0000002010BD1C06002070B5194B144693F849
:100A100022202AB193F82220032A03D0112070BD8E
:100A2000082070BDECB1052283F822209A7A1507C0
:100A300000D44902C3E903019C820020DC82988330
:100A4000012C10D002F0070001284FF001020DD058
:100A50002146D72002F002FF08B1FFF79DFF0020DA
:100A600070BD072070BD01225820F3E75920F1E73F
:100A70001C060020054890F82210032904D090F8A5
:100A8000220008B101207047002070471C0600209A
:100A9000044890F82210032901D3001D704700205C
:100AA000704700001C060020F0B52F4C054687B0AB
:100AB00094F822000F4610B1082007B0F0BDEFB344
:100AC000E878FF284DD06978FF294AD02978FF2996
:100AD00047D0A978FF2944D0002684F85800012285
:100AE000009633461146019602F056F994F85800E4
:100AF00002F0AAF91D4B0DF1080C0FCB8CE80F008A
:100B0000A8788DF8080028788DF8090068788DF8A5
:100B10000A0016480023164A02A9083801F00AFE06
:100B200008B1FFF739FF44F8227B012004F81909C6
:100B3000607820F00F006070A67600E011E0FF20E2
:100B4000E0770A20084B0090084838330122A3F1CF
:100B50001001083801F082FE08B1FFF71DFF0020E8
:100B6000ABE70720A9E700001C06002010490000A1
:100B70008D4000007CB50F4D95F8220028B195F806
:100B80002200032803D011207CBD08207CBD0A4828
:100B900001F072FE002495F8580000942346224686
:100BA00021462235019402F0F7F86C702C70002079
:100BB0007CBD00001C0600200849000000F002B8BF
:100BC00000F008B872B602480168491C016070471D
:100BD0002000002003490868401E086000D162B66A
:100BE00070470000200000202DE9F041064608680B
:100BF0000C46411C4FF0A0474FF0010506D005FA06
:100C000000F1C7F80815206802F0FCF86068411C84
:100C100002D0002102F0DBF83079204901EB4010CE
:100C2000A169007F00283068C0F8241525D0607DB8
:100C3000227D31681043C1F86C05D4E90012306898
:100C4000C0F80C15C0F8142524E0A068411C02D09F
:100C5000002102F0BCF8E068411C05D08540C7F8CF
:100C60000855E06802F0CEF8D4E902123068C0F806
:100C70000825C0F81015BDE8F081607D217D32683F
:100C80000843C2F86C05D4E900123068C0F8142596
:100C9000C0F80C15207D0128D7D0ECE7A405002072
:100CA000087A0A782AB1012A03D0022A01D0032A3D
:100CB00009D100EB400204484978406800EB82000B
:100CC0000172002181727047100000208069704716
:100CD0002DE9FE430E46016984698046B1F5007F27
:100CE00002D00620BDE8FE83134D696809B11120CA
:100CF000F8E7A660A261686010491430FFF7D4FEDF
:100D0000070008D1A6B900BFFFF7B4FE0028FBD149
:100D1000287878B10D27002068604EB1084A07CACC
:100D20008DE80700A0690290A26869464046904796
:100D30003846D7E70027FBE72400002015390000DC
:100D40005049000019B1012906D0062070470AB1A8
:100D5000002010700020704712B1001D1060F9E7EC
:100D600007207047FEB51C4F0646846978680D461B
:100D7000B04202D1FFF77EFE08B11120FEBD95E81A
:100D8000070004F10C0383E80700A888296882B2F1
:100D9000A868FFF70DFE050009D1A068C0B900BF23
:100DA000FFF768FE0028FBD1387898B10D25A068C0
:100DB00070B16DB10948016B806B029004F10C00B9
:100DC000CDE90010A0690290A268694630469047BC
:100DD0002846FEBD0025EAE724000020384900002F
:100DE000FEB5124F044685697868A04202D1FFF72C
:100DF00041FE08B11120FEBDFFF7BCFE060000D188
:100E00007860A86878B10A4907C98DE807000EB173
:100E1000012000E000208DF80100A8690290AA6876
:100E20006946204690473046FEBD00002400002061
:100E30005C490000FEB51C4F0646846978680D4683
:100E4000B04202D1FFF716FE08B11120FEBD95E8B1
:100E5000070004F10C0383E80700A888296882B220
:100E6000A868FFF7D1FD050009D1A068C0B900BF8F
:100E7000FFF700FE0028FBD1387898B10D25A06857
:100E800070B16DB10948C16B406C029004F10C0067
:100E9000CDE90010A0690290A268694630469047EB
:100EA0002846FEBD0025EAE724000020384900005E
:100EB0000249085C012101F0CEBF0000604800003B
:100EC0007CB50024084E25460122305D00950023A4
:100ED0001146019501F02AFF641C042CF4D3BDE8EF
:100EE0007C4000F003B800006048000010B500240A
:100EF0002046FFF7DDFF641C042CF9D310BD000071
:100F00002DE9F041871C0E4601250020FFF756FE13
:100F1000124C20683060D4E90001401AA168091A17
:100F2000BE1C06E001F03EFAD4E90001401AA168B7
:100F3000091A491C8E42F5D8A1682068084004EBC4
:100F40008000C16841F00301C1602068384420601E
:100F50000020FFF735FE2846BDE8F0817807002025
:100F600030B482680468531C8360A154D0E9011234
:100F70008A4202D330BC01F0E0BD30BC70470000B3
:100F8000034803C8814201D1012070470020704707
:100F90007807002005494FF0FF32082841F820204B
:100FA00002D3084480F8482070470000C4050020A0
:100FB0000249084490F9300070470000C405002041
:100FC00010B504460020E070401EE062204601F0AB
:100FD000D1FA08B1042010BD04F22E2001F0DCF992
:100FE000A0F52A41553901D0032010BD94F83000F6
:100FF000E92805D0EB2814D194F83200902810D1BC
:1010000004F1660001F0BDF90749B1EB002F06D0ED
:1010100004F1820001F0B5F90449884201D10020B1
:1010200010BD022010BD000000464154464154331B
:101030004269891E921E8A4201D800207047826A46
:10104000408901FB002070472DE9F04105680F0041
:10105000804606D001F044F8022809D20120BDE8FC
:10106000F081EE6816B16869B04207D8012605E044
:10107000411CF4D069698142F1D83E463446686922
:10108000641CA04202D80224022E0AD32146404604
:1010900001F026F838B10128E1D0411CDFD0B4427C
:1010A000EDD10020DBE74FF0FF36324621462846DF
:1010B00002F000FB30B957B122463946284602F00B
:1010C000F9FA20B101280FD001242046C7E7EC60CF
:1010D000D5E90401891E884201D2401E2861287981
:1010E00040F001002871F0E73446EEE72DE9F041C9
:1010F0000E4620300D6804460B22202101F0DEF957
:101100000020014608272A5C401C202A12D92F2AD9
:101110000BD05C2A09D02E2A01D0B94214D30B2F50
:1011200022D02E2A20D10CE0401C2B5C2F2BFBD090
:101130005C2BF9D028443060B1B12078E5281FD06D
:1011400020E008210B27DEE7802A03D3114B1A4445
:1011500012F8802C10A300E05B1C93F800C0BCF1D7
:10116000000F04D09445F7D10620BDE8F081A2F12C
:101170006103192B01D8203AD2B26254491CC2E74C
:1011800005202070202A01D8042000E00020E07211
:101190000020EAE768480000222A2B2C3A3B3C3D1D
:1011A0003E3F5B5D7C7F000020BF70472DE9F04132
:1011B00004460021056800F0D8F8002826D128460A
:1011C000A16901F0D7F902001FD1E069017899B156
:1011D000C17A01F03F01A171C17A09070FD404F16E
:1011E00020010B2610F8013B11F8017BDB1B761E5A
:1011F00004D0002BF6D002E0042206E02BB100213F
:10120000204600F005F80200D9D01046BDE8F08174
:101210002DE9F0470546076904688069894620374B
:1012200010B1B7F5001F02D30420BDE8F087F9051F
:1012300060D1401CA86169694FF0000829B160893C
:10124000401E10EA572F05D054E02089B0EB571FFD
:101250001DD94FE0284600F043FF064601281BD960
:10126000701C33D06069B0423ED8B9F1000F0ED087
:1012700028466969FFF7E8FE06000BD0012E0BD067
:10128000701C23D0204603F0EBF8F8B906E0C5F84F
:101290001880C9E70720C8E70220C6E74FF40072AC
:1012A000002104F1300001F009F94FF00008314647
:1012B0002046FFF7BDFE4FF00109E0620DE000BFE0
:1012C00084F80390204603F0CBF808B10120ACE786
:1012D000E06A08F10108401CE06261894145EFD8ED
:1012E000E16AA1EB0800E062314620466E61FFF73B
:1012F0009FFEA861C7F30800204430302F61E861E9
:10130000002092E770B504460021066800F02DF831
:101310000DE03046A16901F02DF950B9E06900787F
:10132000E52809D040B101212046FFF771FF0028D0
:10133000EFD0042807D007E03046A16901F01AF980
:10134000050003D00FE0072005460CE02022002115
:10135000E06901F0B3F80B2204F12001E06901F02B
:10136000A3F80120F070284670BD2DE9F041076810
:101370000E460546B1F5001F36D2F00634D12E6177
:10138000AC6824B93878032805D37C6A1CB1788905
:101390004FEA402812E03889B0EB561F24D9786A0A
:1013A00012E0284600F09CFE0446401C1AD0022C95
:1013B0001AD37869A04217D9A6EB080646452146FC
:1013C000EFD23846FFF734FEC5E9054060B100EBC7
:1013D0005620A861C6F3080038443030E861002088
:1013E000BDE8F0810120FBE70220F9E770B51C4C55
:1013F000217888420DD2616800EB400551F8253014
:101400003BB101EB85014A7AD20704D04A6822B188
:1014100005E0032070BD487A70BD124A4A6001227F
:101420008A7202461868104906681846B04710B11B
:1014300010E040688047606800EB8500817A0029F1
:10144000F7D1616801EB8501097A19B9417A21F078
:1014500001014172606800EB8500407A70BD0000B8
:1014600010000020A9110000A10C000038B51D4D8E
:101470002B78984201D3042038BD00EB400439B1E9
:1014800018480129406815D002291DD0012038BD17
:1014900001208DF8000068686A46002150F8240099
:1014A00001F0DCF808B1112817D19DF800000028E0
:1014B000F1D112E050F8240088B10168144649695E
:1014C00088470068206008E050F8240038B10168BF
:1014D00014464969884780882080002038BD032051
:1014E00038BD000010000020FEB51D4C2578A84234
:1014F0000DD263B100EB4005606850F8256026B15D
:1015000000EB8506777AFF0703D00320FEBD042099
:10151000FEBD0092CDE901310121B17250F8256084
:101520006F463068416930468847006800998842B4
:1015300014D93068394682683046904710B10DE0C2
:1015400040688047606800EB8500817A0029F7D108
:10155000606800EB8500007A0028D9D00120FEBD2C
:101560001000002006490A78904201D301207047FC
:10157000496800EB400001EB8000407A70470000B2
:1015800010000020FEB5204C2578A8420DD263B192
:1015900000EB4005606850F8256026B100EB850639
:1015A000777AFF0703D00320FEBD0420FEBD777AC3
:1015B0007F0701D50220FEBD0092CDE90131012156
:1015C000B17250F825606F463068416930468847EF
:1015D00000680099884214D930683946C26830469C
:1015E000904710B10DE040688047606800EB8500CF
:1015F000817A0029F7D1606800EB8500007A002825
:10160000D9D00120FEBD000010000020014A50602A
:10161000117070471000002038B5044600F082F9C0
:10162000002807D16946204603F0F2F8002801D1CE
:101630000021216038BD000017B581B01446029822
:101640000090684600F0DCFD002802DA0B2004B0B0
:1016500010BD0B4A002352F8201001B10B70019904
:10166000002900D00B7042F8201001D0012C01D0CD
:101670000020ECE7002201A902A800F0D1FBE6E778
:101680001C0000202DE9F7438CB005000BD002F0C0
:101690003F06324669460DA800F0C2FB04004FF039
:1016A000000804D0C0E009200FB0BDE8F083009826
:1016B000019001A80D9900F0D9FC040004D19DF817
:1016C0002F00000600D5062416F01C0F4CD04CB19C
:1016D000042C03D101A8FFF715FE044646F00806C6
:1016E0005CB1A1E09DF80A0010F0110F01D00724B1
:1016F0009AE0700701D5082496E0300743D54D4F96
:10170000089839460E3002F012FE08983946163015
:1017100002F00DFE08992020C8720899009800F088
:101720001DFE074600220899009802F0ECFD08987B
:1017300000211C3002F0FBFD00990120C87007B3A6
:10174000D1F82C900022394601A802F028F80400B4
:101750006AD14946009800F00DFF04000098A7F1F7
:101760000107C7600BD05FE0CCBB9DF80A00C10643
:1017700001D5042458E0B10701D5C007B7D130071F
:1017800001D546F040060098C16A2962089969624D
:10179000089900F0E3FDA86008981C3000F0F1FD06
:1017A000E8600098286000984FF400720021C0881B
:1017B000A8802E7485F81180C5F81C8005F12800DA
:1017C0008146C5F8148000F079FEB0062ED5EE688B
:1017D00066B36E610098A968408947020FE023E074
:1017E000284600F07DFC0146012800D80224481C50
:1017F00002D0F61B1CB104E00124F61B01E0BE423E
:10180000EED8A96184B9F00510D00098FFF710FC5C
:1018100070B100EB5622EA610098012349464078F6
:10182000FFF762FE10B10124C5F8008020463BE7B7
:101830000224F9E70000214813B582B0040006D065
:101840000022694603A800F0EBFA18B120E0092055
:1018500004B010BD009921602046039900F006FCF9
:1018600090B994F82B00000607D4A079C00612D5D1
:10187000E169009800F072FDA0600098C188A18025
:1018800020460021FFF771FD042804D00028DFD096
:1018900000212160DCE70520FAE7F8B50E46044692
:1018A000694602F0B5FF002808D11EB104200027C8
:1018B000256822E000212046FFF757FDF8BD2846A5
:1018C00000F058FEE8B9E169087878B1C97A224693
:1018D00001F03F01A171E5280AD02E2808D00F2978
:1018E00006D021F02000082802D00FE0042008E0F4
:1018F00000211046FFF78CFC18B9A1690029DED140
:1019000020B1A761042801D00028D7D13146204654
:1019100000F045FC00212046FFF77AFC0428CDD1D9
:101920000020F8BDF8B50446694602F071FF0028B2
:101930000ED1217C4A060BD508060ED50098E26927
:101940000123407804F12801FFF71CFE08B10120B3
:10195000F8BD207C00F07F002074154E216A0098AD
:1019600000F008FE0028F3D1656A2946E87A40F0C5
:101970002000E872A268206802F0C5FC05F11C0096
:10198000E16802F0D4FC314605F1160002F0CFFC0C
:10199000002105F1120002F0D2FC00980121C17073
:1019A00002F01AFD217C01F0BF012174F8BD000096
:1019B000000021482DE9FE4F884600211960994614
:1019C0001546044602A902F023FF002806D1607CD8
:1019D000002803D1207C800702D40720BDE8FE8FB9
:1019E0006069012742194FF0020A04F1280B824274
:1019F00000D2C54394E06069C1056ED1029949895E
:101A0000491E11EA502612D108B1A16902E0A0686E
:101A100028B900212046FFF717FB00287DD00128B8
:101A20002DD0411C54D0A061A16801B9A060207CD8
:101A300000060BD50298E269012340785946FFF76A
:101A4000A1FDA0BB207C00F07F002074A16902985A
:101A5000FFF7EEFA98B130440190680A009027D061
:101A6000029932184889824201D9801B0090DDE931
:101A7000003248784146FFF785FDC0B903E084F89D
:101A800011A00220AAE7E1690198081A009988428A
:101A90000AD208EB40214FF40072584600F004FDD2
:101AA000207C00F07F0020740098460227E00FE0C1
:101AB000E169019881420ED0E168606988420AD2EA
:101AC0000298012359464078019AFFF70DFD10B1A5
:101AD0006774012082E70198E061A08AC0F30800E2
:101AE000C0F50076AE4200D92E462044324641462B
:101AF000283000F0D9FC207C40F080002074606920
:101B0000B04430446061E168884200D80846E06033
:101B1000D9F80000AD1B304400E004E0C9F8000033
:101B2000002D7FF468AF207C40F04000207400203E
:101B300054E700002DE9F84301215848FFF766FDFE
:101B4000574C032557A1208805EB004001F07AFB94
:101B500003260020FFF74AFC761E02D00028F8D1A9
:101B600005E020B1208857A105EB004072E05C4FF2
:101B70005C487969884740684FF48011B1FBF0F602
:101B8000796958488847006857A1B0FBF6F2208869
:101B900005EB004001F05AFB208857A105EB0040FF
:101BA00001F050FB012246A15848FFF745FD0028EF
:101BB000208805EB004001D055A14BE058A101F071
:101BC00041FB5DA15D48FFF737FE20B120885CA195
:101BD00005EB00403EE0594E13272C3606F109086C
:101BE000564956482C31FFF758FE20B120885BA19A
:101BF00005EB00402EE0707AA8B1307AC00607D518
:101C00002088424647EA00405AA101F01FFB07E046
:101C10002088434647EA00405AA1326801F01DFB84
:101C2000707A0028DCD1208825A147EA004001F025
:101C300009FB208856A105EB004001F003FB3F485B
:101C400033225BA14430FFF71DFD38B120885BA132
:101C500005EB004001F0F6FABDE8F88337486B4623
:101C6000102261A14430FFF7A5FE0028208805EB73
:101C7000004003D061A101F0E5FA03E063A1009AFE
:101C800001F0E4FA2D484430FFF7C6FC4FF0A040C5
:101C90004FF40001C0F80C15DEE700000000002042
:101CA000BC000020496E697469616C697A696E676D
:101CB000206469736B20302028534443292E2E2E34
:101CC000000000004469736B20696E697469616C7F
:101CD000697A6174696F6E206661696C65642E0053
:101CE00020490000444800004361706163697479D1
:101CF0003A202564204D42004D6F756E74696E6701
:101D000020766F6C756D652E2E2E0000C8000020A9
:101D10004D6F756E74206661696C65642E000000FD
:101D20000D0A204C697374696E672064697265637B
:101D3000746F72793A202F002F000000F802002003
:101D40004469726563746F7279206C697374696E2B
:101D500067206661696C65642100000044697265F2
:101D600063746F72792072656164206661696C6565
:101D7000642E00002020203C4449523E2020202593
:101D80007300000025396C752020257300000000C9
:101D900057726974696E6720746F2066696C65207C
:101DA0004E4F524449432E5458542E2E2E000000BC
:101DB0004E4F524449432E5458540000556E6162B0
:101DC0006C6520746F206F70656E206F7220637277
:101DD000656174652066696C653A204E4F524449CE
:101DE000432E5458542E00005344206361726420E3
:101DF0006578616D706C652E000000005772697423
:101E000065206661696C65640D0A2E002564206298
:101E100079746573207772697474656E2E000000A2
:101E20002DE9FF41002790460E460F6000F0E8F9CB
:101E3000050003D50B2004B0BDE8F081884850F8B8
:101E400025409CB13460207808F0FE0620B160780F
:101E5000FFF788FBC1070BD02770E8B2B846607067
:101E6000FFF7C4FAC10708D00320E4E70C20E2E73B
:101E70000EB1400704D40020DDE71EB1400701D5B4
:101E80000A20D8E7002631462046FFF799F80228B5
:101E900022D100254FEA0D0704EB051090F8F2114E
:101EA00000F5F77019B1083000F06BFA00E000207F
:101EB00047F825006D1C042DEED3002557F825604A
:101EC00036B131462046FFF77BF8022801D203E005
:101ED00003206D1C042DF1D3042809D002286DD2F3
:101EE00004F13B0000F058FAB0F5007F66D101E044
:101EF0000120A0E704F1460000F04EFA18B904F101
:101F0000540000F03EFAA06194F84050A570012DF5
:101F100001D0022D52D1454394F83D006081E8B3D1
:101F2000411E08424AD104F1410000F035FA2081F7
:101F3000000743D104F1430000F02EFA070004D15A
:101F400004F1500000F01DFA074604F13E0000F0D5
:101F500023FA010032D02389481900EB131297426B
:101F60002CD3B81A6789B0FBF7F0B8B103274FF646
:101F7000F57C604500D8022740F6F57C604500D826
:101F80000127801C3244A26231446061C4E90761C8
:101F9000032F15D013B12944616200E00EE0022F37
:101FA0001FD000F0010100EB400001EB500000BF2A
:101FB000A16900F2FF10B1EB502F14D20D203AE7C7
:101FC00004F15A0000F0E8F90028F7D12089002830
:101FD000F4D104F15C0000F0D4F960626069800023
:101FE000E6E74000E4E74FF0FF302061E06080204A
:101FF0002071032F2CD104F1600000F0CDF90128ED
:1020000026D1711C204600F0B5FA08BB84F8048084
:1020100004F22E2000F0C0F9A0F52A41553917D15D
:1020200004F1300000F0ADF90E49884210D104F5FA
:10203000057000F0A6F90C49884209D104F5067034
:1020400000F09FF9206104F5077000F09AF9E06054
:1020500003492770091F0888401C0880E0800AE7B0
:102060001C000020525261417272416173B50446F6
:102070000568019801E0401C019001782F29FAD0F1
:102080005C29F8D00021A16001980078202806D2B0
:10209000802084F82B002046FFF767F97CBD01A95A
:1020A0002046FFF723F80028F8D12046FFF77EF8F6
:1020B00094F82B1028B10428F0D14907EED405205C
:1020C0007CBD4907FCD4A079C006F8D5208AC0F3AE
:1020D000080041192846303100F040F9A060DEE7E1
:1020E0002DE9F04104680D4602290BD36069A8422E
:1020F00008D920784FF0FF36012807D002282BD0CE
:10210000032839D001263046BDE8F081206A05EB6E
:10211000550700EB5721204600F02CFA0028F2D199
:10212000C7F3080020447F1C90F83080206A00EB41
:102130005721204600F01EFA0028E4D1C7F308001A
:10214000204490F8301048EA0120E90701D0060940
:10215000D9E7C0F30B06D6E7206A00EB152120462D
:1021600000F008FA0028CED1E8B204EB400030308D
:1021700000F012F90646C6E7206A00EBD5112046AA
:1021800000F0F8F90028BED140F2FF1000EA850007
:102190002044303000F0F5F820F07046B3E72DE928
:1021A000F041002305464B7280690C46002825D07B
:1021B00000210A462E26E869805C521C20280AD09D
:1021C000052800D1E520092A02D16718491C7E7232
:1021D0006718491C78720B2AEDD360184372E869BE
:1021E000C07A2072E8691C3000F0CBF82060E86902
:1021F000163000F0C6F8E080000CA080BDE8F08149
:1022000010B504464FF0FF302268002A13D0114663
:1022100000E0491C0B78212B0ED33A2BF9D112F890
:10222000013B303B0A2B06D28A4204D1002B02D15B
:10223000491C1846216010BD002010BD2DE9FC5F2F
:102240000E008346DDE90C47C6F100009846924631
:10225000814600D40846012503E000BF90FBFAF058
:102260006D1C5045FADAA84500D9454624B1002E28
:1022700001DB780700D5641EB80702D5B8F1000F5E
:102280000AD0F80708D13CB1A54205D22021584612
:10229000641EFEF765FEF6E7002E02DA4E462D219B
:1022A00002E0780703D52B215846FEF759FE07F0C8
:1022B000030002280BD1B8F1000F08D13CB1A542B0
:1022C00005D230215846641EFEF74AFEF6E7CDE9F6
:1022D0000047434652463146584602F03FFABDE8B1
:1022E000FC9F000070B50E460446007918494FF473
:1022F000A27501EB4010017F2068A1B14FF48871F5
:1023000001F049F94FF49071206801F044F94FF45D
:102310009271206801F03FF92946206801F03BF9ED
:102320000C49206809E04FF48E7101F023F9294629
:10233000206801F01FF908492068C0F804132068DC
:1023400000F0B6F93146BDE8704000F095B90000E4
:10235000A4050020100302008000020070B50646AC
:102360000D4601F11A0000F017F8044630780328F2
:1023700005D105F1140000F00FF844EA00442046AE
:1023800070BDC178827842EA01214278007842EA41
:10239000012140EA012070474178007840EA01209D
:1023A0007047000070B588B0214800F0FCF8204864
:1023B000001F064600F0F7F81E4DD5E9014105E083
:1023C000C0F3891202EB9050641C044404EA01003B
:1023D00005EB8000C0688207F2D000200DF10802F2
:1023E00004EA010305EB8303641CDB6842F8203038
:1023F000401C0228F4D3029800F00300012808D002
:1024000002280AD10298032101EB905004EB9004BA
:1024100003E00298C0F3831004443046002101AA6F
:10242000FDF75FFF002800D06C6008B070BD0000B1
:10243000900B002078070020FEF742FD002000F0FE
:102440006BFF08B1FEF7A8FA00F0FCFD114803216C
:10245000008801EB004010A100F0F4FE00F02CF920
:10246000182000F0BDFC172000F0BAFC162000F088
:10247000B7FC4FF0A0404FF08071C0F8081549102C
:10248000C0F808154910C0F80815FFF753FB20BF26
:10249000FDE70000BC00002046415446532065780B
:1024A000616D706C652E0000002A05D011F8013BAB
:1024B00000F8013B521EF9D1704700005FFA81F12C
:1024C00000F8011B521EFBD170472DE9F047C78869
:1024D0000446181D16468946B0FBF7F1B0FBF7F22B
:1024E00007FB12009A193A44D21CB2FBF7F2DDF84E
:1024F00020A001E02468491E0029FBD13D1A88462E
:10250000B54216D818E0BAF1000F05D0211809EB32
:1025100008002A46091D04E0204409EB08012A4668
:10252000001DFDF729FF00202468761BA844B74250
:1025300001D9354600E03D46002EE4D1BDE8F087E4
:1025400030B5024669B100F015FF0021084C0BE0E0
:1025500001EB410304EB830315685B88AB4202D1B6
:102560001160002030BD491C8142F1D3052030BDEF
:102570008C00002070B50446C06A0D460026A842B3
:102580000FD0204601F06CFF06000AD160780123CD
:102590002A4604F13001FEF7A7FF08B1751E012697
:1025A000E562304670BD08B501216A46FDF78CFE34
:1025B000009808BD70B5044600252846FEF7FEFACF
:1025C00021686268086890420ED9401E0860017850
:1025D000238AE26801FB0325227A2168101AC0B21F
:1025E0000A79824200D208710020FEF7E9FA2846F3
:1025F00070BD70B505460C460020FEF7DFFAE868AE
:10260000298A201AB0FBF1F12A681068431C136074
:102610000170BDE870400020FEF7D2BA10B530B1AD
:10262000017A42680368891AC9B21A6006E00E206E
:1026300010BD03681A68541C1C601170491EC9B291
:10264000F7D2006800210171084610BDC20800F0F1
:1026500007030120895C98400840704703681B69A4
:10266000184700F01F02012191404009800000F14D
:10267000E020C0F8801170474907090E002806DAEB
:1026800000F00F0202F1E02282F8141D03E000F1D5
:10269000E02282F8001400F01F020121914040095D
:1026A000800000F1E020C0F88012C0F800117047EF
:1026B000000B40B27047000070B5144D95F85400FF
:1026C00008B1082070BD0020411E2A18401CC0B26D
:1026D00082F830102028F8D300242046FEF75AFC58
:1026E000641CE4B20C2CF8D307210620FFF7C4FFCA
:1026F0004FF4BE7000F0CEFB05494FF00040C1F82A
:102700000403012085F85400002070BDC40500209A
:10271000006000400121B1EB507F01D101207047E2
:10272000002070470121B1EB507F01D1012070479B
:10273000002070472DE9FC5F804640790C4600EB95
:10274000C001454800EB8107387F10B10820BDE883
:10275000FC9FC7E90023207B4FF0A04B4FF00109FD
:10276000012805D8227809FA02F0CBF80C0502E01E
:10277000207800F062FB4FF0000ACDF800A0CDF801
:1027800004A0207853465246012100F0E1FA657812
:102790004FF0FF36FF2D07D009FA05F0CBF80C05F6
:1027A000284600F025FB00E03546A078FF2809D038
:1027B000002206460323CDF800A01146CDF804A060
:1027C00000F0C6FAE078FF2804D000F036FBE0788D
:1027D00000F00EFB98F80500E17800EBC0021E48FF
:1027E00000EB82008177D8F800002178C0F8081546
:1027F000C0F80C55C0F81065A168C0F82415227BFC
:10280000617B01B10121012A04D0022A05D0032AEB
:1028100008D105E041F0020104E041F0040101E0CB
:1028200041F00601C0F854156179C0F8C015396847
:1028300011B14021C0F804130721C0F80015386811
:1028400020B1217998F90400FFF716FF504687F868
:102850001DA087F81C907AE7800500201FB5069C14
:1028600000918DF8042002938DF80C4000226946F7
:1028700000F036F804B010BDF8B54179174A01EB05
:10288000C10102EB81050122296859B190F90410B8
:1028900001F01F0302FA03F34909890001F1E02165
:1028A000C1F8803104682868002670B1701EC4F831
:1028B0000803687F48B162614FF482773946204649
:1028C00000F04EFE0028F9D06E77C4F81861D4F8F5
:1028D00018010090C4F800652E77F8BD800500202F
:1028E000F0B40D4613464179144A01EBC10102EBE5
:1028F00081014A7F12B1F0BC112070470C6801229F
:102900001CB113F0140F00D14A7795E8D0100C31A8
:1029100081E8D01011F8154F24F0070401F821497F
:102920008C7FFF2C04D04FF0A046A240C6F80C25A7
:1029300000682A46F0BC01F08DBC00008005002034
:102940002DE9F04105460079164F904607EB4014FB
:102950000E46E07E10B10820BDE8F081707F207740
:102960002846FEF741F95FEA08006060316921609E
:1029700003D0317F2846FFF7B5FC287907EB4010DC
:10298000007F0028286801D0082100E00421C0F859
:1029900000150020E0752076A0750121E176A07673
:1029A000DAE70000A40500202DE9F047054600798C
:1029B0003F4E904606EB40140F46207F18B1084664
:1029C000FFF7B0FE30B1284600F074F820B11120B6
:1029D000BDE8F0871020FBE784F81680A760002789
:1029E000A78228794FF0010806EB40143E46207F6D
:1029F0000028286825D04FF49079494600F0CBFD97
:102A00004FF4AC7A5146286800F0C5FD2868A17DD6
:102A1000A268C0F84425C0F848152868C0F80880A6
:102A20006068F0B94946286800F0B0FD804651461C
:102A3000286800F0ABFD58EA0001F3D058BBA77539
:102A40000FE04FF48E7A514600F094FD2868C0F8EC
:102A500008802146286801F02CFD61684FF48070E1
:102A600089B13046B4E75146286800F07EFD10B9C0
:102A7000A08A4845F7D1A08A484505D02146286854
:102A800001F017FD00E08146A08AA17D8842EAD3CB
:102A9000A08A484501D10F26D1E75146286800F0A9
:102AA00064FD0028F9D02868C0F80C80C7E7000052
:102AB000A40500200079044901EB4010807D002826
:102AC00000D0012070470000A405002070B5044626
:102AD00000791149002601EB401520682A7FC0F8D3
:102AE0000065686888B1207901EB4010007F0028FC
:102AF000206801D0094901E008498C39C0F8081361
:102B00002068FFF7D5FDFFF7ACFD204600F04AFD39
:102B1000EE766E6070BD0000A40500201003020078
:102B20000FB408B50399002904D004AA00926A469C
:102B300000F00FF801B05DF814FB10B58268044690
:102B4000002A05D0D4E90403216898470020A0603A
:102B500010BD2DE9FC4791460C00804676D014F854
:102B6000011B39B125290ED04046FEF7F9F920782E
:102B70000028F4D198F80C00002867D04046BDE842
:102B8000FC47FFF7DABF0020012221782B291BD058
:102B90002D2902D0302908D102E040F0010001E0E7
:102BA00040F00200641C002AEFD100252A290ED033
:102BB0002178A1F130020A2A11D205EB850201EB3E
:102BC0004205641C303DF1E740F00400EAE7D9F823
:102BD00000100B1DC9F800300968641C0D442178F1
:102BE00000232E290BD114F8011FA1F130020A2A6B
:102BF00005D203EB830201EB4203303BF3E76C2980
:102C00000DD068290BD0692921D00BDC252918D0DB
:102C1000582931D063290ED0642915D117E014F852
:102C2000011FECE7702969D0732932D075291BD0B8
:102C3000782909D120E0D9F80000011DC9F8001059
:102C400001784046FEF78CF9641C90E76CE0D9F8F7
:102C500000100A1DC9F800200968CDE900500A22B9
:102C60004046FFF7EBFAEFE7D9F800100A1DC9F864
:102C7000002009680A2206E0D9F800100A1DC9F8E8
:102C8000002009681022CDE90050404601F066FDA1
:102C9000DAE7D9F8001000270A1DC9F800200E68ED
:102CA000C00705D112E04046761C7F1CFEF758F99C
:102CB00031780029F7D104E0202140466D1EFEF74F
:102CC0004FF9BD42C0D9002DF6D1BDE74EB1304617
:102CD000FDF776FB074604E0202140466D1EFEF717
:102CE0003FF9BD4206D9002DF6D103E04046761CDF
:102CF000FEF736F931780029F8D1A5E7D9F80000B8
:102D0000011DC9F80010056830214046FEF728F97A
:102D100078214046FEF724F908200021CDE9000182
:102D2000034610222946B0E7BDE8FC8770B541EAAA
:102D30004201DDE904564FF0A04441EA830141EA33
:102D4000052104EB800041EA0641C0F8001770BD80
:102D500070B541EA4201DDE904564FF0A04441EA72
:102D6000830141EA052104EB800041EA0641C0F8F5
:102D7000001770BD70B541EA4201DDE904564FF01D
:102D8000A04441EA830141EA052104EB800041EAC5
:102D90000641C0F8001770BD70B541EA4201DDE997
:102DA00004564FF0A04441EA830141EA052104EBB7
:102DB000800041EA0641C0F8001770BD1CB5002133
:102DC00000910B4601220191FFF7D4FF1CBD1CB5F9
:102DD00000220B46009211460192FFF7CBFF1CBD6B
:102DE0004FF0A04202EB80000321C0F800177047AB
:102DF0001CB5002100910B46012201911146FFF7FD
:102E0000A7FF1CBD1CB5002100910B4601220191BA
:102E10001146FFF7AFFF1CBD4FF0A04202EB800050
:102E2000D0F8002722F44032C0F80027D0F800275D
:102E300042EA0141C0F8001770474FF0A04201215B
:102E40008140C2F8081570474FF0A042012181402F
:102E5000C2F80815704701224FF0A043824011B11B
:102E6000C3F808257047C3F80C25704718B5084B00
:102E70006C4601441B68009306E000BF54F8203004
:102E8000D3F81035401C08C28142F7D818BD0000A5
:102E900004490000034908B50844002101600068A6
:102EA000009008BD0060004002494058012800D051
:102EB000002070470060004030B5124B01460020F2
:102EC000D3F81044224609E0157A854205D1401C0A
:102ED0000A28F7DB4FF0FF3030BD5268002AF3D1EB
:102EE000421CF9D00872D3F810242AB152684A6003
:102EF000D3F81024516030BD0022C3F810144A608A
:102F000030BD000078070020F0B595B01C4615468E
:102F10000F4608461A9E00F0FDFA182109A8FDF791
:102F200044FA0E96CDE909540023082203A9384635
:102F300000F00AFB059806900498ADF81C000020EC
:102F40008DF820000398082600F00300012802D025
:102F500002281DD03CE003983346850AC0F3C20026
:102F60008DF81E0003980FA9C0F380008DF81F0094
:102F70000398C0F38314A200384600F0E5FA09A8CC
:102F8000009006AB22460FA9284600F01FFA1FE06A
:102F90000398840DC0F3C2008DF81E000398C0F39F
:102FA00080008DF81F00082C01D2254600E008257E
:102FB00033462A460FA9384600F0C6FA2E44641B51
:102FC00009AB06AA29460FA800F050F9002CEAD157
:102FD000384600F0A8FA15B0F0BD7047002001F0A7
:102FE0008DBA000010B50448FFF770FDBDE8104031
:102FF000002001F083BA00003000002008B5034A29
:1030000000924023024AFFF77FFF08BD65400000A1
:10301000780600200A4A012902EBC00007D00229E5
:1030200007D0032907D0042907D0002070470220C9
:10303000704704207047007970474079704700005E
:10304000144B000010B5FFF7C9FF04210348FFF738
:1030500033FF02490120487210BD000038000020F3
:103060002DE9FE4FFDF78CFF10B10020BDE8FE8F6B
:1030700072480021C0F81814BFF34F8FD0E9014601
:1030800004EA060100EB81014FF000090AE000BFED
:10309000C1F3891202EB9151641C0C4404EA06014D
:1030A00000EB8101C9688A07F2D000216A46804698
:1030B00004EA060008EB8000641CC06842F82100A6
:1030C000491C43460229F3D3009800F0030002286C
:1030D00006D0012800984FD0C04380077ED0A8E0DA
:1030E00000985022810D8A46B2EB905F00D85021A3
:1030F0000D4665F39F5000900831514800F0C1F92A
:1031000007006CD000F006FA4B46082269463846A4
:1031100000F020FA04EA0600311A8900091D09F1BD
:10312000080B8D4221D9454E0C3631B1CAB208EB9D
:103130008000691A91460C3004E03046EAB200265D
:1031400091463146CDB201465B46384600F002FA60
:103150000BEB090326B12A463146384600F0FAF94E
:103160000AF1030004EB90043BE008EB80015B46AE
:103170002A4638460C31F1E7C0F38310062800D305
:103180000620009960F38911C1F38310801C00911F
:1031900081002B4800F075F907004AD000F0BAF919
:1031A0004B4608226946384600F0D4F909F108096F
:1031B00000250DE004EA060008EB80014B460422DE
:1031C00038460C31641C00F0C5F909F104096D1C86
:1031D0000098C0F38310A842ECD801E00BE028E08F
:1031E0003FB3D8F81054D8F81804464690B1384682
:1031F00000F099F91DE0D3F8180400283FF436AF29
:1032000017E0687A012804D12A68284639461268EE
:1032100090476D68002DF4D1384600F084F9002005
:10322000FDF7CCFCD6F8180400B974600020FDF757
:10323000C7FCFDF7A5FE80F0010017E77807002026
:10324000BC49000000231A4601F07EB808B50123EE
:1032500000926A4601F078F808BD1CB5CDE900235C
:1032600002236A4601F070F81CBD00002DE9F0470A
:103270000E4680461C46924608293ED894F80C908B
:10328000002020731946104600F0E6F90025B542EB
:1032900006D218F805201AA12046FFF741FC03E0EA
:1032A00019A12046FFF73CFC6D1C082DEFD317A198
:1032B0002046FFF735FC0025B54210D218F80570FE
:1032C000FDF756F80068C05D10F03E0F01D03A4699
:1032D00000E02E220EA12046FFF722FC03E00DA104
:1032E0002046FFF71DFC6D1C082DE5D30122214669
:1032F000504600F093F984F80C90BDE8F087000088
:103300002025303278000000202020007C000000C2
:103310002563000020000000114810B5FF218160E6
:10332000002101604160C0F81814C0F81414012194
:1033300080F81C140B4800F0F4F800280ED10A485D
:103340000A490B4B401AC108002004E000EB400280
:1033500023F82200401C8842F8D3002010BD000052
:1033600078070020BC4900003C4B0000144B0000D3
:103370008C00002002480349401AC0087047000032
:103380003C4B0000144B000013B56846FFF7D8F81B
:1033900008B100201CBD0248009950F831001CBD46
:1033A000144B000070B508480125D0F8104480F88F
:1033B0001C5405E0657221682046496888476468A6
:1033C000002CF7D170BD0000780700202DE9FF47E1
:1033D00081460C9D00200C462F7B2873984616468C
:1033E0002946184600F038F9072E42D2DFE806F0E9
:1033F00004090F161F2A360049462846FFF790FB9E
:1034000037E0494628462268FFF78AFB31E0D4E9D5
:10341000002349462846FFF783FB2AE0A068009076
:10342000D4E9002349462846FFF77AFB21E0D4E996
:103430000201CDE90001D4E9002349462846FFF7FF
:103440006FFB16E004F1080007C88DE80700D4E917
:10345000002349462846FFF763FB0AE004F1080011
:103460000FC88DE80F00D4E9002349462846FFF72E
:1034700057FB00222946404600F0D0F82F73BDE8E4
:10348000FF872DE9F041058A80462D1F4819C01C91
:10349000B0FBF5F0C6B24046FFF78CF8041E19D019
:1034A0000020207101206071E58000272546761EEE
:1034B000C4F800800BE04046FFF77CF860B161790A
:1034C000491C6171286005467F1CC0F80080B74226
:1034D000F1D32046BDE8F081204600F002F800203C
:1034E000F8E72DE9F041457901466B1E002201E025
:1034F0000968521C9A42FBD30F680146002605E07A
:1035000038460C68FFF775F82146761CAE42F7D3B3
:10351000BDE8F08108B501216A46001DFCF7ADFE4B
:1035200008BDFFF77BB838B50446001D01216A4687
:10353000FCF7B0FE009810F0FF0F04D12046BDE864
:103540003840FFF7CEBF38BD38B501240094FEF7F0
:10355000BCFF38BD38B500240094FEF7B6FF38BD77
:103560004058002800D0012070474058002800D063
:103570000120704708B5002242504058009008BD15
:10358000D0F80403084000D00120704740580028BC
:1035900000D00120704708B50022425040580090EA
:1035A00008BD000070B5034600791B4901EB4010CF
:1035B0001968027F4FF0FF30002AD1F80C25D1F8AE
:1035C0001465D1F80855D1F8104504D0C1F80C05A0
:1035D000C1F8140503E0C1F81405C1F80C05196819
:1035E000C1F80805C1F81005501C02D01046FFF7BD
:1035F000E5FB701C02D03046FFF7E0FB601C02D0F8
:103600002046FFF7DBFB681C04D02846BDE870406D
:10361000FFF7D4BB70BD0000A405002010B50C4618
:10362000C17949B11AB109A12046FFF779FA2046BC
:10363000BDE81040FFF781BA007A0028F3D00448B3
:1036400004A102682046FFF76BFAECE70D0A0000C0
:10365000680000202573000070B50446C0790D464F
:1036600000281CD1207A50B1A179A088FFF7D2FCA4
:103670000B4951F820200BA12846FFF751FAA088EA
:103680000021FFF781FE03460549A079143951F85E
:1036900020202846BDE8704003A1FFF741BA70BD65
:1036A00068000020257300003C25733E2025733AF6
:1036B000200000002DE9F047022617460D4604467B
:1036C000022969D36069A84266D920784FF00109C0
:1036D000012804D0022836D003285DD143E0216AB6
:1036E00005EB550801EB58212046FEF743FF060085
:1036F00052D1C8F308002044303008F10108E9072E
:1037000004D00178FAB262F31F1100E0394601706B
:1037100084F80390216A204601EB5821FEF72AFF26
:10372000060039D1C8F3080020443030E90702D040
:10373000C7F3071105E00178C7F3032201F0F00198
:103740001143017026E0206A00EB15212046FEF7A8
:1037500011FF060020D1E8B204EB4000B9B23030CE
:1037600000F0EDFD16E0206A00EBD5112046FEF7D3
:1037700001FF060010D140F2FF1000EA850020444E
:1037800030300546FEF7FDFD67F31B000146284675
:1037900000F0CDFD84F803903046BDE8F0872DE9B8
:1037A000F041056813460E46074602292DD3686985
:1037B000B0422AD93BB14FF0FF3219462846FFF7F5
:1037C00079FF00281FD131463846FEF789FC0400F6
:1037D00018D0012C19D0601C19D00022314628467F
:1037E000FFF768FF00280ED1D5E90410821E914230
:1037F00005D2491C2961297941F001012971264628
:10380000B042E0D80020BDE8F0810220FBE70120B3
:10381000F9E770B50546C87D0C4600284FF4847161
:1038200028460AD0FFF7A6FED5F81805627EE168A3
:103830008854607E401C607670BDFFF79BFED5F813
:10384000180570BD1FB501238DF800308DF80810E4
:103850000192D0E90012684690471FBD2DE9F04162
:103860002B4B93F8234014B11120BDE8F0810125C2
:10387000002783F82350040612D5022483F823403E
:10388000772483F82840002483F8294083F82A40CD
:1038900083F82B40062783F82C40FF2483F82D4023
:1038A000DC1900F07F0684F828600E0E84F8296089
:1038B0000E0C84F82A600E0A84F82B6084F82C1011
:1038C000402810D0482810D05FF0FF0184F82D1058
:1038D0000521022A0BD0032A09D083F824500006C0
:1038E00008D5012008E09521F0E78721EEE783F86D
:1038F0002410F4E793F82400054A0E30C3B238329E
:103900000621A2F1100000F08FFB0020ADE70000BF
:103910001C060020FEB5214E0546407830707768C1
:103920002978BC6949B11E4801291CD002292FD031
:10393000BDE8FE400320FDF72FB8FDF7A9F80068A9
:1039400020604FF4007060607068806980680028B3
:103950001DD00020009001900290687800B10120F5
:103960008DF801000DE0A168002910D007C88DE88E
:103970000700687800B101208DF8010004F10C0007
:103980000190A0690290A268694638469047FEBD42
:10399000A1680029FBD00C30E8E7000024000020DB
:1039A000384900002DE9F84FA44C1746D0F8012003
:1039B000264612BA037922F0FF02B6F820C042EA86
:1039C000030E8A46A38B06F1480596F80AB00178E3
:1039D0004FF40D7804220CF1010C00261FFA8CF92B
:1039E00043456ED020DC40F20F25A3F20F2CAB42F2
:1039F0003CD00EDC4FF4037773B3BB4228D10122D5
:103A000000214020FFF72AFF08B1FCF7C5FFA5837E
:103A10006DE08A48BCF1060F807A20F0070035D0AF
:103A2000BCF1130F14D14DE040F25D2CA3F25D28E0
:103A3000634577D006DCA3F50073493B79D0062BAC
:103A400006D185E0B8F10A0F6ED0B8F10F0F6CD037
:103A5000A6830320BDE8F88F012200214020FFF754
:103A6000FDFE08B1FCF798FFA78340E0880801D06D
:103A70003A70BBE003224FF4D5714820FFF7EEFE09
:103A800008B1FCF789FF40F2152015E04B0703D47D
:103A9000C01CA0728808EBD12684A07A00F0070031
:103AA00003280BD000210222E920FFF7D7FE08B13E
:103AB000FCF772FF40F22220A08318E04FF0804113
:103AC000F1E716E04B0734D5401CA072A4F8209013
:103AD000B9F5FA6F01D9022079E0022200214120D4
:103AE000FFF7BCFE08B1FCF757FFA4F81C800120CB
:103AF000B0E78808BCD1C807E8D131E0A4F820902D
:103B0000B9F5FA6FE7D80BF0070003280ED00021B3
:103B10000222E920FFF7A2FE08B1FCF73DFF40F2C8
:103B20004920C9E72CE004E03AE044E04FF080414E
:103B3000EEE788089CD1C807E0D1022200217A2054
:103B4000FFF78CFE08B1FCF727FF40F24F20B3E7E8
:103B500088088DD15FEA4E0002D54BF00800A072B4
:103B6000A07A00F0070003280CD001225102502057
:103B7000FFF774FE08B1FCF70FFF40F25D209BE7F2
:103B8000880888D10120E560A082024600214920F2
:103B9000FFF764FE08B1FCF7FFFE40F267208BE7F9
:103BA0008908A7D1AAF1010101F0FF0AE6834FF4C9
:103BB0001B71A183401C6B461022514600F080F817
:103BC000022801D2002045E79DF8000008B13870B6
:103BD0000CE0287880090CD0012823D0022808D0D6
:103BE000304660604FF4007020813E70A683022052
:103BF00030E7287AE979800900EB8100A979AA7A6F
:103C000001F0030100EB81206B7A6979D20903F09E
:103C1000030301F00F0102EB43021144401CC91FD2
:103C20008840DEE7287A0102E87901EB0040697AF2
:103C30000844800200F58060D3E700001C060020E5
:103C4000F8B51E4C16464FF42573A28B002542B1E1
:103C50009A4210D0A2F500729E3A2AD0A583032082
:103C6000F8BD0278920801D0042010E0491EE583D7
:103C7000C9B2A383401C6B464FF4007200F020F8D9
:103C8000022801D20020F8BD9DF8000008B1307074
:103C900010E0A08A01280CD9012200214C20FFF756
:103CA000DDFD08B1FCF778FE40F29E20A0830120E4
:103CB000F8BD3570A5830220F8BD00001C06002069
:103CC0002DE9F05F554C9A461646E38B254605F1E3
:103CD000380240F2D51B2835A3F2D51C4FF000095D
:103CE0005B4560D005DC7BB1A3F58073C33B06D197
:103CF00055E0BCF1070F7AD0BCF1130F76D0A4F8D1
:103D00001E900320BDE8F09FA38AE38270E000BF0D
:103D1000A4F8209084F82870A4F81890032384F85D
:103D20002330238C44F620675B1C9BB22384BB4268
:103D300004D902210AE0491EC9B2401C59B10378D6
:103D4000FF2BF8D0DBB2FE2B0FD005218AF8001034
:103D5000A4F81E9060E010230121284600F064F9C9
:103D600040F2C310E0830120CCE7491E0423C9B20E
:103D7000401C84F82330B14201D9374600E00F4699
:103D8000002306E0D4F80C8010F803C008F803C044
:103D90005B1CBB42F6D32783E3683B44E36094F8A3
:103DA0002330032BBDD0208BB04213D2301A86B201
:103DB000F02E00D9F026F3B201212846E26800F087
:103DC00033F9E0683044E060208B30442083A4F86D
:103DD0001EB0C8E7E08A0223401EE0820121284687
:103DE00000F022F94FF4EE70BCE700E00EE0002195
:103DF000E38AFF27002B8BD184F82870022301214E
:103E0000284600F011F94FF4F470ABE784F82390E2
:103E10008AF80090A4F81E90022073E71C06002088
:103E20002DE9F05F7F4C164623460746B4F81C8008
:103E300003F1380203F1280093F823909D8A0023B0
:103E40004FF0040A4FF0020E4FF0030C44F6206BC3
:103E5000B8F53A7F74D00EDCB8F1000F1AD0A8F58F
:103E60000078B8F1BF082ED0B8F1100F55D0B8F1D6
:103E7000210F0BD151E0A8F50078B8F583786ED00A
:103E8000B8F1160F6CD0B8F1260F6AD0A3830320C7
:103E9000BDE8F09F3978890803D000BF86F800A0FC
:103EA000ABE0A17A01F0070101290FD0012D0DD956
:103EB000012259202169FFF7D1FC08B1FCF76CFD04
:103EC00040F2BF2016E039788908E7D1E5826FE03B
:103ED000238384F823A084F82810012D01D9FC2124
:103EE00000E0FE2184F829100223194600F09CF816
:103EF00040F2CF20A0836EE0C3F5007085B2F02DB4
:103F000000D9F025C818E9B2012300F08DF8208B04
:103F1000284420834FF43870ECE74249238BC9686A
:103F2000B3F5007FE8D301F50071E16084F823C0A8
:103F30000323012100F078F84FF43A70DAE7FFE745
:103F400094F83A1001F01F01052906D00B2901D081
:103F50000D29A3D1052030704FE0238422E011E029
:103F60003BE04DE0218C491C89B22184594502D99E
:103F700086F800E041E01023012100F055F840F2FE
:103F80000630B7E74FF0000C0AE000BF17F80C80CE
:103F9000B8F1000F02D084F8233006E00CF1010CD8
:103FA0008C45F3D3B9F1030FDCD0E18A491EE182DD
:103FB000E78AFF21002F8BD1012D31D984F82810F9
:103FC000FD2184F82910032302211C3400F02CF871
:103FD0004FF44770208001205AE7238484F823C0DF
:103FE000218C491C89B221845945C1D81023012153
:103FF00000F01AF84FF44B707CE7A383022047E7E8
:10400000002508E017F805C0BCF1000F02D084F8C5
:10401000233005E06D1C8D42F4D3B9F1030FDFD0DE
:104020003370EAE71C060020F8B50C460B494FF048
:10403000A04691F858500121A940C6F80C150093EC
:104040001346014622460648FEF708FC002803D026
:10405000BDE8F840FCF7A0BCF8BD00001C0600203D
:104060000849000010B5084C0020D2B22070201D75
:10407000FEF79AFC08B1FCF78FFC6078002802D0AC
:1040800021780029FAD010BD2C0000202DE9F04F36
:10409000DFF8BC810746057CC468B8F8160087B015
:1040A00018B998F85800FEF7CFFE98F823000026BC
:1040B0004FF0020B4FF003094FF0010A022801D024
:1040C00001284BD17968AD1FA41D0978EDB24C29A8
:1040D00003D15DB16D1EEDB2641C1DB12278FF2AC3
:1040E000F8D005E04C2901D0002402E00125641E2F
:1040F0005CBB98F82210012927D08DF801A098F810
:1041000022105046012907D0022905D004290DD0DC
:1041100005290ED0032006E08DF8006088F8229073
:10412000FCF728FD38B1FCF737FC04E08DF80000FF
:1041300001E08DF800B098F85800FEF785FE88F889
:1041400022906846D8F8001066E0022804D188F86A
:1041500023A02078400814D088F8236006208DF82A
:104160000C0098F82200012817D0022819D0042842
:1041700039D0052852D00320FCF70EFC07B0BDE86B
:10418000F08F98F82400324A0E30C3B2383206213C
:10419000A2F10A00FFF748FFF0E788F822B0A8F87C
:1041A0001C6003AA29462046FFF7FCFB0228E5D342
:1041B0008DF808609DF80C008DF8090088F82290B1
:1041C00098F85800FEF740FE9DF80C0020B1FCF76F
:1041D000D1FC08B1FCF7E0FB4FF040214FF08040EC
:1041E000C1F8240515E003AA29462046FFF728FD5B
:1041F0000228C3D38DF808A09DF80C008DF80900A3
:1042000088F82290A8F81460A8F8166088F823604F
:1042100019E0D8F8001002A88847AFE703AA29469A
:104220002046FFF7FDFD0228A8D38DF808B09DF8C1
:104230000C008DF8090088F8229088F82360A8F80F
:104240001460A8F8166098F85800FEF7FDFDE0E746
:104250001C0600202DE9F843044610681E4615464A
:104260000F464FF0000810B1FEF754FAF8B1A868F5
:1042700010B1FEF74FFAD0B128792968C4F8441577
:10428000C4F84805287BA968C4F83415C4F8380573
:104290004FF48C754046C4F81881D4F81811009179
:1042A000F2074FF0010107D0C4F8501506E087F877
:1042B0001D801020BDE8F883C4F85005B20702D570
:1042C000C4F8401501E0C4F84005300700D421616E
:1042D000386848B146F38000401C4FF040000FD0D2
:1042E000C4F804030020E5E729462046FFF738F923
:1042F0000028F9D0B87FFF28F4D0FEF79EFDF1E743
:10430000C4F80803EEE770B50C460646154691B2B0
:1043100004F11A0000F013F83078032806D1290CB4
:1043200004F11400BDE8704000F009B870BD0170E0
:10433000090A4170090A8170090AC1707047017049
:10434000090A4170704700002DE9F843214C884666
:10435000054691461F4669461846A668FCF7D0FDFB
:1043600070B30098811C00220AE000BF01EA060C2D
:1043700059F8223004EB8C0C491C521CCCF80C3040
:10438000BA42F3D30246401C304004EB80002B0CB1
:10439000C36002EA060004EB8002E80652F80C0F44
:1043A00002D540F0040001E020F0040065F3C500F0
:1043B00067F3891068F39F2020F00300401C106011
:1043C00094F81C0402E000BFFEF74AFE0028FBD16F
:1043D000BDE8F8837807002070B5044600F040F887
:1043E000050036D1207803282CD12079012829D145
:1043F000420204F1300000210646FEF75FF84AF65B
:10440000552104F22E20FFF79AFF13493046FFF79B
:104410008EFF124904F50570FFF789FF04F5067059
:104420002169FFF784FF04F50770E168FFF77FFF5C
:10443000E2690123521CE26260783146FDF7A2F87E
:1044400000202071002260781146FDF70FF800B1BE
:104450000125284670BD00005252614172724161CF
:104460002DE9F0410446C0780027F8B1E56A04F16F
:104470003001607801232A468846FDF783F808B1A9
:10448000012713E00020E070206AA169281A884201
:104490000CD2A67808E0A0690123054460782A467A
:1044A0004146FDF76FF8761E022EF4D23846BDE87D
:1044B000F08170B50C4605464FF48E71FFF75AF83F
:1044C000A18AA068415CA08A401CA082C5F81C1586
:1044D00070BD1FB500228DF800208DF8081081688E
:1044E00001918275D0E90012684690471FBD000017
:1044F00001490120087070472C00002010B588B0D9
:10450000044620220E496846FBF736FF062000903D
:10451000C01F0190029003904FF0EB7006900CB119
:10452000084A00E0002269460748FEF709FA08B188
:10453000FCF732FA0448001F447008B010BD0000B8
:104540009C490000F1440000300000202DE9FF47A5
:104550000C4605464FF40071FFF712F801274FF49F
:104560000178002618B34FF4927949462846FEF7A1
:10457000FCFFE0B149462846FEF7FCFFC5F808837A
:10458000A07E00B96F6002208DF80000D5F880048D
:10459000C5F880040390E07D8DF80800E068019084
:1045A000E6752676D4E900126846904727E0042194
:1045B0002846FEF7E5FF10B34FF484712846FEF756
:1045C000D4FFE0B121462846FFF723F9E07D617E64
:1045D000884214D1207E38B1617EE268E07520699E
:1045E000E0602676667607E0A07E00B96F60C5F8C9
:1045F0000883E675617EE2682046FFF723F94FF4F1
:104600008E7841462846FEF7B0FF88B1A08AA17D8A
:10461000884204D221462846FFF74BFF08E0414676
:104620002846FEF7A7FFA17D11B12046FFF751FFF5
:104630004FF4A27841462846FEF797FF002812D093
:1046400041462846FEF796FFA07E00B12F60E07D30
:10465000002808D0E675617EE26804B02046BDE817
:10466000F047FFF7EFB8BDE8FF872DE9FF410C46A3
:104670004FF4927705463946FEF788FF0026C0B111
:1046800039462846FEF787FF02208DF80000D5F84E
:104690008004C5F880040390D5F83C058DF8080027
:1046A000E0680190E6752676D4E9001268469047E6
:1046B00024E04FF4887739462846FEF767FFE8B1D3
:1046C00039462846FEF767FFD5F83C05C1B2E07DC4
:1046D000884213D1207E60B1E268D5F8000220F054
:1046E0002000C5F80002207EE0752069E060267693
:1046F00001E0E675E2682046FFF7A4F84FF4A277E0
:1047000039462846FEF742FF68B139462846FEF78B
:1047100042FFE07D38B1E675D5F83C05E268C1B2EC
:104720002046FFF78FF84FF4907631462846FEF783
:104730002DFF00280FD031462846FEF72CFFA07D24
:10474000002808D0D5F84C0504B0C1B22046BDE819
:10475000F041FFF7BEBEBDE8FF8100002DE9F05F2C
:104760008346DDE90A4A994690460D4608460127E8
:1047700003E000BFB0FBF8F07F1C4045FAD2B9451A
:1047800000D94F465FEACA7012D18CB15FEA8A70D5
:1047900002D5B9F1000F01D0202607E0302605E050
:1047A00031465846641EFCF7DBFB0CB1A742F7D339
:1047B0005FF00106B9F1010F02D9A9F1010903E087
:1047C000B5FBF6F0404502D306FB08F6F2E7DFF84A
:1047D0003C9000BFB5FBF6F000FB165519F8001031
:1047E0005846FCF7BDFBB6FBF8F6002EF2D15FEAA7
:1047F000CA7009D0002C07D0A74205D22021584604
:10480000641EFCF7ADFBF5E7BDE8F09F80490000B2
:1048100070B50D4604000CD0206850B1017841B14C
:10482000C188A288914204D14078FCF79BFEC00762
:1048300003D000202860092070BD20682860002077
:1048400070BD000020490000644A0000604A00007A
:10485000584A000000020000080A09076405002009
:10486000111213140D0E0F10809A45418E418F8046
:104870004545454949498E8F9092924F994F5555DC
:1048800059999A9B9C9D9E9F41494F55A5A5A6A7C6
:10489000A8A9AAABACADAEAFB0B1B2B3B4B5B6B720
:1048A000B8B9BABBBCBDBEBFC0C1C2C3C4C5C6C710
:1048B000C8C9CACBCCCDCECFD0D1D2D3D4D5D6D700
:1048C000D8D9DADBDCDDDEDFE0E1E2E3E4E5E6E7F0
:1048D000E8E9EAEBECEDEEEFF0F1F2F3F4F5F6F7E0
:1048E000F8F9FAFBFCFDFEFF010004001000400097
:1048F0000001000200000100020004000800100096
:1049000020000000000000500040004004000100B2
:10491000000000FF07FF000000000004000000008E
:10492000D10C0000E10D0000650D0000350E000007
:10493000450D0000CD0C000002000000000000004A
:104940000000000003000000000000000000000064
:104950000001000000000000000000000100000055
:104960000000000000000000020100000000000044
:104970000000000002010000000000000000000034
:104980003031323334353637383941424344454685
:10499000FD2F0000E52F0000DB2F0000FFFFFFFFD1
:1049A000FFFFFFFFFFFFFFFFFFFFFFFF0000000013
:1049B000000000000000D601070100004C000020AC
:1049C000440000204C000020B80600201800000021
:1049D0000040404040404040404041414141414012
:1049E00040404040404040404040404040404040C7
:1049F0004005020202020202020202020202020256
:104A0000022020202020202020202002020202025A
:104A100002029090909090901010101010101010B2
:104A200010101010101010101010101002020202BE
:104A30000202888888888888080808080808080802
:104A400008080808080808080808080802020202FE
:104A500040000000D1490000312E3030000000003D
:104A6000534443004E6F7264696300007761726E55
:104A7000696E670064656275670000001B5B313B0F
:104A800033306D001B5B306D000000001B5B313B61
:104A900033316D001B5B313B33326D001B5B313BAF
:104AA00033336D001B5B313B33346D001B5B313B9B
:104AB00033356D001B5B313B33366D001B5B313B87
:104AC00033376D00696E666F000000006572726FAB
:104AD000720000007370690075617274000000005C
:104AE0006770696F7465000062616C6C6F630000D1
:104AF000617070003C4B000000000020C800000006
:104B000000090000044C0000C8000020D02A00006A
:104B100010090000D44A000000000000D84A00003C
:104B200000000000E04A000000000000E84A000029
:104B300000000000F04A00000000030044480000AC
:104B400000000000000100000090D0030000000001
:104B50000000000000000000000000000000000055
:104B600000000000000000000000000000200040E5
:104B7000000000009049000000000000000000005C
:104B80000000000000000000000000000000000025
:104B900000000000CC4A00006C4A0000C44A00003B
:104BA000744A0000844A00007C4A00008C4A0000DD
:104BB000944A00009C4A0000A44A0000AC4A00004D
:104BC000B44A0000BC4A00000000000000000000E1
:104BD00000000000000000000000000000000000D5
:104BE00000000000000000000000000000000000C5
:104BF00000000000000000000000000000000000B5
:044C000000000000B0
:0400000500000201F4
:00000001FF
